Component: Arm Compiler for Embedded 6.19 Tool: armlink [5e73cb00]

==============================================================================

Section Cross References

    startup_stm32f407xx.o(STACK) refers (Special) to heapauxi.o(.text) for __use_two_region_memory
    startup_stm32f407xx.o(HEAP) refers (Special) to heapauxi.o(.text) for __use_two_region_memory
    startup_stm32f407xx.o(RESET) refers (Special) to heapauxi.o(.text) for __use_two_region_memory
    startup_stm32f407xx.o(RESET) refers to startup_stm32f407xx.o(STACK) for __initial_sp
    startup_stm32f407xx.o(RESET) refers to startup_stm32f407xx.o(.text) for Reset_Handler
    startup_stm32f407xx.o(RESET) refers to stm32f4xx_it.o(.text.NMI_Handler) for NMI_Handler
    startup_stm32f407xx.o(RESET) refers to stm32f4xx_it.o(.text.HardFault_Handler) for HardFault_Handler
    startup_stm32f407xx.o(RESET) refers to stm32f4xx_it.o(.text.MemManage_Handler) for MemManage_Handler
    startup_stm32f407xx.o(RESET) refers to stm32f4xx_it.o(.text.BusFault_Handler) for BusFault_Handler
    startup_stm32f407xx.o(RESET) refers to stm32f4xx_it.o(.text.UsageFault_Handler) for UsageFault_Handler
    startup_stm32f407xx.o(RESET) refers to stm32f4xx_it.o(.text.SVC_Handler) for SVC_Handler
    startup_stm32f407xx.o(RESET) refers to stm32f4xx_it.o(.text.DebugMon_Handler) for DebugMon_Handler
    startup_stm32f407xx.o(RESET) refers to stm32f4xx_it.o(.text.PendSV_Handler) for PendSV_Handler
    startup_stm32f407xx.o(RESET) refers to stm32f4xx_it.o(.text.SysTick_Handler) for SysTick_Handler
    startup_stm32f407xx.o(RESET) refers to usart.o(.text.USART1_IRQHandler) for USART1_IRQHandler
    startup_stm32f407xx.o(.text) refers (Special) to heapauxi.o(.text) for __use_two_region_memory
    startup_stm32f407xx.o(.text) refers to system_stm32f4xx.o(.text.SystemInit) for SystemInit
    startup_stm32f407xx.o(.text) refers to __main.o(!!!main) for __main
==============================================================================

Removing Unused input sections from the image.

    Removing main.o(.text), (0 bytes).
    Removing main.o(.ARM.exidx.text.show_mesg), (8 bytes).
    Removing main.o(.ARM.exidx.text.main), (8 bytes).
    Removing stm32f4xx_it.o(.text), (0 bytes).
    Removing stm32f4xx_it.o(.ARM.exidx.text.NMI_Handler), (8 bytes).
    Removing stm32f4xx_it.o(.ARM.exidx.text.HardFault_Handler), (8 bytes).
    Removing stm32f4xx_it.o(.ARM.exidx.text.MemManage_Handler), (8 bytes).
    Removing stm32f4xx_it.o(.ARM.exidx.text.BusFault_Handler), (8 bytes).
    Removing stm32f4xx_it.o(.ARM.exidx.text.UsageFault_Handler), (8 bytes).
    Removing stm32f4xx_it.o(.ARM.exidx.text.SVC_Handler), (8 bytes).
    Removing stm32f4xx_it.o(.ARM.exidx.text.DebugMon_Handler), (8 bytes).
    Removing stm32f4xx_it.o(.ARM.exidx.text.PendSV_Handler), (8 bytes).
    Removing stm32f4xx_it.o(.ARM.exidx.text.SysTick_Handler), (8 bytes).
    Removing system_stm32f4xx.o(.text), (0 bytes).
    Removing system_stm32f4xx.o(.ARM.exidx.text.SystemInit), (8 bytes).
    Removing system_stm32f4xx.o(.text.SystemCoreClockUpdate), (134 bytes).
    Removing system_stm32f4xx.o(.ARM.exidx.text.SystemCoreClockUpdate), (8 bytes).
    Removing demo.o(.text), (0 bytes).
==============================================================================

Image Symbol Table

    Local Symbols

    Symbol Name                              Value     Ov Type        Size  Object(Section)

    ../../Drivers/CMSIS/Device/ST/STM32F4xx/Source/Templates/arm/startup_stm32f407xx.s 0x00000000   Number         0  startup_stm32f407xx.o ABSOLUTE
    ../clib/angel/boardlib.s                 0x00000000   Number         0  boardinit1.o ABSOLUTE
    ../clib/angel/boardlib.s                 0x00000000   Number         0  boardinit2.o ABSOLUTE
    ../clib/angel/boardlib.s                 0x00000000   Number         0  boardinit3.o ABSOLUTE
    ../clib/angel/boardlib.s                 0x00000000   Number         0  boardshut.o ABSOLUTE
    ../clib/angel/dczerorl.s                 0x00000000   Number         0  __dczerorl.o ABSOLUTE
    ../clib/angel/handlers.s                 0x00000000   Number         0  __scatter_zi.o ABSOLUTE
    ../clib/angel/kernel.s                   0x00000000   Number         0  __rtentry.o ABSOLUTE
    ../clib/angel/kernel.s                   0x00000000   Number         0  __rtentry2.o ABSOLUTE
    ../clib/angel/kernel.s                   0x00000000   Number         0  __rtentry4.o ABSOLUTE
    ../clib/angel/kernel.s                   0x00000000   Number         0  rtexit.o ABSOLUTE
    ../clib/angel/kernel.s                   0x00000000   Number         0  rtexit2.o ABSOLUTE
    ../clib/angel/rt.s                       0x00000000   Number         0  aeabi_ldiv0.o ABSOLUTE
    ../clib/angel/rt.s                       0x00000000   Number         0  aeabi_ldiv0_sigfpe.o ABSOLUTE
    ../clib/angel/rt.s                       0x00000000   Number         0  rt_div0.o ABSOLUTE
    ../clib/angel/rt.s                       0x00000000   Number         0  rt_raise.o ABSOLUTE
    ../clib/angel/scatter.s                  0x00000000   Number         0  __scatter.o ABSOLUTE
    ../clib/angel/startup.s                  0x00000000   Number         0  __main.o ABSOLUTE
    ../clib/angel/sys.s                      0x00000000   Number         0  use_no_semi_2.o ABSOLUTE
    ../clib/angel/sys.s                      0x00000000   Number         0  use_no_semi.o ABSOLUTE
    ../clib/angel/sys.s                      0x00000000   Number         0  sys_stackheap_outer.o ABSOLUTE
    ../clib/angel/sys.s                      0x00000000   Number         0  libspace.o ABSOLUTE
    ../clib/armsys.c                         0x00000000   Number         0  argv_veneer.o ABSOLUTE
    ../clib/armsys.c                         0x00000000   Number         0  argv_veneer.o ABSOLUTE
    ../clib/armsys.c                         0x00000000   Number         0  _get_argv_nomalloc.o ABSOLUTE
    ../clib/armsys.c                         0x00000000   Number         0  no_argv.o ABSOLUTE
    ../clib/heapalloc.c                      0x00000000   Number         0  hrguard.o ABSOLUTE
    ../clib/heapaux.c                        0x00000000   Number         0  heapauxi.o ABSOLUTE
    ../clib/libinit.s                        0x00000000   Number         0  libinit.o ABSOLUTE
    ../clib/libinit.s                        0x00000000   Number         0  libinit2.o ABSOLUTE
    ../clib/libinit.s                        0x00000000   Number         0  libshutdown.o ABSOLUTE
    ../clib/libinit.s                        0x00000000   Number         0  libshutdown2.o ABSOLUTE
    ../clib/longlong.s                       0x00000000   Number         0  lludivv7m.o ABSOLUTE
    ../clib/memcpset.s                       0x00000000   Number         0  rt_memcpy_v6.o ABSOLUTE
    ../clib/memcpset.s                       0x00000000   Number         0  rt_memcpy_w.o ABSOLUTE
    ../clib/memcpset.s                       0x00000000   Number         0  rt_memclr_w.o ABSOLUTE
    ../clib/printf.c                         0x00000000   Number         0  __2printf.o ABSOLUTE
    ../clib/printf.c                         0x00000000   Number         0  noretval__2printf.o ABSOLUTE
    ../clib/printf.c                         0x00000000   Number         0  __printf.o ABSOLUTE
    ../clib/printf.c                         0x00000000   Number         0  _printf_dec.o ABSOLUTE
    ../clib/printf.c                         0x00000000   Number         0  _printf_hex_ll.o ABSOLUTE
    ../clib/printf.c                         0x00000000   Number         0  _printf_hex_int.o ABSOLUTE
    ../clib/printf.c                         0x00000000   Number         0  _printf_hex_int_ll.o ABSOLUTE
    ../clib/printf.c                         0x00000000   Number         0  _printf_hex_ptr.o ABSOLUTE
    ../clib/printf.c                         0x00000000   Number         0  _printf_hex_int_ptr.o ABSOLUTE
    ../clib/printf.c                         0x00000000   Number         0  _printf_hex_ll_ptr.o ABSOLUTE
    ../clib/printf.c                         0x00000000   Number         0  _printf_hex_int_ll_ptr.o ABSOLUTE
    ../clib/printf.c                         0x00000000   Number         0  __printf_flags.o ABSOLUTE
    ../clib/printf.c                         0x00000000   Number         0  __printf_ss.o ABSOLUTE
    ../clib/printf.c                         0x00000000   Number         0  __printf_flags_ss.o ABSOLUTE
    ../clib/printf.c                         0x00000000   Number         0  __printf_wp.o ABSOLUTE
    ../clib/printf.c                         0x00000000   Number         0  __printf_flags_wp.o ABSOLUTE
    ../clib/printf.c                         0x00000000   Number         0  __printf_ss_wp.o ABSOLUTE
    ../clib/printf.c                         0x00000000   Number         0  __printf_flags_ss_wp.o ABSOLUTE
    ../clib/printf.c                         0x00000000   Number         0  _printf_intcommon.o ABSOLUTE
    ../clib/printf.c                         0x00000000   Number         0  _printf_char_file.o ABSOLUTE
    ../clib/printf.c                         0x00000000   Number         0  _printf_char_common.o ABSOLUTE
    ../clib/printf.c                         0x00000000   Number         0  __printf_nopercent.o ABSOLUTE
    ../clib/printf_percent.s                 0x00000000   Number         0  _printf_x.o ABSOLUTE
    ../clib/printf_percent.s                 0x00000000   Number         0  _printf_d.o ABSOLUTE
    ../clib/printf_percent.s                 0x00000000   Number         0  _printf_percent.o ABSOLUTE
    ../clib/printf_percent.s                 0x00000000   Number         0  _printf_percent_end.o ABSOLUTE
    ../clib/signal.c                         0x00000000   Number         0  defsig_fpe_outer.o ABSOLUTE
    ../clib/signal.c                         0x00000000   Number         0  defsig_fpe_formal.o ABSOLUTE
    ../clib/signal.c                         0x00000000   Number         0  defsig_exit.o ABSOLUTE
    ../clib/signal.c                         0x00000000   Number         0  defsig_fpe_inner.o ABSOLUTE
    ../clib/signal.c                         0x00000000   Number         0  __raise.o ABSOLUTE
    ../clib/signal.c                         0x00000000   Number         0  defsig_general.o ABSOLUTE
    ../clib/signal.c                         0x00000000   Number         0  defsig_abrt_inner.o ABSOLUTE
    ../clib/signal.c                         0x00000000   Number         0  defsig_rtred_inner.o ABSOLUTE
    ../clib/signal.c                         0x00000000   Number         0  defsig_rtmem_inner.o ABSOLUTE
    ../clib/signal.c                         0x00000000   Number         0  defsig_rtmem_outer.o ABSOLUTE
    ../clib/signal.c                         0x00000000   Number         0  defsig_rtmem_formal.o ABSOLUTE
    ../clib/signal.c                         0x00000000   Number         0  defsig_stak_inner.o ABSOLUTE
    ../clib/signal.c                         0x00000000   Number         0  defsig_pvfn_inner.o ABSOLUTE
    ../clib/signal.c                         0x00000000   Number         0  defsig_cppl_inner.o ABSOLUTE
    ../clib/signal.c                         0x00000000   Number         0  defsig_segv_inner.o ABSOLUTE
    ../clib/signal.c                         0x00000000   Number         0  defsig_other.o ABSOLUTE
    ../clib/signal.s                         0x00000000   Number         0  defsig.o ABSOLUTE
    ../clib/stdio.c                          0x00000000   Number         0  putchar.o ABSOLUTE
    ../clib/stdio.c                          0x00000000   Number         0  puts.o ABSOLUTE
    ../clib/stdio.c                          0x00000000   Number         0  ferror.o ABSOLUTE
    ../clib/stdio.c                          0x00000000   Number         0  ferror_locked.o ABSOLUTE
    ../clib/stdlib.c                         0x00000000   Number         0  exit.o ABSOLUTE
    ../clib/string.c                         0x00000000   Number         0  strcpy.o ABSOLUTE
    ../fplib/dfix.s                          0x00000000   Number         0  dfix.o ABSOLUTE
    ../fplib/dflt.s                          0x00000000   Number         0  dflt_clz.o ABSOLUTE
    ../fplib/dmul.s                          0x00000000   Number         0  dmul.o ABSOLUTE
    ../fplib/dnaninf.s                       0x00000000   Number         0  dnaninf.o ABSOLUTE
    ../fplib/dretinf.s                       0x00000000   Number         0  dretinf.o ABSOLUTE
    ../fplib/fpinit.s                        0x00000000   Number         0  fpinit.o ABSOLUTE
    ../fplib/usenofp.s                       0x00000000   Number         0  usenofp.o ABSOLUTE
    atk_ms53l0.c                             0x00000000   Number         0  atk_ms53l0.o ABSOLUTE
    atk_ms53l0_iic.c                         0x00000000   Number         0  atk_ms53l0_iic.o ABSOLUTE
    dc.s                                     0x00000000   Number         0  dc.o ABSOLUTE
    delay.c                                  0x00000000   Number         0  delay.o ABSOLUTE
    demo.c                                   0x00000000   Number         0  demo.o ABSOLUTE
    key.c                                    0x00000000   Number         0  key.o ABSOLUTE
    lcd.c                                    0x00000000   Number         0  lcd.o ABSOLUTE
    led.c                                    0x00000000   Number         0  led.o ABSOLUTE
    main.c                                   0x00000000   Number         0  main.o ABSOLUTE
    stm32f4xx_hal.c                          0x00000000   Number         0  stm32f4xx_hal.o ABSOLUTE
    stm32f4xx_hal_cortex.c                   0x00000000   Number         0  stm32f4xx_hal_cortex.o ABSOLUTE
    stm32f4xx_hal_dma.c                      0x00000000   Number         0  stm32f4xx_hal_dma.o ABSOLUTE
    stm32f4xx_hal_dma_ex.c                   0x00000000   Number         0  stm32f4xx_hal_dma_ex.o ABSOLUTE
    stm32f4xx_hal_flash.c                    0x00000000   Number         0  stm32f4xx_hal_flash.o ABSOLUTE
    stm32f4xx_hal_flash_ex.c                 0x00000000   Number         0  stm32f4xx_hal_flash_ex.o ABSOLUTE
    stm32f4xx_hal_gpio.c                     0x00000000   Number         0  stm32f4xx_hal_gpio.o ABSOLUTE
    stm32f4xx_hal_pwr.c                      0x00000000   Number         0  stm32f4xx_hal_pwr.o ABSOLUTE
    stm32f4xx_hal_pwr_ex.c                   0x00000000   Number         0  stm32f4xx_hal_pwr_ex.o ABSOLUTE
    stm32f4xx_hal_rcc.c                      0x00000000   Number         0  stm32f4xx_hal_rcc.o ABSOLUTE
    stm32f4xx_hal_rcc_ex.c                   0x00000000   Number         0  stm32f4xx_hal_rcc_ex.o ABSOLUTE
    stm32f4xx_hal_sram.c                     0x00000000   Number         0  stm32f4xx_hal_sram.o ABSOLUTE
    stm32f4xx_hal_tim.c                      0x00000000   Number         0  stm32f4xx_hal_tim.o ABSOLUTE
    stm32f4xx_hal_tim_ex.c                   0x00000000   Number         0  stm32f4xx_hal_tim_ex.o ABSOLUTE
    stm32f4xx_hal_uart.c                     0x00000000   Number         0  stm32f4xx_hal_uart.o ABSOLUTE
    stm32f4xx_hal_usart.c                    0x00000000   Number         0  stm32f4xx_hal_usart.o ABSOLUTE
    stm32f4xx_it.c                           0x00000000   Number         0  stm32f4xx_it.o ABSOLUTE
    stm32f4xx_ll_fsmc.c                      0x00000000   Number         0  stm32f4xx_ll_fsmc.o ABSOLUTE
    sys.c                                    0x00000000   Number         0  sys.o ABSOLUTE
    system_stm32f4xx.c                       0x00000000   Number         0  system_stm32f4xx.o ABSOLUTE
    usart.c                                  0x00000000   Number         0  usart.o ABSOLUTE
    vl53l0x_api.c                            0x00000000   Number         0  vl53l0x_api.o ABSOLUTE
    vl53l0x_api_calibration.c                0x00000000   Number         0  vl53l0x_api_calibration.o ABSOLUTE
    vl53l0x_api_core.c                       0x00000000   Number         0  vl53l0x_api_core.o ABSOLUTE
    vl53l0x_api_ranging.c                    0x00000000   Number         0  vl53l0x_api_ranging.o ABSOLUTE
    vl53l0x_api_strings.c                    0x00000000   Number         0  vl53l0x_api_strings.o ABSOLUTE
    vl53l0x_i2c_platform.c                   0x00000000   Number         0  vl53l0x_i2c_platform.o ABSOLUTE
    vl53l0x_platform.c                       0x00000000   Number         0  vl53l0x_platform.o ABSOLUTE
    RESET                                    0x08000000   Section      392  startup_stm32f407xx.o(RESET)
    !!!main                                  0x08000188   Section        8  __main.o(!!!main)
    !!!scatter                               0x08000190   Section       52  __scatter.o(!!!scatter)
    !!dczerorl                               0x080001c4   Section       58  __dczerorl.o(!!dczerorl)
    !!handler_zi                             0x08000200   Section       28  __scatter_zi.o(!!handler_zi)
    .ARM.Collect$$_printf_percent$$00000000  0x0800021c   Section        0  _printf_percent.o(.ARM.Collect$$_printf_percent$$00000000)
    .ARM.Collect$$_printf_percent$$00000009  0x0800021c   Section        6  _printf_d.o(.ARM.Collect$$_printf_percent$$00000009)
    .ARM.Collect$$_printf_percent$$0000000C  0x08000222   Section        6  _printf_x.o(.ARM.Collect$$_printf_percent$$0000000C)
    .ARM.Collect$$_printf_percent$$00000017  0x08000228   Section        4  _printf_percent_end.o(.ARM.Collect$$_printf_percent$$00000017)
    .ARM.Collect$$libinit$$00000000          0x0800022c   Section        2  libinit.o(.ARM.Collect$$libinit$$00000000)
    .ARM.Collect$$libinit$$00000001          0x0800022e   Section        4  libinit2.o(.ARM.Collect$$libinit$$00000001)
    .ARM.Collect$$libinit$$00000004          0x08000232   Section        0  libinit2.o(.ARM.Collect$$libinit$$00000004)
    .ARM.Collect$$libinit$$00000006          0x08000232   Section        0  libinit2.o(.ARM.Collect$$libinit$$00000006)
    .ARM.Collect$$libinit$$0000000C          0x08000232   Section        0  libinit2.o(.ARM.Collect$$libinit$$0000000C)
    .ARM.Collect$$libinit$$0000000E          0x08000232   Section        0  libinit2.o(.ARM.Collect$$libinit$$0000000E)
    .ARM.Collect$$libinit$$00000010          0x08000232   Section        0  libinit2.o(.ARM.Collect$$libinit$$00000010)
    .ARM.Collect$$libinit$$00000013          0x08000232   Section        0  libinit2.o(.ARM.Collect$$libinit$$00000013)
    .ARM.Collect$$libinit$$00000015          0x08000232   Section        0  libinit2.o(.ARM.Collect$$libinit$$00000015)
    .ARM.Collect$$libinit$$00000017          0x08000232   Section        0  libinit2.o(.ARM.Collect$$libinit$$00000017)
    .ARM.Collect$$libinit$$00000019          0x08000232   Section        0  libinit2.o(.ARM.Collect$$libinit$$00000019)
    .ARM.Collect$$libinit$$0000001B          0x08000232   Section        0  libinit2.o(.ARM.Collect$$libinit$$0000001B)
    .ARM.Collect$$libinit$$0000001D          0x08000232   Section        0  libinit2.o(.ARM.Collect$$libinit$$0000001D)
    .ARM.Collect$$libinit$$0000001F          0x08000232   Section        0  libinit2.o(.ARM.Collect$$libinit$$0000001F)
    .ARM.Collect$$libinit$$00000021          0x08000232   Section        0  libinit2.o(.ARM.Collect$$libinit$$00000021)
    .ARM.Collect$$libinit$$00000023          0x08000232   Section        0  libinit2.o(.ARM.Collect$$libinit$$00000023)
    .ARM.Collect$$libinit$$00000025          0x08000232   Section        0  libinit2.o(.ARM.Collect$$libinit$$00000025)
    .ARM.Collect$$libinit$$00000027          0x08000232   Section        0  libinit2.o(.ARM.Collect$$libinit$$00000027)
    .ARM.Collect$$libinit$$0000002E          0x08000232   Section        0  libinit2.o(.ARM.Collect$$libinit$$0000002E)
    .ARM.Collect$$libinit$$00000030          0x08000232   Section        0  libinit2.o(.ARM.Collect$$libinit$$00000030)
    .ARM.Collect$$libinit$$00000032          0x08000232   Section        0  libinit2.o(.ARM.Collect$$libinit$$00000032)
    .ARM.Collect$$libinit$$00000034          0x08000232   Section        0  libinit2.o(.ARM.Collect$$libinit$$00000034)
    .ARM.Collect$$libinit$$00000035          0x08000232   Section        2  libinit2.o(.ARM.Collect$$libinit$$00000035)
    .ARM.Collect$$libshutdown$$00000000      0x08000234   Section        2  libshutdown.o(.ARM.Collect$$libshutdown$$00000000)
    .ARM.Collect$$libshutdown$$00000002      0x08000236   Section        0  libshutdown2.o(.ARM.Collect$$libshutdown$$00000002)
    .ARM.Collect$$libshutdown$$00000004      0x08000236   Section        0  libshutdown2.o(.ARM.Collect$$libshutdown$$00000004)
    .ARM.Collect$$libshutdown$$00000007      0x08000236   Section        0  libshutdown2.o(.ARM.Collect$$libshutdown$$00000007)
    .ARM.Collect$$libshutdown$$0000000A      0x08000236   Section        0  libshutdown2.o(.ARM.Collect$$libshutdown$$0000000A)
    .ARM.Collect$$libshutdown$$0000000C      0x08000236   Section        0  libshutdown2.o(.ARM.Collect$$libshutdown$$0000000C)
    .ARM.Collect$$libshutdown$$0000000F      0x08000236   Section        0  libshutdown2.o(.ARM.Collect$$libshutdown$$0000000F)
    .ARM.Collect$$libshutdown$$00000010      0x08000236   Section        2  libshutdown2.o(.ARM.Collect$$libshutdown$$00000010)
    .ARM.Collect$$rtentry$$00000000          0x08000238   Section        0  __rtentry.o(.ARM.Collect$$rtentry$$00000000)
    .ARM.Collect$$rtentry$$00000002          0x08000238   Section        0  __rtentry2.o(.ARM.Collect$$rtentry$$00000002)
    .ARM.Collect$$rtentry$$00000004          0x08000238   Section        6  __rtentry4.o(.ARM.Collect$$rtentry$$00000004)
    .ARM.Collect$$rtentry$$00000009          0x0800023e   Section        0  __rtentry2.o(.ARM.Collect$$rtentry$$00000009)
    .ARM.Collect$$rtentry$$0000000A          0x0800023e   Section        4  __rtentry2.o(.ARM.Collect$$rtentry$$0000000A)
    .ARM.Collect$$rtentry$$0000000C          0x08000242   Section        0  __rtentry2.o(.ARM.Collect$$rtentry$$0000000C)
    .ARM.Collect$$rtentry$$0000000D          0x08000242   Section        8  __rtentry2.o(.ARM.Collect$$rtentry$$0000000D)
    .ARM.Collect$$rtexit$$00000000           0x0800024a   Section        2  rtexit.o(.ARM.Collect$$rtexit$$00000000)
    .ARM.Collect$$rtexit$$00000002           0x0800024c   Section        0  rtexit2.o(.ARM.Collect$$rtexit$$00000002)
    .ARM.Collect$$rtexit$$00000003           0x0800024c   Section        4  rtexit2.o(.ARM.Collect$$rtexit$$00000003)
    .ARM.Collect$$rtexit$$00000004           0x08000250   Section        6  rtexit2.o(.ARM.Collect$$rtexit$$00000004)
    $v0                                      0x08000258   Number         0  startup_stm32f407xx.o(.text)
    .text                                    0x08000258   Section       76  startup_stm32f407xx.o(.text)
    .text                                    0x080002a4   Section        2  use_no_semi_2.o(.text)
    .text                                    0x080002a6   Section      240  lludivv7m.o(.text)
    .text                                    0x08000398   Section        0  noretval__2printf.o(.text)
    .text                                    0x080003b0   Section        0  __printf.o(.text)
    .text                                    0x08000418   Section        0  _printf_dec.o(.text)
    .text                                    0x08000490   Section        0  _printf_hex_int.o(.text)
    .text                                    0x080004e8   Section        0  putchar.o(.text)
    .text                                    0x080004f4   Section        0  puts.o(.text)
    .text                                    0x08000520   Section        0  strcpy.o(.text)
    .text                                    0x08000568   Section      138  rt_memcpy_v6.o(.text)
    .text                                    0x080005f2   Section      100  rt_memcpy_w.o(.text)
    .text                                    0x08000656   Section       78  rt_memclr_w.o(.text)
    .text                                    0x080006a4   Section        0  heapauxi.o(.text)
    .text                                    0x080006aa   Section        2  use_no_semi.o(.text)
    .text                                    0x080006ac   Section        0  _printf_intcommon.o(.text)
    .text                                    0x08000760   Section        0  _printf_char_file.o(.text)
    _printf_input_char                       0x08000785   Thumb Code    10  _printf_char_common.o(.text)
    .text                                    0x08000784   Section        0  _printf_char_common.o(.text)
    .text                                    0x080007b4   Section        0  ferror.o(.text)
    .text                                    0x080007bc   Section       74  sys_stackheap_outer.o(.text)
    .text                                    0x08000806   Section        0  exit.o(.text)
    .text                                    0x08000818   Section        8  libspace.o(.text)
    [Anonymous Symbol]                       0x08000820   Section        0  stm32f4xx_it.o(.text.BusFault_Handler)
    [Anonymous Symbol]                       0x08000824   Section        0  stm32f4xx_it.o(.text.DebugMon_Handler)
    [Anonymous Symbol]                       0x08000828   Section        0  stm32f4xx_ll_fsmc.o(.text.FSMC_NORSRAM_Extended_Timing_Init)
    [Anonymous Symbol]                       0x0800086c   Section        0  stm32f4xx_ll_fsmc.o(.text.FSMC_NORSRAM_Init)
    [Anonymous Symbol]                       0x080008cc   Section        0  stm32f4xx_ll_fsmc.o(.text.FSMC_NORSRAM_Timing_Init)
    [Anonymous Symbol]                       0x08000910   Section        0  stm32f4xx_hal_dma.o(.text.HAL_DMA_Abort)
    [Anonymous Symbol]                       0x0800099c   Section        0  stm32f4xx_hal_dma.o(.text.HAL_DMA_Abort_IT)
    [Anonymous Symbol]                       0x080009c0   Section        0  stm32f4xx_hal_gpio.o(.text.HAL_GPIO_Init)
    [Anonymous Symbol]                       0x08000b5c   Section        0  stm32f4xx_hal_gpio.o(.text.HAL_GPIO_ReadPin)
    [Anonymous Symbol]                       0x08000b68   Section        0  stm32f4xx_hal_gpio.o(.text.HAL_GPIO_TogglePin)
    [Anonymous Symbol]                       0x08000b78   Section        0  stm32f4xx_hal_gpio.o(.text.HAL_GPIO_WritePin)
    [Anonymous Symbol]                       0x08000b84   Section        0  stm32f4xx_hal.o(.text.HAL_GetREVID)
    [Anonymous Symbol]                       0x08000b94   Section        0  stm32f4xx_hal.o(.text.HAL_GetTick)
    [Anonymous Symbol]                       0x08000ba0   Section        0  stm32f4xx_hal.o(.text.HAL_IncTick)
    [Anonymous Symbol]                       0x08000bbc   Section        0  stm32f4xx_hal.o(.text.HAL_Init)
    [Anonymous Symbol]                       0x08000bec   Section        0  stm32f4xx_hal.o(.text.HAL_InitTick)
    [Anonymous Symbol]                       0x08000c3c   Section        0  stm32f4xx_hal.o(.text.HAL_MspInit)
    [Anonymous Symbol]                       0x08000c40   Section        0  stm32f4xx_hal_cortex.o(.text.HAL_NVIC_EnableIRQ)
    [Anonymous Symbol]                       0x08000c60   Section        0  stm32f4xx_hal_cortex.o(.text.HAL_NVIC_SetPriority)
    [Anonymous Symbol]                       0x08000cb8   Section        0  stm32f4xx_hal_cortex.o(.text.HAL_NVIC_SetPriorityGrouping)
    [Anonymous Symbol]                       0x08000cd8   Section        0  stm32f4xx_hal_rcc.o(.text.HAL_RCC_ClockConfig)
    [Anonymous Symbol]                       0x08000e38   Section        0  stm32f4xx_hal_rcc.o(.text.HAL_RCC_GetPCLK1Freq)
    [Anonymous Symbol]                       0x08000e60   Section        0  stm32f4xx_hal_rcc.o(.text.HAL_RCC_GetPCLK2Freq)
    [Anonymous Symbol]                       0x08000e88   Section        0  stm32f4xx_hal_rcc.o(.text.HAL_RCC_GetSysClockFreq)
    [Anonymous Symbol]                       0x08000ef4   Section        0  stm32f4xx_hal_rcc.o(.text.HAL_RCC_OscConfig)
    [Anonymous Symbol]                       0x08001238   Section        0  stm32f4xx_hal_sram.o(.text.HAL_SRAM_Init)
    [Anonymous Symbol]                       0x08001290   Section        0  lcd.o(.text.HAL_SRAM_MspInit)
    [Anonymous Symbol]                       0x08001314   Section        0  stm32f4xx_hal_cortex.o(.text.HAL_SYSTICK_CLKSourceConfig)
    [Anonymous Symbol]                       0x0800132c   Section        0  stm32f4xx_hal_cortex.o(.text.HAL_SYSTICK_Config)
    [Anonymous Symbol]                       0x08001358   Section        0  stm32f4xx_hal_uart.o(.text.HAL_UARTEx_RxEventCallback)
    [Anonymous Symbol]                       0x0800135c   Section        0  stm32f4xx_hal_uart.o(.text.HAL_UART_ErrorCallback)
    [Anonymous Symbol]                       0x08001360   Section        0  stm32f4xx_hal_uart.o(.text.HAL_UART_IRQHandler)
    [Anonymous Symbol]                       0x080015d0   Section        0  stm32f4xx_hal_uart.o(.text.HAL_UART_Init)
    [Anonymous Symbol]                       0x08001630   Section        0  usart.o(.text.HAL_UART_MspInit)
    [Anonymous Symbol]                       0x080016d0   Section        0  stm32f4xx_hal_uart.o(.text.HAL_UART_Receive_IT)
    [Anonymous Symbol]                       0x08001728   Section        0  usart.o(.text.HAL_UART_RxCpltCallback)
    [Anonymous Symbol]                       0x080017a8   Section        0  stm32f4xx_hal_uart.o(.text.HAL_UART_TxCpltCallback)
    [Anonymous Symbol]                       0x080017ac   Section        0  stm32f4xx_it.o(.text.HardFault_Handler)
    [Anonymous Symbol]                       0x080017b0   Section        0  stm32f4xx_it.o(.text.MemManage_Handler)
    [Anonymous Symbol]                       0x080017b4   Section        0  stm32f4xx_it.o(.text.NMI_Handler)
    [Anonymous Symbol]                       0x080017b8   Section        0  stm32f4xx_it.o(.text.PendSV_Handler)
    [Anonymous Symbol]                       0x080017bc   Section        0  stm32f4xx_it.o(.text.SVC_Handler)
    [Anonymous Symbol]                       0x080017c0   Section        0  stm32f4xx_it.o(.text.SysTick_Handler)
    [Anonymous Symbol]                       0x080017c4   Section        0  system_stm32f4xx.o(.text.SystemInit)
    UART_DMAAbortOnError                     0x080017d9   Thumb Code    12  stm32f4xx_hal_uart.o(.text.UART_DMAAbortOnError)
    [Anonymous Symbol]                       0x080017d8   Section        0  stm32f4xx_hal_uart.o(.text.UART_DMAAbortOnError)
    UART_Receive_IT                          0x080017e5   Thumb Code   158  stm32f4xx_hal_uart.o(.text.UART_Receive_IT)
    [Anonymous Symbol]                       0x080017e4   Section        0  stm32f4xx_hal_uart.o(.text.UART_Receive_IT)
    UART_SetConfig                           0x08001885   Thumb Code   234  stm32f4xx_hal_uart.o(.text.UART_SetConfig)
    [Anonymous Symbol]                       0x08001884   Section        0  stm32f4xx_hal_uart.o(.text.UART_SetConfig)
    [Anonymous Symbol]                       0x08001970   Section        0  usart.o(.text.USART1_IRQHandler)
    [Anonymous Symbol]                       0x0800197c   Section        0  stm32f4xx_it.o(.text.UsageFault_Handler)
    [Anonymous Symbol]                       0x08001980   Section        0  vl53l0x_api.o(.text.VL53L0X_CheckAndLoadInterruptSettings)
    [Anonymous Symbol]                       0x08001a70   Section        0  vl53l0x_api.o(.text.VL53L0X_ClearInterruptMask)
    [Anonymous Symbol]                       0x08001ac4   Section        0  vl53l0x_api.o(.text.VL53L0X_DataInit)
    [Anonymous Symbol]                       0x08001d58   Section        0  vl53l0x_api.o(.text.VL53L0X_GetDeviceParameters)
    [Anonymous Symbol]                       0x08001e78   Section        0  vl53l0x_api.o(.text.VL53L0X_GetLimitCheckEnable)
    [Anonymous Symbol]                       0x08001e90   Section        0  vl53l0x_api.o(.text.VL53L0X_GetLimitCheckValue)
    [Anonymous Symbol]                       0x08001f20   Section        0  vl53l0x_api.o(.text.VL53L0X_GetMeasurementDataReady)
    [Anonymous Symbol]                       0x08001f74   Section        0  vl53l0x_api.o(.text.VL53L0X_GetRangingMeasurementData)
    [Anonymous Symbol]                       0x08002084   Section        0  vl53l0x_api.o(.text.VL53L0X_GetSequenceStepEnables)
    [Anonymous Symbol]                       0x080020f8   Section        0  vl53l0x_api.o(.text.VL53L0X_GetVcselPulsePeriod)
    [Anonymous Symbol]                       0x080020fc   Section        0  vl53l0x_api.o(.text.VL53L0X_GetXTalkCompensationEnable)
    [Anonymous Symbol]                       0x08002104   Section        0  vl53l0x_api.o(.text.VL53L0X_PerformRefCalibration)
    [Anonymous Symbol]                       0x0800210c   Section        0  vl53l0x_api.o(.text.VL53L0X_PerformRefSpadManagement)
    [Anonymous Symbol]                       0x08002110   Section        0  vl53l0x_api.o(.text.VL53L0X_PerformSingleRangingMeasurement)
    [Anonymous Symbol]                       0x08002194   Section        0  vl53l0x_platform.o(.text.VL53L0X_PollingDelay)
    [Anonymous Symbol]                       0x08002198   Section        0  vl53l0x_platform.o(.text.VL53L0X_RdByte)
    [Anonymous Symbol]                       0x080021ac   Section        0  vl53l0x_platform.o(.text.VL53L0X_RdDWord)
    [Anonymous Symbol]                       0x080021c0   Section        0  vl53l0x_platform.o(.text.VL53L0X_RdWord)
    [Anonymous Symbol]                       0x080021d4   Section        0  vl53l0x_platform.o(.text.VL53L0X_ReadMulti)
    [Anonymous Symbol]                       0x080021f4   Section        0  vl53l0x_api.o(.text.VL53L0X_SetDeviceAddress)
    [Anonymous Symbol]                       0x080021fc   Section        0  vl53l0x_api.o(.text.VL53L0X_SetDeviceMode)
    [Anonymous Symbol]                       0x08002220   Section        0  vl53l0x_api.o(.text.VL53L0X_SetGpioConfig)
    [Anonymous Symbol]                       0x080023a8   Section        0  vl53l0x_api.o(.text.VL53L0X_SetMeasurementTimingBudgetMicroSeconds)
    [Anonymous Symbol]                       0x080023ac   Section        0  vl53l0x_api.o(.text.VL53L0X_StartMeasurement)
    [Anonymous Symbol]                       0x0800249c   Section        0  vl53l0x_api.o(.text.VL53L0X_StaticInit)
    [Anonymous Symbol]                       0x080026e4   Section        0  vl53l0x_platform.o(.text.VL53L0X_UpdateByte)
    [Anonymous Symbol]                       0x08002730   Section        0  vl53l0x_platform.o(.text.VL53L0X_WrByte)
    [Anonymous Symbol]                       0x08002744   Section        0  vl53l0x_platform.o(.text.VL53L0X_WrWord)
    [Anonymous Symbol]                       0x08002758   Section        0  vl53l0x_platform.o(.text.VL53L0X_WriteMulti)
    [Anonymous Symbol]                       0x08002778   Section        0  vl53l0x_api_core.o(.text.VL53L0X_calc_dmax)
    [Anonymous Symbol]                       0x08002840   Section        0  vl53l0x_api_core.o(.text.VL53L0X_calc_sigma_estimate)
    [Anonymous Symbol]                       0x08002b70   Section        0  vl53l0x_i2c_platform.o(.text.VL53L0X_comms_initialise)
    [Anonymous Symbol]                       0x08002b7c   Section        0  vl53l0x_api_core.o(.text.VL53L0X_get_info_from_device)
    [Anonymous Symbol]                       0x080035d8   Section        0  vl53l0x_api_core.o(.text.VL53L0X_get_measurement_timing_budget_micro_seconds)
    [Anonymous Symbol]                       0x08003740   Section        0  vl53l0x_api_calibration.o(.text.VL53L0X_get_offset_calibration_data_micro_meter)
    [Anonymous Symbol]                       0x08003784   Section        0  vl53l0x_api_core.o(.text.VL53L0X_get_pal_range_status)
    [Anonymous Symbol]                       0x08003994   Section        0  vl53l0x_api_core.o(.text.VL53L0X_get_vcsel_pulse_period)
    [Anonymous Symbol]                       0x080039cc   Section        0  vl53l0x_api_core.o(.text.VL53L0X_load_tuning_settings)
    [Anonymous Symbol]                       0x08003a94   Section        0  vl53l0x_api_core.o(.text.VL53L0X_measurement_poll_for_completion)
    [Anonymous Symbol]                       0x08003ae4   Section        0  vl53l0x_api_calibration.o(.text.VL53L0X_perform_phase_calibration)
    [Anonymous Symbol]                       0x08003bd4   Section        0  vl53l0x_api_calibration.o(.text.VL53L0X_perform_ref_calibration)
    [Anonymous Symbol]                       0x08003c18   Section        0  vl53l0x_api_calibration.o(.text.VL53L0X_perform_ref_spad_management)
    [Anonymous Symbol]                       0x08003fe8   Section        0  vl53l0x_api_calibration.o(.text.VL53L0X_perform_vhv_calibration)
    [Anonymous Symbol]                       0x080040cc   Section        0  vl53l0x_i2c_platform.o(.text.VL53L0X_read_byte)
    [Anonymous Symbol]                       0x080040d4   Section        0  vl53l0x_i2c_platform.o(.text.VL53L0X_read_dword)
    [Anonymous Symbol]                       0x080040ec   Section        0  vl53l0x_i2c_platform.o(.text.VL53L0X_read_multi)
    [Anonymous Symbol]                       0x08004168   Section        0  vl53l0x_i2c_platform.o(.text.VL53L0X_read_word)
    [Anonymous Symbol]                       0x08004188   Section        0  vl53l0x_api_core.o(.text.VL53L0X_set_measurement_timing_budget_micro_seconds)
    [Anonymous Symbol]                       0x080042fc   Section        0  vl53l0x_api_calibration.o(.text.VL53L0X_set_reference_spads)
    [Anonymous Symbol]                       0x080043b8   Section        0  vl53l0x_i2c_platform.o(.text.VL53L0X_write_byte)
    [Anonymous Symbol]                       0x080043d0   Section        0  vl53l0x_i2c_platform.o(.text.VL53L0X_write_multi)
    [Anonymous Symbol]                       0x08004438   Section        0  vl53l0x_i2c_platform.o(.text.VL53L0X_write_word)
    [Anonymous Symbol]                       0x08004450   Section        0  usart.o(.text._sys_exit)
    [Anonymous Symbol]                       0x08004454   Section        0  atk_ms53l0.o(.text.atk_ms53l0_hw_init)
    [Anonymous Symbol]                       0x080044c0   Section        0  atk_ms53l0_iic.o(.text.atk_ms53l0_iic_init)
    [Anonymous Symbol]                       0x08004570   Section        0  atk_ms53l0_iic.o(.text.atk_ms53l0_iic_read_byte)
    [Anonymous Symbol]                       0x08004640   Section        0  atk_ms53l0_iic.o(.text.atk_ms53l0_iic_send_byte)
    [Anonymous Symbol]                       0x0800469c   Section        0  atk_ms53l0_iic.o(.text.atk_ms53l0_iic_start)
    [Anonymous Symbol]                       0x080046ec   Section        0  atk_ms53l0_iic.o(.text.atk_ms53l0_iic_stop)
    [Anonymous Symbol]                       0x08004730   Section        0  atk_ms53l0_iic.o(.text.atk_ms53l0_iic_wait_ack)
    [Anonymous Symbol]                       0x080047c8   Section        0  delay.o(.text.delay_init)
    [Anonymous Symbol]                       0x080047e0   Section        0  delay.o(.text.delay_ms)
    [Anonymous Symbol]                       0x08004874   Section        0  delay.o(.text.delay_us)
    [Anonymous Symbol]                       0x080048b0   Section        0  demo.o(.text.demo_run)
    [Anonymous Symbol]                       0x080049ec   Section        0  vl53l0x_api_calibration.o(.text.enable_ref_spads)
    [Anonymous Symbol]                       0x08004b34   Section        0  usart.o(.text.fputc)
    [Anonymous Symbol]                       0x08004b48   Section        0  vl53l0x_api_core.o(.text.get_sequence_step_timeout)
    [Anonymous Symbol]                       0x08004cd4   Section        0  key.o(.text.key_init)
    [Anonymous Symbol]                       0x08004d90   Section        0  lcd.o(.text.lcd_ex_ili9341_reginit)
    [Anonymous Symbol]                       0x080054b4   Section        0  lcd.o(.text.lcd_ex_ili9806_reginit)
    [Anonymous Symbol]                       0x08005f24   Section        0  lcd.o(.text.lcd_ex_nt35310_reginit)
    [Anonymous Symbol]                       0x08008e58   Section        0  lcd.o(.text.lcd_ex_nt35510_reginit)
    [Anonymous Symbol]                       0x08009c34   Section        0  lcd.o(.text.lcd_ex_ssd1963_reginit)
    [Anonymous Symbol]                       0x0800a0a0   Section        0  lcd.o(.text.lcd_ex_st7789_reginit)
    [Anonymous Symbol]                       0x0800a61c   Section        0  lcd.o(.text.lcd_ex_st7796_reginit)
    [Anonymous Symbol]                       0x0800abf8   Section        0  lcd.o(.text.lcd_init)
    [Anonymous Symbol]                       0x0800b26c   Section        0  lcd.o(.text.lcd_scan_dir)
    [Anonymous Symbol]                       0x0800b554   Section        0  lcd.o(.text.lcd_set_cursor)
    [Anonymous Symbol]                       0x0800b7c8   Section        0  lcd.o(.text.lcd_show_char)
    [Anonymous Symbol]                       0x0800b8f8   Section        0  lcd.o(.text.lcd_show_string)
    [Anonymous Symbol]                       0x0800b970   Section        0  led.o(.text.led_init)
    [Anonymous Symbol]                       0x0800b9f4   Section        0  main.o(.text.main)
    [Anonymous Symbol]                       0x0800ba30   Section        0  vl53l0x_api_calibration.o(.text.perform_ref_signal_measurement)
    [Anonymous Symbol]                       0x0800baa0   Section        0  vl53l0x_api_core.o(.text.set_sequence_step_timeout)
    [Anonymous Symbol]                       0x0800bc78   Section        0  main.o(.text.show_mesg)
    [Anonymous Symbol]                       0x0800bd48   Section        0  sys.o(.text.sys_stm32_clock_init)
    [Anonymous Symbol]                       0x0800bdf4   Section        0  usart.o(.text.usart_init)
    $v0                                      0x0800be32   Number         0  fpinit.o(x$fpl$fpinit)
    x$fpl$fpinit                             0x0800be32   Section       26  fpinit.o(x$fpl$fpinit)
    uc_hextab                                0x0800be4c   Data          20  _printf_hex_int.o(.constdata)
    .constdata                               0x0800be4c   Section       40  _printf_hex_int.o(.constdata)
    lc_hextab                                0x0800be60   Data          20  _printf_hex_int.o(.constdata)
    .Lswitch.table.lcd_scan_dir.1            0x0800be74   Data          14  lcd.o(.rodata..Lswitch.table.lcd_scan_dir.1)
    .Lstr.12                                 0x0800ee1a   Data          34  main.o(.rodata.str1.1)
    [Anonymous Symbol]                       0x0800ee1a   Section        0  main.o(.rodata.str1.1)
    demo_dev                                 0x200002b4   Data         388  demo.o(.data.demo_dev)
    [Anonymous Symbol]                       0x200002b4   Section        0  demo.o(.data.demo_dev)
    .bss                                     0x20000458   Section       96  libspace.o(.bss)
    g_fac_us                                 0x2000050c   Data           4  delay.o(.bss.g_fac_us)
    [Anonymous Symbol]                       0x2000050c   Section        0  delay.o(.bss.g_fac_us)
    Heap_Mem                                 0x20000688   Data           0  startup_stm32f407xx.o(HEAP)
    Stack_Mem                                0x20000688   Data        1024  startup_stm32f407xx.o(STACK)
    HEAP                                     0x20000688   Section        0  startup_stm32f407xx.o(HEAP)
    STACK                                    0x20000688   Section     1024  startup_stm32f407xx.o(STACK)
    __initial_sp                             0x20000a88   Data           0  startup_stm32f407xx.o(STACK)

    Global Symbols

    Symbol Name                              Value     Ov Type        Size  Object(Section)

    BuildAttributes$$THM_ISAv4$E$P$D$K$B$S$7EM$VFPi3$EXTD16$VFPS$VFMA$PE$A:L22UL41UL21$X:L11$S22US41US21$IEEE1$IW$~IW$USESV6$~STKCKD$USESV7$~SHL$OTIME$ROPI$EBA8$UX$STANDARDLIB$REQ8$PRES8$EABIv2 0x00000000   Number         0  anon$$obj.o ABSOLUTE
    __ARM_exceptions_init                     - Undefined Weak Reference
    __alloca_initialize                       - Undefined Weak Reference
    __arm_preinit_                            - Undefined Weak Reference
    __arm_relocate_pie_                       - Undefined Weak Reference
    __cpp_initialize__aeabi_                  - Undefined Weak Reference
    __cxa_finalize                            - Undefined Weak Reference
    __rt_locale                               - Undefined Weak Reference
    __sigvec_lookup                           - Undefined Weak Reference
    _atexit_init                              - Undefined Weak Reference
    _call_atexit_fns                          - Undefined Weak Reference
    _clock_init                               - Undefined Weak Reference
    _fp_trap_init                             - Undefined Weak Reference
    _fp_trap_shutdown                         - Undefined Weak Reference
    _get_lc_collate                           - Undefined Weak Reference
    _get_lc_ctype                             - Undefined Weak Reference
    _get_lc_monetary                          - Undefined Weak Reference
    _get_lc_numeric                           - Undefined Weak Reference
    _get_lc_time                              - Undefined Weak Reference
    _getenv_init                              - Undefined Weak Reference
    _handle_redirection                       - Undefined Weak Reference
    _init_alloc                               - Undefined Weak Reference
    _init_user_alloc                          - Undefined Weak Reference
    _initio                                   - Undefined Weak Reference
    _mutex_acquire                            - Undefined Weak Reference
    _mutex_release                            - Undefined Weak Reference
    _printf_post_padding                      - Undefined Weak Reference
    _printf_pre_padding                       - Undefined Weak Reference
    _printf_truncate_signed                   - Undefined Weak Reference
    _printf_truncate_unsigned                 - Undefined Weak Reference
    _rand_init                                - Undefined Weak Reference
    _signal_finish                            - Undefined Weak Reference
    _signal_init                              - Undefined Weak Reference
    _terminate_alloc                          - Undefined Weak Reference
    _terminate_user_alloc                     - Undefined Weak Reference
    _terminateio                              - Undefined Weak Reference
    __Vectors_Size                           0x00000188   Number         0  startup_stm32f407xx.o ABSOLUTE
    __Vectors                                0x08000000   Data           4  startup_stm32f407xx.o(RESET)
    __Vectors_End                            0x08000188   Data           0  startup_stm32f407xx.o(RESET)
    __main                                   0x08000189   Thumb Code     8  __main.o(!!!main)
    __scatterload                            0x08000191   Thumb Code     0  __scatter.o(!!!scatter)
    __scatterload_rt2                        0x08000191   Thumb Code    44  __scatter.o(!!!scatter)
    __scatterload_rt2_thumb_only             0x08000191   Thumb Code     0  __scatter.o(!!!scatter)
    __scatterload_null                       0x0800019f   Thumb Code     0  __scatter.o(!!!scatter)
    __decompress                             0x080001c5   Thumb Code    58  __dczerorl.o(!!dczerorl)
    __decompress0                            0x080001c5   Thumb Code     0  __dczerorl.o(!!dczerorl)
    __scatterload_zeroinit                   0x08000201   Thumb Code    28  __scatter_zi.o(!!handler_zi)
    _printf_d                                0x0800021d   Thumb Code     0  _printf_d.o(.ARM.Collect$$_printf_percent$$00000009)
    _printf_percent                          0x0800021d   Thumb Code     0  _printf_percent.o(.ARM.Collect$$_printf_percent$$00000000)
    _printf_x                                0x08000223   Thumb Code     0  _printf_x.o(.ARM.Collect$$_printf_percent$$0000000C)
    _printf_percent_end                      0x08000229   Thumb Code     0  _printf_percent_end.o(.ARM.Collect$$_printf_percent$$00000017)
    __rt_lib_init                            0x0800022d   Thumb Code     0  libinit.o(.ARM.Collect$$libinit$$00000000)
    __rt_lib_init_fp_1                       0x0800022f   Thumb Code     0  libinit2.o(.ARM.Collect$$libinit$$00000001)
    __rt_lib_init_alloca_1                   0x08000233   Thumb Code     0  libinit2.o(.ARM.Collect$$libinit$$00000030)
    __rt_lib_init_argv_1                     0x08000233   Thumb Code     0  libinit2.o(.ARM.Collect$$libinit$$0000002E)
    __rt_lib_init_atexit_1                   0x08000233   Thumb Code     0  libinit2.o(.ARM.Collect$$libinit$$0000001D)
    __rt_lib_init_clock_1                    0x08000233   Thumb Code     0  libinit2.o(.ARM.Collect$$libinit$$00000023)
    __rt_lib_init_cpp_1                      0x08000233   Thumb Code     0  libinit2.o(.ARM.Collect$$libinit$$00000034)
    __rt_lib_init_exceptions_1               0x08000233   Thumb Code     0  libinit2.o(.ARM.Collect$$libinit$$00000032)
    __rt_lib_init_fp_trap_1                  0x08000233   Thumb Code     0  libinit2.o(.ARM.Collect$$libinit$$00000021)
    __rt_lib_init_getenv_1                   0x08000233   Thumb Code     0  libinit2.o(.ARM.Collect$$libinit$$00000025)
    __rt_lib_init_heap_1                     0x08000233   Thumb Code     0  libinit2.o(.ARM.Collect$$libinit$$0000000C)
    __rt_lib_init_lc_collate_1               0x08000233   Thumb Code     0  libinit2.o(.ARM.Collect$$libinit$$00000013)
    __rt_lib_init_lc_ctype_1                 0x08000233   Thumb Code     0  libinit2.o(.ARM.Collect$$libinit$$00000015)
    __rt_lib_init_lc_monetary_1              0x08000233   Thumb Code     0  libinit2.o(.ARM.Collect$$libinit$$00000017)
    __rt_lib_init_lc_numeric_1               0x08000233   Thumb Code     0  libinit2.o(.ARM.Collect$$libinit$$00000019)
    __rt_lib_init_lc_time_1                  0x08000233   Thumb Code     0  libinit2.o(.ARM.Collect$$libinit$$0000001B)
    __rt_lib_init_preinit_1                  0x08000233   Thumb Code     0  libinit2.o(.ARM.Collect$$libinit$$00000006)
    __rt_lib_init_rand_1                     0x08000233   Thumb Code     0  libinit2.o(.ARM.Collect$$libinit$$00000010)
    __rt_lib_init_relocate_pie_1             0x08000233   Thumb Code     0  libinit2.o(.ARM.Collect$$libinit$$00000004)
    __rt_lib_init_return                     0x08000233   Thumb Code     0  libinit2.o(.ARM.Collect$$libinit$$00000035)
    __rt_lib_init_signal_1                   0x08000233   Thumb Code     0  libinit2.o(.ARM.Collect$$libinit$$0000001F)
    __rt_lib_init_stdio_1                    0x08000233   Thumb Code     0  libinit2.o(.ARM.Collect$$libinit$$00000027)
    __rt_lib_init_user_alloc_1               0x08000233   Thumb Code     0  libinit2.o(.ARM.Collect$$libinit$$0000000E)
    __rt_lib_shutdown                        0x08000235   Thumb Code     0  libshutdown.o(.ARM.Collect$$libshutdown$$00000000)
    __rt_lib_shutdown_cpp_1                  0x08000237   Thumb Code     0  libshutdown2.o(.ARM.Collect$$libshutdown$$00000002)
    __rt_lib_shutdown_fp_trap_1              0x08000237   Thumb Code     0  libshutdown2.o(.ARM.Collect$$libshutdown$$00000007)
    __rt_lib_shutdown_heap_1                 0x08000237   Thumb Code     0  libshutdown2.o(.ARM.Collect$$libshutdown$$0000000F)
    __rt_lib_shutdown_return                 0x08000237   Thumb Code     0  libshutdown2.o(.ARM.Collect$$libshutdown$$00000010)
    __rt_lib_shutdown_signal_1               0x08000237   Thumb Code     0  libshutdown2.o(.ARM.Collect$$libshutdown$$0000000A)
    __rt_lib_shutdown_stdio_1                0x08000237   Thumb Code     0  libshutdown2.o(.ARM.Collect$$libshutdown$$00000004)
    __rt_lib_shutdown_user_alloc_1           0x08000237   Thumb Code     0  libshutdown2.o(.ARM.Collect$$libshutdown$$0000000C)
    __rt_entry                               0x08000239   Thumb Code     0  __rtentry.o(.ARM.Collect$$rtentry$$00000000)
    __rt_entry_presh_1                       0x08000239   Thumb Code     0  __rtentry2.o(.ARM.Collect$$rtentry$$00000002)
    __rt_entry_sh                            0x08000239   Thumb Code     0  __rtentry4.o(.ARM.Collect$$rtentry$$00000004)
    __rt_entry_li                            0x0800023f   Thumb Code     0  __rtentry2.o(.ARM.Collect$$rtentry$$0000000A)
    __rt_entry_postsh_1                      0x0800023f   Thumb Code     0  __rtentry2.o(.ARM.Collect$$rtentry$$00000009)
    __rt_entry_main                          0x08000243   Thumb Code     0  __rtentry2.o(.ARM.Collect$$rtentry$$0000000D)
    __rt_entry_postli_1                      0x08000243   Thumb Code     0  __rtentry2.o(.ARM.Collect$$rtentry$$0000000C)
    __rt_exit                                0x0800024b   Thumb Code     0  rtexit.o(.ARM.Collect$$rtexit$$00000000)
    __rt_exit_ls                             0x0800024d   Thumb Code     0  rtexit2.o(.ARM.Collect$$rtexit$$00000003)
    __rt_exit_prels_1                        0x0800024d   Thumb Code     0  rtexit2.o(.ARM.Collect$$rtexit$$00000002)
    __rt_exit_exit                           0x08000251   Thumb Code     0  rtexit2.o(.ARM.Collect$$rtexit$$00000004)
    Reset_Handler                            0x08000259   Thumb Code    18  startup_stm32f407xx.o(.text)
    ADC_IRQHandler                           0x0800027d   Thumb Code     0  startup_stm32f407xx.o(.text)
    CAN1_RX0_IRQHandler                      0x0800027d   Thumb Code     0  startup_stm32f407xx.o(.text)
    CAN1_RX1_IRQHandler                      0x0800027d   Thumb Code     0  startup_stm32f407xx.o(.text)
    CAN1_SCE_IRQHandler                      0x0800027d   Thumb Code     0  startup_stm32f407xx.o(.text)
    CAN1_TX_IRQHandler                       0x0800027d   Thumb Code     0  startup_stm32f407xx.o(.text)
    CAN2_RX0_IRQHandler                      0x0800027d   Thumb Code     0  startup_stm32f407xx.o(.text)
    CAN2_RX1_IRQHandler                      0x0800027d   Thumb Code     0  startup_stm32f407xx.o(.text)
    CAN2_SCE_IRQHandler                      0x0800027d   Thumb Code     0  startup_stm32f407xx.o(.text)
    CAN2_TX_IRQHandler                       0x0800027d   Thumb Code     0  startup_stm32f407xx.o(.text)
    DCMI_IRQHandler                          0x0800027d   Thumb Code     0  startup_stm32f407xx.o(.text)
    DMA1_Stream0_IRQHandler                  0x0800027d   Thumb Code     0  startup_stm32f407xx.o(.text)
    DMA1_Stream1_IRQHandler                  0x0800027d   Thumb Code     0  startup_stm32f407xx.o(.text)
    DMA1_Stream2_IRQHandler                  0x0800027d   Thumb Code     0  startup_stm32f407xx.o(.text)
    DMA1_Stream3_IRQHandler                  0x0800027d   Thumb Code     0  startup_stm32f407xx.o(.text)
    DMA1_Stream4_IRQHandler                  0x0800027d   Thumb Code     0  startup_stm32f407xx.o(.text)
    DMA1_Stream5_IRQHandler                  0x0800027d   Thumb Code     0  startup_stm32f407xx.o(.text)
    DMA1_Stream6_IRQHandler                  0x0800027d   Thumb Code     0  startup_stm32f407xx.o(.text)
    DMA1_Stream7_IRQHandler                  0x0800027d   Thumb Code     0  startup_stm32f407xx.o(.text)
    DMA2_Stream0_IRQHandler                  0x0800027d   Thumb Code     0  startup_stm32f407xx.o(.text)
    DMA2_Stream1_IRQHandler                  0x0800027d   Thumb Code     0  startup_stm32f407xx.o(.text)
    DMA2_Stream2_IRQHandler                  0x0800027d   Thumb Code     0  startup_stm32f407xx.o(.text)
    DMA2_Stream3_IRQHandler                  0x0800027d   Thumb Code     0  startup_stm32f407xx.o(.text)
    DMA2_Stream4_IRQHandler                  0x0800027d   Thumb Code     0  startup_stm32f407xx.o(.text)
    DMA2_Stream5_IRQHandler                  0x0800027d   Thumb Code     0  startup_stm32f407xx.o(.text)
    DMA2_Stream6_IRQHandler                  0x0800027d   Thumb Code     0  startup_stm32f407xx.o(.text)
    DMA2_Stream7_IRQHandler                  0x0800027d   Thumb Code     0  startup_stm32f407xx.o(.text)
    ETH_IRQHandler                           0x0800027d   Thumb Code     0  startup_stm32f407xx.o(.text)
    ETH_WKUP_IRQHandler                      0x0800027d   Thumb Code     0  startup_stm32f407xx.o(.text)
    EXTI0_IRQHandler                         0x0800027d   Thumb Code     0  startup_stm32f407xx.o(.text)
    EXTI15_10_IRQHandler                     0x0800027d   Thumb Code     0  startup_stm32f407xx.o(.text)
    EXTI1_IRQHandler                         0x0800027d   Thumb Code     0  startup_stm32f407xx.o(.text)
    EXTI2_IRQHandler                         0x0800027d   Thumb Code     0  startup_stm32f407xx.o(.text)
    EXTI3_IRQHandler                         0x0800027d   Thumb Code     0  startup_stm32f407xx.o(.text)
    EXTI4_IRQHandler                         0x0800027d   Thumb Code     0  startup_stm32f407xx.o(.text)
    EXTI9_5_IRQHandler                       0x0800027d   Thumb Code     0  startup_stm32f407xx.o(.text)
    FLASH_IRQHandler                         0x0800027d   Thumb Code     0  startup_stm32f407xx.o(.text)
    FMC_IRQHandler                           0x0800027d   Thumb Code     0  startup_stm32f407xx.o(.text)
    FPU_IRQHandler                           0x0800027d   Thumb Code     0  startup_stm32f407xx.o(.text)
    HASH_RNG_IRQHandler                      0x0800027d   Thumb Code     0  startup_stm32f407xx.o(.text)
    I2C1_ER_IRQHandler                       0x0800027d   Thumb Code     0  startup_stm32f407xx.o(.text)
    I2C1_EV_IRQHandler                       0x0800027d   Thumb Code     0  startup_stm32f407xx.o(.text)
    I2C2_ER_IRQHandler                       0x0800027d   Thumb Code     0  startup_stm32f407xx.o(.text)
    I2C2_EV_IRQHandler                       0x0800027d   Thumb Code     0  startup_stm32f407xx.o(.text)
    I2C3_ER_IRQHandler                       0x0800027d   Thumb Code     0  startup_stm32f407xx.o(.text)
    I2C3_EV_IRQHandler                       0x0800027d   Thumb Code     0  startup_stm32f407xx.o(.text)
    OTG_FS_IRQHandler                        0x0800027d   Thumb Code     0  startup_stm32f407xx.o(.text)
    OTG_FS_WKUP_IRQHandler                   0x0800027d   Thumb Code     0  startup_stm32f407xx.o(.text)
    OTG_HS_EP1_IN_IRQHandler                 0x0800027d   Thumb Code     0  startup_stm32f407xx.o(.text)
    OTG_HS_EP1_OUT_IRQHandler                0x0800027d   Thumb Code     0  startup_stm32f407xx.o(.text)
    OTG_HS_IRQHandler                        0x0800027d   Thumb Code     0  startup_stm32f407xx.o(.text)
    OTG_HS_WKUP_IRQHandler                   0x0800027d   Thumb Code     0  startup_stm32f407xx.o(.text)
    PVD_IRQHandler                           0x0800027d   Thumb Code     0  startup_stm32f407xx.o(.text)
    RCC_IRQHandler                           0x0800027d   Thumb Code     0  startup_stm32f407xx.o(.text)
    RTC_Alarm_IRQHandler                     0x0800027d   Thumb Code     0  startup_stm32f407xx.o(.text)
    RTC_WKUP_IRQHandler                      0x0800027d   Thumb Code     0  startup_stm32f407xx.o(.text)
    SDIO_IRQHandler                          0x0800027d   Thumb Code     0  startup_stm32f407xx.o(.text)
    SPI1_IRQHandler                          0x0800027d   Thumb Code     0  startup_stm32f407xx.o(.text)
    SPI2_IRQHandler                          0x0800027d   Thumb Code     0  startup_stm32f407xx.o(.text)
    SPI3_IRQHandler                          0x0800027d   Thumb Code     0  startup_stm32f407xx.o(.text)
    TAMP_STAMP_IRQHandler                    0x0800027d   Thumb Code     0  startup_stm32f407xx.o(.text)
    TIM1_BRK_TIM9_IRQHandler                 0x0800027d   Thumb Code     0  startup_stm32f407xx.o(.text)
    TIM1_CC_IRQHandler                       0x0800027d   Thumb Code     0  startup_stm32f407xx.o(.text)
    TIM1_TRG_COM_TIM11_IRQHandler            0x0800027d   Thumb Code     0  startup_stm32f407xx.o(.text)
    TIM1_UP_TIM10_IRQHandler                 0x0800027d   Thumb Code     0  startup_stm32f407xx.o(.text)
    TIM2_IRQHandler                          0x0800027d   Thumb Code     0  startup_stm32f407xx.o(.text)
    TIM3_IRQHandler                          0x0800027d   Thumb Code     0  startup_stm32f407xx.o(.text)
    TIM4_IRQHandler                          0x0800027d   Thumb Code     0  startup_stm32f407xx.o(.text)
    TIM5_IRQHandler                          0x0800027d   Thumb Code     0  startup_stm32f407xx.o(.text)
    TIM6_DAC_IRQHandler                      0x0800027d   Thumb Code     0  startup_stm32f407xx.o(.text)
    TIM7_IRQHandler                          0x0800027d   Thumb Code     0  startup_stm32f407xx.o(.text)
    TIM8_BRK_TIM12_IRQHandler                0x0800027d   Thumb Code     0  startup_stm32f407xx.o(.text)
    TIM8_CC_IRQHandler                       0x0800027d   Thumb Code     0  startup_stm32f407xx.o(.text)
    TIM8_TRG_COM_TIM14_IRQHandler            0x0800027d   Thumb Code     0  startup_stm32f407xx.o(.text)
    TIM8_UP_TIM13_IRQHandler                 0x0800027d   Thumb Code     0  startup_stm32f407xx.o(.text)
    UART4_IRQHandler                         0x0800027d   Thumb Code     0  startup_stm32f407xx.o(.text)
    UART5_IRQHandler                         0x0800027d   Thumb Code     0  startup_stm32f407xx.o(.text)
    USART2_IRQHandler                        0x0800027d   Thumb Code     0  startup_stm32f407xx.o(.text)
    USART3_IRQHandler                        0x0800027d   Thumb Code     0  startup_stm32f407xx.o(.text)
    USART6_IRQHandler                        0x0800027d   Thumb Code     0  startup_stm32f407xx.o(.text)
    WWDG_IRQHandler                          0x0800027d   Thumb Code     0  startup_stm32f407xx.o(.text)
    __user_initial_stackheap                 0x08000281   Thumb Code     0  startup_stm32f407xx.o(.text)
    __use_no_semihosting                     0x080002a5   Thumb Code     2  use_no_semi_2.o(.text)
    __aeabi_uldivmod                         0x080002a7   Thumb Code     0  lludivv7m.o(.text)
    _ll_udiv                                 0x080002a7   Thumb Code   240  lludivv7m.o(.text)
    __2printf                                0x08000399   Thumb Code    20  noretval__2printf.o(.text)
    __printf                                 0x080003b1   Thumb Code   104  __printf.o(.text)
    _printf_int_dec                          0x08000419   Thumb Code   104  _printf_dec.o(.text)
    _printf_int_hex                          0x08000491   Thumb Code    84  _printf_hex_int.o(.text)
    _printf_longlong_hex                     0x08000491   Thumb Code     0  _printf_hex_int.o(.text)
    putchar                                  0x080004e9   Thumb Code     6  putchar.o(.text)
    puts                                     0x080004f5   Thumb Code    40  puts.o(.text)
    strcpy                                   0x08000521   Thumb Code    72  strcpy.o(.text)
    __aeabi_memcpy                           0x08000569   Thumb Code     0  rt_memcpy_v6.o(.text)
    __rt_memcpy                              0x08000569   Thumb Code   138  rt_memcpy_v6.o(.text)
    _memcpy_lastbytes                        0x080005cf   Thumb Code     0  rt_memcpy_v6.o(.text)
    __aeabi_memcpy4                          0x080005f3   Thumb Code     0  rt_memcpy_w.o(.text)
    __aeabi_memcpy8                          0x080005f3   Thumb Code     0  rt_memcpy_w.o(.text)
    __rt_memcpy_w                            0x080005f3   Thumb Code   100  rt_memcpy_w.o(.text)
    _memcpy_lastbytes_aligned                0x0800063b   Thumb Code     0  rt_memcpy_w.o(.text)
    __aeabi_memclr4                          0x08000657   Thumb Code     0  rt_memclr_w.o(.text)
    __aeabi_memclr8                          0x08000657   Thumb Code     0  rt_memclr_w.o(.text)
    __rt_memclr_w                            0x08000657   Thumb Code     0  rt_memclr_w.o(.text)
    _memset_w                                0x0800065b   Thumb Code    74  rt_memclr_w.o(.text)
    __use_two_region_memory                  0x080006a5   Thumb Code     2  heapauxi.o(.text)
    __rt_heap_escrow$2region                 0x080006a7   Thumb Code     2  heapauxi.o(.text)
    __rt_heap_expand$2region                 0x080006a9   Thumb Code     2  heapauxi.o(.text)
    __semihosting$guard                      0x080006ab   Thumb Code     0  use_no_semi.o(.text)
    __use_no_semihosting_swi                 0x080006ab   Thumb Code     2  use_no_semi.o(.text)
    _printf_int_common                       0x080006ad   Thumb Code   178  _printf_intcommon.o(.text)
    _printf_char_file                        0x08000761   Thumb Code    32  _printf_char_file.o(.text)
    _printf_char_common                      0x0800078f   Thumb Code    32  _printf_char_common.o(.text)
    ferror                                   0x080007b5   Thumb Code     8  ferror.o(.text)
    __user_setup_stackheap                   0x080007bd   Thumb Code    74  sys_stackheap_outer.o(.text)
    exit                                     0x08000807   Thumb Code    18  exit.o(.text)
    __user_libspace                          0x08000819   Thumb Code     8  libspace.o(.text)
    __user_perproc_libspace                  0x08000819   Thumb Code     0  libspace.o(.text)
    __user_perthread_libspace                0x08000819   Thumb Code     0  libspace.o(.text)
    BusFault_Handler                         0x08000821   Thumb Code     2  stm32f4xx_it.o(.text.BusFault_Handler)
    DebugMon_Handler                         0x08000825   Thumb Code     2  stm32f4xx_it.o(.text.DebugMon_Handler)
    FSMC_NORSRAM_Extended_Timing_Init        0x08000829   Thumb Code    66  stm32f4xx_ll_fsmc.o(.text.FSMC_NORSRAM_Extended_Timing_Init)
    FSMC_NORSRAM_Init                        0x0800086d   Thumb Code    94  stm32f4xx_ll_fsmc.o(.text.FSMC_NORSRAM_Init)
    FSMC_NORSRAM_Timing_Init                 0x080008cd   Thumb Code    68  stm32f4xx_ll_fsmc.o(.text.FSMC_NORSRAM_Timing_Init)
    HAL_DMA_Abort                            0x08000911   Thumb Code   138  stm32f4xx_hal_dma.o(.text.HAL_DMA_Abort)
    HAL_DMA_Abort_IT                         0x0800099d   Thumb Code    36  stm32f4xx_hal_dma.o(.text.HAL_DMA_Abort_IT)
    HAL_GPIO_Init                            0x080009c1   Thumb Code   410  stm32f4xx_hal_gpio.o(.text.HAL_GPIO_Init)
    HAL_GPIO_ReadPin                         0x08000b5d   Thumb Code    10  stm32f4xx_hal_gpio.o(.text.HAL_GPIO_ReadPin)
    HAL_GPIO_TogglePin                       0x08000b69   Thumb Code    16  stm32f4xx_hal_gpio.o(.text.HAL_GPIO_TogglePin)
    HAL_GPIO_WritePin                        0x08000b79   Thumb Code    10  stm32f4xx_hal_gpio.o(.text.HAL_GPIO_WritePin)
    HAL_GetREVID                             0x08000b85   Thumb Code    14  stm32f4xx_hal.o(.text.HAL_GetREVID)
    HAL_GetTick                              0x08000b95   Thumb Code    12  stm32f4xx_hal.o(.text.HAL_GetTick)
    HAL_IncTick                              0x08000ba1   Thumb Code    26  stm32f4xx_hal.o(.text.HAL_IncTick)
    HAL_Init                                 0x08000bbd   Thumb Code    46  stm32f4xx_hal.o(.text.HAL_Init)
    HAL_InitTick                             0x08000bed   Thumb Code    80  stm32f4xx_hal.o(.text.HAL_InitTick)
    HAL_MspInit                              0x08000c3d   Thumb Code     2  stm32f4xx_hal.o(.text.HAL_MspInit)
    HAL_NVIC_EnableIRQ                       0x08000c41   Thumb Code    32  stm32f4xx_hal_cortex.o(.text.HAL_NVIC_EnableIRQ)
    HAL_NVIC_SetPriority                     0x08000c61   Thumb Code    86  stm32f4xx_hal_cortex.o(.text.HAL_NVIC_SetPriority)
    HAL_NVIC_SetPriorityGrouping             0x08000cb9   Thumb Code    32  stm32f4xx_hal_cortex.o(.text.HAL_NVIC_SetPriorityGrouping)
    HAL_RCC_ClockConfig                      0x08000cd9   Thumb Code   352  stm32f4xx_hal_rcc.o(.text.HAL_RCC_ClockConfig)
    HAL_RCC_GetPCLK1Freq                     0x08000e39   Thumb Code    38  stm32f4xx_hal_rcc.o(.text.HAL_RCC_GetPCLK1Freq)
    HAL_RCC_GetPCLK2Freq                     0x08000e61   Thumb Code    38  stm32f4xx_hal_rcc.o(.text.HAL_RCC_GetPCLK2Freq)
    HAL_RCC_GetSysClockFreq                  0x08000e89   Thumb Code   106  stm32f4xx_hal_rcc.o(.text.HAL_RCC_GetSysClockFreq)
    HAL_RCC_OscConfig                        0x08000ef5   Thumb Code   836  stm32f4xx_hal_rcc.o(.text.HAL_RCC_OscConfig)
    HAL_SRAM_Init                            0x08001239   Thumb Code    86  stm32f4xx_hal_sram.o(.text.HAL_SRAM_Init)
    HAL_SRAM_MspInit                         0x08001291   Thumb Code   132  lcd.o(.text.HAL_SRAM_MspInit)
    HAL_SYSTICK_CLKSourceConfig              0x08001315   Thumb Code    24  stm32f4xx_hal_cortex.o(.text.HAL_SYSTICK_CLKSourceConfig)
    HAL_SYSTICK_Config                       0x0800132d   Thumb Code    44  stm32f4xx_hal_cortex.o(.text.HAL_SYSTICK_Config)
    HAL_UARTEx_RxEventCallback               0x08001359   Thumb Code     2  stm32f4xx_hal_uart.o(.text.HAL_UARTEx_RxEventCallback)
    HAL_UART_ErrorCallback                   0x0800135d   Thumb Code     2  stm32f4xx_hal_uart.o(.text.HAL_UART_ErrorCallback)
    HAL_UART_IRQHandler                      0x08001361   Thumb Code   622  stm32f4xx_hal_uart.o(.text.HAL_UART_IRQHandler)
    HAL_UART_Init                            0x080015d1   Thumb Code    94  stm32f4xx_hal_uart.o(.text.HAL_UART_Init)
    HAL_UART_MspInit                         0x08001631   Thumb Code   160  usart.o(.text.HAL_UART_MspInit)
    HAL_UART_Receive_IT                      0x080016d1   Thumb Code    86  stm32f4xx_hal_uart.o(.text.HAL_UART_Receive_IT)
    HAL_UART_RxCpltCallback                  0x08001729   Thumb Code   128  usart.o(.text.HAL_UART_RxCpltCallback)
    HAL_UART_TxCpltCallback                  0x080017a9   Thumb Code     2  stm32f4xx_hal_uart.o(.text.HAL_UART_TxCpltCallback)
    HardFault_Handler                        0x080017ad   Thumb Code     2  stm32f4xx_it.o(.text.HardFault_Handler)
    MemManage_Handler                        0x080017b1   Thumb Code     2  stm32f4xx_it.o(.text.MemManage_Handler)
    NMI_Handler                              0x080017b5   Thumb Code     2  stm32f4xx_it.o(.text.NMI_Handler)
    PendSV_Handler                           0x080017b9   Thumb Code     2  stm32f4xx_it.o(.text.PendSV_Handler)
    SVC_Handler                              0x080017bd   Thumb Code     2  stm32f4xx_it.o(.text.SVC_Handler)
    SysTick_Handler                          0x080017c1   Thumb Code     4  stm32f4xx_it.o(.text.SysTick_Handler)
    SystemInit                               0x080017c5   Thumb Code    18  system_stm32f4xx.o(.text.SystemInit)
    USART1_IRQHandler                        0x08001971   Thumb Code    12  usart.o(.text.USART1_IRQHandler)
    UsageFault_Handler                       0x0800197d   Thumb Code     2  stm32f4xx_it.o(.text.UsageFault_Handler)
    VL53L0X_CheckAndLoadInterruptSettings    0x08001981   Thumb Code   240  vl53l0x_api.o(.text.VL53L0X_CheckAndLoadInterruptSettings)
    VL53L0X_ClearInterruptMask               0x08001a71   Thumb Code    82  vl53l0x_api.o(.text.VL53L0X_ClearInterruptMask)
    VL53L0X_DataInit                         0x08001ac5   Thumb Code   660  vl53l0x_api.o(.text.VL53L0X_DataInit)
    VL53L0X_GetDeviceParameters              0x08001d59   Thumb Code   288  vl53l0x_api.o(.text.VL53L0X_GetDeviceParameters)
    VL53L0X_GetLimitCheckEnable              0x08001e79   Thumb Code    24  vl53l0x_api.o(.text.VL53L0X_GetLimitCheckEnable)
    VL53L0X_GetLimitCheckValue               0x08001e91   Thumb Code   144  vl53l0x_api.o(.text.VL53L0X_GetLimitCheckValue)
    VL53L0X_GetMeasurementDataReady          0x08001f21   Thumb Code    82  vl53l0x_api.o(.text.VL53L0X_GetMeasurementDataReady)
    VL53L0X_GetRangingMeasurementData        0x08001f75   Thumb Code   272  vl53l0x_api.o(.text.VL53L0X_GetRangingMeasurementData)
    VL53L0X_GetSequenceStepEnables           0x08002085   Thumb Code   114  vl53l0x_api.o(.text.VL53L0X_GetSequenceStepEnables)
    VL53L0X_GetVcselPulsePeriod              0x080020f9   Thumb Code     4  vl53l0x_api.o(.text.VL53L0X_GetVcselPulsePeriod)
    VL53L0X_GetXTalkCompensationEnable       0x080020fd   Thumb Code     8  vl53l0x_api.o(.text.VL53L0X_GetXTalkCompensationEnable)
    VL53L0X_PerformRefCalibration            0x08002105   Thumb Code     6  vl53l0x_api.o(.text.VL53L0X_PerformRefCalibration)
    VL53L0X_PerformRefSpadManagement         0x0800210d   Thumb Code     4  vl53l0x_api.o(.text.VL53L0X_PerformRefSpadManagement)
    VL53L0X_PerformSingleRangingMeasurement  0x08002111   Thumb Code   132  vl53l0x_api.o(.text.VL53L0X_PerformSingleRangingMeasurement)
    VL53L0X_PollingDelay                     0x08002195   Thumb Code     4  vl53l0x_platform.o(.text.VL53L0X_PollingDelay)
    VL53L0X_RdByte                           0x08002199   Thumb Code    20  vl53l0x_platform.o(.text.VL53L0X_RdByte)
    VL53L0X_RdDWord                          0x080021ad   Thumb Code    20  vl53l0x_platform.o(.text.VL53L0X_RdDWord)
    VL53L0X_RdWord                           0x080021c1   Thumb Code    20  vl53l0x_platform.o(.text.VL53L0X_RdWord)
    VL53L0X_ReadMulti                        0x080021d5   Thumb Code    32  vl53l0x_platform.o(.text.VL53L0X_ReadMulti)
    VL53L0X_SetDeviceAddress                 0x080021f5   Thumb Code     8  vl53l0x_api.o(.text.VL53L0X_SetDeviceAddress)
    VL53L0X_SetDeviceMode                    0x080021fd   Thumb Code    34  vl53l0x_api.o(.text.VL53L0X_SetDeviceMode)
    VL53L0X_SetGpioConfig                    0x08002221   Thumb Code   392  vl53l0x_api.o(.text.VL53L0X_SetGpioConfig)
    VL53L0X_SetMeasurementTimingBudgetMicroSeconds 0x080023a9   Thumb Code     4  vl53l0x_api.o(.text.VL53L0X_SetMeasurementTimingBudgetMicroSeconds)
    VL53L0X_StartMeasurement                 0x080023ad   Thumb Code   240  vl53l0x_api.o(.text.VL53L0X_StartMeasurement)
    VL53L0X_StaticInit                       0x0800249d   Thumb Code   582  vl53l0x_api.o(.text.VL53L0X_StaticInit)
    VL53L0X_UpdateByte                       0x080026e5   Thumb Code    76  vl53l0x_platform.o(.text.VL53L0X_UpdateByte)
    VL53L0X_WrByte                           0x08002731   Thumb Code    20  vl53l0x_platform.o(.text.VL53L0X_WrByte)
    VL53L0X_WrWord                           0x08002745   Thumb Code    20  vl53l0x_platform.o(.text.VL53L0X_WrWord)
    VL53L0X_WriteMulti                       0x08002759   Thumb Code    32  vl53l0x_platform.o(.text.VL53L0X_WriteMulti)
    VL53L0X_calc_dmax                        0x08002779   Thumb Code   198  vl53l0x_api_core.o(.text.VL53L0X_calc_dmax)
    VL53L0X_calc_sigma_estimate              0x08002841   Thumb Code   816  vl53l0x_api_core.o(.text.VL53L0X_calc_sigma_estimate)
    VL53L0X_comms_initialise                 0x08002b71   Thumb Code    10  vl53l0x_i2c_platform.o(.text.VL53L0X_comms_initialise)
    VL53L0X_get_info_from_device             0x08002b7d   Thumb Code  2652  vl53l0x_api_core.o(.text.VL53L0X_get_info_from_device)
    VL53L0X_get_measurement_timing_budget_micro_seconds 0x080035d9   Thumb Code   360  vl53l0x_api_core.o(.text.VL53L0X_get_measurement_timing_budget_micro_seconds)
    VL53L0X_get_offset_calibration_data_micro_meter 0x08003741   Thumb Code    66  vl53l0x_api_calibration.o(.text.VL53L0X_get_offset_calibration_data_micro_meter)
    VL53L0X_get_pal_range_status             0x08003785   Thumb Code   528  vl53l0x_api_core.o(.text.VL53L0X_get_pal_range_status)
    VL53L0X_get_vcsel_pulse_period           0x08003995   Thumb Code    56  vl53l0x_api_core.o(.text.VL53L0X_get_vcsel_pulse_period)
    VL53L0X_load_tuning_settings             0x080039cd   Thumb Code   200  vl53l0x_api_core.o(.text.VL53L0X_load_tuning_settings)
    VL53L0X_measurement_poll_for_completion  0x08003a95   Thumb Code    78  vl53l0x_api_core.o(.text.VL53L0X_measurement_poll_for_completion)
    VL53L0X_perform_phase_calibration        0x08003ae5   Thumb Code   240  vl53l0x_api_calibration.o(.text.VL53L0X_perform_phase_calibration)
    VL53L0X_perform_ref_calibration          0x08003bd5   Thumb Code    68  vl53l0x_api_calibration.o(.text.VL53L0X_perform_ref_calibration)
    VL53L0X_perform_ref_spad_management      0x08003c19   Thumb Code   974  vl53l0x_api_calibration.o(.text.VL53L0X_perform_ref_spad_management)
    VL53L0X_perform_vhv_calibration          0x08003fe9   Thumb Code   228  vl53l0x_api_calibration.o(.text.VL53L0X_perform_vhv_calibration)
    VL53L0X_read_byte                        0x080040cd   Thumb Code     6  vl53l0x_i2c_platform.o(.text.VL53L0X_read_byte)
    VL53L0X_read_dword                       0x080040d5   Thumb Code    24  vl53l0x_i2c_platform.o(.text.VL53L0X_read_dword)
    VL53L0X_read_multi                       0x080040ed   Thumb Code   122  vl53l0x_i2c_platform.o(.text.VL53L0X_read_multi)
    VL53L0X_read_word                        0x08004169   Thumb Code    30  vl53l0x_i2c_platform.o(.text.VL53L0X_read_word)
    VL53L0X_set_measurement_timing_budget_micro_seconds 0x08004189   Thumb Code   372  vl53l0x_api_core.o(.text.VL53L0X_set_measurement_timing_budget_micro_seconds)
    VL53L0X_set_reference_spads              0x080042fd   Thumb Code   188  vl53l0x_api_calibration.o(.text.VL53L0X_set_reference_spads)
    VL53L0X_write_byte                       0x080043b9   Thumb Code    22  vl53l0x_i2c_platform.o(.text.VL53L0X_write_byte)
    VL53L0X_write_multi                      0x080043d1   Thumb Code   102  vl53l0x_i2c_platform.o(.text.VL53L0X_write_multi)
    VL53L0X_write_word                       0x08004439   Thumb Code    24  vl53l0x_i2c_platform.o(.text.VL53L0X_write_word)
    _sys_exit                                0x08004451   Thumb Code     2  usart.o(.text._sys_exit)
    atk_ms53l0_hw_init                       0x08004455   Thumb Code   108  atk_ms53l0.o(.text.atk_ms53l0_hw_init)
    atk_ms53l0_iic_init                      0x080044c1   Thumb Code   174  atk_ms53l0_iic.o(.text.atk_ms53l0_iic_init)
    atk_ms53l0_iic_read_byte                 0x08004571   Thumb Code   208  atk_ms53l0_iic.o(.text.atk_ms53l0_iic_read_byte)
    atk_ms53l0_iic_send_byte                 0x08004641   Thumb Code    92  atk_ms53l0_iic.o(.text.atk_ms53l0_iic_send_byte)
    atk_ms53l0_iic_start                     0x0800469d   Thumb Code    80  atk_ms53l0_iic.o(.text.atk_ms53l0_iic_start)
    atk_ms53l0_iic_stop                      0x080046ed   Thumb Code    68  atk_ms53l0_iic.o(.text.atk_ms53l0_iic_stop)
    atk_ms53l0_iic_wait_ack                  0x08004731   Thumb Code   150  atk_ms53l0_iic.o(.text.atk_ms53l0_iic_wait_ack)
    delay_init                               0x080047c9   Thumb Code    22  delay.o(.text.delay_init)
    delay_ms                                 0x080047e1   Thumb Code   148  delay.o(.text.delay_ms)
    delay_us                                 0x08004875   Thumb Code    58  delay.o(.text.delay_us)
    demo_run                                 0x080048b1   Thumb Code   236  demo.o(.text.demo_run)
    enable_ref_spads                         0x080049ed   Thumb Code   326  vl53l0x_api_calibration.o(.text.enable_ref_spads)
    fputc                                    0x08004b35   Thumb Code    20  usart.o(.text.fputc)
    get_sequence_step_timeout                0x08004b49   Thumb Code   396  vl53l0x_api_core.o(.text.get_sequence_step_timeout)
    key_init                                 0x08004cd5   Thumb Code   188  key.o(.text.key_init)
    lcd_ex_ili9341_reginit                   0x08004d91   Thumb Code  1826  lcd.o(.text.lcd_ex_ili9341_reginit)
    lcd_ex_ili9806_reginit                   0x080054b5   Thumb Code  2672  lcd.o(.text.lcd_ex_ili9806_reginit)
    lcd_ex_nt35310_reginit                   0x08005f25   Thumb Code 12082  lcd.o(.text.lcd_ex_nt35310_reginit)
    lcd_ex_nt35510_reginit                   0x08008e59   Thumb Code  3548  lcd.o(.text.lcd_ex_nt35510_reginit)
    lcd_ex_ssd1963_reginit                   0x08009c35   Thumb Code  1130  lcd.o(.text.lcd_ex_ssd1963_reginit)
    lcd_ex_st7789_reginit                    0x0800a0a1   Thumb Code  1404  lcd.o(.text.lcd_ex_st7789_reginit)
    lcd_ex_st7796_reginit                    0x0800a61d   Thumb Code  1498  lcd.o(.text.lcd_ex_st7796_reginit)
    lcd_init                                 0x0800abf9   Thumb Code  1640  lcd.o(.text.lcd_init)
    lcd_scan_dir                             0x0800b26d   Thumb Code   736  lcd.o(.text.lcd_scan_dir)
    lcd_set_cursor                           0x0800b555   Thumb Code   626  lcd.o(.text.lcd_set_cursor)
    lcd_show_char                            0x0800b7c9   Thumb Code   304  lcd.o(.text.lcd_show_char)
    lcd_show_string                          0x0800b8f9   Thumb Code   118  lcd.o(.text.lcd_show_string)
    led_init                                 0x0800b971   Thumb Code   130  led.o(.text.led_init)
    main                                     0x0800b9f5   Thumb Code    58  main.o(.text.main)
    perform_ref_signal_measurement           0x0800ba31   Thumb Code   110  vl53l0x_api_calibration.o(.text.perform_ref_signal_measurement)
    set_sequence_step_timeout                0x0800baa1   Thumb Code   470  vl53l0x_api_core.o(.text.set_sequence_step_timeout)
    show_mesg                                0x0800bc79   Thumb Code   132  main.o(.text.show_mesg)
    sys_stm32_clock_init                     0x0800bd49   Thumb Code   172  sys.o(.text.sys_stm32_clock_init)
    usart_init                               0x0800bdf5   Thumb Code    62  usart.o(.text.usart_init)
    _fp_init                                 0x0800be33   Thumb Code    26  fpinit.o(x$fpl$fpinit)
    __fplib_config_fpu_vfp                   0x0800be4b   Thumb Code     0  fpinit.o(x$fpl$fpinit)
    __fplib_config_pureend_doubles           0x0800be4b   Thumb Code     0  fpinit.o(x$fpl$fpinit)
    AHBPrescTable                            0x0800be82   Data          16  system_stm32f4xx.o(.rodata.AHBPrescTable)
    APBPrescTable                            0x0800be92   Data           8  system_stm32f4xx.o(.rodata.APBPrescTable)
    asc2_1206                                0x0800be9a   Data        1140  lcd.o(.rodata.asc2_1206)
    asc2_1608                                0x0800c30e   Data        1520  lcd.o(.rodata.asc2_1608)
    asc2_2412                                0x0800c8fe   Data        3420  lcd.o(.rodata.asc2_2412)
    asc2_3216                                0x0800d65a   Data        6080  lcd.o(.rodata.asc2_3216)
    Region$$Table$$Base                      0x0800ee3c   Number         0  anon$$obj.o(Region$$Table)
    Region$$Table$$Limit                     0x0800ee5c   Number         0  anon$$obj.o(Region$$Table)
    __ARM_use_no_argv                        0x20000000   Data           4  main.o(.ARM.use_no_argv)
    DefaultTuningSettings                    0x20000004   Data         243  vl53l0x_api.o(.data.DefaultTuningSettings)
    InterruptThresholdSettings               0x200000f7   Data         438  vl53l0x_api.o(.data.InterruptThresholdSettings)
    SystemCoreClock                          0x200002b0   Data           4  system_stm32f4xx.o(.data.SystemCoreClock)
    g_back_color                             0x20000438   Data           4  lcd.o(.data.g_back_color)
    refArrayQuadrants                        0x2000043c   Data          16  vl53l0x_api_calibration.o(.data.refArrayQuadrants)
    uwTickFreq                               0x2000044c   Data           1  stm32f4xx_hal.o(.data.uwTickFreq)
    uwTickPrio                               0x20000450   Data           4  stm32f4xx_hal.o(.data.uwTickPrio)
    __libspace_start                         0x20000458   Data          96  libspace.o(.bss)
    __stdout                                 0x200004b8   Data          84  usart.o(.bss.__stdout)
    __temporary_stack_top$libspace           0x200004b8   Data           0  libspace.o(.bss)
    g_rx_buffer                              0x20000510   Data           1  usart.o(.bss.g_rx_buffer)
    g_sram_handle                            0x20000514   Data          80  lcd.o(.bss.g_sram_handle)
    g_uart1_handle                           0x20000564   Data          68  usart.o(.bss.g_uart1_handle)
    g_usart_rx_buf                           0x200005a8   Data         200  usart.o(.bss.g_usart_rx_buf)
    g_usart_rx_sta                           0x20000670   Data           2  usart.o(.bss.g_usart_rx_sta)
    lcddev                                   0x20000672   Data          14  lcd.o(.bss.lcddev)
    uwTick                                   0x20000680   Data           4  stm32f4xx_hal.o(.bss.uwTick)



==============================================================================

Memory Map of the image

  Image Entry point : 0x08000189

  Load Region LR_IROM1 (Base: 0x08000000, Size: 0x0000f2b8, Max: 0x00100000, ABSOLUTE, COMPRESSED[0x0000f120])

    Execution Region ER_IROM1 (Exec base: 0x08000000, Load base: 0x08000000, Size: 0x0000ee5c, Max: 0x00100000, ABSOLUTE)

    Exec Addr    Load Addr    Size         Type   Attr      Idx    E Section Name        Object

    0x08000000   0x08000000   0x00000188   Data   RO            3    RESET               startup_stm32f407xx.o
    0x08000188   0x08000188   0x00000008   Code   RO         1742  * !!!main             c_w.l(__main.o)
    0x08000190   0x08000190   0x00000034   Code   RO         1936    !!!scatter          c_w.l(__scatter.o)
    0x080001c4   0x080001c4   0x0000003a   Code   RO         1934    !!dczerorl          c_w.l(__dczerorl.o)
    0x080001fe   0x080001fe   0x00000002   PAD
    0x08000200   0x08000200   0x0000001c   Code   RO         1938    !!handler_zi        c_w.l(__scatter_zi.o)
    0x0800021c   0x0800021c   0x00000000   Code   RO         1727    .ARM.Collect$$_printf_percent$$00000000  c_w.l(_printf_percent.o)
    0x0800021c   0x0800021c   0x00000006   Code   RO         1726    .ARM.Collect$$_printf_percent$$00000009  c_w.l(_printf_d.o)
    0x08000222   0x08000222   0x00000006   Code   RO         1725    .ARM.Collect$$_printf_percent$$0000000C  c_w.l(_printf_x.o)
    0x08000228   0x08000228   0x00000004   Code   RO         1767    .ARM.Collect$$_printf_percent$$00000017  c_w.l(_printf_percent_end.o)
    0x0800022c   0x0800022c   0x00000002   Code   RO         1811    .ARM.Collect$$libinit$$00000000  c_w.l(libinit.o)
    0x0800022e   0x0800022e   0x00000004   Code   RO         1823    .ARM.Collect$$libinit$$00000001  c_w.l(libinit2.o)
    0x08000232   0x08000232   0x00000000   Code   RO         1826    .ARM.Collect$$libinit$$00000004  c_w.l(libinit2.o)
    0x08000232   0x08000232   0x00000000   Code   RO         1828    .ARM.Collect$$libinit$$00000006  c_w.l(libinit2.o)
    0x08000232   0x08000232   0x00000000   Code   RO         1831    .ARM.Collect$$libinit$$0000000C  c_w.l(libinit2.o)
    0x08000232   0x08000232   0x00000000   Code   RO         1833    .ARM.Collect$$libinit$$0000000E  c_w.l(libinit2.o)
    0x08000232   0x08000232   0x00000000   Code   RO         1835    .ARM.Collect$$libinit$$00000010  c_w.l(libinit2.o)
    0x08000232   0x08000232   0x00000000   Code   RO         1838    .ARM.Collect$$libinit$$00000013  c_w.l(libinit2.o)
    0x08000232   0x08000232   0x00000000   Code   RO         1840    .ARM.Collect$$libinit$$00000015  c_w.l(libinit2.o)
    0x08000232   0x08000232   0x00000000   Code   RO         1842    .ARM.Collect$$libinit$$00000017  c_w.l(libinit2.o)
    0x08000232   0x08000232   0x00000000   Code   RO         1844    .ARM.Collect$$libinit$$00000019  c_w.l(libinit2.o)
    0x08000232   0x08000232   0x00000000   Code   RO         1846    .ARM.Collect$$libinit$$0000001B  c_w.l(libinit2.o)
    0x08000232   0x08000232   0x00000000   Code   RO         1848    .ARM.Collect$$libinit$$0000001D  c_w.l(libinit2.o)
    0x08000232   0x08000232   0x00000000   Code   RO         1850    .ARM.Collect$$libinit$$0000001F  c_w.l(libinit2.o)
    0x08000232   0x08000232   0x00000000   Code   RO         1852    .ARM.Collect$$libinit$$00000021  c_w.l(libinit2.o)
    0x08000232   0x08000232   0x00000000   Code   RO         1854    .ARM.Collect$$libinit$$00000023  c_w.l(libinit2.o)
    0x08000232   0x08000232   0x00000000   Code   RO         1856    .ARM.Collect$$libinit$$00000025  c_w.l(libinit2.o)
    0x08000232   0x08000232   0x00000000   Code   RO         1858    .ARM.Collect$$libinit$$00000027  c_w.l(libinit2.o)
    0x08000232   0x08000232   0x00000000   Code   RO         1862    .ARM.Collect$$libinit$$0000002E  c_w.l(libinit2.o)
    0x08000232   0x08000232   0x00000000   Code   RO         1864    .ARM.Collect$$libinit$$00000030  c_w.l(libinit2.o)
    0x08000232   0x08000232   0x00000000   Code   RO         1866    .ARM.Collect$$libinit$$00000032  c_w.l(libinit2.o)
    0x08000232   0x08000232   0x00000000   Code   RO         1868    .ARM.Collect$$libinit$$00000034  c_w.l(libinit2.o)
    0x08000232   0x08000232   0x00000002   Code   RO         1869    .ARM.Collect$$libinit$$00000035  c_w.l(libinit2.o)
    0x08000234   0x08000234   0x00000002   Code   RO         1893    .ARM.Collect$$libshutdown$$00000000  c_w.l(libshutdown.o)
    0x08000236   0x08000236   0x00000000   Code   RO         1917    .ARM.Collect$$libshutdown$$00000002  c_w.l(libshutdown2.o)
    0x08000236   0x08000236   0x00000000   Code   RO         1919    .ARM.Collect$$libshutdown$$00000004  c_w.l(libshutdown2.o)
    0x08000236   0x08000236   0x00000000   Code   RO         1922    .ARM.Collect$$libshutdown$$00000007  c_w.l(libshutdown2.o)
    0x08000236   0x08000236   0x00000000   Code   RO         1925    .ARM.Collect$$libshutdown$$0000000A  c_w.l(libshutdown2.o)
    0x08000236   0x08000236   0x00000000   Code   RO         1927    .ARM.Collect$$libshutdown$$0000000C  c_w.l(libshutdown2.o)
    0x08000236   0x08000236   0x00000000   Code   RO         1930    .ARM.Collect$$libshutdown$$0000000F  c_w.l(libshutdown2.o)
    0x08000236   0x08000236   0x00000002   Code   RO         1931    .ARM.Collect$$libshutdown$$00000010  c_w.l(libshutdown2.o)
    0x08000238   0x08000238   0x00000000   Code   RO         1758    .ARM.Collect$$rtentry$$00000000  c_w.l(__rtentry.o)
    0x08000238   0x08000238   0x00000000   Code   RO         1774    .ARM.Collect$$rtentry$$00000002  c_w.l(__rtentry2.o)
    0x08000238   0x08000238   0x00000006   Code   RO         1786    .ARM.Collect$$rtentry$$00000004  c_w.l(__rtentry4.o)
    0x0800023e   0x0800023e   0x00000000   Code   RO         1776    .ARM.Collect$$rtentry$$00000009  c_w.l(__rtentry2.o)
    0x0800023e   0x0800023e   0x00000004   Code   RO         1777    .ARM.Collect$$rtentry$$0000000A  c_w.l(__rtentry2.o)
    0x08000242   0x08000242   0x00000000   Code   RO         1779    .ARM.Collect$$rtentry$$0000000C  c_w.l(__rtentry2.o)
    0x08000242   0x08000242   0x00000008   Code   RO         1780    .ARM.Collect$$rtentry$$0000000D  c_w.l(__rtentry2.o)
    0x0800024a   0x0800024a   0x00000002   Code   RO         1815    .ARM.Collect$$rtexit$$00000000  c_w.l(rtexit.o)
    0x0800024c   0x0800024c   0x00000000   Code   RO         1871    .ARM.Collect$$rtexit$$00000002  c_w.l(rtexit2.o)
    0x0800024c   0x0800024c   0x00000004   Code   RO         1872    .ARM.Collect$$rtexit$$00000003  c_w.l(rtexit2.o)
    0x08000250   0x08000250   0x00000006   Code   RO         1873    .ARM.Collect$$rtexit$$00000004  c_w.l(rtexit2.o)
    0x08000256   0x08000256   0x00000002   PAD
    0x08000258   0x08000258   0x0000004c   Code   RO            4    .text               startup_stm32f407xx.o
    0x080002a4   0x080002a4   0x00000002   Code   RO         1672    .text               c_w.l(use_no_semi_2.o)
    0x080002a6   0x080002a6   0x000000f0   Code   RO         1674    .text               c_w.l(lludivv7m.o)
    0x08000396   0x08000396   0x00000002   PAD
    0x08000398   0x08000398   0x00000018   Code   RO         1678    .text               c_w.l(noretval__2printf.o)
    0x080003b0   0x080003b0   0x00000068   Code   RO         1680    .text               c_w.l(__printf.o)
    0x08000418   0x08000418   0x00000078   Code   RO         1682    .text               c_w.l(_printf_dec.o)
    0x08000490   0x08000490   0x00000058   Code   RO         1687    .text               c_w.l(_printf_hex_int.o)
    0x080004e8   0x080004e8   0x0000000c   Code   RO         1728    .text               c_w.l(putchar.o)
    0x080004f4   0x080004f4   0x0000002c   Code   RO         1730    .text               c_w.l(puts.o)
    0x08000520   0x08000520   0x00000048   Code   RO         1732    .text               c_w.l(strcpy.o)
    0x08000568   0x08000568   0x0000008a   Code   RO         1734    .text               c_w.l(rt_memcpy_v6.o)
    0x080005f2   0x080005f2   0x00000064   Code   RO         1736    .text               c_w.l(rt_memcpy_w.o)
    0x08000656   0x08000656   0x0000004e   Code   RO         1738    .text               c_w.l(rt_memclr_w.o)
    0x080006a4   0x080006a4   0x00000006   Code   RO         1740    .text               c_w.l(heapauxi.o)
    0x080006aa   0x080006aa   0x00000002   Code   RO         1756    .text               c_w.l(use_no_semi.o)
    0x080006ac   0x080006ac   0x000000b2   Code   RO         1763    .text               c_w.l(_printf_intcommon.o)
    0x0800075e   0x0800075e   0x00000002   PAD
    0x08000760   0x08000760   0x00000024   Code   RO         1765    .text               c_w.l(_printf_char_file.o)
    0x08000784   0x08000784   0x00000030   Code   RO         1790    .text               c_w.l(_printf_char_common.o)
    0x080007b4   0x080007b4   0x00000008   Code   RO         1792    .text               c_w.l(ferror.o)
    0x080007bc   0x080007bc   0x0000004a   Code   RO         1796    .text               c_w.l(sys_stackheap_outer.o)
    0x08000806   0x08000806   0x00000012   Code   RO         1800    .text               c_w.l(exit.o)
    0x08000818   0x08000818   0x00000008   Code   RO         1812    .text               c_w.l(libspace.o)
    0x08000820   0x08000820   0x00000002   Code   RO           30    .text.BusFault_Handler  stm32f4xx_it.o
    0x08000822   0x08000822   0x00000002   PAD
    0x08000824   0x08000824   0x00000002   Code   RO           36    .text.DebugMon_Handler  stm32f4xx_it.o
    0x08000826   0x08000826   0x00000002   PAD
    0x08000828   0x08000828   0x00000042   Code   RO          985    .text.FSMC_NORSRAM_Extended_Timing_Init  stm32f4xx_ll_fsmc.o
    0x0800086a   0x0800086a   0x00000002   PAD
    0x0800086c   0x0800086c   0x0000005e   Code   RO          979    .text.FSMC_NORSRAM_Init  stm32f4xx_ll_fsmc.o
    0x080008ca   0x080008ca   0x00000002   PAD
    0x080008cc   0x080008cc   0x00000044   Code   RO          983    .text.FSMC_NORSRAM_Timing_Init  stm32f4xx_ll_fsmc.o
    0x08000910   0x08000910   0x0000008a   Code   RO         1031    .text.HAL_DMA_Abort  stm32f4xx_hal_dma.o
    0x0800099a   0x0800099a   0x00000002   PAD
    0x0800099c   0x0800099c   0x00000024   Code   RO         1033    .text.HAL_DMA_Abort_IT  stm32f4xx_hal_dma.o
    0x080009c0   0x080009c0   0x0000019a   Code   RO          258    .text.HAL_GPIO_Init  stm32f4xx_hal_gpio.o
    0x08000b5a   0x08000b5a   0x00000002   PAD
    0x08000b5c   0x08000b5c   0x0000000a   Code   RO          262    .text.HAL_GPIO_ReadPin  stm32f4xx_hal_gpio.o
    0x08000b66   0x08000b66   0x00000002   PAD
    0x08000b68   0x08000b68   0x00000010   Code   RO          266    .text.HAL_GPIO_TogglePin  stm32f4xx_hal_gpio.o
    0x08000b78   0x08000b78   0x0000000a   Code   RO          264    .text.HAL_GPIO_WritePin  stm32f4xx_hal_gpio.o
    0x08000b82   0x08000b82   0x00000002   PAD
    0x08000b84   0x08000b84   0x0000000e   Code   RO          175    .text.HAL_GetREVID  stm32f4xx_hal.o
    0x08000b92   0x08000b92   0x00000002   PAD
    0x08000b94   0x08000b94   0x0000000c   Code   RO          159    .text.HAL_GetTick   stm32f4xx_hal.o
    0x08000ba0   0x08000ba0   0x0000001a   Code   RO          157    .text.HAL_IncTick   stm32f4xx_hal.o
    0x08000bba   0x08000bba   0x00000002   PAD
    0x08000bbc   0x08000bbc   0x0000002e   Code   RO          147    .text.HAL_Init      stm32f4xx_hal.o
    0x08000bea   0x08000bea   0x00000002   PAD
    0x08000bec   0x08000bec   0x00000050   Code   RO          149    .text.HAL_InitTick  stm32f4xx_hal.o
    0x08000c3c   0x08000c3c   0x00000002   Code   RO          151    .text.HAL_MspInit   stm32f4xx_hal.o
    0x08000c3e   0x08000c3e   0x00000002   PAD
    0x08000c40   0x08000c40   0x00000020   Code   RO          216    .text.HAL_NVIC_EnableIRQ  stm32f4xx_hal_cortex.o
    0x08000c60   0x08000c60   0x00000056   Code   RO          214    .text.HAL_NVIC_SetPriority  stm32f4xx_hal_cortex.o
    0x08000cb6   0x08000cb6   0x00000002   PAD
    0x08000cb8   0x08000cb8   0x00000020   Code   RO          212    .text.HAL_NVIC_SetPriorityGrouping  stm32f4xx_hal_cortex.o
    0x08000cd8   0x08000cd8   0x00000160   Code   RO          286    .text.HAL_RCC_ClockConfig  stm32f4xx_hal_rcc.o
    0x08000e38   0x08000e38   0x00000026   Code   RO          298    .text.HAL_RCC_GetPCLK1Freq  stm32f4xx_hal_rcc.o
    0x08000e5e   0x08000e5e   0x00000002   PAD
    0x08000e60   0x08000e60   0x00000026   Code   RO          300    .text.HAL_RCC_GetPCLK2Freq  stm32f4xx_hal_rcc.o
    0x08000e86   0x08000e86   0x00000002   PAD
    0x08000e88   0x08000e88   0x0000006a   Code   RO          288    .text.HAL_RCC_GetSysClockFreq  stm32f4xx_hal_rcc.o
    0x08000ef2   0x08000ef2   0x00000002   PAD
    0x08000ef4   0x08000ef4   0x00000344   Code   RO          284    .text.HAL_RCC_OscConfig  stm32f4xx_hal_rcc.o
    0x08001238   0x08001238   0x00000056   Code   RO          937    .text.HAL_SRAM_Init  stm32f4xx_hal_sram.o
    0x0800128e   0x0800128e   0x00000002   PAD
    0x08001290   0x08001290   0x00000084   Code   RO         1171    .text.HAL_SRAM_MspInit  lcd.o
    0x08001314   0x08001314   0x00000018   Code   RO          244    .text.HAL_SYSTICK_CLKSourceConfig  stm32f4xx_hal_cortex.o
    0x0800132c   0x0800132c   0x0000002c   Code   RO          224    .text.HAL_SYSTICK_Config  stm32f4xx_hal_cortex.o
    0x08001358   0x08001358   0x00000002   Code   RO          568    .text.HAL_UARTEx_RxEventCallback  stm32f4xx_hal_uart.o
    0x0800135a   0x0800135a   0x00000002   PAD
    0x0800135c   0x0800135c   0x00000002   Code   RO          566    .text.HAL_UART_ErrorCallback  stm32f4xx_hal_uart.o
    0x0800135e   0x0800135e   0x00000002   PAD
    0x08001360   0x08001360   0x0000026e   Code   RO          560    .text.HAL_UART_IRQHandler  stm32f4xx_hal_uart.o
    0x080015ce   0x080015ce   0x00000002   PAD
    0x080015d0   0x080015d0   0x0000005e   Code   RO          484    .text.HAL_UART_Init  stm32f4xx_hal_uart.o
    0x0800162e   0x0800162e   0x00000002   PAD
    0x08001630   0x08001630   0x000000a0   Code   RO          128    .text.HAL_UART_MspInit  usart.o
    0x080016d0   0x080016d0   0x00000056   Code   RO          506    .text.HAL_UART_Receive_IT  stm32f4xx_hal_uart.o
    0x08001726   0x08001726   0x00000002   PAD
    0x08001728   0x08001728   0x00000080   Code   RO          130    .text.HAL_UART_RxCpltCallback  usart.o
    0x080017a8   0x080017a8   0x00000002   Code   RO          570    .text.HAL_UART_TxCpltCallback  stm32f4xx_hal_uart.o
    0x080017aa   0x080017aa   0x00000002   PAD
    0x080017ac   0x080017ac   0x00000002   Code   RO           26    .text.HardFault_Handler  stm32f4xx_it.o
    0x080017ae   0x080017ae   0x00000002   PAD
    0x080017b0   0x080017b0   0x00000002   Code   RO           28    .text.MemManage_Handler  stm32f4xx_it.o
    0x080017b2   0x080017b2   0x00000002   PAD
    0x080017b4   0x080017b4   0x00000002   Code   RO           24    .text.NMI_Handler   stm32f4xx_it.o
    0x080017b6   0x080017b6   0x00000002   PAD
    0x080017b8   0x080017b8   0x00000002   Code   RO           38    .text.PendSV_Handler  stm32f4xx_it.o
    0x080017ba   0x080017ba   0x00000002   PAD
    0x080017bc   0x080017bc   0x00000002   Code   RO           34    .text.SVC_Handler   stm32f4xx_it.o
    0x080017be   0x080017be   0x00000002   PAD
    0x080017c0   0x080017c0   0x00000004   Code   RO           40    .text.SysTick_Handler  stm32f4xx_it.o
    0x080017c4   0x080017c4   0x00000012   Code   RO           49    .text.SystemInit    system_stm32f4xx.o
    0x080017d6   0x080017d6   0x00000002   PAD
    0x080017d8   0x080017d8   0x0000000c   Code   RO          564    .text.UART_DMAAbortOnError  stm32f4xx_hal_uart.o
    0x080017e4   0x080017e4   0x0000009e   Code   RO          562    .text.UART_Receive_IT  stm32f4xx_hal_uart.o
    0x08001882   0x08001882   0x00000002   PAD
    0x08001884   0x08001884   0x000000ea   Code   RO          488    .text.UART_SetConfig  stm32f4xx_hal_uart.o
    0x0800196e   0x0800196e   0x00000002   PAD
    0x08001970   0x08001970   0x0000000c   Code   RO          132    .text.USART1_IRQHandler  usart.o
    0x0800197c   0x0800197c   0x00000002   Code   RO           32    .text.UsageFault_Handler  stm32f4xx_it.o
    0x0800197e   0x0800197e   0x00000002   PAD
    0x08001980   0x08001980   0x000000f0   Code   RO         1392    .text.VL53L0X_CheckAndLoadInterruptSettings  vl53l0x_api.o
    0x08001a70   0x08001a70   0x00000052   Code   RO         1412    .text.VL53L0X_ClearInterruptMask  vl53l0x_api.o
    0x08001ac2   0x08001ac2   0x00000002   PAD
    0x08001ac4   0x08001ac4   0x00000294   Code   RO         1290    .text.VL53L0X_DataInit  vl53l0x_api.o
    0x08001d58   0x08001d58   0x00000120   Code   RO         1292    .text.VL53L0X_GetDeviceParameters  vl53l0x_api.o
    0x08001e78   0x08001e78   0x00000018   Code   RO         1334    .text.VL53L0X_GetLimitCheckEnable  vl53l0x_api.o
    0x08001e90   0x08001e90   0x00000090   Code   RO         1332    .text.VL53L0X_GetLimitCheckValue  vl53l0x_api.o
    0x08001f20   0x08001f20   0x00000052   Code   RO         1398    .text.VL53L0X_GetMeasurementDataReady  vl53l0x_api.o
    0x08001f72   0x08001f72   0x00000002   PAD
    0x08001f74   0x08001f74   0x00000110   Code   RO         1404    .text.VL53L0X_GetRangingMeasurementData  vl53l0x_api.o
    0x08002084   0x08002084   0x00000072   Code   RO         1352    .text.VL53L0X_GetSequenceStepEnables  vl53l0x_api.o
    0x080020f6   0x080020f6   0x00000002   PAD
    0x080020f8   0x080020f8   0x00000004   Code   RO         1308    .text.VL53L0X_GetVcselPulsePeriod  vl53l0x_api.o
    0x080020fc   0x080020fc   0x00000008   Code   RO         1364    .text.VL53L0X_GetXTalkCompensationEnable  vl53l0x_api.o
    0x08002104   0x08002104   0x00000006   Code   RO         1384    .text.VL53L0X_PerformRefCalibration  vl53l0x_api.o
    0x0800210a   0x0800210a   0x00000002   PAD
    0x0800210c   0x0800210c   0x00000004   Code   RO         1440    .text.VL53L0X_PerformRefSpadManagement  vl53l0x_api.o
    0x08002110   0x08002110   0x00000084   Code   RO         1410    .text.VL53L0X_PerformSingleRangingMeasurement  vl53l0x_api.o
    0x08002194   0x08002194   0x00000004   Code   RO         1616    .text.VL53L0X_PollingDelay  vl53l0x_platform.o
    0x08002198   0x08002198   0x00000014   Code   RO         1610    .text.VL53L0X_RdByte  vl53l0x_platform.o
    0x080021ac   0x080021ac   0x00000014   Code   RO         1614    .text.VL53L0X_RdDWord  vl53l0x_platform.o
    0x080021c0   0x080021c0   0x00000014   Code   RO         1612    .text.VL53L0X_RdWord  vl53l0x_platform.o
    0x080021d4   0x080021d4   0x00000020   Code   RO         1600    .text.VL53L0X_ReadMulti  vl53l0x_platform.o
    0x080021f4   0x080021f4   0x00000008   Code   RO         1288    .text.VL53L0X_SetDeviceAddress  vl53l0x_api.o
    0x080021fc   0x080021fc   0x00000022   Code   RO         1316    .text.VL53L0X_SetDeviceMode  vl53l0x_api.o
    0x0800221e   0x0800221e   0x00000002   PAD
    0x08002220   0x08002220   0x00000188   Code   RO         1302    .text.VL53L0X_SetGpioConfig  vl53l0x_api.o
    0x080023a8   0x080023a8   0x00000004   Code   RO         1324    .text.VL53L0X_SetMeasurementTimingBudgetMicroSeconds  vl53l0x_api.o
    0x080023ac   0x080023ac   0x000000f0   Code   RO         1380    .text.VL53L0X_StartMeasurement  vl53l0x_api.o
    0x0800249c   0x0800249c   0x00000246   Code   RO         1270    .text.VL53L0X_StaticInit  vl53l0x_api.o
    0x080026e2   0x080026e2   0x00000002   PAD
    0x080026e4   0x080026e4   0x0000004c   Code   RO         1608    .text.VL53L0X_UpdateByte  vl53l0x_platform.o
    0x08002730   0x08002730   0x00000014   Code   RO         1602    .text.VL53L0X_WrByte  vl53l0x_platform.o
    0x08002744   0x08002744   0x00000014   Code   RO         1604    .text.VL53L0X_WrWord  vl53l0x_platform.o
    0x08002758   0x08002758   0x00000020   Code   RO         1598    .text.VL53L0X_WriteMulti  vl53l0x_platform.o
    0x08002778   0x08002778   0x000000c6   Code   RO         1553    .text.VL53L0X_calc_dmax  vl53l0x_api_core.o
    0x0800283e   0x0800283e   0x00000002   PAD
    0x08002840   0x08002840   0x00000330   Code   RO         1555    .text.VL53L0X_calc_sigma_estimate  vl53l0x_api_core.o
    0x08002b70   0x08002b70   0x0000000a   Code   RO         1626    .text.VL53L0X_comms_initialise  vl53l0x_i2c_platform.o
    0x08002b7a   0x08002b7a   0x00000002   PAD
    0x08002b7c   0x08002b7c   0x00000a5c   Code   RO         1521    .text.VL53L0X_get_info_from_device  vl53l0x_api_core.o
    0x080035d8   0x080035d8   0x00000168   Code   RO         1543    .text.VL53L0X_get_measurement_timing_budget_micro_seconds  vl53l0x_api_core.o
    0x08003740   0x08003740   0x00000042   Code   RO         1458    .text.VL53L0X_get_offset_calibration_data_micro_meter  vl53l0x_api_calibration.o
    0x08003782   0x08003782   0x00000002   PAD
    0x08003784   0x08003784   0x00000210   Code   RO         1557    .text.VL53L0X_get_pal_range_status  vl53l0x_api_core.o
    0x08003994   0x08003994   0x00000038   Code   RO         1539    .text.VL53L0X_get_vcsel_pulse_period  vl53l0x_api_core.o
    0x080039cc   0x080039cc   0x000000c8   Code   RO         1545    .text.VL53L0X_load_tuning_settings  vl53l0x_api_core.o
    0x08003a94   0x08003a94   0x0000004e   Code   RO         1509    .text.VL53L0X_measurement_poll_for_completion  vl53l0x_api_core.o
    0x08003ae2   0x08003ae2   0x00000002   PAD
    0x08003ae4   0x08003ae4   0x000000f0   Code   RO         1492    .text.VL53L0X_perform_phase_calibration  vl53l0x_api_calibration.o
    0x08003bd4   0x08003bd4   0x00000044   Code   RO         1480    .text.VL53L0X_perform_ref_calibration  vl53l0x_api_calibration.o
    0x08003c18   0x08003c18   0x000003ce   Code   RO         1478    .text.VL53L0X_perform_ref_spad_management  vl53l0x_api_calibration.o
    0x08003fe6   0x08003fe6   0x00000002   PAD
    0x08003fe8   0x08003fe8   0x000000e4   Code   RO         1490    .text.VL53L0X_perform_vhv_calibration  vl53l0x_api_calibration.o
    0x080040cc   0x080040cc   0x00000006   Code   RO         1640    .text.VL53L0X_read_byte  vl53l0x_i2c_platform.o
    0x080040d2   0x080040d2   0x00000002   PAD
    0x080040d4   0x080040d4   0x00000018   Code   RO         1644    .text.VL53L0X_read_dword  vl53l0x_i2c_platform.o
    0x080040ec   0x080040ec   0x0000007a   Code   RO         1632    .text.VL53L0X_read_multi  vl53l0x_i2c_platform.o
    0x08004166   0x08004166   0x00000002   PAD
    0x08004168   0x08004168   0x0000001e   Code   RO         1642    .text.VL53L0X_read_word  vl53l0x_i2c_platform.o
    0x08004186   0x08004186   0x00000002   PAD
    0x08004188   0x08004188   0x00000174   Code   RO         1541    .text.VL53L0X_set_measurement_timing_budget_micro_seconds  vl53l0x_api_core.o
    0x080042fc   0x080042fc   0x000000bc   Code   RO         1482    .text.VL53L0X_set_reference_spads  vl53l0x_api_calibration.o
    0x080043b8   0x080043b8   0x00000016   Code   RO         1634    .text.VL53L0X_write_byte  vl53l0x_i2c_platform.o
    0x080043ce   0x080043ce   0x00000002   PAD
    0x080043d0   0x080043d0   0x00000066   Code   RO         1630    .text.VL53L0X_write_multi  vl53l0x_i2c_platform.o
    0x08004436   0x08004436   0x00000002   PAD
    0x08004438   0x08004438   0x00000018   Code   RO         1636    .text.VL53L0X_write_word  vl53l0x_i2c_platform.o
    0x08004450   0x08004450   0x00000002   Code   RO          120    .text._sys_exit     usart.o
    0x08004452   0x08004452   0x00000002   PAD
    0x08004454   0x08004454   0x0000006c   Code   RO         1216    .text.atk_ms53l0_hw_init  atk_ms53l0.o
    0x080044c0   0x080044c0   0x000000ae   Code   RO         1238    .text.atk_ms53l0_iic_init  atk_ms53l0_iic.o
    0x0800456e   0x0800456e   0x00000002   PAD
    0x08004570   0x08004570   0x000000d0   Code   RO         1236    .text.atk_ms53l0_iic_read_byte  atk_ms53l0_iic.o
    0x08004640   0x08004640   0x0000005c   Code   RO         1234    .text.atk_ms53l0_iic_send_byte  atk_ms53l0_iic.o
    0x0800469c   0x0800469c   0x00000050   Code   RO         1224    .text.atk_ms53l0_iic_start  atk_ms53l0_iic.o
    0x080046ec   0x080046ec   0x00000044   Code   RO         1226    .text.atk_ms53l0_iic_stop  atk_ms53l0_iic.o
    0x08004730   0x08004730   0x00000096   Code   RO         1228    .text.atk_ms53l0_iic_wait_ack  atk_ms53l0_iic.o
    0x080047c6   0x080047c6   0x00000002   PAD
    0x080047c8   0x080047c8   0x00000016   Code   RO           75    .text.delay_init    delay.o
    0x080047de   0x080047de   0x00000002   PAD
    0x080047e0   0x080047e0   0x00000094   Code   RO           79    .text.delay_ms      delay.o
    0x08004874   0x08004874   0x0000003a   Code   RO           77    .text.delay_us      delay.o
    0x080048ae   0x080048ae   0x00000002   PAD
    0x080048b0   0x080048b0   0x0000013c   Code   RO           64    .text.demo_run      demo.o
    0x080049ec   0x080049ec   0x00000146   Code   RO         1474    .text.enable_ref_spads  vl53l0x_api_calibration.o
    0x08004b32   0x08004b32   0x00000002   PAD
    0x08004b34   0x08004b34   0x00000014   Code   RO          124    .text.fputc         usart.o
    0x08004b48   0x08004b48   0x0000018c   Code   RO         1533    .text.get_sequence_step_timeout  vl53l0x_api_core.o
    0x08004cd4   0x08004cd4   0x000000bc   Code   RO         1118    .text.key_init      key.o
    0x08004d90   0x08004d90   0x00000722   Code   RO         1137    .text.lcd_ex_ili9341_reginit  lcd.o
    0x080054b2   0x080054b2   0x00000002   PAD
    0x080054b4   0x080054b4   0x00000a70   Code   RO         1147    .text.lcd_ex_ili9806_reginit  lcd.o
    0x08005f24   0x08005f24   0x00002f32   Code   RO         1139    .text.lcd_ex_nt35310_reginit  lcd.o
    0x08008e56   0x08008e56   0x00000002   PAD
    0x08008e58   0x08008e58   0x00000ddc   Code   RO         1143    .text.lcd_ex_nt35510_reginit  lcd.o
    0x08009c34   0x08009c34   0x0000046a   Code   RO         1149    .text.lcd_ex_ssd1963_reginit  lcd.o
    0x0800a09e   0x0800a09e   0x00000002   PAD
    0x0800a0a0   0x0800a0a0   0x0000057c   Code   RO         1131    .text.lcd_ex_st7789_reginit  lcd.o
    0x0800a61c   0x0800a61c   0x000005da   Code   RO         1141    .text.lcd_ex_st7796_reginit  lcd.o
    0x0800abf6   0x0800abf6   0x00000002   PAD
    0x0800abf8   0x0800abf8   0x00000674   Code   RO         1173    .text.lcd_init      lcd.o
    0x0800b26c   0x0800b26c   0x000002e8   Code   RO         1161    .text.lcd_scan_dir  lcd.o
    0x0800b554   0x0800b554   0x00000272   Code   RO         1155    .text.lcd_set_cursor  lcd.o
    0x0800b7c6   0x0800b7c6   0x00000002   PAD
    0x0800b7c8   0x0800b7c8   0x00000130   Code   RO         1191    .text.lcd_show_char  lcd.o
    0x0800b8f8   0x0800b8f8   0x00000076   Code   RO         1197    .text.lcd_show_string  lcd.o
    0x0800b96e   0x0800b96e   0x00000002   PAD
    0x0800b970   0x0800b970   0x00000082   Code   RO         1109    .text.led_init      led.o
    0x0800b9f2   0x0800b9f2   0x00000002   PAD
    0x0800b9f4   0x0800b9f4   0x0000003a   Code   RO           13    .text.main          main.o
    0x0800ba2e   0x0800ba2e   0x00000002   PAD
    0x0800ba30   0x0800ba30   0x0000006e   Code   RO         1476    .text.perform_ref_signal_measurement  vl53l0x_api_calibration.o
    0x0800ba9e   0x0800ba9e   0x00000002   PAD
    0x0800baa0   0x0800baa0   0x000001d6   Code   RO         1535    .text.set_sequence_step_timeout  vl53l0x_api_core.o
    0x0800bc76   0x0800bc76   0x00000002   PAD
    0x0800bc78   0x0800bc78   0x000000d0   Code   RO           11    .text.show_mesg     main.o
    0x0800bd48   0x0800bd48   0x000000ac   Code   RO          108    .text.sys_stm32_clock_init  sys.o
    0x0800bdf4   0x0800bdf4   0x0000003e   Code   RO          126    .text.usart_init    usart.o
    0x0800be32   0x0800be32   0x0000001a   Code   RO         1883    x$fpl$fpinit        fz_wm.l(fpinit.o)
    0x0800be4c   0x0800be4c   0x00000028   Data   RO         1688    .constdata          c_w.l(_printf_hex_int.o)
    0x0800be74   0x0800be74   0x0000000e   Data   RO         1207    .rodata..Lswitch.table.lcd_scan_dir.1  lcd.o
    0x0800be82   0x0800be82   0x00000010   Data   RO           54    .rodata.AHBPrescTable  system_stm32f4xx.o
    0x0800be92   0x0800be92   0x00000008   Data   RO           55    .rodata.APBPrescTable  system_stm32f4xx.o
    0x0800be9a   0x0800be9a   0x00000474   Data   RO         1199    .rodata.asc2_1206   lcd.o
    0x0800c30e   0x0800c30e   0x000005f0   Data   RO         1200    .rodata.asc2_1608   lcd.o
    0x0800c8fe   0x0800c8fe   0x00000d5c   Data   RO         1201    .rodata.asc2_2412   lcd.o
    0x0800d65a   0x0800d65a   0x000017c0   Data   RO         1202    .rodata.asc2_3216   lcd.o
    0x0800ee1a   0x0800ee1a   0x00000022   Data   RO           15    .rodata.str1.1      main.o
    0x0800ee3c   0x0800ee3c   0x00000020   Data   RO         1933    Region$$Table       anon$$obj.o


    Execution Region RW_IRAM1 (Exec base: 0x20000000, Load base: 0x0800ee60, Size: 0x00000a88, Max: 0x00020000, ABSOLUTE, COMPRESSED[0x000002c0])

    Exec Addr    Load Addr    Size         Type   Attr      Idx    E Section Name        Object

    0x20000000   COMPRESSED   0x00000004   Data   RW           16    .ARM.use_no_argv    main.o
    0x20000004   COMPRESSED   0x000000f3   Data   RW         1442    .data.DefaultTuningSettings  vl53l0x_api.o
    0x200000f7   COMPRESSED   0x000001b6   Data   RW         1443    .data.InterruptThresholdSettings  vl53l0x_api.o
    0x200002ad   COMPRESSED   0x00000003   PAD
    0x200002b0   COMPRESSED   0x00000004   Data   RW           53    .data.SystemCoreClock  system_stm32f4xx.o
    0x200002b4   COMPRESSED   0x00000184   Data   RW           66    .data.demo_dev      demo.o
    0x20000438   COMPRESSED   0x00000004   Data   RW         1204    .data.g_back_color  lcd.o
    0x2000043c   COMPRESSED   0x00000010   Data   RW         1498    .data.refArrayQuadrants  vl53l0x_api_calibration.o
    0x2000044c   COMPRESSED   0x00000001   Data   RW          202    .data.uwTickFreq    stm32f4xx_hal.o
    0x2000044d   COMPRESSED   0x00000003   PAD
    0x20000450   COMPRESSED   0x00000004   Data   RW          201    .data.uwTickPrio    stm32f4xx_hal.o
    0x20000454   COMPRESSED   0x00000004   PAD
    0x20000458        -       0x00000060   Zero   RW         1813    .bss                c_w.l(libspace.o)
    0x200004b8        -       0x00000054   Zero   RW          138    .bss.__stdout       usart.o
    0x2000050c        -       0x00000004   Zero   RW           83    .bss.g_fac_us       delay.o
    0x20000510        -       0x00000001   Zero   RW          136    .bss.g_rx_buffer    usart.o
    0x20000511   COMPRESSED   0x00000003   PAD
    0x20000514        -       0x00000050   Zero   RW         1206    .bss.g_sram_handle  lcd.o
    0x20000564        -       0x00000044   Zero   RW          135    .bss.g_uart1_handle  usart.o
    0x200005a8        -       0x000000c8   Zero   RW          137    .bss.g_usart_rx_buf  usart.o
    0x20000670        -       0x00000002   Zero   RW          134    .bss.g_usart_rx_sta  usart.o
    0x20000672        -       0x0000000e   Zero   RW         1205    .bss.lcddev         lcd.o
    0x20000680        -       0x00000004   Zero   RW          203    .bss.uwTick         stm32f4xx_hal.o
    0x20000684   COMPRESSED   0x00000004   PAD
    0x20000688        -       0x00000000   Zero   RW            2    HEAP                startup_stm32f407xx.o
    0x20000688        -       0x00000400   Zero   RW            1    STACK               startup_stm32f407xx.o


==============================================================================

Image component sizes


      Code (inc. data)   RO Data    RW Data    ZI Data      Debug   Object Name

       108          0          0          0          0       2211   atk_ms53l0.o
       772          0          0          0          0       4648   atk_ms53l0_iic.o
       228          0          0          0          4       3518   delay.o
       316         80          0        388          0       5351   demo.o
       188          0          0          0          0       2789   key.o
     27736         26      12174          4         94     116805   lcd.o
       130          0          0          0          0       2164   led.o
       266         76         34          4          0       1033   main.o
        76         28        392          0       1024       1020   startup_stm32f407xx.o
       180          0          0          5          4       7359   stm32f4xx_hal.o
       218          0          0          0          0      10576   stm32f4xx_hal_cortex.o
       174          0          0          0          0       9864   stm32f4xx_hal_dma.o
       446          0          0          0          0       5130   stm32f4xx_hal_gpio.o
      1370          0          0          0          0       7429   stm32f4xx_hal_rcc.o
        86          0          0          0          0       8174   stm32f4xx_hal_sram.o
      1212          0          0          0          0      22617   stm32f4xx_hal_uart.o
        20          0          0          0          0       1195   stm32f4xx_it.o
       228          0          0          0          0       8354   stm32f4xx_ll_fsmc.o
       172          0          0          0          0       4698   sys.o
        18          0         24          4          0       2800   system_stm32f4xx.o
       384          0          0          0        355       8080   usart.o
      3320         18          0        681          0      52399   vl53l0x_api.o
      2200          0          0         16          0      26559   vl53l0x_api_calibration.o
      6126          4          0          0          0      44845   vl53l0x_api_core.o
       340          0          0          0          0       5482   vl53l0x_i2c_platform.o
       244          0          0          0          0       8475   vl53l0x_platform.o

    ----------------------------------------------------------------------
     46686        232      12656       1108       1492     373575   Object Totals
         0          0         32          0          0          0   (incl. Generated)
       128          0          0          6         11          0   (incl. Padding)

    ----------------------------------------------------------------------

      Code (inc. data)   RO Data    RW Data    ZI Data      Debug   Library Member Name

        58          0          0          0          0          0   __dczerorl.o
         8          0          0          0          0         68   __main.o
       104          0          0          0          0         84   __printf.o
         0          0          0          0          0          0   __rtentry.o
        12          0          0          0          0          0   __rtentry2.o
         6          0          0          0          0          0   __rtentry4.o
        52          8          0          0          0          0   __scatter.o
        28          0          0          0          0          0   __scatter_zi.o
        48          6          0          0          0         96   _printf_char_common.o
        36          4          0          0          0         80   _printf_char_file.o
         6          0          0          0          0          0   _printf_d.o
       120         16          0          0          0         92   _printf_dec.o
        88          4         40          0          0         88   _printf_hex_int.o
       178          0          0          0          0         88   _printf_intcommon.o
         0          0          0          0          0          0   _printf_percent.o
         4          0          0          0          0          0   _printf_percent_end.o
         6          0          0          0          0          0   _printf_x.o
        18          0          0          0          0         80   exit.o
         8          0          0          0          0         68   ferror.o
         6          0          0          0          0        152   heapauxi.o
         2          0          0          0          0          0   libinit.o
         6          0          0          0          0          0   libinit2.o
         2          0          0          0          0          0   libshutdown.o
         2          0          0          0          0          0   libshutdown2.o
         8          4          0          0         96         68   libspace.o
       240          0          0          0          0        100   lludivv7m.o
        24          4          0          0          0         84   noretval__2printf.o
        12          6          0          0          0         68   putchar.o
        44          4          0          0          0         84   puts.o
        78          0          0          0          0         80   rt_memclr_w.o
       138          0          0          0          0         68   rt_memcpy_v6.o
       100          0          0          0          0         80   rt_memcpy_w.o
         2          0          0          0          0          0   rtexit.o
        10          0          0          0          0          0   rtexit2.o
        72          0          0          0          0         80   strcpy.o
        74          0          0          0          0         80   sys_stackheap_outer.o
         2          0          0          0          0         68   use_no_semi.o
         2          0          0          0          0         68   use_no_semi_2.o
        26          0          0          0          0        116   fpinit.o

    ----------------------------------------------------------------------
      1638         56         40          0         96       1940   Library Totals
         8          0          0          0          0          0   (incl. Padding)

    ----------------------------------------------------------------------

      Code (inc. data)   RO Data    RW Data    ZI Data      Debug   Library Name

      1604         56         40          0         96       1824   c_w.l
        26          0          0          0          0        116   fz_wm.l

    ----------------------------------------------------------------------
      1638         56         40          0         96       1940   Library Totals

    ----------------------------------------------------------------------

==============================================================================


      Code (inc. data)   RO Data    RW Data    ZI Data      Debug   

     48324        288      12696       1108       1588     374099   Grand Totals
     48324        288      12696        704       1588     374099   ELF Image Totals (compressed)
     48324        288      12696        704          0          0   ROM Totals

==============================================================================

    Total RO  Size (Code + RO Data)                61020 (  59.59kB)
    Total RW  Size (RW Data + ZI Data)              2696 (   2.63kB)
    Total ROM Size (Code + RO Data + RW Data)      61724 (  60.28kB)

==============================================================================

