:020000040800F2
:1000000000C0002009060008ED050008EF05000803
:10001000F1050008F3050008F505000800000000E0
:10002000000000000000000000000000F7050008CC
:10003000F905000800000000FB050008FD050008A8
:100040005106000851060008510600085106000834
:100050005106000851060008510600085106000824
:100060005106000851060008510600085106000814
:100070005106000851060008510600085106000804
:1000800051060008510600085106000851060008F4
:1000900051060008510600085106000851060008E4
:1000A00051060008510600085106000851060008D4
:1000B00051060008510600085106000851060008C4
:1000C00051060008510600085106000851060008B4
:1000D00051060008510600085106000851060008A4
:1000E0005106000851060008510600085106000894
:1000F0005106000851060008510600085106000884
:100100005106000851060008510600085106000873
:100110005106000851060008510600085106000863
:100120005106000851060008510600085106000853
:1001300000000000000000000000000000000000BF
:1001400000000000000000000000000000000000AF
:10015000000000000000000000000000000000009F
:10016000000000000000000000000000000000008F
:10017000000000000000000000000000000000007F
:10018000000000000000000000000000000000006F
:10019000000000000000000000000000000000005F
:1001A000000000000000000000000000000000004F
:1001B000000000000000000000000000000000003F
:1001C000000000000000000000000000000000002F
:1001D000000000000000000000000000000000001F
:0401E0005FF8E0F1F3
:1001E40010B5054C237833B9044B13B10448AFF36D
:1001F40000800123237010BD3C0400200000000097
:100204007418000808B5034B1BB103490348AFF346
:10021400008008BD0000000040040020741800089D
:1002240000B587B08DF8170064230293012301936E
:100234000DF11702009200227821034800F06CFEB1
:1002440007B05DF804FB00BF5808002000B587B074
:100254008DF8170064230293012301930DF1170213
:10026400009240227821034800F056FE07B05DF862
:1002740004FB00BF5808002010B50C4640F0B00045
:10028400FFF7CEFF200940F01000FFF7C9FF04F08C
:100294000F00FFF7C5FF10BD38B5002509E00020A9
:1002A400FFF7D4FF0134E4B214F0800FF7D0013526
:1002B400EDB2072D05D800212846FFF7DDFF002405
:1002C400F2E738BD4FEAC00C5FFA8CFC002010E066
:1002D4000CEB0002094901EBC212D15C084A02EBA3
:1002E400C012D1540133DBB213F0800FF0D00130CF
:1002F400C0B2072801D80023F6E770478C1800081D
:100304005804002000B585B02020FFF789FF0021A4
:100314000846FFF7B1FFFF2302934FF48063019374
:10032400054B0093012340227821044800F0F4FD9A
:1003340005B05DF804FB00BF5804002058080020F5
:1003440008B5C82000F0CEF9AE20FFF769FFD5202C
:10035400FFF766FF8020FFF763FFA820FFF760FF29
:100364003F20FFF75DFFD320FFF75AFF0020FFF780
:1003740057FF4020FFF754FFA120FFF751FFC8208B
:10038400FFF74EFFDA20FFF74BFF1220FFF748FF7D
:100394008120FFF745FFCF20FFF742FFD920FFF769
:1003A4003FFFF120FFF73CFFDB20FFF739FF302050
:1003B400FFF736FFA420FFF733FFA620FFF730FF37
:1003C4008D20FFF72DFF1420FFF72AFFAF20FFF742
:1003D40027FFFFF761FF08BD30B589B000240494FE
:1003E400059406940794184B9A6942F020029A6186
:1003F4009A6902F020020192019A9A6942F0040279
:100404009A619A6902F004020292029A9A6942F08D
:1004140008029A619B6903F008030393039B0B4D45
:1004240022464FF40041284600F0EEFA4FF4004310
:1004340004930123059306940223079304A92846F1
:1004440000F0C2F909B030BD0010024000080140BC
:1004540008B50B480B4B03600B4B436000238360D0
:10046400C3604FF48042026143618361C3610362EC
:1004740000F074FC00B908BD00F03AF8FBE700BFD7
:100484005808002000540040801A060010B586B0B9
:10049400002302930393049305930268114B9A4239
:1004A40001D006B010BD104CA36943F00803A3614A
:1004B400A36903F008030093009BC0230293122353
:1004C40003930323059302A9084800F07DF9E36927
:1004D40043F40013E361E36903F400130193019B04
:1004E400DFE700BF0054004000100240000C014050
:1004F40072B6FEE700B591B02822002106A801F0EB
:10050400F5F80023019302930393049305930122C6
:1005140006924FF4803307930A9202220D920E93AF
:100524004FF4E0130F9306A800F0BEFD80B90F232B
:10053400019302210291002303934FF480620492F9
:10054400059301A800F0E2FF20B911B05DF804FBA7
:10055400FFF7CEFFFFF7CCFF08B500F09FF8FFF7D9
:10056400C9FFFFF739FFFFF773FFFFF7E9FE00202C
:10057400FFF7A8FEFFF7C6FE094C01224FF4004125
:10058400204600F041FA0120FFF79CFEFFF7BAFE77
:1005940000224FF40041204600F036FAE7E700BF9E
:1005A4000008014082B00E4B9A6942F001029A6140
:1005B4009A6902F001020092009ADA6942F08052CC
:1005C400DA61DB6903F080530193019B054A5368A8
:1005D40023F0E06343F00073536002B0704700BF40
:1005E4000010024000000140FEE7FEE7FEE7FEE7E0
:1005F400FEE770477047704708B500F061F808BD22
:1006040070470000FFF7FCFF0B480C490C4A00231D
:1006140002E0D458C4500433C4188C42F9D3094AB4
:10062400094C002301E013600432A242FBD301F021
:1006340039F8FFF791FF7047000000203C040020C8
:10064400C82000083C040020B4080020FEE7000095
:1006540010B504460E4B18784FF47A73B3FBF0F3DD
:100664000C4A1068B0FBF3F000F09AF868B90F2C4C
:1006740001D901200AE0002221464FF0FF3000F0AA
:1006840057F8054B1C60002000E0012010BD00BF9E
:1006940004000020000000200800002008B5074ADC
:1006A400136843F010031360032000F02FF80F20A9
:1006B400FFF7CEFFFFF776FF002008BD00200240C1
:1006C400034A1168034B1B780B441360704700BF47
:1006D400AC08002004000020014B1868704700BFDC
:1006E400AC08002038B50446FFF7F6FF0546B4F120
:1006F400FF3F02D0044B1B781C44FFF7EDFF401B67
:10070400A042FAD338BD00BF04000020074AD368D2
:1007140023F4E0631B041B0C000200F4E0600343B9
:1007240043F0BF6343F40033D360704700ED00E04F
:1007340000B5194BDB68C3F30223C3F1070CBCF10A
:10074400040F28BF4FF0040C03F1040EBEF1060F92
:1007540018D9033B4FF0FF3E0EFA0CFC21EA0C01C2
:1007640099400EFA03F322EA0303194300280BDB32
:100774000901C9B200F1604000F5614080F800133E
:100784005DF804FB0023E5E700F00F000901C9B29E
:10079400024B1954F4E700BF00ED00E014ED00E053
:1007A4000138B0F1807F0BD24FF0E0235861054A45
:1007B400F02182F823100020986107221A61704703
:1007C4000120704700ED00E070B582B00024A4461B
:1007D400B0E0874DAA4210D007D9864DAA420CD06A
:1007E40005F58035AA4208D013E0A5F58015AA4284
:1007F40003D005F57025AA4207D18A68002A62D081
:10080400012A5BD04361082403E0A5F58015AA42C0
:10081400F3D0BEF1FF0F58D80646BEF1FF0F56D8ED
:100824004FEA8C0233680F25954023EA050304FA46
:1008340002F2134333604B6813F0805F78D06E4B41
:100844009A6942F001029A619B6903F001030193E2
:10085400019B4FEA9C02951C684B53F825600CF0F1
:1008640003039D000F23AB4026EA0306644B984222
:1008740033D003F58063984200F0988003F58063D9
:10088400984200F0958003F58063984200F09280CE
:1008940003F58063984200F08F8003F580639842EB
:1008A40019D006231AE0CC68B3E7CC680434B0E767
:1008B400CC680834ADE7CC680C34AAE7036108249B
:1008C400A7E70024A5E70424A3E7061DA5E7ACF1E8
:1008D40008029200A6E7052300E00023AB4033435F
:1008E4000232464D45F822304B6813F4801F65D020
:1008F400444A936843EA0E0393604B6813F4001F61
:1009040062D0404AD36843EA0E03D3604B6813F4C1
:10091400003F5FD03B4A536843EA0E0353604B6881
:1009240013F4803F5CD0374A136843EA0E03136024
:100934000CF1010C0A6832FA0CF357D0012303FAC4
:100944000CF302EA030E33EA0202F1D14A68122AD6
:100954003FF63FAF122A3FF65CAF01A555F822F0EF
:10096400FF070008AB080008B5080008C70800081E
:1009740017080008170800081708000817080008D7
:1009840017080008170800081708000817080008C7
:1009940017080008170800081708000817080008B7
:1009A40017080008AF080008BB080008012395E7F2
:1009B400022393E7032391E704238FE7114A936803
:1009C40023EA0E03936098E70E4AD36823EA0E03E2
:1009D400D3609BE70B4A536823EA0E0353609EE7F8
:1009E400084A136823EA0E031360A1E702B070BD3E
:1009F40000002210000031100010024000000140ED
:100A040000080140000401400AB101617047090473
:100A14000161704703685A6912F4806F01D10020A4
:100A240070476FF480625A6100230363202280F8C8
:100A34003D2080F83E30026C42F00402026480F8EB
:100A44003C30012070472DE9F04106460C4617461C
:100A540098463BE0FFF740FE069BC01A404502D88B
:100A6400B8F1000F32D1012D18D033689B6924EA04
:100A740003039BB2B3FA83F35B099F4226D100239D
:100A84003363202286F83D2086F83E30326C42F0F3
:100A94002002326486F83C30012027E033685B6929
:100AA40024EA03039BB2B3FA83F35B09E5E73368F3
:100AB4005B6924EA030C1FFA8CFCBCFA8CFC4FEA39
:100AC4005C1C674511D1B8F1FF3FC3D1C4F307459E
:100AD400012DECD033689B6924EA030C1FFA8CFCCB
:100AE400BCFA8CFC4FEA5C1CEBE70020BDE8F0810B
:100AF4002DE9F84305460E469046994653E01A6898
:100B040042F400721A602B686FF480625A61002309
:100B14002B63202285F83D2085F83E302A6C42F074
:100B240004022A6485F83C3001204AE0FFF7D4FD32
:100B3400A0EB0900404502D8B8F1000F33D1012FD2
:100B440017D02B689B6926EA03039BB2003B18BFAE
:100B5400012343B300232B63202285F83D2085F82D
:100B64003E302A6C42F020022A6485F83C30012091
:100B740027E02B685B6926EA03039BB2003B18BF9E
:100B84000123E6E72B689C6926EA0404A4B2003C2E
:100B940018BF0124A4B12B685A6912F4806FAED136
:100BA400B8F1FF3FC2D1C6F30747012FEAD12B6842
:100BB4005C6926EA0404A4B2003C18BF0124E9E7F6
:100BC4000020BDE8F88370B504460D461646236838
:100BD4005B6913F0800F21D12046FFF71BFFF8B9A2
:100BE400B5F1FF3FF3D0FFF777FD801BA84201D892
:100BF400002DECD123685B6913F0800FE7D100234B
:100C04002363202284F83D2084F83E30226C42F095
:100C14002002226484F83C30012000E0002070BDF2
:100C24000120FCE72DE9F04385B004460D469146CA
:100C34001F46DDF830800D9E0368196841F4807109
:100C440019600096434600224FF00111FFF7FBFEA6
:100C540060B9236805F0FE051D6133464246264906
:100C64002046FFF745FF68B1012008E023681B68B0
:100C740013F4807F02D04FF400732364032005B083
:100C8400BDE8F0830023039323685A6903929B69A8
:100C94000393039B324641462046FFF794FF30B945
:100CA400012F0FD123685FFA89F61E61E7E7236CF1
:100CB400042B01D00120E2E72268136843F4007397
:100CC4001360F7E723684FEA19221A613246414656
:100CD4002046FFF778FF20B923685FFA89F61E6182
:100CE400CDE7236C042B01D00120C8E722681368E8
:100CF40043F400731360F7E70200010070B5044683
:100D04000D46164623685B6913F0040F21D1204673
:100D1400FFF780FEF8B9B5F1FF3FF3D0FFF7DCFC35
:100D2400801BA84201D8002DECD123685B6913F025
:100D3400040FE7D100232363202284F83D2084F8A4
:100D44003E30226C42F02002226484F83C300120C0
:100D540000E0002070BD0120FCE70000002800F046
:100D6400CC8070B5044690F83D30002B77D0242316
:100D740084F83D302268136823F00103136022686D
:100D8400136843F4004313602268136823F4004398
:100D9400136000F077FC62685A4B9A4264D85A4B4D
:100DA40098428CBF00230123002B40F0A8805749B0
:100DB400A1FB00318B0C25686A6822F03F0242EAED
:100DC40091426A6021680A6A22F03F0266684D4DCA
:100DD400AE424FD8013313430B622168CA6922F42F
:100DE4004F4222F0FF026668464B9E424CD8431E97
:100DF4007600B3FBF6F3013340F6FC70034278D07F
:100E0400C3F30B031343CB6121680B6823F0C003C6
:100E1400E269206A024313430B6021688B6823F460
:100E2400034323F0FF032269E068024313438B600A
:100E34002168CB6823F0FF036269A069024313436E
:100E4400CB602268136843F0010313600020206420
:100E5400202384F83D30206384F83E0070BD80F880
:100E64003C30FFF713FB82E7294B98428CBF0023E9
:100E7400012399E74FF4967505FB03F3254DA5FB74
:100E840003539B090133A6E7A368BBB9451E06EBD0
:100E9400460CB5FBFCF50135C5F30B05B5FA85F534
:100EA4006D0945BBC3B9013806EB4603B0FBF3F348
:100EB4000133C3F30B0343F40043A3E7451E06EBDE
:100EC400860C0CEB8C0CB5FBFCF50135C5F30B055E
:100ED400B5FA85F56D09E4E7013806EB860303EB03
:100EE4008303B0FBF3F30133C3F30B0343F4404335
:100EF40088E7042386E7012384E701207047012063
:100F0400ACE700BFA08601007F841E0083DE1B4384
:100F1400FF083D00D34D62102DE9F04383B0044631
:100F24000F46904699460C9EFFF7D6FB054694F86B
:100F34003D00C0B2202803D0022003B0BDE8F083F6
:100F44000095192301224B492046FFF77CFD002818
:100F540040F0898094F83C30012B00F08680012316
:100F640084F83C3023681A6812F0010F03D11A6820
:100F740042F001021A602268136823F400631360CC
:100F8400212384F83D30402384F83E300023236439
:100F94000A9B6362BDF82C306385638D2385364BD1
:100FA400E362019500964B46424639462046FFF7D8
:100FB40039FE00285BD1238D002B35D02A463146DB
:100FC4002046FFF700FE20BB626A236812781A618C
:100FD400626A531C6362218D013989B22185638D54
:100FE4009BB2013B9BB263852368586910F0040FE0
:100FF400E1D00029DFD052781A61636A0133636259
:10100400238D013B2385638D9BB2013B9BB263859A
:10101400D1E7236C042B01D001208EE722681368EA
:1010240043F400731360F7E72A4631462046FFF77E
:1010340065FE50B1236C042B01D001207DE72268AA
:10104400136843F400731360F7E72268136843F4EA
:1010540000731360202384F83D30002384F83E306D
:1010640084F83C3069E7022067E7022065E7012045
:1010740063E700BF020010000000FFFF82B0084BCE
:101084001B68084AA2FB03235B0A00FB03F30193DA
:1010940000BF019B5A1E0192002BF9D102B0704788
:1010A40000000020D34D6210002800F0F18170B5DB
:1010B40082B00446036813F0010F2CD0994B5B688F
:1010C40003F00C03042B1DD0964B5B6803F00C0358
:1010D400082B12D06368B3F5803F41D0002B55D163
:1010E40003F1804303F504331A6822F480321A6052
:1010F4001A6822F480221A6037E08A4B5B6813F482
:10110400803FE7D0874B1B6813F4003F03D063682C
:10111400002B00F0BF81236813F0020F75D0814BC0
:101124005B6813F00C0F5FD07E4B5B6803F00C031D
:10113400082B54D02369002B00F08A807A4B0122BB
:101144001A60FFF7C9FA0546764B1B6813F0020FC5
:1011540075D1FFF7C1FA401B0228F5D903209EE19F
:10116400704A136843F480331360636843B3FFF732
:10117400B3FA05466B4B1B6813F4003FCBD1FFF762
:10118400ABFA401B6428F5D9032088E1B3F5A02FFE
:1011940009D0644B1A6822F480321A601A6822F467
:1011A40080221A60E1E703F18043A3F53C331A6817
:1011B40042F480221A601A6842F480321A60D4E73A
:1011C400FFF78AFA0546574B1B6813F4003FA2D079
:1011D400FFF782FA401B6428F5D903205FE1514BE5
:1011E4005B6813F4803FA5D14E4B1B6813F0020FCC
:1011F40003D02369012B40F04F814A4A136823F03E
:10120400F803616943EAC1031360236813F0080F0C
:1012140033D0A369002B5CD0434B0122C3F8802454
:10122400FFF75AFA05463F4B5B6A13F0020F21D1D0
:10123400FFF752FA401B0228F5D903202FE1394A5F
:10124400136823F0F803616943EAC1031360DCE720
:10125400354B00221A60FFF73FFA0546314B1B68F5
:1012640013F0020FD1D0FFF737FA401B0228F5D94B
:10127400032014E10120FFF701FF236813F0040F9A
:1012840000F09680274BDB6913F0805F34D1254B47
:10129400DA6942F08052DA61DB6903F0805301932A
:1012A400019B0125214B1B6813F4807F26D0E36842
:1012B400012B3DD0002B53D103F1804303F50433BC
:1012C4001A6A22F001021A621A6A22F004021A62ED
:1012D40033E0154B0022C3F88024FFF7FDF90546DF
:1012E400104B5B6A13F0020FC7D0FFF7F5F9401BF0
:1012F4000228F5D90320D2E00025D3E70B4A13686E
:1013040043F480731360FFF7E7F90646074B1B6845
:1013140013F4807FCBD1FFF7DFF9801B6428F5D964
:101324000320BCE000100240000042420070004074
:101334005F4A136A43F001031362E36833B3FFF7B0
:10134400CBF906465A4B1B6A13F0020F2FD1FFF755
:10135400C3F9801B41F288339842F3D903209EE0FD
:10136400052B09D0524B1A6A22F001021A621A6A3A
:1013740022F004021A62E0E74D4B1A6A42F00402BA
:101384001A621A6A42F001021A62D6E7FFF7A4F958
:101394000646474B1B6A13F0020F08D0FFF79CF96F
:1013A400801B41F288339842F3D9032077E0E5B9F2
:1013B400E369002B72D03E4A526802F00C02082AFC
:1013C40056D0022B17D03B4B00221A66FFF784F944
:1013D4000446374B1B6813F0007F47D0FFF77CF9B6
:1013E400001B0228F5D9032059E0314AD36923F0C0
:1013F4008053D361DCE72F4B00221A66FFF76CF9A8
:1014040005462B4B1B6813F0007F06D0FFF764F9E9
:10141400401B0228F5D9032041E0236AB3F5803F3D
:101424001AD023494B6823F47413226A606A024376
:1014340013434B601F4B01221A66FFF74DF9044614
:101444001B4B1B6813F0007F0ED1FFF745F9001BFF
:101454000228F5D9032022E0154A536823F4003307
:10146400A1680B435360DCE7002018E0002016E07D
:10147400012B16D00E4B5B6803F48031226A914233
:1014840011D103F47013626A93420ED1002006E076
:1014940001207047012002E0012000E0002002B09A
:1014A40070BD0120FBE70120F9E70120F7E700BF49
:1014B40000100240000042420F4B5B6803F00C0234
:1014C400082A01D00D487047C3F383420C49885C55
:1014D40013F4803F0BD0084B5B68C3F34043094AC5
:1014E400D35C064A02FB00F0B0FBF3F07047064BF6
:1014F40003FB00F0704700BF0010024000127A00A6
:10150400A4200008B420000800093D00002800F0D1
:10151400A08070B50D460446524B1B6803F00703C8
:101524008B420BD24F4A136823F007030B4313601B
:10153400136803F007038B4240F08D80236813F097
:10154400020F17D013F0040F04D0474A536843F432
:10155400E0635360236813F0080F04D0424A5368D1
:1015640043F460535360404A536823F0F003A16886
:101574000B435360236813F0010F31D06368012BD0
:1015840020D0022B25D0384A126812F0020F64D002
:1015940035494A6822F0030213434B60FFF79CF875
:1015A4000646314B5B6803F00C036268B3EB820FB1
:1015B40016D0FFF791F8801B41F288339842F0D996
:1015C400032045E0284A126812F4003FE0D10120CC
:1015D4003EE0254A126812F0007FD9D1012037E09D
:1015E400204B1B6803F00703AB420AD91D4A13685A
:1015F40023F007032B431360136803F00703AB4284
:101604002DD1236813F0040F06D0174A536823F42E
:10161400E063E1680B435360236813F0080F07D0BD
:10162400114A536823F46053216943EAC1035360A8
:10163400FFF742FF0C4B5B68C3F303130B4AD35C05
:10164400D8400B4B18600B4B1868FFF701F80020CB
:1016540070BD012070470120FAE70120F8E701205E
:10166400F6E700BF00200240001002408C20000872
:101674000000002008000020014B1868704700BFDC
:101684000000002008B5FFF7F7FF044B5B68C3F3C5
:101694000223034AD35CD84008BD00BF00100240B7
:1016A4009C20000870B50D4E0D4D761BB61006D06B
:1016B400002455F8043B01349847A642F9D1094E59
:1016C400094D00F0D5F8761BB61006D0002455F865
:1016D400043B01349847A642F9D170BDBC200008F0
:1016E400BC200008C4200008BC200008830730B5D3
:1016F40048D0541E002A3FD00346CAB201E0013C40
:101704003AD303F8012B9D07F9D1032C2DD9CDB27F
:1017140045EA05250F2C45EA054536D9A4F1100202
:1017240022F00F0C03F1200EE6444FEA121C03F1E1
:10173400100242E9045542E9025510327245F8D1CB
:101744000CF1010214F00C0F03EB021204F00F0C65
:1017540013D0ACF1040323F003030433134442F81D
:10176400045B9342FBD10CF003042CB1CAB21C44B9
:1017740003F8012B9C42FBD130BD64461346002C78
:10178400F4D1F9E703461446BFE71A46A446E0E756
:10179400024B13B1024800F005B870470000000086
:1017A400B5170008002301461A46184600F01AB877
:1017B40038B5084B084D5B1B9C1007D0043B1D44F7
:1017C400013C55F804399847002CF9D1BDE838405C
:1017D40000F054B8C8200008C4200008704700BFB7
:1017E400704700BF2DE9F047DFF87CA00646DAF821
:1017F400000098460F469146FFF7F0FF1B4B1B680D
:10180400D3F8484124B365681F2D26DC5EB96B1CF0
:101814000235DAF80000636044F82570FFF7E0FF52
:101824000020BDE8F087012304EB8501C1F888900E
:10183400D4F88821AB401A43022EC4F88821C1F899
:101844000881E4D1D4F88C211343C4F88C31DEE749
:1018540003F5A674C3F84841D5E7DAF80000FFF7AA
:10186400BFFF4FF0FF30DCE738040020B820000849
:10187400F8B500BFF8BC08BC9E467047F8B500BF79
:08188400F8BC08BC9E46704749
:10188C00000000000000000000000000000000004C
:10189C00000000000000000000000000000000003C
:1018AC00000000000000000000000000000000002C
:1018BC00000000000000000000000000000000001C
:1018CC00000000000000000000000000000000000C
:1018DC0000000000000000000000000000000000FC
:1018EC0000000000000000000000000000000000EC
:1018FC0000000000000000000000000000000000DC
:10190C0000000000000000000000000000000000CB
:10191C0000000000000000000000000000000000BB
:10192C0000000000000000000000000000000000AB
:10193C00000000000000000000000000000000009B
:10194C00000000000000000000000000000000008B
:10195C00000000000000000000000000000000007B
:10196C00000000000000000000000000000000006B
:10197C00000000000000000000000000000000005B
:10198C00000000000000000000808080C0C08000CB
:10199C00000000000000000000000000000000003B
:1019AC0000C000000000000000000000000000006B
:1019BC00000000000000000000000000000000001B
:1019CC0000000000000000000000C0C0000000008B
:1019DC0000000000000000000000000000000020DB
:1019EC00C00000000000000000000000000000002B
:1019FC00800000600080601000000000000000000B
:101A0C00000000000020C00020311111D03E0C0855
:101A1C0088F020000000000080800040584EC66214
:101A2C004F25EC7023212020200000000000000036
:101A3C000000040C8CFC26060600000000000000D0
:101A4C00000000003030100BFE00F03F101A0C802C
:101A5C0080000000000000000000002060E0F0BFEB
:101A6C009D0C0606000000000000000000E00004D1
:101A7C0007043412D3B1D9814506000000000000E0
:101A8C00000000000000010602020202030302062D
:101A9C000300000000000000000000000000090529
:101AAC0007030302040C08000000000000000206FB
:101ABC000202020301010101010101010300000006
:101ACC000000000E060602030301010101010101E1
:101ADC0001030000000000000008080804030000D7
:101AEC0001010103060C08000000000000000000CA
:101AFC000014131030100F0700000000000000004D
:101B0C0000000000000000000000000000000000C9
:101B1C0000000000000000000000000000000000B9
:101B2C0000000000000000000000000000000000A9
:101B3C000000000000000000000000000000000099
:101D1C0000000000F00000000000000000000000C7
:101D2C0000000000000000000000000000000000A7
:101D3C000000000000000000000000000000000097
:101D4C0000000000000000000000000000008040C7
:101D5C004000000000000000000000000000000037
:101D6C000000000000000000000000000000000067
:101D7C000000C00000000000000000000000000097
:101D8C000000000000000000000000000000000047
:101D9C000000A008020000040C0000C000000000BD
:101DAC00000000000000000000000030E000000017
:101DBC0040402010080000000000008060180C0457
:101DCC0000000000000040404020E07C13010000B7
:101DDC00F058602020000040C0602030302000000F
:101DEC0080E07070300000000000E0B090988880B7
:101DFC00E09BC00000808000804040C0600000007C
:101E0C0000000000000000000000000000000000C6
:101E1C00F00A80C020300CC63E00001F10101010BD
:101E2C00181F3020202060603010080402030304C7
:101E3C00082040F80000000000000003020202022B
:101E4C00030100000000000080700F000000000380
:101E5C00010000000000000001020202010101016A
:101E6C00000302020202020202060703030302013C
:101E7C0001010101010000402014030000000000DA
:101E8C000000000000000000000000000000000046
:101E9C000101000000000001000000000000000033
:101EAC000000000000000000000000000000000026
:101EBC000000000000000000000000000000000016
:101ECC000000000000000F060100000000000000F0
:101EDC0000000000000000000000000000000000F6
:101EEC0000000000000000D800000000000080404E
:101EFC004020080004000100000000000000000069
:101F0C0000000000000000000000000000000000C5
:101F1C0000000000000000000000000000000000B5
:101F2C0000000000000000000000000000000000A5
:101F3C000000000000000000000000000000000095
:101F4C000000000000000000000000000000000085
:101F5C000000000000000000000000000000000075
:101F6C000000000000000003020202020101000058
:101F7C000000000000000000000000000000000055
:101F8C000000000000000000000000000000000045
:101F9C000000000000000000000000000000000035
:101FAC000000000000000000000000000000000025
:101FBC000000000000000000000000000000000015
:101FCC000000000000000000000000000000000005
:101FDC0000000000000000000000000000000000F5
:101FEC0000000000000000000000000000000000E5
:101FFC0000000000000000000000000000000000D5
:10200C0000000000000000000000000000000000C4
:10201C0000000000000000000000000000000000B4
:10202C0000000000000000000000000000000000A4
:10203C000000000000000000000000000000000094
:10204C000000000000000000000000000000000084
:10205C000000000000000000000000000000000074
:10206C000000000000000000000000000000000064
:10207C000000000000000000000000000000000054
:10208C00000000000000000001020304060708091C
:10209C0000000000010203040203040506070809FE
:1020AC000A0B0C0D0E0F1010010200001000002086
:0820BC00951700080902000855
:0420C400E50100082A
:1020C8000024F400010000001000000000000000DF
:1020D80000000000FC02002064030020CC03002064
:1020E80000000000000000000000000000000000E8
:1020F80000000000000000000000000000000000D8
:1021080000000000000000000000000000000000C7
:1021180000000000000000000000000000000000B7
:1021280000000000000000000000000000000000A7
:102138000000000000000000000000000000000097
:102148000000000000000000000000000000000087
:102158000000000000000000000000000000000077
:102168000000000000000000000000000000000067
:102178000000000000000000010000000000000056
:102188000E33CDAB34126DE6ECDE05000B0000001B
:102198000000000000000000000000000000000037
:1021A8000000000000000000000000000000000027
:1021B8000000000000000000000000000000000017
:1021C8000000000000000000000000000000000007
:0C24F8000000000000000000B008002000
:0400000508000609E0
:00000001FF
