Archive member included to satisfy reference by file (symbol)

c:/progra~2/gnuarm~1/102021~1.10/bin/../lib/gcc/arm-none-eabi/10.3.1/../../../../arm-none-eabi/lib/thumb/v7-m/nofp\libg.a(lib_a-errno.o)
                              CMakeFiles/F1.elf.dir/Core/Src/syscalls.c.obj (__errno)
c:/progra~2/gnuarm~1/102021~1.10/bin/../lib/gcc/arm-none-eabi/10.3.1/../../../../arm-none-eabi/lib/thumb/v7-m/nofp\libg.a(lib_a-exit.o)
                              c:/progra~2/gnuarm~1/102021~1.10/bin/../lib/gcc/arm-none-eabi/10.3.1/../../../../arm-none-eabi/lib/thumb/v7-m/nofp/crt0.o (exit)
c:/progra~2/gnuarm~1/102021~1.10/bin/../lib/gcc/arm-none-eabi/10.3.1/../../../../arm-none-eabi/lib/thumb/v7-m/nofp\libg.a(lib_a-impure.o)
                              c:/progra~2/gnuarm~1/102021~1.10/bin/../lib/gcc/arm-none-eabi/10.3.1/../../../../arm-none-eabi/lib/thumb/v7-m/nofp\libg.a(lib_a-exit.o) (_global_impure_ptr)
c:/progra~2/gnuarm~1/102021~1.10/bin/../lib/gcc/arm-none-eabi/10.3.1/../../../../arm-none-eabi/lib/thumb/v7-m/nofp\libg.a(lib_a-init.o)
                              c:/progra~2/gnuarm~1/102021~1.10/bin/../lib/gcc/arm-none-eabi/10.3.1/../../../../arm-none-eabi/lib/thumb/v7-m/nofp/crt0.o (__libc_init_array)
c:/progra~2/gnuarm~1/102021~1.10/bin/../lib/gcc/arm-none-eabi/10.3.1/../../../../arm-none-eabi/lib/thumb/v7-m/nofp\libg.a(lib_a-memset.o)
                              c:/progra~2/gnuarm~1/102021~1.10/bin/../lib/gcc/arm-none-eabi/10.3.1/../../../../arm-none-eabi/lib/thumb/v7-m/nofp/crt0.o (memset)
c:/progra~2/gnuarm~1/102021~1.10/bin/../lib/gcc/arm-none-eabi/10.3.1/../../../../arm-none-eabi/lib/thumb/v7-m/nofp\libg.a(lib_a-__call_atexit.o)
                              c:/progra~2/gnuarm~1/102021~1.10/bin/../lib/gcc/arm-none-eabi/10.3.1/../../../../arm-none-eabi/lib/thumb/v7-m/nofp\libg.a(lib_a-exit.o) (__call_exitprocs)
c:/progra~2/gnuarm~1/102021~1.10/bin/../lib/gcc/arm-none-eabi/10.3.1/../../../../arm-none-eabi/lib/thumb/v7-m/nofp\libg.a(lib_a-atexit.o)
                              c:/progra~2/gnuarm~1/102021~1.10/bin/../lib/gcc/arm-none-eabi/10.3.1/../../../../arm-none-eabi/lib/thumb/v7-m/nofp\libg.a(lib_a-__call_atexit.o) (atexit)
c:/progra~2/gnuarm~1/102021~1.10/bin/../lib/gcc/arm-none-eabi/10.3.1/../../../../arm-none-eabi/lib/thumb/v7-m/nofp\libg.a(lib_a-fini.o)
                              c:/progra~2/gnuarm~1/102021~1.10/bin/../lib/gcc/arm-none-eabi/10.3.1/../../../../arm-none-eabi/lib/thumb/v7-m/nofp\libg.a(lib_a-__call_atexit.o) (__libc_fini_array)
c:/progra~2/gnuarm~1/102021~1.10/bin/../lib/gcc/arm-none-eabi/10.3.1/../../../../arm-none-eabi/lib/thumb/v7-m/nofp\libg.a(lib_a-lock.o)
                              c:/progra~2/gnuarm~1/102021~1.10/bin/../lib/gcc/arm-none-eabi/10.3.1/../../../../arm-none-eabi/lib/thumb/v7-m/nofp\libg.a(lib_a-__call_atexit.o) (__retarget_lock_acquire_recursive)
c:/progra~2/gnuarm~1/102021~1.10/bin/../lib/gcc/arm-none-eabi/10.3.1/../../../../arm-none-eabi/lib/thumb/v7-m/nofp\libg.a(lib_a-__atexit.o)
                              c:/progra~2/gnuarm~1/102021~1.10/bin/../lib/gcc/arm-none-eabi/10.3.1/../../../../arm-none-eabi/lib/thumb/v7-m/nofp\libg.a(lib_a-atexit.o) (__register_exitproc)

Discarded input sections

 .text          0x00000000        0x0 c:/progra~2/gnuarm~1/102021~1.10/bin/../lib/gcc/arm-none-eabi/10.3.1/thumb/v7-m/nofp/crti.o
 .data          0x00000000        0x0 c:/progra~2/gnuarm~1/102021~1.10/bin/../lib/gcc/arm-none-eabi/10.3.1/thumb/v7-m/nofp/crti.o
 .bss           0x00000000        0x0 c:/progra~2/gnuarm~1/102021~1.10/bin/../lib/gcc/arm-none-eabi/10.3.1/thumb/v7-m/nofp/crti.o
 .data          0x00000000        0x4 c:/progra~2/gnuarm~1/102021~1.10/bin/../lib/gcc/arm-none-eabi/10.3.1/thumb/v7-m/nofp/crtbegin.o
 .rodata        0x00000000       0x24 c:/progra~2/gnuarm~1/102021~1.10/bin/../lib/gcc/arm-none-eabi/10.3.1/thumb/v7-m/nofp/crtbegin.o
 .text          0x00000000       0x7c c:/progra~2/gnuarm~1/102021~1.10/bin/../lib/gcc/arm-none-eabi/10.3.1/../../../../arm-none-eabi/lib/thumb/v7-m/nofp/crt0.o
 .data          0x00000000        0x0 c:/progra~2/gnuarm~1/102021~1.10/bin/../lib/gcc/arm-none-eabi/10.3.1/../../../../arm-none-eabi/lib/thumb/v7-m/nofp/crt0.o
 .bss           0x00000000        0x0 c:/progra~2/gnuarm~1/102021~1.10/bin/../lib/gcc/arm-none-eabi/10.3.1/../../../../arm-none-eabi/lib/thumb/v7-m/nofp/crt0.o
 .ARM.extab     0x00000000        0x0 c:/progra~2/gnuarm~1/102021~1.10/bin/../lib/gcc/arm-none-eabi/10.3.1/../../../../arm-none-eabi/lib/thumb/v7-m/nofp/crt0.o
 .ARM.exidx     0x00000000       0x10 c:/progra~2/gnuarm~1/102021~1.10/bin/../lib/gcc/arm-none-eabi/10.3.1/../../../../arm-none-eabi/lib/thumb/v7-m/nofp/crt0.o
 .ARM.attributes
                0x00000000       0x1b c:/progra~2/gnuarm~1/102021~1.10/bin/../lib/gcc/arm-none-eabi/10.3.1/../../../../arm-none-eabi/lib/thumb/v7-m/nofp/crt0.o
 .text          0x00000000        0x0 CMakeFiles/F1.elf.dir/Core/OELD_IIC_Hrad/oled.c.obj
 .data          0x00000000        0x0 CMakeFiles/F1.elf.dir/Core/OELD_IIC_Hrad/oled.c.obj
 .bss           0x00000000        0x0 CMakeFiles/F1.elf.dir/Core/OELD_IIC_Hrad/oled.c.obj
 .text.OLED_ShowChar
                0x00000000       0x64 CMakeFiles/F1.elf.dir/Core/OELD_IIC_Hrad/oled.c.obj
 .text.OLED_ShowString
Memory Configuration

Name             Origin             Length             Attributes
RAM              0x20000000         0x0000c000         xrw
FLASH            0x08000000         0x00040000         xr
*default*        0x00000000         0xffffffff

Linker script and memory map

LOAD c:/progra~2/gnuarm~1/102021~1.10/bin/../lib/gcc/arm-none-eabi/10.3.1/thumb/v7-m/nofp/crti.o
LOAD c:/progra~2/gnuarm~1/102021~1.10/bin/../lib/gcc/arm-none-eabi/10.3.1/thumb/v7-m/nofp/crtbegin.o
LOAD c:/progra~2/gnuarm~1/102021~1.10/bin/../lib/gcc/arm-none-eabi/10.3.1/../../../../arm-none-eabi/lib/thumb/v7-m/nofp/crt0.o
LOAD CMakeFiles/F1.elf.dir/Core/OELD_IIC_Hrad/oled.c.obj
LOAD CMakeFiles/F1.elf.dir/Core/Src/gpio.c.obj
LOAD CMakeFiles/F1.elf.dir/Core/Src/i2c.c.obj
LOAD CMakeFiles/F1.elf.dir/Core/Src/main.c.obj
LOAD CMakeFiles/F1.elf.dir/Core/Src/stm32f1xx_hal_msp.c.obj
LOAD CMakeFiles/F1.elf.dir/Core/Src/stm32f1xx_it.c.obj
LOAD CMakeFiles/F1.elf.dir/Core/Src/syscalls.c.obj
LOAD CMakeFiles/F1.elf.dir/Core/Src/sysmem.c.obj
LOAD CMakeFiles/F1.elf.dir/Core/Src/system_stm32f1xx.c.obj
LOAD CMakeFiles/F1.elf.dir/Core/Startup/startup_stm32f103rctx.s.obj
LOAD CMakeFiles/F1.elf.dir/Drivers/STM32F1xx_HAL_Driver/Src/stm32f1xx_hal.c.obj
LOAD CMakeFiles/F1.elf.dir/Drivers/STM32F1xx_HAL_Driver/Src/stm32f1xx_hal_cortex.c.obj
LOAD CMakeFiles/F1.elf.dir/Drivers/STM32F1xx_HAL_Driver/Src/stm32f1xx_hal_dma.c.obj
LOAD CMakeFiles/F1.elf.dir/Drivers/STM32F1xx_HAL_Driver/Src/stm32f1xx_hal_exti.c.obj
LOAD CMakeFiles/F1.elf.dir/Drivers/STM32F1xx_HAL_Driver/Src/stm32f1xx_hal_flash.c.obj
LOAD CMakeFiles/F1.elf.dir/Drivers/STM32F1xx_HAL_Driver/Src/stm32f1xx_hal_flash_ex.c.obj
LOAD CMakeFiles/F1.elf.dir/Drivers/STM32F1xx_HAL_Driver/Src/stm32f1xx_hal_gpio.c.obj
LOAD CMakeFiles/F1.elf.dir/Drivers/STM32F1xx_HAL_Driver/Src/stm32f1xx_hal_gpio_ex.c.obj
LOAD CMakeFiles/F1.elf.dir/Drivers/STM32F1xx_HAL_Driver/Src/stm32f1xx_hal_i2c.c.obj
LOAD CMakeFiles/F1.elf.dir/Drivers/STM32F1xx_HAL_Driver/Src/stm32f1xx_hal_pwr.c.obj
LOAD CMakeFiles/F1.elf.dir/Drivers/STM32F1xx_HAL_Driver/Src/stm32f1xx_hal_rcc.c.obj
LOAD CMakeFiles/F1.elf.dir/Drivers/STM32F1xx_HAL_Driver/Src/stm32f1xx_hal_rcc_ex.c.obj
LOAD CMakeFiles/F1.elf.dir/Drivers/STM32F1xx_HAL_Driver/Src/stm32f1xx_hal_tim.c.obj
LOAD CMakeFiles/F1.elf.dir/Drivers/STM32F1xx_HAL_Driver/Src/stm32f1xx_hal_tim_ex.c.obj
START GROUP
LOAD c:/progra~2/gnuarm~1/102021~1.10/bin/../lib/gcc/arm-none-eabi/10.3.1/thumb/v7-m/nofp\libgcc.a
LOAD c:/progra~2/gnuarm~1/102021~1.10/bin/../lib/gcc/arm-none-eabi/10.3.1/../../../../arm-none-eabi/lib/thumb/v7-m/nofp\libg.a
LOAD c:/progra~2/gnuarm~1/102021~1.10/bin/../lib/gcc/arm-none-eabi/10.3.1/../../../../arm-none-eabi/lib/thumb/v7-m/nofp\libc.a
END GROUP
LOAD c:/progra~2/gnuarm~1/102021~1.10/bin/../lib/gcc/arm-none-eabi/10.3.1/thumb/v7-m/nofp/crtend.o
LOAD c:/progra~2/gnuarm~1/102021~1.10/bin/../lib/gcc/arm-none-eabi/10.3.1/thumb/v7-m/nofp/crtn.o
                0x2000c000                _estack = (ORIGIN (RAM) + LENGTH (RAM))
                0x00000200                _Min_Heap_Size = 0x200
                0x00000400                _Min_Stack_Size = 0x400

.isr_vector     0x08000000      0x1e4
                0x08000000                . = ALIGN (0x4)
 *(.isr_vector)
 .isr_vector    0x08000000      0x1e4 CMakeFiles/F1.elf.dir/Core/Startup/startup_stm32f103rctx.s.obj
                0x08000000                g_pfnVectors
                0x080001e4                . = ALIGN (0x4)

.text           0x080001e4     0x16a8
                0x080001e4                . = ALIGN (0x4)
 *(.text)
 .text          0x080001e4       0x40 c:/progra~2/gnuarm~1/102021~1.10/bin/../lib/gcc/arm-none-eabi/10.3.1/thumb/v7-m/nofp/crtbegin.o
 *(.text*)
 .text.OLED_WriteCommand
                0x08000224       0x2c CMakeFiles/F1.elf.dir/Core/OELD_IIC_Hrad/oled.c.obj
                0x08000224                OLED_WriteCommand
 .text.OLED_WriteData
                0x08000250       0x2c CMakeFiles/F1.elf.dir/Core/OELD_IIC_Hrad/oled.c.obj
                0x08000250                OLED_WriteData
 .text.OLED_SetCursor
                0x0800027c       0x20 CMakeFiles/F1.elf.dir/Core/OELD_IIC_Hrad/oled.c.obj
                0x0800027c                OLED_SetCursor
 .text.OLED_Clear
                0x0800029c       0x2c CMakeFiles/F1.elf.dir/Core/OELD_IIC_Hrad/oled.c.obj
                0x0800029c                OLED_Clear
 .text.OLED_FastShowPicture
                0x080002c8       0x40 CMakeFiles/F1.elf.dir/Core/OELD_IIC_Hrad/oled.c.obj
                0x080002c8                OLED_FastShowPicture
 .text.Refresh  0x08000308       0x3c CMakeFiles/F1.elf.dir/Core/OELD_IIC_Hrad/oled.c.obj
                0x08000308                Refresh
 .text.OLED_Init
                0x08000344       0x98 CMakeFiles/F1.elf.dir/Core/OELD_IIC_Hrad/oled.c.obj
                0x08000344                OLED_Init
 .text.MX_GPIO_Init
                0x080003dc       0x78 CMakeFiles/F1.elf.dir/Core/Src/gpio.c.obj
                0x080003dc                MX_GPIO_Init
 .text.MX_I2C1_Init
                0x08000454       0x3c CMakeFiles/F1.elf.dir/Core/Src/i2c.c.obj
                0x08000454                MX_I2C1_Init
 .text.HAL_I2C_MspInit
                0x08000490       0x64 CMakeFiles/F1.elf.dir/Core/Src/i2c.c.obj
                0x08000490                HAL_I2C_MspInit
 .text.Error_Handler
                0x080004f4        0x4 CMakeFiles/F1.elf.dir/Core/Src/main.c.obj
                0x080004f4                Error_Handler
 .text.SystemClock_Config
                0x080004f8       0x64 CMakeFiles/F1.elf.dir/Core/Src/main.c.obj
                0x080004f8                SystemClock_Config
 .text.main     0x0800055c       0x4c CMakeFiles/F1.elf.dir/Core/Src/main.c.obj
                0x0800055c                main
 .text.HAL_MspInit
                0x080005a8       0x44 CMakeFiles/F1.elf.dir/Core/Src/stm32f1xx_hal_msp.c.obj
                0x080005a8                HAL_MspInit
 .text.NMI_Handler
                0x080005ec        0x2 CMakeFiles/F1.elf.dir/Core/Src/stm32f1xx_it.c.obj
                0x080005ec                NMI_Handler
 .text.HardFault_Handler
                0x080005ee        0x2 CMakeFiles/F1.elf.dir/Core/Src/stm32f1xx_it.c.obj
                0x080005ee                HardFault_Handler
 .text.MemManage_Handler
                0x080005f0        0x2 CMakeFiles/F1.elf.dir/Core/Src/stm32f1xx_it.c.obj
                0x080005f0                MemManage_Handler
 .text.BusFault_Handler
                0x080005f2        0x2 CMakeFiles/F1.elf.dir/Core/Src/stm32f1xx_it.c.obj
                0x080005f2                BusFault_Handler
 .text.UsageFault_Handler
                0x080005f4        0x2 CMakeFiles/F1.elf.dir/Core/Src/stm32f1xx_it.c.obj
                0x080005f4                UsageFault_Handler
 .text.SVC_Handler
                0x080005f6        0x2 CMakeFiles/F1.elf.dir/Core/Src/stm32f1xx_it.c.obj
                0x080005f6                SVC_Handler
 .text.DebugMon_Handler
                0x080005f8        0x2 CMakeFiles/F1.elf.dir/Core/Src/stm32f1xx_it.c.obj
                0x080005f8                DebugMon_Handler
 .text.PendSV_Handler
                0x080005fa        0x2 CMakeFiles/F1.elf.dir/Core/Src/stm32f1xx_it.c.obj
                0x080005fa                PendSV_Handler
 .text.SysTick_Handler
                0x080005fc        0x8 CMakeFiles/F1.elf.dir/Core/Src/stm32f1xx_it.c.obj
                0x080005fc                SysTick_Handler
 .text.SystemInit
                0x08000604        0x2 CMakeFiles/F1.elf.dir/Core/Src/system_stm32f1xx.c.obj
                0x08000604                SystemInit
 *fill*         0x08000606        0x2 
 .text.Reset_Handler
                0x08000608       0x48 CMakeFiles/F1.elf.dir/Core/Startup/startup_stm32f103rctx.s.obj
                0x08000608                Reset_Handler
 .text.Default_Handler
                0x08000650        0x2 CMakeFiles/F1.elf.dir/Core/Startup/startup_stm32f103rctx.s.obj
                0x08000650                RTC_Alarm_IRQHandler
                0x08000650                EXTI2_IRQHandler
                0x08000650                TIM8_TRG_COM_IRQHandler
                0x08000650                TIM8_CC_IRQHandler
                0x08000650                TIM1_CC_IRQHandler
                0x08000650                TIM6_IRQHandler
                0x08000650                PVD_IRQHandler
                0x08000650                SDIO_IRQHandler
                0x08000650                EXTI3_IRQHandler
                0x08000650                EXTI0_IRQHandler
                0x08000650                I2C2_EV_IRQHandler
                0x08000650                ADC1_2_IRQHandler
                0x08000650                SPI1_IRQHandler
                0x08000650                TAMPER_IRQHandler
                0x08000650                TIM8_UP_IRQHandler
                0x08000650                DMA2_Channel2_IRQHandler
                0x08000650                DMA1_Channel4_IRQHandler
                0x08000650                USART3_IRQHandler
                0x08000650                RTC_IRQHandler
                0x08000650                DMA1_Channel7_IRQHandler
                0x08000650                CAN1_RX1_IRQHandler
                0x08000650                UART5_IRQHandler
                0x08000650                ADC3_IRQHandler
                0x08000650                TIM4_IRQHandler
                0x08000650                DMA2_Channel1_IRQHandler
                0x08000650                I2C1_EV_IRQHandler
                0x08000650                DMA1_Channel6_IRQHandler
                0x08000650                UART4_IRQHandler
                0x08000650                TIM3_IRQHandler
                0x08000650                RCC_IRQHandler
                0x08000650                TIM1_TRG_COM_IRQHandler
                0x08000650                DMA1_Channel1_IRQHandler
                0x08000650                Default_Handler
                0x08000650                EXTI15_10_IRQHandler
                0x08000650                TIM7_IRQHandler
                0x08000650                TIM5_IRQHandler
                0x08000650                EXTI9_5_IRQHandler
                0x08000650                SPI2_IRQHandler
                0x08000650                DMA1_Channel5_IRQHandler
                0x08000650                EXTI4_IRQHandler
                0x08000650                USB_LP_CAN1_RX0_IRQHandler
                0x08000650                USB_HP_CAN1_TX_IRQHandler
                0x08000650                DMA1_Channel3_IRQHandler
                0x08000650                FSMC_IRQHandler
                0x08000650                TIM1_UP_IRQHandler
                0x08000650                WWDG_IRQHandler
                0x08000650                TIM2_IRQHandler
                0x08000650                TIM1_BRK_IRQHandler
                0x08000650                EXTI1_IRQHandler
                0x08000650                DMA2_Channel4_5_IRQHandler
                0x08000650                USART2_IRQHandler
                0x08000650                I2C2_ER_IRQHandler
                0x08000650                DMA1_Channel2_IRQHandler
                0x08000650                TIM8_BRK_IRQHandler
                0x08000650                CAN1_SCE_IRQHandler
                0x08000650                FLASH_IRQHandler
                0x08000650                USART1_IRQHandler
                0x08000650                SPI3_IRQHandler
                0x08000650                I2C1_ER_IRQHandler
                0x08000650                USBWakeUp_IRQHandler
                0x08000650                DMA2_Channel3_IRQHandler
 *fill*         0x08000652        0x2 
 .text.HAL_InitTick
                0x08000654       0x4c CMakeFiles/F1.elf.dir/Drivers/STM32F1xx_HAL_Driver/Src/stm32f1xx_hal.c.obj
                0x08000654                HAL_InitTick
 .text.HAL_Init
                0x080006a0       0x24 CMakeFiles/F1.elf.dir/Drivers/STM32F1xx_HAL_Driver/Src/stm32f1xx_hal.c.obj
                0x080006a0                HAL_Init
 .text.HAL_IncTick
                0x080006c4       0x18 CMakeFiles/F1.elf.dir/Drivers/STM32F1xx_HAL_Driver/Src/stm32f1xx_hal.c.obj
                0x080006c4                HAL_IncTick
 .text.HAL_GetTick
                0x080006dc        0xc CMakeFiles/F1.elf.dir/Drivers/STM32F1xx_HAL_Driver/Src/stm32f1xx_hal.c.obj
                0x080006dc                HAL_GetTick
 .text.HAL_Delay
                0x080006e8       0x28 CMakeFiles/F1.elf.dir/Drivers/STM32F1xx_HAL_Driver/Src/stm32f1xx_hal.c.obj
                0x080006e8                HAL_Delay
 .text.HAL_NVIC_SetPriorityGrouping
                0x08000710       0x24 CMakeFiles/F1.elf.dir/Drivers/STM32F1xx_HAL_Driver/Src/stm32f1xx_hal_cortex.c.obj
                0x08000710                HAL_NVIC_SetPriorityGrouping
 .text.HAL_NVIC_SetPriority
                0x08000734       0x70 CMakeFiles/F1.elf.dir/Drivers/STM32F1xx_HAL_Driver/Src/stm32f1xx_hal_cortex.c.obj
                0x08000734                HAL_NVIC_SetPriority
 .text.HAL_SYSTICK_Config
                0x080007a4       0x28 CMakeFiles/F1.elf.dir/Drivers/STM32F1xx_HAL_Driver/Src/stm32f1xx_hal_cortex.c.obj
                0x080007a4                HAL_SYSTICK_Config
 .text.HAL_GPIO_Init
                0x080007cc      0x240 CMakeFiles/F1.elf.dir/Drivers/STM32F1xx_HAL_Driver/Src/stm32f1xx_hal_gpio.c.obj
                0x080007cc                HAL_GPIO_Init
 .text.HAL_GPIO_WritePin
                0x08000a0c        0xc CMakeFiles/F1.elf.dir/Drivers/STM32F1xx_HAL_Driver/Src/stm32f1xx_hal_gpio.c.obj
                0x08000a0c                HAL_GPIO_WritePin
 .text.I2C_IsAcknowledgeFailed
                0x08000a18       0x32 CMakeFiles/F1.elf.dir/Drivers/STM32F1xx_HAL_Driver/Src/stm32f1xx_hal_i2c.c.obj
 .text.I2C_WaitOnFlagUntilTimeout
                0x08000a4a       0xaa CMakeFiles/F1.elf.dir/Drivers/STM32F1xx_HAL_Driver/Src/stm32f1xx_hal_i2c.c.obj
 .text.I2C_WaitOnMasterAddressFlagUntilTimeout
                0x08000af4       0xd6 CMakeFiles/F1.elf.dir/Drivers/STM32F1xx_HAL_Driver/Src/stm32f1xx_hal_i2c.c.obj
 .text.I2C_WaitOnTXEFlagUntilTimeout
                0x08000bca       0x5e CMakeFiles/F1.elf.dir/Drivers/STM32F1xx_HAL_Driver/Src/stm32f1xx_hal_i2c.c.obj
 .text.I2C_RequestMemoryWrite
                0x08000c28       0xd8 CMakeFiles/F1.elf.dir/Drivers/STM32F1xx_HAL_Driver/Src/stm32f1xx_hal_i2c.c.obj
 .text.I2C_WaitOnBTFFlagUntilTimeout
                0x08000d00       0x5e CMakeFiles/F1.elf.dir/Drivers/STM32F1xx_HAL_Driver/Src/stm32f1xx_hal_i2c.c.obj
 *fill*         0x08000d5e        0x2 
 .text.HAL_I2C_Init
                0x08000d60      0x1bc CMakeFiles/F1.elf.dir/Drivers/STM32F1xx_HAL_Driver/Src/stm32f1xx_hal_i2c.c.obj
                0x08000d60                HAL_I2C_Init
 .text.HAL_I2C_Mem_Write
                0x08000f1c      0x164 CMakeFiles/F1.elf.dir/Drivers/STM32F1xx_HAL_Driver/Src/stm32f1xx_hal_i2c.c.obj
                0x08000f1c                HAL_I2C_Mem_Write
 .text.RCC_Delay
                0x08001080       0x2c CMakeFiles/F1.elf.dir/Drivers/STM32F1xx_HAL_Driver/Src/stm32f1xx_hal_rcc.c.obj
 .text.HAL_RCC_OscConfig
                0x080010ac      0x410 CMakeFiles/F1.elf.dir/Drivers/STM32F1xx_HAL_Driver/Src/stm32f1xx_hal_rcc.c.obj
                0x080010ac                HAL_RCC_OscConfig
 .text.HAL_RCC_GetSysClockFreq
                0x080014bc       0x54 CMakeFiles/F1.elf.dir/Drivers/STM32F1xx_HAL_Driver/Src/stm32f1xx_hal_rcc.c.obj
                0x080014bc                HAL_RCC_GetSysClockFreq
 .text.HAL_RCC_ClockConfig
                0x08001510      0x16c CMakeFiles/F1.elf.dir/Drivers/STM32F1xx_HAL_Driver/Src/stm32f1xx_hal_rcc.c.obj
                0x08001510                HAL_RCC_ClockConfig
 .text.HAL_RCC_GetHCLKFreq
                0x0800167c        0xc CMakeFiles/F1.elf.dir/Drivers/STM32F1xx_HAL_Driver/Src/stm32f1xx_hal_rcc.c.obj
                0x0800167c                HAL_RCC_GetHCLKFreq
 .text.HAL_RCC_GetPCLK1Freq
                0x08001688       0x20 CMakeFiles/F1.elf.dir/Drivers/STM32F1xx_HAL_Driver/Src/stm32f1xx_hal_rcc.c.obj
                0x08001688                HAL_RCC_GetPCLK1Freq
 .text.__libc_init_array
                0x080016a8       0x48 c:/progra~2/gnuarm~1/102021~1.10/bin/../lib/gcc/arm-none-eabi/10.3.1/../../../../arm-none-eabi/lib/thumb/v7-m/nofp\libg.a(lib_a-init.o)
                0x080016a8                __libc_init_array
 .text.memset   0x080016f0       0xa4 c:/progra~2/gnuarm~1/102021~1.10/bin/../lib/gcc/arm-none-eabi/10.3.1/../../../../arm-none-eabi/lib/thumb/v7-m/nofp\libg.a(lib_a-memset.o)
                0x080016f0                memset
 .text.startup.register_fini
                0x08001794       0x14 c:/progra~2/gnuarm~1/102021~1.10/bin/../lib/gcc/arm-none-eabi/10.3.1/../../../../arm-none-eabi/lib/thumb/v7-m/nofp\libg.a(lib_a-__call_atexit.o)
 .text.atexit   0x080017a8        0xc c:/progra~2/gnuarm~1/102021~1.10/bin/../lib/gcc/arm-none-eabi/10.3.1/../../../../arm-none-eabi/lib/thumb/v7-m/nofp\libg.a(lib_a-atexit.o)
                0x080017a8                atexit
 .text.__libc_fini_array
                0x080017b4       0x2c c:/progra~2/gnuarm~1/102021~1.10/bin/../lib/gcc/arm-none-eabi/10.3.1/../../../../arm-none-eabi/lib/thumb/v7-m/nofp\libg.a(lib_a-fini.o)
                0x080017b4                __libc_fini_array
 .text.__retarget_lock_acquire_recursive
                0x080017e0        0x4 c:/progra~2/gnuarm~1/102021~1.10/bin/../lib/gcc/arm-none-eabi/10.3.1/../../../../arm-none-eabi/lib/thumb/v7-m/nofp\libg.a(lib_a-lock.o)
                0x080017e0                __retarget_lock_acquire_recursive
 .text.__retarget_lock_release_recursive
                0x080017e4        0x4 c:/progra~2/gnuarm~1/102021~1.10/bin/../lib/gcc/arm-none-eabi/10.3.1/../../../../arm-none-eabi/lib/thumb/v7-m/nofp\libg.a(lib_a-lock.o)
                0x080017e4                __retarget_lock_release_recursive
 .text.__register_exitproc
                0x080017e8       0x8c c:/progra~2/gnuarm~1/102021~1.10/bin/../lib/gcc/arm-none-eabi/10.3.1/../../../../arm-none-eabi/lib/thumb/v7-m/nofp\libg.a(lib_a-__atexit.o)
                0x080017e8                __register_exitproc
 *(.glue_7)
 .glue_7        0x08001874        0x0 linker stubs
 *(.glue_7t)
 .glue_7t       0x08001874        0x0 linker stubs
 *(.eh_frame)
 .eh_frame      0x08001874        0x0 c:/progra~2/gnuarm~1/102021~1.10/bin/../lib/gcc/arm-none-eabi/10.3.1/thumb/v7-m/nofp/crtbegin.o
 *(.init)
 .init          0x08001874        0x4 c:/progra~2/gnuarm~1/102021~1.10/bin/../lib/gcc/arm-none-eabi/10.3.1/thumb/v7-m/nofp/crti.o
                0x08001874                _init
 .init          0x08001878        0x8 c:/progra~2/gnuarm~1/102021~1.10/bin/../lib/gcc/arm-none-eabi/10.3.1/thumb/v7-m/nofp/crtn.o
 *(.fini)
 .fini          0x08001880        0x4 c:/progra~2/gnuarm~1/102021~1.10/bin/../lib/gcc/arm-none-eabi/10.3.1/thumb/v7-m/nofp/crti.o
                0x08001880                _fini
 .fini          0x08001884        0x8 c:/progra~2/gnuarm~1/102021~1.10/bin/../lib/gcc/arm-none-eabi/10.3.1/thumb/v7-m/nofp/crtn.o
                0x0800188c                . = ALIGN (0x4)
                0x0800188c                _etext = .

.vfp11_veneer   0x0800188c        0x0
 .vfp11_veneer  0x0800188c        0x0 linker stubs

.v4_bx          0x0800188c        0x0
 .v4_bx         0x0800188c        0x0 linker stubs

.iplt           0x0800188c        0x0
 .iplt          0x0800188c        0x0 c:/progra~2/gnuarm~1/102021~1.10/bin/../lib/gcc/arm-none-eabi/10.3.1/thumb/v7-m/nofp/crtbegin.o

.rodata         0x0800188c      0x830
                0x0800188c                . = ALIGN (0x4)
 *(.rodata)
 *(.rodata*)
 .rodata.Picture
                0x0800188c      0x800 CMakeFiles/F1.elf.dir/Core/OELD_IIC_Hrad/oled.c.obj
                0x0800188c                Picture
 .rodata.AHBPrescTable
                0x0800208c       0x10 CMakeFiles/F1.elf.dir/Core/Src/system_stm32f1xx.c.obj
                0x0800208c                AHBPrescTable
 .rodata.APBPrescTable
                0x0800209c        0x8 CMakeFiles/F1.elf.dir/Core/Src/system_stm32f1xx.c.obj
                0x0800209c                APBPrescTable
 .rodata.aPLLMULFactorTable.1
                0x080020a4       0x10 CMakeFiles/F1.elf.dir/Drivers/STM32F1xx_HAL_Driver/Src/stm32f1xx_hal_rcc.c.obj
 .rodata.aPredivFactorTable.0
                0x080020b4        0x2 CMakeFiles/F1.elf.dir/Drivers/STM32F1xx_HAL_Driver/Src/stm32f1xx_hal_rcc.c.obj
 *fill*         0x080020b6        0x2 
 .rodata._global_impure_ptr
                0x080020b8        0x4 c:/progra~2/gnuarm~1/102021~1.10/bin/../lib/gcc/arm-none-eabi/10.3.1/../../../../arm-none-eabi/lib/thumb/v7-m/nofp\libg.a(lib_a-impure.o)
                0x080020b8                _global_impure_ptr
                0x080020bc                . = ALIGN (0x4)

.rel.dyn        0x080020bc        0x0
 .rel.iplt      0x080020bc        0x0 c:/progra~2/gnuarm~1/102021~1.10/bin/../lib/gcc/arm-none-eabi/10.3.1/thumb/v7-m/nofp/crtbegin.o

.ARM.extab      0x080020bc        0x0
                0x080020bc                . = ALIGN (0x4)
 *(.ARM.extab* .gnu.linkonce.armextab.*)
                0x080020bc                . = ALIGN (0x4)

.ARM            0x080020bc        0x0
                0x080020bc                . = ALIGN (0x4)
                0x080020bc                __exidx_start = .
 *(.ARM.exidx*)
                0x080020bc                __exidx_end = .
                0x080020bc                . = ALIGN (0x4)

.preinit_array  0x080020bc        0x0
                0x080020bc                . = ALIGN (0x4)
                0x080020bc                PROVIDE (__preinit_array_start = .)
 *(.preinit_array*)
                0x080020bc                PROVIDE (__preinit_array_end = .)
                0x080020bc                . = ALIGN (0x4)

.init_array     0x080020bc        0x8
                0x080020bc                . = ALIGN (0x4)
                0x080020bc                PROVIDE (__init_array_start = .)
 *(SORT_BY_NAME(.init_array.*))
 .init_array.00000
                0x080020bc        0x4 c:/progra~2/gnuarm~1/102021~1.10/bin/../lib/gcc/arm-none-eabi/10.3.1/../../../../arm-none-eabi/lib/thumb/v7-m/nofp\libg.a(lib_a-__call_atexit.o)
 *(.init_array*)
 .init_array    0x080020c0        0x4 c:/progra~2/gnuarm~1/102021~1.10/bin/../lib/gcc/arm-none-eabi/10.3.1/thumb/v7-m/nofp/crtbegin.o
                0x080020c4                PROVIDE (__init_array_end = .)
                0x080020c4                . = ALIGN (0x4)

.fini_array     0x080020c4        0x4
                0x080020c4                . = ALIGN (0x4)
                0x080020c4                PROVIDE (__fini_array_start = .)
 *(SORT_BY_NAME(.fini_array.*))
 *(.fini_array*)
 .fini_array    0x080020c4        0x4 c:/progra~2/gnuarm~1/102021~1.10/bin/../lib/gcc/arm-none-eabi/10.3.1/thumb/v7-m/nofp/crtbegin.o
                0x080020c8                PROVIDE (__fini_array_end = .)
                0x080020c8                . = ALIGN (0x4)
                0x080020c8                _sidata = LOADADDR (.data)

.data           0x20000000      0x43c load address 0x080020c8
                0x20000000                . = ALIGN (0x4)
                0x20000000                _sdata = .
 *(.data)
 *(.data*)
 .data.SystemCoreClock
                0x20000000        0x4 CMakeFiles/F1.elf.dir/Core/Src/system_stm32f1xx.c.obj
                0x20000000                SystemCoreClock
 .data.uwTickFreq
                0x20000004        0x1 CMakeFiles/F1.elf.dir/Drivers/STM32F1xx_HAL_Driver/Src/stm32f1xx_hal.c.obj
                0x20000004                uwTickFreq
 *fill*         0x20000005        0x3 
 .data.uwTickPrio
                0x20000008        0x4 CMakeFiles/F1.elf.dir/Drivers/STM32F1xx_HAL_Driver/Src/stm32f1xx_hal.c.obj
                0x20000008                uwTickPrio
 *fill*         0x2000000c        0x4 
 .data.impure_data
                0x20000010      0x428 c:/progra~2/gnuarm~1/102021~1.10/bin/../lib/gcc/arm-none-eabi/10.3.1/../../../../arm-none-eabi/lib/thumb/v7-m/nofp\libg.a(lib_a-impure.o)
 .data.__atexit_recursive_mutex
                0x20000438        0x4 c:/progra~2/gnuarm~1/102021~1.10/bin/../lib/gcc/arm-none-eabi/10.3.1/../../../../arm-none-eabi/lib/thumb/v7-m/nofp\libg.a(lib_a-__call_atexit.o)
                0x20000438                __atexit_recursive_mutex
 *(.RamFunc)
 *(.RamFunc*)
                0x2000043c                . = ALIGN (0x4)
                0x2000043c                _edata = .

.igot.plt       0x2000043c        0x0 load address 0x08002504
 .igot.plt      0x2000043c        0x0 c:/progra~2/gnuarm~1/102021~1.10/bin/../lib/gcc/arm-none-eabi/10.3.1/thumb/v7-m/nofp/crtbegin.o
                0x2000043c                . = ALIGN (0x4)

.bss            0x2000043c      0x478 load address 0x08002504
                0x2000043c                _sbss = .
                0x2000043c                __bss_start__ = _sbss
 *(.bss)
 .bss           0x2000043c       0x1c c:/progra~2/gnuarm~1/102021~1.10/bin/../lib/gcc/arm-none-eabi/10.3.1/thumb/v7-m/nofp/crtbegin.o
 *(.bss*)
 .bss.OLED_Buffer
                0x20000458      0x400 CMakeFiles/F1.elf.dir/Core/OELD_IIC_Hrad/oled.c.obj
                0x20000458                OLED_Buffer
 .bss.hi2c1     0x20000858       0x54 CMakeFiles/F1.elf.dir/Core/Src/i2c.c.obj
                0x20000858                hi2c1
 .bss.uwTick    0x200008ac        0x4 CMakeFiles/F1.elf.dir/Drivers/STM32F1xx_HAL_Driver/Src/stm32f1xx_hal.c.obj
                0x200008ac                uwTick
 .bss.__lock___atexit_recursive_mutex
                0x200008b0        0x1 c:/progra~2/gnuarm~1/102021~1.10/bin/../lib/gcc/arm-none-eabi/10.3.1/../../../../arm-none-eabi/lib/thumb/v7-m/nofp\libg.a(lib_a-lock.o)
                0x200008b0                __lock___atexit_recursive_mutex
 *(COMMON)
                0x200008b4                . = ALIGN (0x4)
 *fill*         0x200008b1        0x3 
                0x200008b4                _ebss = .
                0x200008b4                __bss_end__ = _ebss

._user_heap_stack
                0x200008b4      0x604 load address 0x08002504
                0x200008b8                . = ALIGN (0x8)
 *fill*         0x200008b4        0x4 
                [!provide]                PROVIDE (end = .)
                0x200008b8                PROVIDE (_end = .)
                0x20000ab8                . = (. + _Min_Heap_Size)
 *fill*         0x200008b8      0x200 
                0x20000eb8                . = (. + _Min_Stack_Size)
 *fill*         0x20000ab8      0x400 
                0x20000eb8                . = ALIGN (0x8)

/DISCARD/
 libc.a(*)
 libm.a(*)
 libgcc.a(*)

.ARM.attributes
                0x00000000       0x29
 *(.ARM.attributes)
 .ARM.attributes
                0x00000000       0x1d c:/progra~2/gnuarm~1/102021~1.10/bin/../lib/gcc/arm-none-eabi/10.3.1/thumb/v7-m/nofp/crti.o
 .ARM.attributes
                0x0000001d       0x2d c:/progra~2/gnuarm~1/102021~1.10/bin/../lib/gcc/arm-none-eabi/10.3.1/thumb/v7-m/nofp/crtbegin.o
 .ARM.attributes
                0x0000004a       0x2d CMakeFiles/F1.elf.dir/Core/OELD_IIC_Hrad/oled.c.obj
 .ARM.attributes
                0x00000077       0x2d CMakeFiles/F1.elf.dir/Core/Src/gpio.c.obj
 .ARM.attributes
                0x000000a4       0x2d CMakeFiles/F1.elf.dir/Core/Src/i2c.c.obj
 .ARM.attributes
                0x000000d1       0x2d CMakeFiles/F1.elf.dir/Core/Src/main.c.obj
 .ARM.attributes
                0x000000fe       0x2d CMakeFiles/F1.elf.dir/Core/Src/stm32f1xx_hal_msp.c.obj
 .ARM.attributes
                0x0000012b       0x2d CMakeFiles/F1.elf.dir/Core/Src/stm32f1xx_it.c.obj
 .ARM.attributes
                0x00000158       0x2d CMakeFiles/F1.elf.dir/Core/Src/system_stm32f1xx.c.obj
 .ARM.attributes
                0x00000185       0x21 CMakeFiles/F1.elf.dir/Core/Startup/startup_stm32f103rctx.s.obj
 .ARM.attributes
                0x000001a6       0x2d CMakeFiles/F1.elf.dir/Drivers/STM32F1xx_HAL_Driver/Src/stm32f1xx_hal.c.obj
 .ARM.attributes
                0x000001d3       0x2d CMakeFiles/F1.elf.dir/Drivers/STM32F1xx_HAL_Driver/Src/stm32f1xx_hal_cortex.c.obj
 .ARM.attributes
                0x00000200       0x2d CMakeFiles/F1.elf.dir/Drivers/STM32F1xx_HAL_Driver/Src/stm32f1xx_hal_gpio.c.obj
 .ARM.attributes
                0x0000022d       0x2d CMakeFiles/F1.elf.dir/Drivers/STM32F1xx_HAL_Driver/Src/stm32f1xx_hal_i2c.c.obj
 .ARM.attributes
                0x0000025a       0x2d CMakeFiles/F1.elf.dir/Drivers/STM32F1xx_HAL_Driver/Src/stm32f1xx_hal_rcc.c.obj
 .ARM.attributes
                0x00000287       0x2d c:/progra~2/gnuarm~1/102021~1.10/bin/../lib/gcc/arm-none-eabi/10.3.1/../../../../arm-none-eabi/lib/thumb/v7-m/nofp\libg.a(lib_a-impure.o)
 .ARM.attributes
                0x000002b4       0x2d c:/progra~2/gnuarm~1/102021~1.10/bin/../lib/gcc/arm-none-eabi/10.3.1/../../../../arm-none-eabi/lib/thumb/v7-m/nofp\libg.a(lib_a-init.o)
 .ARM.attributes
                0x000002e1       0x2d c:/progra~2/gnuarm~1/102021~1.10/bin/../lib/gcc/arm-none-eabi/10.3.1/../../../../arm-none-eabi/lib/thumb/v7-m/nofp\libg.a(lib_a-memset.o)
 .ARM.attributes
                0x0000030e       0x2d c:/progra~2/gnuarm~1/102021~1.10/bin/../lib/gcc/arm-none-eabi/10.3.1/../../../../arm-none-eabi/lib/thumb/v7-m/nofp\libg.a(lib_a-__call_atexit.o)
 .ARM.attributes
                0x0000033b       0x2d c:/progra~2/gnuarm~1/102021~1.10/bin/../lib/gcc/arm-none-eabi/10.3.1/../../../../arm-none-eabi/lib/thumb/v7-m/nofp\libg.a(lib_a-atexit.o)
 .ARM.attributes
                0x00000368       0x2d c:/progra~2/gnuarm~1/102021~1.10/bin/../lib/gcc/arm-none-eabi/10.3.1/../../../../arm-none-eabi/lib/thumb/v7-m/nofp\libg.a(lib_a-fini.o)
 .ARM.attributes
                0x00000395       0x2d c:/progra~2/gnuarm~1/102021~1.10/bin/../lib/gcc/arm-none-eabi/10.3.1/../../../../arm-none-eabi/lib/thumb/v7-m/nofp\libg.a(lib_a-lock.o)
 .ARM.attributes
                0x000003c2       0x2d c:/progra~2/gnuarm~1/102021~1.10/bin/../lib/gcc/arm-none-eabi/10.3.1/../../../../arm-none-eabi/lib/thumb/v7-m/nofp\libg.a(lib_a-__atexit.o)
 .ARM.attributes
                0x000003ef       0x1d c:/progra~2/gnuarm~1/102021~1.10/bin/../lib/gcc/arm-none-eabi/10.3.1/thumb/v7-m/nofp/crtn.o
OUTPUT(F1.elf elf32-littlearm)
LOAD linker stubs
LOAD c:/progra~2/gnuarm~1/102021~1.10/bin/../lib/gcc/arm-none-eabi/10.3.1/../../../../arm-none-eabi/lib/thumb/v7-m/nofp\libc.a
LOAD c:/progra~2/gnuarm~1/102021~1.10/bin/../lib/gcc/arm-none-eabi/10.3.1/../../../../arm-none-eabi/lib/thumb/v7-m/nofp\libm.a
LOAD c:/progra~2/gnuarm~1/102021~1.10/bin/../lib/gcc/arm-none-eabi/10.3.1/thumb/v7-m/nofp\libgcc.a

.debug_info     0x00000000     0x8a0f
 .debug_info    0x00000000     0x12f5 CMakeFiles/F1.elf.dir/Core/OELD_IIC_Hrad/oled.c.obj
 .debug_info    0x000012f5      0x2f6 CMakeFiles/F1.elf.dir/Core/Src/gpio.c.obj
 .debug_info    0x000015eb      0x8a4 CMakeFiles/F1.elf.dir/Core/Src/i2c.c.obj
 .debug_info    0x00001e8f      0x477 CMakeFiles/F1.elf.dir/Core/Src/main.c.obj
 .debug_info    0x00002306      0x211 CMakeFiles/F1.elf.dir/Core/Src/stm32f1xx_hal_msp.c.obj
 .debug_info    0x00002517      0x130 CMakeFiles/F1.elf.dir/Core/Src/stm32f1xx_it.c.obj
 .debug_info    0x00002647      0x248 CMakeFiles/F1.elf.dir/Core/Src/system_stm32f1xx.c.obj
 .debug_info    0x0000288f       0x22 CMakeFiles/F1.elf.dir/Core/Startup/startup_stm32f103rctx.s.obj
 .debug_info    0x000028b1      0x80e CMakeFiles/F1.elf.dir/Drivers/STM32F1xx_HAL_Driver/Src/stm32f1xx_hal.c.obj
 .debug_info    0x000030bf      0xdf0 CMakeFiles/F1.elf.dir/Drivers/STM32F1xx_HAL_Driver/Src/stm32f1xx_hal_cortex.c.obj
 .debug_info    0x00003eaf      0x66f CMakeFiles/F1.elf.dir/Drivers/STM32F1xx_HAL_Driver/Src/stm32f1xx_hal_gpio.c.obj
 .debug_info    0x0000451e     0x3ab6 CMakeFiles/F1.elf.dir/Drivers/STM32F1xx_HAL_Driver/Src/stm32f1xx_hal_i2c.c.obj
 .debug_info    0x00007fd4      0xa3b CMakeFiles/F1.elf.dir/Drivers/STM32F1xx_HAL_Driver/Src/stm32f1xx_hal_rcc.c.obj

.debug_abbrev   0x00000000     0x1617
 .debug_abbrev  0x00000000      0x29a CMakeFiles/F1.elf.dir/Core/OELD_IIC_Hrad/oled.c.obj
 .debug_abbrev  0x0000029a      0x13c CMakeFiles/F1.elf.dir/Core/Src/gpio.c.obj
 .debug_abbrev  0x000003d6      0x1c1 CMakeFiles/F1.elf.dir/Core/Src/i2c.c.obj
 .debug_abbrev  0x00000597      0x1a5 CMakeFiles/F1.elf.dir/Core/Src/main.c.obj
 .debug_abbrev  0x0000073c       0xe5 CMakeFiles/F1.elf.dir/Core/Src/stm32f1xx_hal_msp.c.obj
 .debug_abbrev  0x00000821       0x7e CMakeFiles/F1.elf.dir/Core/Src/stm32f1xx_it.c.obj
 .debug_abbrev  0x0000089f      0x13e CMakeFiles/F1.elf.dir/Core/Src/system_stm32f1xx.c.obj
 .debug_abbrev  0x000009dd       0x12 CMakeFiles/F1.elf.dir/Core/Startup/startup_stm32f103rctx.s.obj
 .debug_abbrev  0x000009ef      0x1f4 CMakeFiles/F1.elf.dir/Drivers/STM32F1xx_HAL_Driver/Src/stm32f1xx_hal.c.obj
 .debug_abbrev  0x00000be3      0x341 CMakeFiles/F1.elf.dir/Drivers/STM32F1xx_HAL_Driver/Src/stm32f1xx_hal_cortex.c.obj
 .debug_abbrev  0x00000f24      0x1e6 CMakeFiles/F1.elf.dir/Drivers/STM32F1xx_HAL_Driver/Src/stm32f1xx_hal_gpio.c.obj
 .debug_abbrev  0x0000110a      0x293 CMakeFiles/F1.elf.dir/Drivers/STM32F1xx_HAL_Driver/Src/stm32f1xx_hal_i2c.c.obj
 .debug_abbrev  0x0000139d      0x27a CMakeFiles/F1.elf.dir/Drivers/STM32F1xx_HAL_Driver/Src/stm32f1xx_hal_rcc.c.obj

.debug_loc      0x00000000     0x613b
 .debug_loc     0x00000000      0xb01 CMakeFiles/F1.elf.dir/Core/OELD_IIC_Hrad/oled.c.obj
 .debug_loc     0x00000b01       0x67 CMakeFiles/F1.elf.dir/Core/Src/i2c.c.obj
 .debug_loc     0x00000b68       0x15 CMakeFiles/F1.elf.dir/Core/Src/stm32f1xx_hal_msp.c.obj
 .debug_loc     0x00000b7d       0xff CMakeFiles/F1.elf.dir/Core/Src/system_stm32f1xx.c.obj
 .debug_loc     0x00000c7c      0x141 CMakeFiles/F1.elf.dir/Drivers/STM32F1xx_HAL_Driver/Src/stm32f1xx_hal.c.obj
 .debug_loc     0x00000dbd      0x71f CMakeFiles/F1.elf.dir/Drivers/STM32F1xx_HAL_Driver/Src/stm32f1xx_hal_cortex.c.obj
 .debug_loc     0x000014dc      0x47d CMakeFiles/F1.elf.dir/Drivers/STM32F1xx_HAL_Driver/Src/stm32f1xx_hal_gpio.c.obj
 .debug_loc     0x00001959     0x41ca CMakeFiles/F1.elf.dir/Drivers/STM32F1xx_HAL_Driver/Src/stm32f1xx_hal_i2c.c.obj
 .debug_loc     0x00005b23      0x618 CMakeFiles/F1.elf.dir/Drivers/STM32F1xx_HAL_Driver/Src/stm32f1xx_hal_rcc.c.obj

.debug_aranges  0x00000000      0x700
 .debug_aranges
                0x00000000       0xb0 CMakeFiles/F1.elf.dir/Core/OELD_IIC_Hrad/oled.c.obj
 .debug_aranges
                0x000000b0       0x20 CMakeFiles/F1.elf.dir/Core/Src/gpio.c.obj
 .debug_aranges
                0x000000d0       0x30 CMakeFiles/F1.elf.dir/Core/Src/i2c.c.obj
 .debug_aranges
                0x00000100       0x30 CMakeFiles/F1.elf.dir/Core/Src/main.c.obj
 .debug_aranges
                0x00000130       0x20 CMakeFiles/F1.elf.dir/Core/Src/stm32f1xx_hal_msp.c.obj
 .debug_aranges
                0x00000150       0x60 CMakeFiles/F1.elf.dir/Core/Src/stm32f1xx_it.c.obj
 .debug_aranges
                0x000001b0       0x28 CMakeFiles/F1.elf.dir/Core/Src/system_stm32f1xx.c.obj
 .debug_aranges
                0x000001d8       0x28 CMakeFiles/F1.elf.dir/Core/Startup/startup_stm32f103rctx.s.obj
 .debug_aranges
                0x00000200       0xe0 CMakeFiles/F1.elf.dir/Drivers/STM32F1xx_HAL_Driver/Src/stm32f1xx_hal.c.obj
 .debug_aranges
                0x000002e0       0x90 CMakeFiles/F1.elf.dir/Drivers/STM32F1xx_HAL_Driver/Src/stm32f1xx_hal_cortex.c.obj
 .debug_aranges
                0x00000370       0x58 CMakeFiles/F1.elf.dir/Drivers/STM32F1xx_HAL_Driver/Src/stm32f1xx_hal_gpio.c.obj
 .debug_aranges
                0x000003c8      0x2a8 CMakeFiles/F1.elf.dir/Drivers/STM32F1xx_HAL_Driver/Src/stm32f1xx_hal_i2c.c.obj
 .debug_aranges
                0x00000670       0x90 CMakeFiles/F1.elf.dir/Drivers/STM32F1xx_HAL_Driver/Src/stm32f1xx_hal_rcc.c.obj

.debug_ranges   0x00000000      0x6d0
 .debug_ranges  0x00000000       0xa0 CMakeFiles/F1.elf.dir/Core/OELD_IIC_Hrad/oled.c.obj
 .debug_ranges  0x000000a0       0x10 CMakeFiles/F1.elf.dir/Core/Src/gpio.c.obj
 .debug_ranges  0x000000b0       0x20 CMakeFiles/F1.elf.dir/Core/Src/i2c.c.obj
 .debug_ranges  0x000000d0       0x20 CMakeFiles/F1.elf.dir/Core/Src/main.c.obj
 .debug_ranges  0x000000f0       0x10 CMakeFiles/F1.elf.dir/Core/Src/stm32f1xx_hal_msp.c.obj
 .debug_ranges  0x00000100       0x50 CMakeFiles/F1.elf.dir/Core/Src/stm32f1xx_it.c.obj
 .debug_ranges  0x00000150       0x18 CMakeFiles/F1.elf.dir/Core/Src/system_stm32f1xx.c.obj
 .debug_ranges  0x00000168       0x20 CMakeFiles/F1.elf.dir/Core/Startup/startup_stm32f103rctx.s.obj
 .debug_ranges  0x00000188       0xd0 CMakeFiles/F1.elf.dir/Drivers/STM32F1xx_HAL_Driver/Src/stm32f1xx_hal.c.obj
 .debug_ranges  0x00000258       0xe0 CMakeFiles/F1.elf.dir/Drivers/STM32F1xx_HAL_Driver/Src/stm32f1xx_hal_cortex.c.obj
 .debug_ranges  0x00000338       0x48 CMakeFiles/F1.elf.dir/Drivers/STM32F1xx_HAL_Driver/Src/stm32f1xx_hal_gpio.c.obj
 .debug_ranges  0x00000380      0x2b0 CMakeFiles/F1.elf.dir/Drivers/STM32F1xx_HAL_Driver/Src/stm32f1xx_hal_i2c.c.obj
 .debug_ranges  0x00000630       0xa0 CMakeFiles/F1.elf.dir/Drivers/STM32F1xx_HAL_Driver/Src/stm32f1xx_hal_rcc.c.obj

.debug_line     0x00000000     0x8c6a
 .debug_line    0x00000000      0x9f5 CMakeFiles/F1.elf.dir/Core/OELD_IIC_Hrad/oled.c.obj
 .debug_line    0x000009f5      0x1e0 CMakeFiles/F1.elf.dir/Core/Src/gpio.c.obj
 .debug_line    0x00000bd5      0x301 CMakeFiles/F1.elf.dir/Core/Src/i2c.c.obj
 .debug_line    0x00000ed6      0x3bd CMakeFiles/F1.elf.dir/Core/Src/main.c.obj
 .debug_line    0x00001293      0x170 CMakeFiles/F1.elf.dir/Core/Src/stm32f1xx_hal_msp.c.obj
 .debug_line    0x00001403      0x1ab CMakeFiles/F1.elf.dir/Core/Src/stm32f1xx_it.c.obj
 .debug_line    0x000015ae      0x23a CMakeFiles/F1.elf.dir/Core/Src/system_stm32f1xx.c.obj
 .debug_line    0x000017e8       0x9e CMakeFiles/F1.elf.dir/Core/Startup/startup_stm32f103rctx.s.obj
 .debug_line    0x00001886      0x556 CMakeFiles/F1.elf.dir/Drivers/STM32F1xx_HAL_Driver/Src/stm32f1xx_hal.c.obj
 .debug_line    0x00001ddc      0x647 CMakeFiles/F1.elf.dir/Drivers/STM32F1xx_HAL_Driver/Src/stm32f1xx_hal_cortex.c.obj
 .debug_line    0x00002423      0x603 CMakeFiles/F1.elf.dir/Drivers/STM32F1xx_HAL_Driver/Src/stm32f1xx_hal_gpio.c.obj
 .debug_line    0x00002a26     0x5618 CMakeFiles/F1.elf.dir/Drivers/STM32F1xx_HAL_Driver/Src/stm32f1xx_hal_i2c.c.obj
 .debug_line    0x0000803e      0xc2c CMakeFiles/F1.elf.dir/Drivers/STM32F1xx_HAL_Driver/Src/stm32f1xx_hal_rcc.c.obj

.debug_str      0x00000000     0x2396
 .debug_str     0x00000000      0x74f CMakeFiles/F1.elf.dir/Core/OELD_IIC_Hrad/oled.c.obj
                                0x813 (size before relaxing)
 .debug_str     0x0000074f       0xf6 CMakeFiles/F1.elf.dir/Core/Src/gpio.c.obj
                                0x2a9 (size before relaxing)
 .debug_str     0x00000845       0xb3 CMakeFiles/F1.elf.dir/Core/Src/i2c.c.obj
                                0x760 (size before relaxing)
 .debug_str     0x000008f8      0x1a0 CMakeFiles/F1.elf.dir/Core/Src/main.c.obj
                                0x409 (size before relaxing)
 .debug_str     0x00000a98       0x71 CMakeFiles/F1.elf.dir/Core/Src/stm32f1xx_hal_msp.c.obj
                                0x24b (size before relaxing)
 .debug_str     0x00000b09       0xce CMakeFiles/F1.elf.dir/Core/Src/stm32f1xx_it.c.obj
                                0x24e (size before relaxing)
 .debug_str     0x00000bd7       0x95 CMakeFiles/F1.elf.dir/Core/Src/system_stm32f1xx.c.obj
                                0x280 (size before relaxing)
 .debug_str     0x00000c6c       0x4d CMakeFiles/F1.elf.dir/Core/Startup/startup_stm32f103rctx.s.obj
                                 0x79 (size before relaxing)
 .debug_str     0x00000cb9      0x6e9 CMakeFiles/F1.elf.dir/Drivers/STM32F1xx_HAL_Driver/Src/stm32f1xx_hal.c.obj
                                0x934 (size before relaxing)
 .debug_str     0x000013a2      0x3d2 CMakeFiles/F1.elf.dir/Drivers/STM32F1xx_HAL_Driver/Src/stm32f1xx_hal_cortex.c.obj
                                0x9e3 (size before relaxing)
 .debug_str     0x00001774      0x131 CMakeFiles/F1.elf.dir/Drivers/STM32F1xx_HAL_Driver/Src/stm32f1xx_hal_gpio.c.obj
                                0x42c (size before relaxing)
 .debug_str     0x000018a5      0x906 CMakeFiles/F1.elf.dir/Drivers/STM32F1xx_HAL_Driver/Src/stm32f1xx_hal_i2c.c.obj
                                0xff1 (size before relaxing)
 .debug_str     0x000021ab      0x1eb CMakeFiles/F1.elf.dir/Drivers/STM32F1xx_HAL_Driver/Src/stm32f1xx_hal_rcc.c.obj
                                0x657 (size before relaxing)

.comment        0x00000000       0x49
 .comment       0x00000000       0x49 CMakeFiles/F1.elf.dir/Core/OELD_IIC_Hrad/oled.c.obj
                                 0x4a (size before relaxing)
 .comment       0x00000049       0x4a CMakeFiles/F1.elf.dir/Core/Src/gpio.c.obj
 .comment       0x00000049       0x4a CMakeFiles/F1.elf.dir/Core/Src/i2c.c.obj
 .comment       0x00000049       0x4a CMakeFiles/F1.elf.dir/Core/Src/main.c.obj
 .comment       0x00000049       0x4a CMakeFiles/F1.elf.dir/Core/Src/stm32f1xx_hal_msp.c.obj
 .comment       0x00000049       0x4a CMakeFiles/F1.elf.dir/Core/Src/stm32f1xx_it.c.obj
 .comment       0x00000049       0x4a CMakeFiles/F1.elf.dir/Core/Src/system_stm32f1xx.c.obj
 .comment       0x00000049       0x4a CMakeFiles/F1.elf.dir/Drivers/STM32F1xx_HAL_Driver/Src/stm32f1xx_hal.c.obj
 .comment       0x00000049       0x4a CMakeFiles/F1.elf.dir/Drivers/STM32F1xx_HAL_Driver/Src/stm32f1xx_hal_cortex.c.obj
 .comment       0x00000049       0x4a CMakeFiles/F1.elf.dir/Drivers/STM32F1xx_HAL_Driver/Src/stm32f1xx_hal_gpio.c.obj
 .comment       0x00000049       0x4a CMakeFiles/F1.elf.dir/Drivers/STM32F1xx_HAL_Driver/Src/stm32f1xx_hal_i2c.c.obj
 .comment       0x00000049       0x4a CMakeFiles/F1.elf.dir/Drivers/STM32F1xx_HAL_Driver/Src/stm32f1xx_hal_rcc.c.obj

.debug_frame    0x00000000     0x14e0
 .debug_frame   0x00000000      0x23c CMakeFiles/F1.elf.dir/Core/OELD_IIC_Hrad/oled.c.obj
 .debug_frame   0x0000023c       0x30 CMakeFiles/F1.elf.dir/Core/Src/gpio.c.obj
 .debug_frame   0x0000026c       0x60 CMakeFiles/F1.elf.dir/Core/Src/i2c.c.obj
 .debug_frame   0x000002cc       0x58 CMakeFiles/F1.elf.dir/Core/Src/main.c.obj
 .debug_frame   0x00000324       0x28 CMakeFiles/F1.elf.dir/Core/Src/stm32f1xx_hal_msp.c.obj
 .debug_frame   0x0000034c       0xa8 CMakeFiles/F1.elf.dir/Core/Src/stm32f1xx_it.c.obj
 .debug_frame   0x000003f4       0x30 CMakeFiles/F1.elf.dir/Core/Src/system_stm32f1xx.c.obj
 .debug_frame   0x00000424      0x1cc CMakeFiles/F1.elf.dir/Drivers/STM32F1xx_HAL_Driver/Src/stm32f1xx_hal.c.obj
 .debug_frame   0x000005f0      0x118 CMakeFiles/F1.elf.dir/Drivers/STM32F1xx_HAL_Driver/Src/stm32f1xx_hal_cortex.c.obj
 .debug_frame   0x00000708       0xe4 CMakeFiles/F1.elf.dir/Drivers/STM32F1xx_HAL_Driver/Src/stm32f1xx_hal_gpio.c.obj
 .debug_frame   0x000007ec      0x984 CMakeFiles/F1.elf.dir/Drivers/STM32F1xx_HAL_Driver/Src/stm32f1xx_hal_i2c.c.obj
 .debug_frame   0x00001170      0x184 CMakeFiles/F1.elf.dir/Drivers/STM32F1xx_HAL_Driver/Src/stm32f1xx_hal_rcc.c.obj
 .debug_frame   0x000012f4       0x2c c:/progra~2/gnuarm~1/102021~1.10/bin/../lib/gcc/arm-none-eabi/10.3.1/../../../../arm-none-eabi/lib/thumb/v7-m/nofp\libg.a(lib_a-init.o)
 .debug_frame   0x00001320       0x2c c:/progra~2/gnuarm~1/102021~1.10/bin/../lib/gcc/arm-none-eabi/10.3.1/../../../../arm-none-eabi/lib/thumb/v7-m/nofp\libg.a(lib_a-memset.o)
 .debug_frame   0x0000134c       0x5c c:/progra~2/gnuarm~1/102021~1.10/bin/../lib/gcc/arm-none-eabi/10.3.1/../../../../arm-none-eabi/lib/thumb/v7-m/nofp\libg.a(lib_a-__call_atexit.o)
 .debug_frame   0x000013a8       0x20 c:/progra~2/gnuarm~1/102021~1.10/bin/../lib/gcc/arm-none-eabi/10.3.1/../../../../arm-none-eabi/lib/thumb/v7-m/nofp\libg.a(lib_a-atexit.o)
 .debug_frame   0x000013c8       0x34 c:/progra~2/gnuarm~1/102021~1.10/bin/../lib/gcc/arm-none-eabi/10.3.1/../../../../arm-none-eabi/lib/thumb/v7-m/nofp\libg.a(lib_a-fini.o)
 .debug_frame   0x000013fc       0xb0 c:/progra~2/gnuarm~1/102021~1.10/bin/../lib/gcc/arm-none-eabi/10.3.1/../../../../arm-none-eabi/lib/thumb/v7-m/nofp\libg.a(lib_a-lock.o)
 .debug_frame   0x000014ac       0x34 c:/progra~2/gnuarm~1/102021~1.10/bin/../lib/gcc/arm-none-eabi/10.3.1/../../../../arm-none-eabi/lib/thumb/v7-m/nofp\libg.a(lib_a-__atexit.o)
