
TFTLCD.elf:     file format elf32-littlearm

Sections:
Idx Name          Size      VMA       LMA       File off  Algn
  0 .isr_vector   00000188  08000000  08000000  00010000  2**0
                  CONTENTS, ALLOC, LOAD, READONLY, DATA
  1 .text         0000b5c4  08000190  08000190  00010190  2**4
                  CONTENTS, ALLOC, LOAD, READONLY, CODE
  2 .rodata       00004c44  0800b758  0800b758  0001b758  2**3
                  CONTENTS, ALLOC, LOAD, READONLY, DATA
  3 .ARM.extab    00000000  0801039c  0801039c  000301e8  2**0
                  CONTENTS
  4 .ARM          00000008  0801039c  0801039c  0002039c  2**2
                  CONTENTS, ALLOC, LOAD, READONLY, DATA
  5 .preinit_array 00000000  080103a4  080103a4  000301e8  2**0
                  CONTENTS, ALLOC, LOAD, DATA
  6 .init_array   00000004  080103a4  080103a4  000203a4  2**2
                  CONTENTS, ALLOC, LOAD, DATA
  7 .fini_array   00000004  080103a8  080103a8  000203a8  2**2
                  CONTENTS, ALLOC, LOAD, DATA
  8 .data         000001e8  20000000  080103ac  00030000  2**2
                  CONTENTS, ALLOC, LOAD, DATA
  9 .ccmram       00000000  10000000  10000000  000301e8  2**0
                  CONTENTS
 10 .bss          0000013c  200001e8  200001e8  000301e8  2**2
                  ALLOC
 11 ._user_heap_stack 00000604  20000324  20000324  000301e8  2**0
                  ALLOC
 12 .ARM.attributes 00000030  00000000  00000000  000301e8  2**0
                  CONTENTS, READONLY
 13 .debug_info   00011c4b  00000000  00000000  00030218  2**0
                  CONTENTS, READONLY, DEBUGGING, OCTETS
 14 .debug_abbrev 00002a3c  00000000  00000000  00041e63  2**0
                  CONTENTS, READONLY, DEBUGGING, OCTETS
 15 .debug_aranges 00000f80  00000000  00000000  000448a0  2**3
                  CONTENTS, READONLY, DEBUGGING, OCTETS
 16 .debug_ranges 00000e48  00000000  00000000  00045820  2**3
                  CONTENTS, READONLY, DEBUGGING, OCTETS
 17 .debug_macro  000234b3  00000000  00000000  00046668  2**0
                  CONTENTS, READONLY, DEBUGGING, OCTETS
 18 .debug_line   00013c93  00000000  00000000  00069b1b  2**0
                  CONTENTS, READONLY, DEBUGGING, OCTETS
 19 .debug_str    000d04a9  00000000  00000000  0007d7ae  2**0
                  CONTENTS, READONLY, DEBUGGING, OCTETS
 20 .comment      00000050  00000000  00000000  0014dc57  2**0
                  CONTENTS, READONLY
 21 .debug_frame  00005600  00000000  00000000  0014dca8  2**2
                  CONTENTS, READONLY, DEBUGGING, OCTETS

Disassembly of section .text:

08000190 <__do_global_dtors_aux>:
 8000190:	b510      	push	{r4, lr}
 8000192:	4c05      	ldr	r4, [pc, #20]	; (80001a8 <__do_global_dtors_aux+0x18>)
 8000194:	7823      	ldrb	r3, [r4, #0]
 8000196:	b933      	cbnz	r3, 80001a6 <__do_global_dtors_aux+0x16>
 8000198:	4b04      	ldr	r3, [pc, #16]	; (80001ac <__do_global_dtors_aux+0x1c>)
 800019a:	b113      	cbz	r3, 80001a2 <__do_global_dtors_aux+0x12>
 800019c:	4804      	ldr	r0, [pc, #16]	; (80001b0 <__do_global_dtors_aux+0x20>)
 800019e:	f3af 8000 	nop.w
 80001a2:	2301      	movs	r3, #1
 80001a4:	7023      	strb	r3, [r4, #0]
 80001a6:	bd10      	pop	{r4, pc}
 80001a8:	200001e8 	.word	0x200001e8
 80001ac:	00000000 	.word	0x00000000
 80001b0:	0800b73c 	.word	0x0800b73c

080001b4 <frame_dummy>:
 80001b4:	b508      	push	{r3, lr}
 80001b6:	4b03      	ldr	r3, [pc, #12]	; (80001c4 <frame_dummy+0x10>)
 80001b8:	b11b      	cbz	r3, 80001c2 <frame_dummy+0xe>
 80001ba:	4903      	ldr	r1, [pc, #12]	; (80001c8 <frame_dummy+0x14>)
 80001bc:	4803      	ldr	r0, [pc, #12]	; (80001cc <frame_dummy+0x18>)
 80001be:	f3af 8000 	nop.w
 80001c2:	bd08      	pop	{r3, pc}
 80001c4:	00000000 	.word	0x00000000
 80001c8:	200001ec 	.word	0x200001ec
 80001cc:	0800b73c 	.word	0x0800b73c

080001d0 <strlen>:
 80001d0:	4603      	mov	r3, r0
 80001d2:	f813 2b01 	ldrb.w	r2, [r3], #1
 80001d6:	2a00      	cmp	r2, #0
 80001d8:	d1fb      	bne.n	80001d2 <strlen+0x2>
 80001da:	1a18      	subs	r0, r3, r0
 80001dc:	3801      	subs	r0, #1
 80001de:	4770      	bx	lr

080001e0 <memchr>:
 80001e0:	f001 01ff 	and.w	r1, r1, #255	; 0xff
 80001e4:	2a10      	cmp	r2, #16
 80001e6:	db2b      	blt.n	8000240 <memchr+0x60>
 80001e8:	f010 0f07 	tst.w	r0, #7
 80001ec:	d008      	beq.n	8000200 <memchr+0x20>
 80001ee:	f810 3b01 	ldrb.w	r3, [r0], #1
 80001f2:	3a01      	subs	r2, #1
 80001f4:	428b      	cmp	r3, r1
 80001f6:	d02d      	beq.n	8000254 <memchr+0x74>
 80001f8:	f010 0f07 	tst.w	r0, #7
 80001fc:	b342      	cbz	r2, 8000250 <memchr+0x70>
 80001fe:	d1f6      	bne.n	80001ee <memchr+0xe>
 8000200:	b4f0      	push	{r4, r5, r6, r7}
 8000202:	ea41 2101 	orr.w	r1, r1, r1, lsl #8
 8000206:	ea41 4101 	orr.w	r1, r1, r1, lsl #16
 800020a:	f022 0407 	bic.w	r4, r2, #7
 800020e:	f07f 0700 	mvns.w	r7, #0
 8000212:	2300      	movs	r3, #0
 8000214:	e8f0 5602 	ldrd	r5, r6, [r0], #8
 8000218:	3c08      	subs	r4, #8
 800021a:	ea85 0501 	eor.w	r5, r5, r1
 800021e:	ea86 0601 	eor.w	r6, r6, r1
 8000222:	fa85 f547 	uadd8	r5, r5, r7
 8000226:	faa3 f587 	sel	r5, r3, r7
 800022a:	fa86 f647 	uadd8	r6, r6, r7
 800022e:	faa5 f687 	sel	r6, r5, r7
 8000232:	b98e      	cbnz	r6, 8000258 <memchr+0x78>
 8000234:	d1ee      	bne.n	8000214 <memchr+0x34>
 8000236:	bcf0      	pop	{r4, r5, r6, r7}
 8000238:	f001 01ff 	and.w	r1, r1, #255	; 0xff
 800023c:	f002 0207 	and.w	r2, r2, #7
 8000240:	b132      	cbz	r2, 8000250 <memchr+0x70>
 8000242:	f810 3b01 	ldrb.w	r3, [r0], #1
 8000246:	3a01      	subs	r2, #1
 8000248:	ea83 0301 	eor.w	r3, r3, r1
 800024c:	b113      	cbz	r3, 8000254 <memchr+0x74>
 800024e:	d1f8      	bne.n	8000242 <memchr+0x62>
 8000250:	2000      	movs	r0, #0
 8000252:	4770      	bx	lr
 8000254:	3801      	subs	r0, #1
 8000256:	4770      	bx	lr
 8000258:	2d00      	cmp	r5, #0
 800025a:	bf06      	itte	eq
 800025c:	4635      	moveq	r5, r6
 800025e:	3803      	subeq	r0, #3
 8000260:	3807      	subne	r0, #7
 8000262:	f015 0f01 	tst.w	r5, #1
 8000266:	d107      	bne.n	8000278 <memchr+0x98>
 8000268:	3001      	adds	r0, #1
 800026a:	f415 7f80 	tst.w	r5, #256	; 0x100
 800026e:	bf02      	ittt	eq
 8000270:	3001      	addeq	r0, #1
 8000272:	f415 3fc0 	tsteq.w	r5, #98304	; 0x18000
 8000276:	3001      	addeq	r0, #1
 8000278:	bcf0      	pop	{r4, r5, r6, r7}
 800027a:	3801      	subs	r0, #1
 800027c:	4770      	bx	lr
 800027e:	bf00      	nop

08000280 <__aeabi_drsub>:
 8000280:	f081 4100 	eor.w	r1, r1, #2147483648	; 0x80000000
 8000284:	e002      	b.n	800028c <__adddf3>
 8000286:	bf00      	nop

08000288 <__aeabi_dsub>:
 8000288:	f083 4300 	eor.w	r3, r3, #2147483648	; 0x80000000

0800028c <__adddf3>:
 800028c:	b530      	push	{r4, r5, lr}
 800028e:	ea4f 0441 	mov.w	r4, r1, lsl #1
 8000292:	ea4f 0543 	mov.w	r5, r3, lsl #1
 8000296:	ea94 0f05 	teq	r4, r5
 800029a:	bf08      	it	eq
 800029c:	ea90 0f02 	teqeq	r0, r2
 80002a0:	bf1f      	itttt	ne
 80002a2:	ea54 0c00 	orrsne.w	ip, r4, r0
 80002a6:	ea55 0c02 	orrsne.w	ip, r5, r2
 80002aa:	ea7f 5c64 	mvnsne.w	ip, r4, asr #21
 80002ae:	ea7f 5c65 	mvnsne.w	ip, r5, asr #21
 80002b2:	f000 80e2 	beq.w	800047a <__adddf3+0x1ee>
 80002b6:	ea4f 5454 	mov.w	r4, r4, lsr #21
 80002ba:	ebd4 5555 	rsbs	r5, r4, r5, lsr #21
 80002be:	bfb8      	it	lt
 80002c0:	426d      	neglt	r5, r5
 80002c2:	dd0c      	ble.n	80002de <__adddf3+0x52>
 80002c4:	442c      	add	r4, r5
 80002c6:	ea80 0202 	eor.w	r2, r0, r2
 80002ca:	ea81 0303 	eor.w	r3, r1, r3
 80002ce:	ea82 0000 	eor.w	r0, r2, r0
 80002d2:	ea83 0101 	eor.w	r1, r3, r1
 80002d6:	ea80 0202 	eor.w	r2, r0, r2
 80002da:	ea81 0303 	eor.w	r3, r1, r3
 80002de:	2d36      	cmp	r5, #54	; 0x36
 80002e0:	bf88      	it	hi
 80002e2:	bd30      	pophi	{r4, r5, pc}
 80002e4:	f011 4f00 	tst.w	r1, #2147483648	; 0x80000000
 80002e8:	ea4f 3101 	mov.w	r1, r1, lsl #12
 80002ec:	f44f 1c80 	mov.w	ip, #1048576	; 0x100000
 80002f0:	ea4c 3111 	orr.w	r1, ip, r1, lsr #12
 80002f4:	d002      	beq.n	80002fc <__adddf3+0x70>
 80002f6:	4240      	negs	r0, r0
 80002f8:	eb61 0141 	sbc.w	r1, r1, r1, lsl #1
 80002fc:	f013 4f00 	tst.w	r3, #2147483648	; 0x80000000
 8000300:	ea4f 3303 	mov.w	r3, r3, lsl #12
 8000304:	ea4c 3313 	orr.w	r3, ip, r3, lsr #12
 8000308:	d002      	beq.n	8000310 <__adddf3+0x84>
 800030a:	4252      	negs	r2, r2
 800030c:	eb63 0343 	sbc.w	r3, r3, r3, lsl #1
 8000310:	ea94 0f05 	teq	r4, r5
 8000314:	f000 80a7 	beq.w	8000466 <__adddf3+0x1da>
 8000318:	f1a4 0401 	sub.w	r4, r4, #1
 800031c:	f1d5 0e20 	rsbs	lr, r5, #32
 8000320:	db0d      	blt.n	800033e <__adddf3+0xb2>
 8000322:	fa02 fc0e 	lsl.w	ip, r2, lr
 8000326:	fa22 f205 	lsr.w	r2, r2, r5
 800032a:	1880      	adds	r0, r0, r2
 800032c:	f141 0100 	adc.w	r1, r1, #0
 8000330:	fa03 f20e 	lsl.w	r2, r3, lr
 8000334:	1880      	adds	r0, r0, r2
 8000336:	fa43 f305 	asr.w	r3, r3, r5
 800033a:	4159      	adcs	r1, r3
 800033c:	e00e      	b.n	800035c <__adddf3+0xd0>
 800033e:	f1a5 0520 	sub.w	r5, r5, #32
 8000342:	f10e 0e20 	add.w	lr, lr, #32
 8000346:	2a01      	cmp	r2, #1
 8000348:	fa03 fc0e 	lsl.w	ip, r3, lr
 800034c:	bf28      	it	cs
 800034e:	f04c 0c02 	orrcs.w	ip, ip, #2
 8000352:	fa43 f305 	asr.w	r3, r3, r5
 8000356:	18c0      	adds	r0, r0, r3
 8000358:	eb51 71e3 	adcs.w	r1, r1, r3, asr #31
 800035c:	f001 4500 	and.w	r5, r1, #2147483648	; 0x80000000
 8000360:	d507      	bpl.n	8000372 <__adddf3+0xe6>
 8000362:	f04f 0e00 	mov.w	lr, #0
 8000366:	f1dc 0c00 	rsbs	ip, ip, #0
 800036a:	eb7e 0000 	sbcs.w	r0, lr, r0
 800036e:	eb6e 0101 	sbc.w	r1, lr, r1
 8000372:	f5b1 1f80 	cmp.w	r1, #1048576	; 0x100000
 8000376:	d31b      	bcc.n	80003b0 <__adddf3+0x124>
 8000378:	f5b1 1f00 	cmp.w	r1, #2097152	; 0x200000
 800037c:	d30c      	bcc.n	8000398 <__adddf3+0x10c>
 800037e:	0849      	lsrs	r1, r1, #1
 8000380:	ea5f 0030 	movs.w	r0, r0, rrx
 8000384:	ea4f 0c3c 	mov.w	ip, ip, rrx
 8000388:	f104 0401 	add.w	r4, r4, #1
 800038c:	ea4f 5244 	mov.w	r2, r4, lsl #21
 8000390:	f512 0f80 	cmn.w	r2, #4194304	; 0x400000
 8000394:	f080 809a 	bcs.w	80004cc <__adddf3+0x240>
 8000398:	f1bc 4f00 	cmp.w	ip, #2147483648	; 0x80000000
 800039c:	bf08      	it	eq
 800039e:	ea5f 0c50 	movseq.w	ip, r0, lsr #1
 80003a2:	f150 0000 	adcs.w	r0, r0, #0
 80003a6:	eb41 5104 	adc.w	r1, r1, r4, lsl #20
 80003aa:	ea41 0105 	orr.w	r1, r1, r5
 80003ae:	bd30      	pop	{r4, r5, pc}
 80003b0:	ea5f 0c4c 	movs.w	ip, ip, lsl #1
 80003b4:	4140      	adcs	r0, r0
 80003b6:	eb41 0101 	adc.w	r1, r1, r1
 80003ba:	3c01      	subs	r4, #1
 80003bc:	bf28      	it	cs
 80003be:	f5b1 1f80 	cmpcs.w	r1, #1048576	; 0x100000
 80003c2:	d2e9      	bcs.n	8000398 <__adddf3+0x10c>
 80003c4:	f091 0f00 	teq	r1, #0
 80003c8:	bf04      	itt	eq
 80003ca:	4601      	moveq	r1, r0
 80003cc:	2000      	moveq	r0, #0
 80003ce:	fab1 f381 	clz	r3, r1
 80003d2:	bf08      	it	eq
 80003d4:	3320      	addeq	r3, #32
 80003d6:	f1a3 030b 	sub.w	r3, r3, #11
 80003da:	f1b3 0220 	subs.w	r2, r3, #32
 80003de:	da0c      	bge.n	80003fa <__adddf3+0x16e>
 80003e0:	320c      	adds	r2, #12
 80003e2:	dd08      	ble.n	80003f6 <__adddf3+0x16a>
 80003e4:	f102 0c14 	add.w	ip, r2, #20
 80003e8:	f1c2 020c 	rsb	r2, r2, #12
 80003ec:	fa01 f00c 	lsl.w	r0, r1, ip
 80003f0:	fa21 f102 	lsr.w	r1, r1, r2
 80003f4:	e00c      	b.n	8000410 <__adddf3+0x184>
 80003f6:	f102 0214 	add.w	r2, r2, #20
 80003fa:	bfd8      	it	le
 80003fc:	f1c2 0c20 	rsble	ip, r2, #32
 8000400:	fa01 f102 	lsl.w	r1, r1, r2
 8000404:	fa20 fc0c 	lsr.w	ip, r0, ip
 8000408:	bfdc      	itt	le
 800040a:	ea41 010c 	orrle.w	r1, r1, ip
 800040e:	4090      	lslle	r0, r2
 8000410:	1ae4      	subs	r4, r4, r3
 8000412:	bfa2      	ittt	ge
 8000414:	eb01 5104 	addge.w	r1, r1, r4, lsl #20
 8000418:	4329      	orrge	r1, r5
 800041a:	bd30      	popge	{r4, r5, pc}
 800041c:	ea6f 0404 	mvn.w	r4, r4
 8000420:	3c1f      	subs	r4, #31
 8000422:	da1c      	bge.n	800045e <__adddf3+0x1d2>
 8000424:	340c      	adds	r4, #12
 8000426:	dc0e      	bgt.n	8000446 <__adddf3+0x1ba>
 8000428:	f104 0414 	add.w	r4, r4, #20
 800042c:	f1c4 0220 	rsb	r2, r4, #32
 8000430:	fa20 f004 	lsr.w	r0, r0, r4
 8000434:	fa01 f302 	lsl.w	r3, r1, r2
 8000438:	ea40 0003 	orr.w	r0, r0, r3
 800043c:	fa21 f304 	lsr.w	r3, r1, r4
 8000440:	ea45 0103 	orr.w	r1, r5, r3
 8000444:	bd30      	pop	{r4, r5, pc}
 8000446:	f1c4 040c 	rsb	r4, r4, #12
 800044a:	f1c4 0220 	rsb	r2, r4, #32
 800044e:	fa20 f002 	lsr.w	r0, r0, r2
 8000452:	fa01 f304 	lsl.w	r3, r1, r4
 8000456:	ea40 0003 	orr.w	r0, r0, r3
 800045a:	4629      	mov	r1, r5
 800045c:	bd30      	pop	{r4, r5, pc}
 800045e:	fa21 f004 	lsr.w	r0, r1, r4
 8000462:	4629      	mov	r1, r5
 8000464:	bd30      	pop	{r4, r5, pc}
 8000466:	f094 0f00 	teq	r4, #0
 800046a:	f483 1380 	eor.w	r3, r3, #1048576	; 0x100000
 800046e:	bf06      	itte	eq
 8000470:	f481 1180 	eoreq.w	r1, r1, #1048576	; 0x100000
 8000474:	3401      	addeq	r4, #1
 8000476:	3d01      	subne	r5, #1
 8000478:	e74e      	b.n	8000318 <__adddf3+0x8c>
 800047a:	ea7f 5c64 	mvns.w	ip, r4, asr #21
 800047e:	bf18      	it	ne
 8000480:	ea7f 5c65 	mvnsne.w	ip, r5, asr #21
 8000484:	d029      	beq.n	80004da <__adddf3+0x24e>
 8000486:	ea94 0f05 	teq	r4, r5
 800048a:	bf08      	it	eq
 800048c:	ea90 0f02 	teqeq	r0, r2
 8000490:	d005      	beq.n	800049e <__adddf3+0x212>
 8000492:	ea54 0c00 	orrs.w	ip, r4, r0
 8000496:	bf04      	itt	eq
 8000498:	4619      	moveq	r1, r3
 800049a:	4610      	moveq	r0, r2
 800049c:	bd30      	pop	{r4, r5, pc}
 800049e:	ea91 0f03 	teq	r1, r3
 80004a2:	bf1e      	ittt	ne
 80004a4:	2100      	movne	r1, #0
 80004a6:	2000      	movne	r0, #0
 80004a8:	bd30      	popne	{r4, r5, pc}
 80004aa:	ea5f 5c54 	movs.w	ip, r4, lsr #21
 80004ae:	d105      	bne.n	80004bc <__adddf3+0x230>
 80004b0:	0040      	lsls	r0, r0, #1
 80004b2:	4149      	adcs	r1, r1
 80004b4:	bf28      	it	cs
 80004b6:	f041 4100 	orrcs.w	r1, r1, #2147483648	; 0x80000000
 80004ba:	bd30      	pop	{r4, r5, pc}
 80004bc:	f514 0480 	adds.w	r4, r4, #4194304	; 0x400000
 80004c0:	bf3c      	itt	cc
 80004c2:	f501 1180 	addcc.w	r1, r1, #1048576	; 0x100000
 80004c6:	bd30      	popcc	{r4, r5, pc}
 80004c8:	f001 4500 	and.w	r5, r1, #2147483648	; 0x80000000
 80004cc:	f045 41fe 	orr.w	r1, r5, #2130706432	; 0x7f000000
 80004d0:	f441 0170 	orr.w	r1, r1, #15728640	; 0xf00000
 80004d4:	f04f 0000 	mov.w	r0, #0
 80004d8:	bd30      	pop	{r4, r5, pc}
 80004da:	ea7f 5c64 	mvns.w	ip, r4, asr #21
 80004de:	bf1a      	itte	ne
 80004e0:	4619      	movne	r1, r3
 80004e2:	4610      	movne	r0, r2
 80004e4:	ea7f 5c65 	mvnseq.w	ip, r5, asr #21
 80004e8:	bf1c      	itt	ne
 80004ea:	460b      	movne	r3, r1
 80004ec:	4602      	movne	r2, r0
 80004ee:	ea50 3401 	orrs.w	r4, r0, r1, lsl #12
 80004f2:	bf06      	itte	eq
 80004f4:	ea52 3503 	orrseq.w	r5, r2, r3, lsl #12
 80004f8:	ea91 0f03 	teqeq	r1, r3
 80004fc:	f441 2100 	orrne.w	r1, r1, #524288	; 0x80000
 8000500:	bd30      	pop	{r4, r5, pc}
 8000502:	bf00      	nop

08000504 <__aeabi_ui2d>:
 8000504:	f090 0f00 	teq	r0, #0
 8000508:	bf04      	itt	eq
 800050a:	2100      	moveq	r1, #0
 800050c:	4770      	bxeq	lr
 800050e:	b530      	push	{r4, r5, lr}
 8000510:	f44f 6480 	mov.w	r4, #1024	; 0x400
 8000514:	f104 0432 	add.w	r4, r4, #50	; 0x32
 8000518:	f04f 0500 	mov.w	r5, #0
 800051c:	f04f 0100 	mov.w	r1, #0
 8000520:	e750      	b.n	80003c4 <__adddf3+0x138>
 8000522:	bf00      	nop

08000524 <__aeabi_i2d>:
 8000524:	f090 0f00 	teq	r0, #0
 8000528:	bf04      	itt	eq
 800052a:	2100      	moveq	r1, #0
 800052c:	4770      	bxeq	lr
 800052e:	b530      	push	{r4, r5, lr}
 8000530:	f44f 6480 	mov.w	r4, #1024	; 0x400
 8000534:	f104 0432 	add.w	r4, r4, #50	; 0x32
 8000538:	f010 4500 	ands.w	r5, r0, #2147483648	; 0x80000000
 800053c:	bf48      	it	mi
 800053e:	4240      	negmi	r0, r0
 8000540:	f04f 0100 	mov.w	r1, #0
 8000544:	e73e      	b.n	80003c4 <__adddf3+0x138>
 8000546:	bf00      	nop

08000548 <__aeabi_f2d>:
 8000548:	0042      	lsls	r2, r0, #1
 800054a:	ea4f 01e2 	mov.w	r1, r2, asr #3
 800054e:	ea4f 0131 	mov.w	r1, r1, rrx
 8000552:	ea4f 7002 	mov.w	r0, r2, lsl #28
 8000556:	bf1f      	itttt	ne
 8000558:	f012 437f 	andsne.w	r3, r2, #4278190080	; 0xff000000
 800055c:	f093 4f7f 	teqne	r3, #4278190080	; 0xff000000
 8000560:	f081 5160 	eorne.w	r1, r1, #939524096	; 0x38000000
 8000564:	4770      	bxne	lr
 8000566:	f032 427f 	bics.w	r2, r2, #4278190080	; 0xff000000
 800056a:	bf08      	it	eq
 800056c:	4770      	bxeq	lr
 800056e:	f093 4f7f 	teq	r3, #4278190080	; 0xff000000
 8000572:	bf04      	itt	eq
 8000574:	f441 2100 	orreq.w	r1, r1, #524288	; 0x80000
 8000578:	4770      	bxeq	lr
 800057a:	b530      	push	{r4, r5, lr}
 800057c:	f44f 7460 	mov.w	r4, #896	; 0x380
 8000580:	f001 4500 	and.w	r5, r1, #2147483648	; 0x80000000
 8000584:	f021 4100 	bic.w	r1, r1, #2147483648	; 0x80000000
 8000588:	e71c      	b.n	80003c4 <__adddf3+0x138>
 800058a:	bf00      	nop

0800058c <__aeabi_ul2d>:
 800058c:	ea50 0201 	orrs.w	r2, r0, r1
 8000590:	bf08      	it	eq
 8000592:	4770      	bxeq	lr
 8000594:	b530      	push	{r4, r5, lr}
 8000596:	f04f 0500 	mov.w	r5, #0
 800059a:	e00a      	b.n	80005b2 <__aeabi_l2d+0x16>

0800059c <__aeabi_l2d>:
 800059c:	ea50 0201 	orrs.w	r2, r0, r1
 80005a0:	bf08      	it	eq
 80005a2:	4770      	bxeq	lr
 80005a4:	b530      	push	{r4, r5, lr}
 80005a6:	f011 4500 	ands.w	r5, r1, #2147483648	; 0x80000000
 80005aa:	d502      	bpl.n	80005b2 <__aeabi_l2d+0x16>
 80005ac:	4240      	negs	r0, r0
 80005ae:	eb61 0141 	sbc.w	r1, r1, r1, lsl #1
 80005b2:	f44f 6480 	mov.w	r4, #1024	; 0x400
 80005b6:	f104 0432 	add.w	r4, r4, #50	; 0x32
 80005ba:	ea5f 5c91 	movs.w	ip, r1, lsr #22
 80005be:	f43f aed8 	beq.w	8000372 <__adddf3+0xe6>
 80005c2:	f04f 0203 	mov.w	r2, #3
 80005c6:	ea5f 0cdc 	movs.w	ip, ip, lsr #3
 80005ca:	bf18      	it	ne
 80005cc:	3203      	addne	r2, #3
 80005ce:	ea5f 0cdc 	movs.w	ip, ip, lsr #3
 80005d2:	bf18      	it	ne
 80005d4:	3203      	addne	r2, #3
 80005d6:	eb02 02dc 	add.w	r2, r2, ip, lsr #3
 80005da:	f1c2 0320 	rsb	r3, r2, #32
 80005de:	fa00 fc03 	lsl.w	ip, r0, r3
 80005e2:	fa20 f002 	lsr.w	r0, r0, r2
 80005e6:	fa01 fe03 	lsl.w	lr, r1, r3
 80005ea:	ea40 000e 	orr.w	r0, r0, lr
 80005ee:	fa21 f102 	lsr.w	r1, r1, r2
 80005f2:	4414      	add	r4, r2
 80005f4:	e6bd      	b.n	8000372 <__adddf3+0xe6>
 80005f6:	bf00      	nop

080005f8 <__aeabi_dmul>:
 80005f8:	b570      	push	{r4, r5, r6, lr}
 80005fa:	f04f 0cff 	mov.w	ip, #255	; 0xff
 80005fe:	f44c 6ce0 	orr.w	ip, ip, #1792	; 0x700
 8000602:	ea1c 5411 	ands.w	r4, ip, r1, lsr #20
 8000606:	bf1d      	ittte	ne
 8000608:	ea1c 5513 	andsne.w	r5, ip, r3, lsr #20
 800060c:	ea94 0f0c 	teqne	r4, ip
 8000610:	ea95 0f0c 	teqne	r5, ip
 8000614:	f000 f8de 	bleq	80007d4 <__aeabi_dmul+0x1dc>
 8000618:	442c      	add	r4, r5
 800061a:	ea81 0603 	eor.w	r6, r1, r3
 800061e:	ea21 514c 	bic.w	r1, r1, ip, lsl #21
 8000622:	ea23 534c 	bic.w	r3, r3, ip, lsl #21
 8000626:	ea50 3501 	orrs.w	r5, r0, r1, lsl #12
 800062a:	bf18      	it	ne
 800062c:	ea52 3503 	orrsne.w	r5, r2, r3, lsl #12
 8000630:	f441 1180 	orr.w	r1, r1, #1048576	; 0x100000
 8000634:	f443 1380 	orr.w	r3, r3, #1048576	; 0x100000
 8000638:	d038      	beq.n	80006ac <__aeabi_dmul+0xb4>
 800063a:	fba0 ce02 	umull	ip, lr, r0, r2
 800063e:	f04f 0500 	mov.w	r5, #0
 8000642:	fbe1 e502 	umlal	lr, r5, r1, r2
 8000646:	f006 4200 	and.w	r2, r6, #2147483648	; 0x80000000
 800064a:	fbe0 e503 	umlal	lr, r5, r0, r3
 800064e:	f04f 0600 	mov.w	r6, #0
 8000652:	fbe1 5603 	umlal	r5, r6, r1, r3
 8000656:	f09c 0f00 	teq	ip, #0
 800065a:	bf18      	it	ne
 800065c:	f04e 0e01 	orrne.w	lr, lr, #1
 8000660:	f1a4 04ff 	sub.w	r4, r4, #255	; 0xff
 8000664:	f5b6 7f00 	cmp.w	r6, #512	; 0x200
 8000668:	f564 7440 	sbc.w	r4, r4, #768	; 0x300
 800066c:	d204      	bcs.n	8000678 <__aeabi_dmul+0x80>
 800066e:	ea5f 0e4e 	movs.w	lr, lr, lsl #1
 8000672:	416d      	adcs	r5, r5
 8000674:	eb46 0606 	adc.w	r6, r6, r6
 8000678:	ea42 21c6 	orr.w	r1, r2, r6, lsl #11
 800067c:	ea41 5155 	orr.w	r1, r1, r5, lsr #21
 8000680:	ea4f 20c5 	mov.w	r0, r5, lsl #11
 8000684:	ea40 505e 	orr.w	r0, r0, lr, lsr #21
 8000688:	ea4f 2ece 	mov.w	lr, lr, lsl #11
 800068c:	f1b4 0cfd 	subs.w	ip, r4, #253	; 0xfd
 8000690:	bf88      	it	hi
 8000692:	f5bc 6fe0 	cmphi.w	ip, #1792	; 0x700
 8000696:	d81e      	bhi.n	80006d6 <__aeabi_dmul+0xde>
 8000698:	f1be 4f00 	cmp.w	lr, #2147483648	; 0x80000000
 800069c:	bf08      	it	eq
 800069e:	ea5f 0e50 	movseq.w	lr, r0, lsr #1
 80006a2:	f150 0000 	adcs.w	r0, r0, #0
 80006a6:	eb41 5104 	adc.w	r1, r1, r4, lsl #20
 80006aa:	bd70      	pop	{r4, r5, r6, pc}
 80006ac:	f006 4600 	and.w	r6, r6, #2147483648	; 0x80000000
 80006b0:	ea46 0101 	orr.w	r1, r6, r1
 80006b4:	ea40 0002 	orr.w	r0, r0, r2
 80006b8:	ea81 0103 	eor.w	r1, r1, r3
 80006bc:	ebb4 045c 	subs.w	r4, r4, ip, lsr #1
 80006c0:	bfc2      	ittt	gt
 80006c2:	ebd4 050c 	rsbsgt	r5, r4, ip
 80006c6:	ea41 5104 	orrgt.w	r1, r1, r4, lsl #20
 80006ca:	bd70      	popgt	{r4, r5, r6, pc}
 80006cc:	f441 1180 	orr.w	r1, r1, #1048576	; 0x100000
 80006d0:	f04f 0e00 	mov.w	lr, #0
 80006d4:	3c01      	subs	r4, #1
 80006d6:	f300 80ab 	bgt.w	8000830 <__aeabi_dmul+0x238>
 80006da:	f114 0f36 	cmn.w	r4, #54	; 0x36
 80006de:	bfde      	ittt	le
 80006e0:	2000      	movle	r0, #0
 80006e2:	f001 4100 	andle.w	r1, r1, #2147483648	; 0x80000000
 80006e6:	bd70      	pople	{r4, r5, r6, pc}
 80006e8:	f1c4 0400 	rsb	r4, r4, #0
 80006ec:	3c20      	subs	r4, #32
 80006ee:	da35      	bge.n	800075c <__aeabi_dmul+0x164>
 80006f0:	340c      	adds	r4, #12
 80006f2:	dc1b      	bgt.n	800072c <__aeabi_dmul+0x134>
 80006f4:	f104 0414 	add.w	r4, r4, #20
 80006f8:	f1c4 0520 	rsb	r5, r4, #32
 80006fc:	fa00 f305 	lsl.w	r3, r0, r5
 8000700:	fa20 f004 	lsr.w	r0, r0, r4
 8000704:	fa01 f205 	lsl.w	r2, r1, r5
 8000708:	ea40 0002 	orr.w	r0, r0, r2
 800070c:	f001 4200 	and.w	r2, r1, #2147483648	; 0x80000000
 8000710:	f021 4100 	bic.w	r1, r1, #2147483648	; 0x80000000
 8000714:	eb10 70d3 	adds.w	r0, r0, r3, lsr #31
 8000718:	fa21 f604 	lsr.w	r6, r1, r4
 800071c:	eb42 0106 	adc.w	r1, r2, r6
 8000720:	ea5e 0e43 	orrs.w	lr, lr, r3, lsl #1
 8000724:	bf08      	it	eq
 8000726:	ea20 70d3 	biceq.w	r0, r0, r3, lsr #31
 800072a:	bd70      	pop	{r4, r5, r6, pc}
 800072c:	f1c4 040c 	rsb	r4, r4, #12
 8000730:	f1c4 0520 	rsb	r5, r4, #32
 8000734:	fa00 f304 	lsl.w	r3, r0, r4
 8000738:	fa20 f005 	lsr.w	r0, r0, r5
 800073c:	fa01 f204 	lsl.w	r2, r1, r4
 8000740:	ea40 0002 	orr.w	r0, r0, r2
 8000744:	f001 4100 	and.w	r1, r1, #2147483648	; 0x80000000
 8000748:	eb10 70d3 	adds.w	r0, r0, r3, lsr #31
 800074c:	f141 0100 	adc.w	r1, r1, #0
 8000750:	ea5e 0e43 	orrs.w	lr, lr, r3, lsl #1
 8000754:	bf08      	it	eq
 8000756:	ea20 70d3 	biceq.w	r0, r0, r3, lsr #31
 800075a:	bd70      	pop	{r4, r5, r6, pc}
 800075c:	f1c4 0520 	rsb	r5, r4, #32
 8000760:	fa00 f205 	lsl.w	r2, r0, r5
 8000764:	ea4e 0e02 	orr.w	lr, lr, r2
 8000768:	fa20 f304 	lsr.w	r3, r0, r4
 800076c:	fa01 f205 	lsl.w	r2, r1, r5
 8000770:	ea43 0302 	orr.w	r3, r3, r2
 8000774:	fa21 f004 	lsr.w	r0, r1, r4
 8000778:	f001 4100 	and.w	r1, r1, #2147483648	; 0x80000000
 800077c:	fa21 f204 	lsr.w	r2, r1, r4
 8000780:	ea20 0002 	bic.w	r0, r0, r2
 8000784:	eb00 70d3 	add.w	r0, r0, r3, lsr #31
 8000788:	ea5e 0e43 	orrs.w	lr, lr, r3, lsl #1
 800078c:	bf08      	it	eq
 800078e:	ea20 70d3 	biceq.w	r0, r0, r3, lsr #31
 8000792:	bd70      	pop	{r4, r5, r6, pc}
 8000794:	f094 0f00 	teq	r4, #0
 8000798:	d10f      	bne.n	80007ba <__aeabi_dmul+0x1c2>
 800079a:	f001 4600 	and.w	r6, r1, #2147483648	; 0x80000000
 800079e:	0040      	lsls	r0, r0, #1
 80007a0:	eb41 0101 	adc.w	r1, r1, r1
 80007a4:	f411 1f80 	tst.w	r1, #1048576	; 0x100000
 80007a8:	bf08      	it	eq
 80007aa:	3c01      	subeq	r4, #1
 80007ac:	d0f7      	beq.n	800079e <__aeabi_dmul+0x1a6>
 80007ae:	ea41 0106 	orr.w	r1, r1, r6
 80007b2:	f095 0f00 	teq	r5, #0
 80007b6:	bf18      	it	ne
 80007b8:	4770      	bxne	lr
 80007ba:	f003 4600 	and.w	r6, r3, #2147483648	; 0x80000000
 80007be:	0052      	lsls	r2, r2, #1
 80007c0:	eb43 0303 	adc.w	r3, r3, r3
 80007c4:	f413 1f80 	tst.w	r3, #1048576	; 0x100000
 80007c8:	bf08      	it	eq
 80007ca:	3d01      	subeq	r5, #1
 80007cc:	d0f7      	beq.n	80007be <__aeabi_dmul+0x1c6>
 80007ce:	ea43 0306 	orr.w	r3, r3, r6
 80007d2:	4770      	bx	lr
 80007d4:	ea94 0f0c 	teq	r4, ip
 80007d8:	ea0c 5513 	and.w	r5, ip, r3, lsr #20
 80007dc:	bf18      	it	ne
 80007de:	ea95 0f0c 	teqne	r5, ip
 80007e2:	d00c      	beq.n	80007fe <__aeabi_dmul+0x206>
 80007e4:	ea50 0641 	orrs.w	r6, r0, r1, lsl #1
 80007e8:	bf18      	it	ne
 80007ea:	ea52 0643 	orrsne.w	r6, r2, r3, lsl #1
 80007ee:	d1d1      	bne.n	8000794 <__aeabi_dmul+0x19c>
 80007f0:	ea81 0103 	eor.w	r1, r1, r3
 80007f4:	f001 4100 	and.w	r1, r1, #2147483648	; 0x80000000
 80007f8:	f04f 0000 	mov.w	r0, #0
 80007fc:	bd70      	pop	{r4, r5, r6, pc}
 80007fe:	ea50 0641 	orrs.w	r6, r0, r1, lsl #1
 8000802:	bf06      	itte	eq
 8000804:	4610      	moveq	r0, r2
 8000806:	4619      	moveq	r1, r3
 8000808:	ea52 0643 	orrsne.w	r6, r2, r3, lsl #1
 800080c:	d019      	beq.n	8000842 <__aeabi_dmul+0x24a>
 800080e:	ea94 0f0c 	teq	r4, ip
 8000812:	d102      	bne.n	800081a <__aeabi_dmul+0x222>
 8000814:	ea50 3601 	orrs.w	r6, r0, r1, lsl #12
 8000818:	d113      	bne.n	8000842 <__aeabi_dmul+0x24a>
 800081a:	ea95 0f0c 	teq	r5, ip
 800081e:	d105      	bne.n	800082c <__aeabi_dmul+0x234>
 8000820:	ea52 3603 	orrs.w	r6, r2, r3, lsl #12
 8000824:	bf1c      	itt	ne
 8000826:	4610      	movne	r0, r2
 8000828:	4619      	movne	r1, r3
 800082a:	d10a      	bne.n	8000842 <__aeabi_dmul+0x24a>
 800082c:	ea81 0103 	eor.w	r1, r1, r3
 8000830:	f001 4100 	and.w	r1, r1, #2147483648	; 0x80000000
 8000834:	f041 41fe 	orr.w	r1, r1, #2130706432	; 0x7f000000
 8000838:	f441 0170 	orr.w	r1, r1, #15728640	; 0xf00000
 800083c:	f04f 0000 	mov.w	r0, #0
 8000840:	bd70      	pop	{r4, r5, r6, pc}
 8000842:	f041 41fe 	orr.w	r1, r1, #2130706432	; 0x7f000000
 8000846:	f441 0178 	orr.w	r1, r1, #16252928	; 0xf80000
 800084a:	bd70      	pop	{r4, r5, r6, pc}

0800084c <__aeabi_ddiv>:
 800084c:	b570      	push	{r4, r5, r6, lr}
 800084e:	f04f 0cff 	mov.w	ip, #255	; 0xff
 8000852:	f44c 6ce0 	orr.w	ip, ip, #1792	; 0x700
 8000856:	ea1c 5411 	ands.w	r4, ip, r1, lsr #20
 800085a:	bf1d      	ittte	ne
 800085c:	ea1c 5513 	andsne.w	r5, ip, r3, lsr #20
 8000860:	ea94 0f0c 	teqne	r4, ip
 8000864:	ea95 0f0c 	teqne	r5, ip
 8000868:	f000 f8a7 	bleq	80009ba <__aeabi_ddiv+0x16e>
 800086c:	eba4 0405 	sub.w	r4, r4, r5
 8000870:	ea81 0e03 	eor.w	lr, r1, r3
 8000874:	ea52 3503 	orrs.w	r5, r2, r3, lsl #12
 8000878:	ea4f 3101 	mov.w	r1, r1, lsl #12
 800087c:	f000 8088 	beq.w	8000990 <__aeabi_ddiv+0x144>
 8000880:	ea4f 3303 	mov.w	r3, r3, lsl #12
 8000884:	f04f 5580 	mov.w	r5, #268435456	; 0x10000000
 8000888:	ea45 1313 	orr.w	r3, r5, r3, lsr #4
 800088c:	ea43 6312 	orr.w	r3, r3, r2, lsr #24
 8000890:	ea4f 2202 	mov.w	r2, r2, lsl #8
 8000894:	ea45 1511 	orr.w	r5, r5, r1, lsr #4
 8000898:	ea45 6510 	orr.w	r5, r5, r0, lsr #24
 800089c:	ea4f 2600 	mov.w	r6, r0, lsl #8
 80008a0:	f00e 4100 	and.w	r1, lr, #2147483648	; 0x80000000
 80008a4:	429d      	cmp	r5, r3
 80008a6:	bf08      	it	eq
 80008a8:	4296      	cmpeq	r6, r2
 80008aa:	f144 04fd 	adc.w	r4, r4, #253	; 0xfd
 80008ae:	f504 7440 	add.w	r4, r4, #768	; 0x300
 80008b2:	d202      	bcs.n	80008ba <__aeabi_ddiv+0x6e>
 80008b4:	085b      	lsrs	r3, r3, #1
 80008b6:	ea4f 0232 	mov.w	r2, r2, rrx
 80008ba:	1ab6      	subs	r6, r6, r2
 80008bc:	eb65 0503 	sbc.w	r5, r5, r3
 80008c0:	085b      	lsrs	r3, r3, #1
 80008c2:	ea4f 0232 	mov.w	r2, r2, rrx
 80008c6:	f44f 1080 	mov.w	r0, #1048576	; 0x100000
 80008ca:	f44f 2c00 	mov.w	ip, #524288	; 0x80000
 80008ce:	ebb6 0e02 	subs.w	lr, r6, r2
 80008d2:	eb75 0e03 	sbcs.w	lr, r5, r3
 80008d6:	bf22      	ittt	cs
 80008d8:	1ab6      	subcs	r6, r6, r2
 80008da:	4675      	movcs	r5, lr
 80008dc:	ea40 000c 	orrcs.w	r0, r0, ip
 80008e0:	085b      	lsrs	r3, r3, #1
 80008e2:	ea4f 0232 	mov.w	r2, r2, rrx
 80008e6:	ebb6 0e02 	subs.w	lr, r6, r2
 80008ea:	eb75 0e03 	sbcs.w	lr, r5, r3
 80008ee:	bf22      	ittt	cs
 80008f0:	1ab6      	subcs	r6, r6, r2
 80008f2:	4675      	movcs	r5, lr
 80008f4:	ea40 005c 	orrcs.w	r0, r0, ip, lsr #1
 80008f8:	085b      	lsrs	r3, r3, #1
 80008fa:	ea4f 0232 	mov.w	r2, r2, rrx
 80008fe:	ebb6 0e02 	subs.w	lr, r6, r2
 8000902:	eb75 0e03 	sbcs.w	lr, r5, r3
 8000906:	bf22      	ittt	cs
 8000908:	1ab6      	subcs	r6, r6, r2
 800090a:	4675      	movcs	r5, lr
 800090c:	ea40 009c 	orrcs.w	r0, r0, ip, lsr #2
 8000910:	085b      	lsrs	r3, r3, #1
 8000912:	ea4f 0232 	mov.w	r2, r2, rrx
 8000916:	ebb6 0e02 	subs.w	lr, r6, r2
 800091a:	eb75 0e03 	sbcs.w	lr, r5, r3
 800091e:	bf22      	ittt	cs
 8000920:	1ab6      	subcs	r6, r6, r2
 8000922:	4675      	movcs	r5, lr
 8000924:	ea40 00dc 	orrcs.w	r0, r0, ip, lsr #3
 8000928:	ea55 0e06 	orrs.w	lr, r5, r6
 800092c:	d018      	beq.n	8000960 <__aeabi_ddiv+0x114>
 800092e:	ea4f 1505 	mov.w	r5, r5, lsl #4
 8000932:	ea45 7516 	orr.w	r5, r5, r6, lsr #28
 8000936:	ea4f 1606 	mov.w	r6, r6, lsl #4
 800093a:	ea4f 03c3 	mov.w	r3, r3, lsl #3
 800093e:	ea43 7352 	orr.w	r3, r3, r2, lsr #29
 8000942:	ea4f 02c2 	mov.w	r2, r2, lsl #3
 8000946:	ea5f 1c1c 	movs.w	ip, ip, lsr #4
 800094a:	d1c0      	bne.n	80008ce <__aeabi_ddiv+0x82>
 800094c:	f411 1f80 	tst.w	r1, #1048576	; 0x100000
 8000950:	d10b      	bne.n	800096a <__aeabi_ddiv+0x11e>
 8000952:	ea41 0100 	orr.w	r1, r1, r0
 8000956:	f04f 0000 	mov.w	r0, #0
 800095a:	f04f 4c00 	mov.w	ip, #2147483648	; 0x80000000
 800095e:	e7b6      	b.n	80008ce <__aeabi_ddiv+0x82>
 8000960:	f411 1f80 	tst.w	r1, #1048576	; 0x100000
 8000964:	bf04      	itt	eq
 8000966:	4301      	orreq	r1, r0
 8000968:	2000      	moveq	r0, #0
 800096a:	f1b4 0cfd 	subs.w	ip, r4, #253	; 0xfd
 800096e:	bf88      	it	hi
 8000970:	f5bc 6fe0 	cmphi.w	ip, #1792	; 0x700
 8000974:	f63f aeaf 	bhi.w	80006d6 <__aeabi_dmul+0xde>
 8000978:	ebb5 0c03 	subs.w	ip, r5, r3
 800097c:	bf04      	itt	eq
 800097e:	ebb6 0c02 	subseq.w	ip, r6, r2
 8000982:	ea5f 0c50 	movseq.w	ip, r0, lsr #1
 8000986:	f150 0000 	adcs.w	r0, r0, #0
 800098a:	eb41 5104 	adc.w	r1, r1, r4, lsl #20
 800098e:	bd70      	pop	{r4, r5, r6, pc}
 8000990:	f00e 4e00 	and.w	lr, lr, #2147483648	; 0x80000000
 8000994:	ea4e 3111 	orr.w	r1, lr, r1, lsr #12
 8000998:	eb14 045c 	adds.w	r4, r4, ip, lsr #1
 800099c:	bfc2      	ittt	gt
 800099e:	ebd4 050c 	rsbsgt	r5, r4, ip
 80009a2:	ea41 5104 	orrgt.w	r1, r1, r4, lsl #20
 80009a6:	bd70      	popgt	{r4, r5, r6, pc}
 80009a8:	f441 1180 	orr.w	r1, r1, #1048576	; 0x100000
 80009ac:	f04f 0e00 	mov.w	lr, #0
 80009b0:	3c01      	subs	r4, #1
 80009b2:	e690      	b.n	80006d6 <__aeabi_dmul+0xde>
 80009b4:	ea45 0e06 	orr.w	lr, r5, r6
 80009b8:	e68d      	b.n	80006d6 <__aeabi_dmul+0xde>
 80009ba:	ea0c 5513 	and.w	r5, ip, r3, lsr #20
 80009be:	ea94 0f0c 	teq	r4, ip
 80009c2:	bf08      	it	eq
 80009c4:	ea95 0f0c 	teqeq	r5, ip
 80009c8:	f43f af3b 	beq.w	8000842 <__aeabi_dmul+0x24a>
 80009cc:	ea94 0f0c 	teq	r4, ip
 80009d0:	d10a      	bne.n	80009e8 <__aeabi_ddiv+0x19c>
 80009d2:	ea50 3401 	orrs.w	r4, r0, r1, lsl #12
 80009d6:	f47f af34 	bne.w	8000842 <__aeabi_dmul+0x24a>
 80009da:	ea95 0f0c 	teq	r5, ip
 80009de:	f47f af25 	bne.w	800082c <__aeabi_dmul+0x234>
 80009e2:	4610      	mov	r0, r2
 80009e4:	4619      	mov	r1, r3
 80009e6:	e72c      	b.n	8000842 <__aeabi_dmul+0x24a>
 80009e8:	ea95 0f0c 	teq	r5, ip
 80009ec:	d106      	bne.n	80009fc <__aeabi_ddiv+0x1b0>
 80009ee:	ea52 3503 	orrs.w	r5, r2, r3, lsl #12
 80009f2:	f43f aefd 	beq.w	80007f0 <__aeabi_dmul+0x1f8>
 80009f6:	4610      	mov	r0, r2
 80009f8:	4619      	mov	r1, r3
 80009fa:	e722      	b.n	8000842 <__aeabi_dmul+0x24a>
 80009fc:	ea50 0641 	orrs.w	r6, r0, r1, lsl #1
 8000a00:	bf18      	it	ne
 8000a02:	ea52 0643 	orrsne.w	r6, r2, r3, lsl #1
 8000a06:	f47f aec5 	bne.w	8000794 <__aeabi_dmul+0x19c>
 8000a0a:	ea50 0441 	orrs.w	r4, r0, r1, lsl #1
 8000a0e:	f47f af0d 	bne.w	800082c <__aeabi_dmul+0x234>
 8000a12:	ea52 0543 	orrs.w	r5, r2, r3, lsl #1
 8000a16:	f47f aeeb 	bne.w	80007f0 <__aeabi_dmul+0x1f8>
 8000a1a:	e712      	b.n	8000842 <__aeabi_dmul+0x24a>

08000a1c <__gedf2>:
 8000a1c:	f04f 3cff 	mov.w	ip, #4294967295
 8000a20:	e006      	b.n	8000a30 <__cmpdf2+0x4>
 8000a22:	bf00      	nop

08000a24 <__ledf2>:
 8000a24:	f04f 0c01 	mov.w	ip, #1
 8000a28:	e002      	b.n	8000a30 <__cmpdf2+0x4>
 8000a2a:	bf00      	nop

08000a2c <__cmpdf2>:
 8000a2c:	f04f 0c01 	mov.w	ip, #1
 8000a30:	f84d cd04 	str.w	ip, [sp, #-4]!
 8000a34:	ea4f 0c41 	mov.w	ip, r1, lsl #1
 8000a38:	ea7f 5c6c 	mvns.w	ip, ip, asr #21
 8000a3c:	ea4f 0c43 	mov.w	ip, r3, lsl #1
 8000a40:	bf18      	it	ne
 8000a42:	ea7f 5c6c 	mvnsne.w	ip, ip, asr #21
 8000a46:	d01b      	beq.n	8000a80 <__cmpdf2+0x54>
 8000a48:	b001      	add	sp, #4
 8000a4a:	ea50 0c41 	orrs.w	ip, r0, r1, lsl #1
 8000a4e:	bf0c      	ite	eq
 8000a50:	ea52 0c43 	orrseq.w	ip, r2, r3, lsl #1
 8000a54:	ea91 0f03 	teqne	r1, r3
 8000a58:	bf02      	ittt	eq
 8000a5a:	ea90 0f02 	teqeq	r0, r2
 8000a5e:	2000      	moveq	r0, #0
 8000a60:	4770      	bxeq	lr
 8000a62:	f110 0f00 	cmn.w	r0, #0
 8000a66:	ea91 0f03 	teq	r1, r3
 8000a6a:	bf58      	it	pl
 8000a6c:	4299      	cmppl	r1, r3
 8000a6e:	bf08      	it	eq
 8000a70:	4290      	cmpeq	r0, r2
 8000a72:	bf2c      	ite	cs
 8000a74:	17d8      	asrcs	r0, r3, #31
 8000a76:	ea6f 70e3 	mvncc.w	r0, r3, asr #31
 8000a7a:	f040 0001 	orr.w	r0, r0, #1
 8000a7e:	4770      	bx	lr
 8000a80:	ea4f 0c41 	mov.w	ip, r1, lsl #1
 8000a84:	ea7f 5c6c 	mvns.w	ip, ip, asr #21
 8000a88:	d102      	bne.n	8000a90 <__cmpdf2+0x64>
 8000a8a:	ea50 3c01 	orrs.w	ip, r0, r1, lsl #12
 8000a8e:	d107      	bne.n	8000aa0 <__cmpdf2+0x74>
 8000a90:	ea4f 0c43 	mov.w	ip, r3, lsl #1
 8000a94:	ea7f 5c6c 	mvns.w	ip, ip, asr #21
 8000a98:	d1d6      	bne.n	8000a48 <__cmpdf2+0x1c>
 8000a9a:	ea52 3c03 	orrs.w	ip, r2, r3, lsl #12
 8000a9e:	d0d3      	beq.n	8000a48 <__cmpdf2+0x1c>
 8000aa0:	f85d 0b04 	ldr.w	r0, [sp], #4
 8000aa4:	4770      	bx	lr
 8000aa6:	bf00      	nop

08000aa8 <__aeabi_cdrcmple>:
 8000aa8:	4684      	mov	ip, r0
 8000aaa:	4610      	mov	r0, r2
 8000aac:	4662      	mov	r2, ip
 8000aae:	468c      	mov	ip, r1
 8000ab0:	4619      	mov	r1, r3
 8000ab2:	4663      	mov	r3, ip
 8000ab4:	e000      	b.n	8000ab8 <__aeabi_cdcmpeq>
 8000ab6:	bf00      	nop

08000ab8 <__aeabi_cdcmpeq>:
 8000ab8:	b501      	push	{r0, lr}
 8000aba:	f7ff ffb7 	bl	8000a2c <__cmpdf2>
 8000abe:	2800      	cmp	r0, #0
 8000ac0:	bf48      	it	mi
 8000ac2:	f110 0f00 	cmnmi.w	r0, #0
 8000ac6:	bd01      	pop	{r0, pc}

08000ac8 <__aeabi_dcmpeq>:
 8000ac8:	f84d ed08 	str.w	lr, [sp, #-8]!
 8000acc:	f7ff fff4 	bl	8000ab8 <__aeabi_cdcmpeq>
 8000ad0:	bf0c      	ite	eq
 8000ad2:	2001      	moveq	r0, #1
 8000ad4:	2000      	movne	r0, #0
 8000ad6:	f85d fb08 	ldr.w	pc, [sp], #8
 8000ada:	bf00      	nop

08000adc <__aeabi_dcmplt>:
 8000adc:	f84d ed08 	str.w	lr, [sp, #-8]!
 8000ae0:	f7ff ffea 	bl	8000ab8 <__aeabi_cdcmpeq>
 8000ae4:	bf34      	ite	cc
 8000ae6:	2001      	movcc	r0, #1
 8000ae8:	2000      	movcs	r0, #0
 8000aea:	f85d fb08 	ldr.w	pc, [sp], #8
 8000aee:	bf00      	nop

08000af0 <__aeabi_dcmple>:
 8000af0:	f84d ed08 	str.w	lr, [sp, #-8]!
 8000af4:	f7ff ffe0 	bl	8000ab8 <__aeabi_cdcmpeq>
 8000af8:	bf94      	ite	ls
 8000afa:	2001      	movls	r0, #1
 8000afc:	2000      	movhi	r0, #0
 8000afe:	f85d fb08 	ldr.w	pc, [sp], #8
 8000b02:	bf00      	nop

08000b04 <__aeabi_dcmpge>:
 8000b04:	f84d ed08 	str.w	lr, [sp, #-8]!
 8000b08:	f7ff ffce 	bl	8000aa8 <__aeabi_cdrcmple>
 8000b0c:	bf94      	ite	ls
 8000b0e:	2001      	movls	r0, #1
 8000b10:	2000      	movhi	r0, #0
 8000b12:	f85d fb08 	ldr.w	pc, [sp], #8
 8000b16:	bf00      	nop

08000b18 <__aeabi_dcmpgt>:
 8000b18:	f84d ed08 	str.w	lr, [sp, #-8]!
 8000b1c:	f7ff ffc4 	bl	8000aa8 <__aeabi_cdrcmple>
 8000b20:	bf34      	ite	cc
 8000b22:	2001      	movcc	r0, #1
 8000b24:	2000      	movcs	r0, #0
 8000b26:	f85d fb08 	ldr.w	pc, [sp], #8
 8000b2a:	bf00      	nop

08000b2c <__aeabi_dcmpun>:
 8000b2c:	ea4f 0c41 	mov.w	ip, r1, lsl #1
 8000b30:	ea7f 5c6c 	mvns.w	ip, ip, asr #21
 8000b34:	d102      	bne.n	8000b3c <__aeabi_dcmpun+0x10>
 8000b36:	ea50 3c01 	orrs.w	ip, r0, r1, lsl #12
 8000b3a:	d10a      	bne.n	8000b52 <__aeabi_dcmpun+0x26>
 8000b3c:	ea4f 0c43 	mov.w	ip, r3, lsl #1
 8000b40:	ea7f 5c6c 	mvns.w	ip, ip, asr #21
 8000b44:	d102      	bne.n	8000b4c <__aeabi_dcmpun+0x20>
 8000b46:	ea52 3c03 	orrs.w	ip, r2, r3, lsl #12
 8000b4a:	d102      	bne.n	8000b52 <__aeabi_dcmpun+0x26>
 8000b4c:	f04f 0000 	mov.w	r0, #0
 8000b50:	4770      	bx	lr
 8000b52:	f04f 0001 	mov.w	r0, #1
 8000b56:	4770      	bx	lr

08000b58 <__aeabi_d2iz>:
 8000b58:	ea4f 0241 	mov.w	r2, r1, lsl #1
 8000b5c:	f512 1200 	adds.w	r2, r2, #2097152	; 0x200000
 8000b60:	d215      	bcs.n	8000b8e <__aeabi_d2iz+0x36>
 8000b62:	d511      	bpl.n	8000b88 <__aeabi_d2iz+0x30>
 8000b64:	f46f 7378 	mvn.w	r3, #992	; 0x3e0
 8000b68:	ebb3 5262 	subs.w	r2, r3, r2, asr #21
 8000b6c:	d912      	bls.n	8000b94 <__aeabi_d2iz+0x3c>
 8000b6e:	ea4f 23c1 	mov.w	r3, r1, lsl #11
 8000b72:	f043 4300 	orr.w	r3, r3, #2147483648	; 0x80000000
 8000b76:	ea43 5350 	orr.w	r3, r3, r0, lsr #21
 8000b7a:	f011 4f00 	tst.w	r1, #2147483648	; 0x80000000
 8000b7e:	fa23 f002 	lsr.w	r0, r3, r2
 8000b82:	bf18      	it	ne
 8000b84:	4240      	negne	r0, r0
 8000b86:	4770      	bx	lr
 8000b88:	f04f 0000 	mov.w	r0, #0
 8000b8c:	4770      	bx	lr
 8000b8e:	ea50 3001 	orrs.w	r0, r0, r1, lsl #12
 8000b92:	d105      	bne.n	8000ba0 <__aeabi_d2iz+0x48>
 8000b94:	f011 4000 	ands.w	r0, r1, #2147483648	; 0x80000000
 8000b98:	bf08      	it	eq
 8000b9a:	f06f 4000 	mvneq.w	r0, #2147483648	; 0x80000000
 8000b9e:	4770      	bx	lr
 8000ba0:	f04f 0000 	mov.w	r0, #0
 8000ba4:	4770      	bx	lr
 8000ba6:	bf00      	nop

08000ba8 <__aeabi_d2uiz>:
 8000ba8:	004a      	lsls	r2, r1, #1
 8000baa:	d211      	bcs.n	8000bd0 <__aeabi_d2uiz+0x28>
 8000bac:	f512 1200 	adds.w	r2, r2, #2097152	; 0x200000
 8000bb0:	d211      	bcs.n	8000bd6 <__aeabi_d2uiz+0x2e>
 8000bb2:	d50d      	bpl.n	8000bd0 <__aeabi_d2uiz+0x28>
 8000bb4:	f46f 7378 	mvn.w	r3, #992	; 0x3e0
 8000bb8:	ebb3 5262 	subs.w	r2, r3, r2, asr #21
 8000bbc:	d40e      	bmi.n	8000bdc <__aeabi_d2uiz+0x34>
 8000bbe:	ea4f 23c1 	mov.w	r3, r1, lsl #11
 8000bc2:	f043 4300 	orr.w	r3, r3, #2147483648	; 0x80000000
 8000bc6:	ea43 5350 	orr.w	r3, r3, r0, lsr #21
 8000bca:	fa23 f002 	lsr.w	r0, r3, r2
 8000bce:	4770      	bx	lr
 8000bd0:	f04f 0000 	mov.w	r0, #0
 8000bd4:	4770      	bx	lr
 8000bd6:	ea50 3001 	orrs.w	r0, r0, r1, lsl #12
 8000bda:	d102      	bne.n	8000be2 <__aeabi_d2uiz+0x3a>
 8000bdc:	f04f 30ff 	mov.w	r0, #4294967295
 8000be0:	4770      	bx	lr
 8000be2:	f04f 0000 	mov.w	r0, #0
 8000be6:	4770      	bx	lr

08000be8 <__aeabi_d2f>:
 8000be8:	ea4f 0241 	mov.w	r2, r1, lsl #1
 8000bec:	f1b2 43e0 	subs.w	r3, r2, #1879048192	; 0x70000000
 8000bf0:	bf24      	itt	cs
 8000bf2:	f5b3 1c00 	subscs.w	ip, r3, #2097152	; 0x200000
 8000bf6:	f1dc 5cfe 	rsbscs	ip, ip, #532676608	; 0x1fc00000
 8000bfa:	d90d      	bls.n	8000c18 <__aeabi_d2f+0x30>
 8000bfc:	f001 4c00 	and.w	ip, r1, #2147483648	; 0x80000000
 8000c00:	ea4f 02c0 	mov.w	r2, r0, lsl #3
 8000c04:	ea4c 7050 	orr.w	r0, ip, r0, lsr #29
 8000c08:	f1b2 4f00 	cmp.w	r2, #2147483648	; 0x80000000
 8000c0c:	eb40 0083 	adc.w	r0, r0, r3, lsl #2
 8000c10:	bf08      	it	eq
 8000c12:	f020 0001 	biceq.w	r0, r0, #1
 8000c16:	4770      	bx	lr
 8000c18:	f011 4f80 	tst.w	r1, #1073741824	; 0x40000000
 8000c1c:	d121      	bne.n	8000c62 <__aeabi_d2f+0x7a>
 8000c1e:	f113 7238 	adds.w	r2, r3, #48234496	; 0x2e00000
 8000c22:	bfbc      	itt	lt
 8000c24:	f001 4000 	andlt.w	r0, r1, #2147483648	; 0x80000000
 8000c28:	4770      	bxlt	lr
 8000c2a:	f441 1180 	orr.w	r1, r1, #1048576	; 0x100000
 8000c2e:	ea4f 5252 	mov.w	r2, r2, lsr #21
 8000c32:	f1c2 0218 	rsb	r2, r2, #24
 8000c36:	f1c2 0c20 	rsb	ip, r2, #32
 8000c3a:	fa10 f30c 	lsls.w	r3, r0, ip
 8000c3e:	fa20 f002 	lsr.w	r0, r0, r2
 8000c42:	bf18      	it	ne
 8000c44:	f040 0001 	orrne.w	r0, r0, #1
 8000c48:	ea4f 23c1 	mov.w	r3, r1, lsl #11
 8000c4c:	ea4f 23d3 	mov.w	r3, r3, lsr #11
 8000c50:	fa03 fc0c 	lsl.w	ip, r3, ip
 8000c54:	ea40 000c 	orr.w	r0, r0, ip
 8000c58:	fa23 f302 	lsr.w	r3, r3, r2
 8000c5c:	ea4f 0343 	mov.w	r3, r3, lsl #1
 8000c60:	e7cc      	b.n	8000bfc <__aeabi_d2f+0x14>
 8000c62:	ea7f 5362 	mvns.w	r3, r2, asr #21
 8000c66:	d107      	bne.n	8000c78 <__aeabi_d2f+0x90>
 8000c68:	ea50 3301 	orrs.w	r3, r0, r1, lsl #12
 8000c6c:	bf1e      	ittt	ne
 8000c6e:	f04f 40fe 	movne.w	r0, #2130706432	; 0x7f000000
 8000c72:	f440 0040 	orrne.w	r0, r0, #12582912	; 0xc00000
 8000c76:	4770      	bxne	lr
 8000c78:	f001 4000 	and.w	r0, r1, #2147483648	; 0x80000000
 8000c7c:	f040 40fe 	orr.w	r0, r0, #2130706432	; 0x7f000000
 8000c80:	f440 0000 	orr.w	r0, r0, #8388608	; 0x800000
 8000c84:	4770      	bx	lr
 8000c86:	bf00      	nop

08000c88 <__aeabi_uldivmod>:
 8000c88:	b953      	cbnz	r3, 8000ca0 <__aeabi_uldivmod+0x18>
 8000c8a:	b94a      	cbnz	r2, 8000ca0 <__aeabi_uldivmod+0x18>
 8000c8c:	2900      	cmp	r1, #0
 8000c8e:	bf08      	it	eq
 8000c90:	2800      	cmpeq	r0, #0
 8000c92:	bf1c      	itt	ne
 8000c94:	f04f 31ff 	movne.w	r1, #4294967295
 8000c98:	f04f 30ff 	movne.w	r0, #4294967295
 8000c9c:	f000 b9aa 	b.w	8000ff4 <__aeabi_idiv0>
 8000ca0:	f1ad 0c08 	sub.w	ip, sp, #8
 8000ca4:	e96d ce04 	strd	ip, lr, [sp, #-16]!
 8000ca8:	f000 f83c 	bl	8000d24 <__udivmoddi4>
 8000cac:	f8dd e004 	ldr.w	lr, [sp, #4]
 8000cb0:	e9dd 2302 	ldrd	r2, r3, [sp, #8]
 8000cb4:	b004      	add	sp, #16
 8000cb6:	4770      	bx	lr

08000cb8 <__aeabi_d2lz>:
 8000cb8:	b538      	push	{r3, r4, r5, lr}
 8000cba:	2200      	movs	r2, #0
 8000cbc:	2300      	movs	r3, #0
 8000cbe:	4604      	mov	r4, r0
 8000cc0:	460d      	mov	r5, r1
 8000cc2:	f7ff ff0b 	bl	8000adc <__aeabi_dcmplt>
 8000cc6:	b928      	cbnz	r0, 8000cd4 <__aeabi_d2lz+0x1c>
 8000cc8:	4620      	mov	r0, r4
 8000cca:	4629      	mov	r1, r5
 8000ccc:	e8bd 4038 	ldmia.w	sp!, {r3, r4, r5, lr}
 8000cd0:	f000 b80a 	b.w	8000ce8 <__aeabi_d2ulz>
 8000cd4:	4620      	mov	r0, r4
 8000cd6:	f105 4100 	add.w	r1, r5, #2147483648	; 0x80000000
 8000cda:	f000 f805 	bl	8000ce8 <__aeabi_d2ulz>
 8000cde:	4240      	negs	r0, r0
 8000ce0:	eb61 0141 	sbc.w	r1, r1, r1, lsl #1
 8000ce4:	bd38      	pop	{r3, r4, r5, pc}
 8000ce6:	bf00      	nop

08000ce8 <__aeabi_d2ulz>:
 8000ce8:	b5d0      	push	{r4, r6, r7, lr}
 8000cea:	4b0c      	ldr	r3, [pc, #48]	; (8000d1c <__aeabi_d2ulz+0x34>)
 8000cec:	2200      	movs	r2, #0
 8000cee:	4606      	mov	r6, r0
 8000cf0:	460f      	mov	r7, r1
 8000cf2:	f7ff fc81 	bl	80005f8 <__aeabi_dmul>
 8000cf6:	f7ff ff57 	bl	8000ba8 <__aeabi_d2uiz>
 8000cfa:	4604      	mov	r4, r0
 8000cfc:	f7ff fc02 	bl	8000504 <__aeabi_ui2d>
 8000d00:	4b07      	ldr	r3, [pc, #28]	; (8000d20 <__aeabi_d2ulz+0x38>)
 8000d02:	2200      	movs	r2, #0
 8000d04:	f7ff fc78 	bl	80005f8 <__aeabi_dmul>
 8000d08:	4602      	mov	r2, r0
 8000d0a:	460b      	mov	r3, r1
 8000d0c:	4630      	mov	r0, r6
 8000d0e:	4639      	mov	r1, r7
 8000d10:	f7ff faba 	bl	8000288 <__aeabi_dsub>
 8000d14:	f7ff ff48 	bl	8000ba8 <__aeabi_d2uiz>
 8000d18:	4621      	mov	r1, r4
 8000d1a:	bdd0      	pop	{r4, r6, r7, pc}
 8000d1c:	3df00000 	.word	0x3df00000
 8000d20:	41f00000 	.word	0x41f00000

08000d24 <__udivmoddi4>:
 8000d24:	e92d 47f0 	stmdb	sp!, {r4, r5, r6, r7, r8, r9, sl, lr}
 8000d28:	9d08      	ldr	r5, [sp, #32]
 8000d2a:	4604      	mov	r4, r0
 8000d2c:	468e      	mov	lr, r1
 8000d2e:	2b00      	cmp	r3, #0
 8000d30:	d14d      	bne.n	8000dce <__udivmoddi4+0xaa>
 8000d32:	428a      	cmp	r2, r1
 8000d34:	4694      	mov	ip, r2
 8000d36:	d969      	bls.n	8000e0c <__udivmoddi4+0xe8>
 8000d38:	fab2 f282 	clz	r2, r2
 8000d3c:	b152      	cbz	r2, 8000d54 <__udivmoddi4+0x30>
 8000d3e:	fa01 f302 	lsl.w	r3, r1, r2
 8000d42:	f1c2 0120 	rsb	r1, r2, #32
 8000d46:	fa20 f101 	lsr.w	r1, r0, r1
 8000d4a:	fa0c fc02 	lsl.w	ip, ip, r2
 8000d4e:	ea41 0e03 	orr.w	lr, r1, r3
 8000d52:	4094      	lsls	r4, r2
 8000d54:	ea4f 481c 	mov.w	r8, ip, lsr #16
 8000d58:	0c21      	lsrs	r1, r4, #16
 8000d5a:	fbbe f6f8 	udiv	r6, lr, r8
 8000d5e:	fa1f f78c 	uxth.w	r7, ip
 8000d62:	fb08 e316 	mls	r3, r8, r6, lr
 8000d66:	ea41 4303 	orr.w	r3, r1, r3, lsl #16
 8000d6a:	fb06 f107 	mul.w	r1, r6, r7
 8000d6e:	4299      	cmp	r1, r3
 8000d70:	d90a      	bls.n	8000d88 <__udivmoddi4+0x64>
 8000d72:	eb1c 0303 	adds.w	r3, ip, r3
 8000d76:	f106 30ff 	add.w	r0, r6, #4294967295
 8000d7a:	f080 811f 	bcs.w	8000fbc <__udivmoddi4+0x298>
 8000d7e:	4299      	cmp	r1, r3
 8000d80:	f240 811c 	bls.w	8000fbc <__udivmoddi4+0x298>
 8000d84:	3e02      	subs	r6, #2
 8000d86:	4463      	add	r3, ip
 8000d88:	1a5b      	subs	r3, r3, r1
 8000d8a:	b2a4      	uxth	r4, r4
 8000d8c:	fbb3 f0f8 	udiv	r0, r3, r8
 8000d90:	fb08 3310 	mls	r3, r8, r0, r3
 8000d94:	ea44 4403 	orr.w	r4, r4, r3, lsl #16
 8000d98:	fb00 f707 	mul.w	r7, r0, r7
 8000d9c:	42a7      	cmp	r7, r4
 8000d9e:	d90a      	bls.n	8000db6 <__udivmoddi4+0x92>
 8000da0:	eb1c 0404 	adds.w	r4, ip, r4
 8000da4:	f100 33ff 	add.w	r3, r0, #4294967295
 8000da8:	f080 810a 	bcs.w	8000fc0 <__udivmoddi4+0x29c>
 8000dac:	42a7      	cmp	r7, r4
 8000dae:	f240 8107 	bls.w	8000fc0 <__udivmoddi4+0x29c>
 8000db2:	4464      	add	r4, ip
 8000db4:	3802      	subs	r0, #2
 8000db6:	ea40 4006 	orr.w	r0, r0, r6, lsl #16
 8000dba:	1be4      	subs	r4, r4, r7
 8000dbc:	2600      	movs	r6, #0
 8000dbe:	b11d      	cbz	r5, 8000dc8 <__udivmoddi4+0xa4>
 8000dc0:	40d4      	lsrs	r4, r2
 8000dc2:	2300      	movs	r3, #0
 8000dc4:	e9c5 4300 	strd	r4, r3, [r5]
 8000dc8:	4631      	mov	r1, r6
 8000dca:	e8bd 87f0 	ldmia.w	sp!, {r4, r5, r6, r7, r8, r9, sl, pc}
 8000dce:	428b      	cmp	r3, r1
 8000dd0:	d909      	bls.n	8000de6 <__udivmoddi4+0xc2>
 8000dd2:	2d00      	cmp	r5, #0
 8000dd4:	f000 80ef 	beq.w	8000fb6 <__udivmoddi4+0x292>
 8000dd8:	2600      	movs	r6, #0
 8000dda:	e9c5 0100 	strd	r0, r1, [r5]
 8000dde:	4630      	mov	r0, r6
 8000de0:	4631      	mov	r1, r6
 8000de2:	e8bd 87f0 	ldmia.w	sp!, {r4, r5, r6, r7, r8, r9, sl, pc}
 8000de6:	fab3 f683 	clz	r6, r3
 8000dea:	2e00      	cmp	r6, #0
 8000dec:	d14a      	bne.n	8000e84 <__udivmoddi4+0x160>
 8000dee:	428b      	cmp	r3, r1
 8000df0:	d302      	bcc.n	8000df8 <__udivmoddi4+0xd4>
 8000df2:	4282      	cmp	r2, r0
 8000df4:	f200 80f9 	bhi.w	8000fea <__udivmoddi4+0x2c6>
 8000df8:	1a84      	subs	r4, r0, r2
 8000dfa:	eb61 0303 	sbc.w	r3, r1, r3
 8000dfe:	2001      	movs	r0, #1
 8000e00:	469e      	mov	lr, r3
 8000e02:	2d00      	cmp	r5, #0
 8000e04:	d0e0      	beq.n	8000dc8 <__udivmoddi4+0xa4>
 8000e06:	e9c5 4e00 	strd	r4, lr, [r5]
 8000e0a:	e7dd      	b.n	8000dc8 <__udivmoddi4+0xa4>
 8000e0c:	b902      	cbnz	r2, 8000e10 <__udivmoddi4+0xec>
 8000e0e:	deff      	udf	#255	; 0xff
 8000e10:	fab2 f282 	clz	r2, r2
 8000e14:	2a00      	cmp	r2, #0
 8000e16:	f040 8092 	bne.w	8000f3e <__udivmoddi4+0x21a>
 8000e1a:	eba1 010c 	sub.w	r1, r1, ip
 8000e1e:	ea4f 471c 	mov.w	r7, ip, lsr #16
 8000e22:	fa1f fe8c 	uxth.w	lr, ip
 8000e26:	2601      	movs	r6, #1
 8000e28:	0c20      	lsrs	r0, r4, #16
 8000e2a:	fbb1 f3f7 	udiv	r3, r1, r7
 8000e2e:	fb07 1113 	mls	r1, r7, r3, r1
 8000e32:	ea40 4101 	orr.w	r1, r0, r1, lsl #16
 8000e36:	fb0e f003 	mul.w	r0, lr, r3
 8000e3a:	4288      	cmp	r0, r1
 8000e3c:	d908      	bls.n	8000e50 <__udivmoddi4+0x12c>
 8000e3e:	eb1c 0101 	adds.w	r1, ip, r1
 8000e42:	f103 38ff 	add.w	r8, r3, #4294967295
 8000e46:	d202      	bcs.n	8000e4e <__udivmoddi4+0x12a>
 8000e48:	4288      	cmp	r0, r1
 8000e4a:	f200 80cb 	bhi.w	8000fe4 <__udivmoddi4+0x2c0>
 8000e4e:	4643      	mov	r3, r8
 8000e50:	1a09      	subs	r1, r1, r0
 8000e52:	b2a4      	uxth	r4, r4
 8000e54:	fbb1 f0f7 	udiv	r0, r1, r7
 8000e58:	fb07 1110 	mls	r1, r7, r0, r1
 8000e5c:	ea44 4401 	orr.w	r4, r4, r1, lsl #16
 8000e60:	fb0e fe00 	mul.w	lr, lr, r0
 8000e64:	45a6      	cmp	lr, r4
 8000e66:	d908      	bls.n	8000e7a <__udivmoddi4+0x156>
 8000e68:	eb1c 0404 	adds.w	r4, ip, r4
 8000e6c:	f100 31ff 	add.w	r1, r0, #4294967295
 8000e70:	d202      	bcs.n	8000e78 <__udivmoddi4+0x154>
 8000e72:	45a6      	cmp	lr, r4
 8000e74:	f200 80bb 	bhi.w	8000fee <__udivmoddi4+0x2ca>
 8000e78:	4608      	mov	r0, r1
 8000e7a:	eba4 040e 	sub.w	r4, r4, lr
 8000e7e:	ea40 4003 	orr.w	r0, r0, r3, lsl #16
 8000e82:	e79c      	b.n	8000dbe <__udivmoddi4+0x9a>
 8000e84:	f1c6 0720 	rsb	r7, r6, #32
 8000e88:	40b3      	lsls	r3, r6
 8000e8a:	fa22 fc07 	lsr.w	ip, r2, r7
 8000e8e:	ea4c 0c03 	orr.w	ip, ip, r3
 8000e92:	fa20 f407 	lsr.w	r4, r0, r7
 8000e96:	fa01 f306 	lsl.w	r3, r1, r6
 8000e9a:	431c      	orrs	r4, r3
 8000e9c:	40f9      	lsrs	r1, r7
 8000e9e:	ea4f 491c 	mov.w	r9, ip, lsr #16
 8000ea2:	fa00 f306 	lsl.w	r3, r0, r6
 8000ea6:	fbb1 f8f9 	udiv	r8, r1, r9
 8000eaa:	0c20      	lsrs	r0, r4, #16
 8000eac:	fa1f fe8c 	uxth.w	lr, ip
 8000eb0:	fb09 1118 	mls	r1, r9, r8, r1
 8000eb4:	ea40 4101 	orr.w	r1, r0, r1, lsl #16
 8000eb8:	fb08 f00e 	mul.w	r0, r8, lr
 8000ebc:	4288      	cmp	r0, r1
 8000ebe:	fa02 f206 	lsl.w	r2, r2, r6
 8000ec2:	d90b      	bls.n	8000edc <__udivmoddi4+0x1b8>
 8000ec4:	eb1c 0101 	adds.w	r1, ip, r1
 8000ec8:	f108 3aff 	add.w	sl, r8, #4294967295
 8000ecc:	f080 8088 	bcs.w	8000fe0 <__udivmoddi4+0x2bc>
 8000ed0:	4288      	cmp	r0, r1
 8000ed2:	f240 8085 	bls.w	8000fe0 <__udivmoddi4+0x2bc>
 8000ed6:	f1a8 0802 	sub.w	r8, r8, #2
 8000eda:	4461      	add	r1, ip
 8000edc:	1a09      	subs	r1, r1, r0
 8000ede:	b2a4      	uxth	r4, r4
 8000ee0:	fbb1 f0f9 	udiv	r0, r1, r9
 8000ee4:	fb09 1110 	mls	r1, r9, r0, r1
 8000ee8:	ea44 4101 	orr.w	r1, r4, r1, lsl #16
 8000eec:	fb00 fe0e 	mul.w	lr, r0, lr
 8000ef0:	458e      	cmp	lr, r1
 8000ef2:	d908      	bls.n	8000f06 <__udivmoddi4+0x1e2>
 8000ef4:	eb1c 0101 	adds.w	r1, ip, r1
 8000ef8:	f100 34ff 	add.w	r4, r0, #4294967295
 8000efc:	d26c      	bcs.n	8000fd8 <__udivmoddi4+0x2b4>
 8000efe:	458e      	cmp	lr, r1
 8000f00:	d96a      	bls.n	8000fd8 <__udivmoddi4+0x2b4>
 8000f02:	3802      	subs	r0, #2
 8000f04:	4461      	add	r1, ip
 8000f06:	ea40 4008 	orr.w	r0, r0, r8, lsl #16
 8000f0a:	fba0 9402 	umull	r9, r4, r0, r2
 8000f0e:	eba1 010e 	sub.w	r1, r1, lr
 8000f12:	42a1      	cmp	r1, r4
 8000f14:	46c8      	mov	r8, r9
 8000f16:	46a6      	mov	lr, r4
 8000f18:	d356      	bcc.n	8000fc8 <__udivmoddi4+0x2a4>
 8000f1a:	d053      	beq.n	8000fc4 <__udivmoddi4+0x2a0>
 8000f1c:	b15d      	cbz	r5, 8000f36 <__udivmoddi4+0x212>
 8000f1e:	ebb3 0208 	subs.w	r2, r3, r8
 8000f22:	eb61 010e 	sbc.w	r1, r1, lr
 8000f26:	fa01 f707 	lsl.w	r7, r1, r7
 8000f2a:	fa22 f306 	lsr.w	r3, r2, r6
 8000f2e:	40f1      	lsrs	r1, r6
 8000f30:	431f      	orrs	r7, r3
 8000f32:	e9c5 7100 	strd	r7, r1, [r5]
 8000f36:	2600      	movs	r6, #0
 8000f38:	4631      	mov	r1, r6
 8000f3a:	e8bd 87f0 	ldmia.w	sp!, {r4, r5, r6, r7, r8, r9, sl, pc}
 8000f3e:	f1c2 0320 	rsb	r3, r2, #32
 8000f42:	40d8      	lsrs	r0, r3
 8000f44:	fa0c fc02 	lsl.w	ip, ip, r2
 8000f48:	fa21 f303 	lsr.w	r3, r1, r3
 8000f4c:	4091      	lsls	r1, r2
 8000f4e:	4301      	orrs	r1, r0
 8000f50:	ea4f 471c 	mov.w	r7, ip, lsr #16
 8000f54:	fa1f fe8c 	uxth.w	lr, ip
 8000f58:	fbb3 f0f7 	udiv	r0, r3, r7
 8000f5c:	fb07 3610 	mls	r6, r7, r0, r3
 8000f60:	0c0b      	lsrs	r3, r1, #16
 8000f62:	ea43 4306 	orr.w	r3, r3, r6, lsl #16
 8000f66:	fb00 f60e 	mul.w	r6, r0, lr
 8000f6a:	429e      	cmp	r6, r3
 8000f6c:	fa04 f402 	lsl.w	r4, r4, r2
 8000f70:	d908      	bls.n	8000f84 <__udivmoddi4+0x260>
 8000f72:	eb1c 0303 	adds.w	r3, ip, r3
 8000f76:	f100 38ff 	add.w	r8, r0, #4294967295
 8000f7a:	d22f      	bcs.n	8000fdc <__udivmoddi4+0x2b8>
 8000f7c:	429e      	cmp	r6, r3
 8000f7e:	d92d      	bls.n	8000fdc <__udivmoddi4+0x2b8>
 8000f80:	3802      	subs	r0, #2
 8000f82:	4463      	add	r3, ip
 8000f84:	1b9b      	subs	r3, r3, r6
 8000f86:	b289      	uxth	r1, r1
 8000f88:	fbb3 f6f7 	udiv	r6, r3, r7
 8000f8c:	fb07 3316 	mls	r3, r7, r6, r3
 8000f90:	ea41 4103 	orr.w	r1, r1, r3, lsl #16
 8000f94:	fb06 f30e 	mul.w	r3, r6, lr
 8000f98:	428b      	cmp	r3, r1
 8000f9a:	d908      	bls.n	8000fae <__udivmoddi4+0x28a>
 8000f9c:	eb1c 0101 	adds.w	r1, ip, r1
 8000fa0:	f106 38ff 	add.w	r8, r6, #4294967295
 8000fa4:	d216      	bcs.n	8000fd4 <__udivmoddi4+0x2b0>
 8000fa6:	428b      	cmp	r3, r1
 8000fa8:	d914      	bls.n	8000fd4 <__udivmoddi4+0x2b0>
 8000faa:	3e02      	subs	r6, #2
 8000fac:	4461      	add	r1, ip
 8000fae:	1ac9      	subs	r1, r1, r3
 8000fb0:	ea46 4600 	orr.w	r6, r6, r0, lsl #16
 8000fb4:	e738      	b.n	8000e28 <__udivmoddi4+0x104>
 8000fb6:	462e      	mov	r6, r5
 8000fb8:	4628      	mov	r0, r5
 8000fba:	e705      	b.n	8000dc8 <__udivmoddi4+0xa4>
 8000fbc:	4606      	mov	r6, r0
 8000fbe:	e6e3      	b.n	8000d88 <__udivmoddi4+0x64>
 8000fc0:	4618      	mov	r0, r3
 8000fc2:	e6f8      	b.n	8000db6 <__udivmoddi4+0x92>
 8000fc4:	454b      	cmp	r3, r9
 8000fc6:	d2a9      	bcs.n	8000f1c <__udivmoddi4+0x1f8>
 8000fc8:	ebb9 0802 	subs.w	r8, r9, r2
 8000fcc:	eb64 0e0c 	sbc.w	lr, r4, ip
 8000fd0:	3801      	subs	r0, #1
 8000fd2:	e7a3      	b.n	8000f1c <__udivmoddi4+0x1f8>
 8000fd4:	4646      	mov	r6, r8
 8000fd6:	e7ea      	b.n	8000fae <__udivmoddi4+0x28a>
 8000fd8:	4620      	mov	r0, r4
 8000fda:	e794      	b.n	8000f06 <__udivmoddi4+0x1e2>
 8000fdc:	4640      	mov	r0, r8
 8000fde:	e7d1      	b.n	8000f84 <__udivmoddi4+0x260>
 8000fe0:	46d0      	mov	r8, sl
 8000fe2:	e77b      	b.n	8000edc <__udivmoddi4+0x1b8>
 8000fe4:	3b02      	subs	r3, #2
 8000fe6:	4461      	add	r1, ip
 8000fe8:	e732      	b.n	8000e50 <__udivmoddi4+0x12c>
 8000fea:	4630      	mov	r0, r6
 8000fec:	e709      	b.n	8000e02 <__udivmoddi4+0xde>
 8000fee:	4464      	add	r4, ip
 8000ff0:	3802      	subs	r0, #2
 8000ff2:	e742      	b.n	8000e7a <__udivmoddi4+0x156>

08000ff4 <__aeabi_idiv0>:
 8000ff4:	4770      	bx	lr
 8000ff6:	bf00      	nop

08000ff8 <LCD_WR_REG>:
_lcd_dev lcddev;
	   
//写寄存器函数
//regval:寄存器值
void LCD_WR_REG(__IO uint16_t regval)
{   
 8000ff8:	b480      	push	{r7}
 8000ffa:	b083      	sub	sp, #12
 8000ffc:	af00      	add	r7, sp, #0
 8000ffe:	4603      	mov	r3, r0
 8001000:	80fb      	strh	r3, [r7, #6]
	regval=regval;		//使用-O2优化的时候,必须插入的延时
 8001002:	88fb      	ldrh	r3, [r7, #6]
 8001004:	b29b      	uxth	r3, r3
 8001006:	80fb      	strh	r3, [r7, #6]
	TFT_LCD->LCD_REG=regval;//写入要写的寄存器序号	 
 8001008:	4b04      	ldr	r3, [pc, #16]	; (800101c <LCD_WR_REG+0x24>)
 800100a:	88fa      	ldrh	r2, [r7, #6]
 800100c:	b292      	uxth	r2, r2
 800100e:	801a      	strh	r2, [r3, #0]
}
 8001010:	bf00      	nop
 8001012:	370c      	adds	r7, #12
 8001014:	46bd      	mov	sp, r7
 8001016:	f85d 7b04 	ldr.w	r7, [sp], #4
 800101a:	4770      	bx	lr
 800101c:	6c00007e 	.word	0x6c00007e

08001020 <LCD_WR_DATA>:
//写LCD数据
//data:要写入的值
void LCD_WR_DATA(__IO uint16_t data)
{	  
 8001020:	b480      	push	{r7}
 8001022:	b083      	sub	sp, #12
 8001024:	af00      	add	r7, sp, #0
 8001026:	4603      	mov	r3, r0
 8001028:	80fb      	strh	r3, [r7, #6]
	data=data;			//使用-O2优化的时候,必须插入的延时
 800102a:	88fb      	ldrh	r3, [r7, #6]
 800102c:	b29b      	uxth	r3, r3
 800102e:	80fb      	strh	r3, [r7, #6]
	TFT_LCD->LCD_RAM=data;		 
 8001030:	4b04      	ldr	r3, [pc, #16]	; (8001044 <LCD_WR_DATA+0x24>)
 8001032:	88fa      	ldrh	r2, [r7, #6]
 8001034:	b292      	uxth	r2, r2
 8001036:	805a      	strh	r2, [r3, #2]
}
 8001038:	bf00      	nop
 800103a:	370c      	adds	r7, #12
 800103c:	46bd      	mov	sp, r7
 800103e:	f85d 7b04 	ldr.w	r7, [sp], #4
 8001042:	4770      	bx	lr
 8001044:	6c00007e 	.word	0x6c00007e

08001048 <LCD_RD_DATA>:
//读LCD数据
//返回值:读到的值
uint16_t LCD_RD_DATA(void)
{
 8001048:	b480      	push	{r7}
 800104a:	b083      	sub	sp, #12
 800104c:	af00      	add	r7, sp, #0
	__IO uint16_t ram;			//防止被优化
	ram=TFT_LCD->LCD_RAM;	
 800104e:	4b06      	ldr	r3, [pc, #24]	; (8001068 <LCD_RD_DATA+0x20>)
 8001050:	885b      	ldrh	r3, [r3, #2]
 8001052:	b29b      	uxth	r3, r3
 8001054:	80fb      	strh	r3, [r7, #6]
	return ram;	 
 8001056:	88fb      	ldrh	r3, [r7, #6]
 8001058:	b29b      	uxth	r3, r3
}					   
 800105a:	4618      	mov	r0, r3
 800105c:	370c      	adds	r7, #12
 800105e:	46bd      	mov	sp, r7
 8001060:	f85d 7b04 	ldr.w	r7, [sp], #4
 8001064:	4770      	bx	lr
 8001066:	bf00      	nop
 8001068:	6c00007e 	.word	0x6c00007e

0800106c <LCD_WriteReg>:
//写寄存器
//LCD_Reg:寄存器地址
//LCD_RegValue:要写入的数据
void LCD_WriteReg(uint16_t LCD_Reg,uint16_t LCD_RegValue)
{	
 800106c:	b480      	push	{r7}
 800106e:	b083      	sub	sp, #12
 8001070:	af00      	add	r7, sp, #0
 8001072:	4603      	mov	r3, r0
 8001074:	460a      	mov	r2, r1
 8001076:	80fb      	strh	r3, [r7, #6]
 8001078:	4613      	mov	r3, r2
 800107a:	80bb      	strh	r3, [r7, #4]
	TFT_LCD->LCD_REG = LCD_Reg;		//写入要写的寄存器序号	 
 800107c:	4a05      	ldr	r2, [pc, #20]	; (8001094 <LCD_WriteReg+0x28>)
 800107e:	88fb      	ldrh	r3, [r7, #6]
 8001080:	8013      	strh	r3, [r2, #0]
	TFT_LCD->LCD_RAM = LCD_RegValue;//写入数据	    		 
 8001082:	4a04      	ldr	r2, [pc, #16]	; (8001094 <LCD_WriteReg+0x28>)
 8001084:	88bb      	ldrh	r3, [r7, #4]
 8001086:	8053      	strh	r3, [r2, #2]
}	  
 8001088:	bf00      	nop
 800108a:	370c      	adds	r7, #12
 800108c:	46bd      	mov	sp, r7
 800108e:	f85d 7b04 	ldr.w	r7, [sp], #4
 8001092:	4770      	bx	lr
 8001094:	6c00007e 	.word	0x6c00007e

08001098 <opt_delay>:

//当mdk -O1时间优化时需要设置
//延时i
void opt_delay(uint8_t i)
{
 8001098:	b480      	push	{r7}
 800109a:	b083      	sub	sp, #12
 800109c:	af00      	add	r7, sp, #0
 800109e:	4603      	mov	r3, r0
 80010a0:	71fb      	strb	r3, [r7, #7]
	while(i--);
 80010a2:	bf00      	nop
 80010a4:	79fb      	ldrb	r3, [r7, #7]
 80010a6:	1e5a      	subs	r2, r3, #1
 80010a8:	71fa      	strb	r2, [r7, #7]
 80010aa:	2b00      	cmp	r3, #0
 80010ac:	d1fa      	bne.n	80010a4 <opt_delay+0xc>
}
 80010ae:	bf00      	nop
 80010b0:	bf00      	nop
 80010b2:	370c      	adds	r7, #12
 80010b4:	46bd      	mov	sp, r7
 80010b6:	f85d 7b04 	ldr.w	r7, [sp], #4
 80010ba:	4770      	bx	lr

080010bc <LCD_WriteRAM_Prepare>:
	opt_delay(5);		  
	return LCD_RD_DATA();		//返回读到的值
}   
//开始写GRAM
void LCD_WriteRAM_Prepare(void)
{
 80010bc:	b480      	push	{r7}
 80010be:	af00      	add	r7, sp, #0
 	TFT_LCD->LCD_REG=lcddev.wramcmd;	  
 80010c0:	4b04      	ldr	r3, [pc, #16]	; (80010d4 <LCD_WriteRAM_Prepare+0x18>)
 80010c2:	4a05      	ldr	r2, [pc, #20]	; (80010d8 <LCD_WriteRAM_Prepare+0x1c>)
 80010c4:	8912      	ldrh	r2, [r2, #8]
 80010c6:	801a      	strh	r2, [r3, #0]
}	 
 80010c8:	bf00      	nop
 80010ca:	46bd      	mov	sp, r7
 80010cc:	f85d 7b04 	ldr.w	r7, [sp], #4
 80010d0:	4770      	bx	lr
 80010d2:	bf00      	nop
 80010d4:	6c00007e 	.word	0x6c00007e
 80010d8:	20000204 	.word	0x20000204

080010dc <LCD_SetCursor>:
}   
//设置光标位置(对RGB屏无效)
//Xpos:横坐标
//Ypos:纵坐标
void LCD_SetCursor(uint16_t Xpos, uint16_t Ypos)
{	 
 80010dc:	b580      	push	{r7, lr}
 80010de:	b082      	sub	sp, #8
 80010e0:	af00      	add	r7, sp, #0
 80010e2:	4603      	mov	r3, r0
 80010e4:	460a      	mov	r2, r1
 80010e6:	80fb      	strh	r3, [r7, #6]
 80010e8:	4613      	mov	r3, r2
 80010ea:	80bb      	strh	r3, [r7, #4]
 	if(lcddev.id==0X9341||lcddev.id==0X5310)
 80010ec:	4b6b      	ldr	r3, [pc, #428]	; (800129c <LCD_SetCursor+0x1c0>)
 80010ee:	889b      	ldrh	r3, [r3, #4]
 80010f0:	f249 3241 	movw	r2, #37697	; 0x9341
 80010f4:	4293      	cmp	r3, r2
 80010f6:	d005      	beq.n	8001104 <LCD_SetCursor+0x28>
 80010f8:	4b68      	ldr	r3, [pc, #416]	; (800129c <LCD_SetCursor+0x1c0>)
 80010fa:	889b      	ldrh	r3, [r3, #4]
 80010fc:	f245 3210 	movw	r2, #21264	; 0x5310
 8001100:	4293      	cmp	r3, r2
 8001102:	d122      	bne.n	800114a <LCD_SetCursor+0x6e>
	{		    
		LCD_WR_REG(lcddev.setxcmd); 
 8001104:	4b65      	ldr	r3, [pc, #404]	; (800129c <LCD_SetCursor+0x1c0>)
 8001106:	895b      	ldrh	r3, [r3, #10]
 8001108:	4618      	mov	r0, r3
 800110a:	f7ff ff75 	bl	8000ff8 <LCD_WR_REG>
		LCD_WR_DATA(Xpos>>8);LCD_WR_DATA(Xpos&0XFF); 			 
 800110e:	88fb      	ldrh	r3, [r7, #6]
 8001110:	0a1b      	lsrs	r3, r3, #8
 8001112:	b29b      	uxth	r3, r3
 8001114:	4618      	mov	r0, r3
 8001116:	f7ff ff83 	bl	8001020 <LCD_WR_DATA>
 800111a:	88fb      	ldrh	r3, [r7, #6]
 800111c:	b2db      	uxtb	r3, r3
 800111e:	b29b      	uxth	r3, r3
 8001120:	4618      	mov	r0, r3
 8001122:	f7ff ff7d 	bl	8001020 <LCD_WR_DATA>
		LCD_WR_REG(lcddev.setycmd); 
 8001126:	4b5d      	ldr	r3, [pc, #372]	; (800129c <LCD_SetCursor+0x1c0>)
 8001128:	899b      	ldrh	r3, [r3, #12]
 800112a:	4618      	mov	r0, r3
 800112c:	f7ff ff64 	bl	8000ff8 <LCD_WR_REG>
		LCD_WR_DATA(Ypos>>8);LCD_WR_DATA(Ypos&0XFF); 		
 8001130:	88bb      	ldrh	r3, [r7, #4]
 8001132:	0a1b      	lsrs	r3, r3, #8
 8001134:	b29b      	uxth	r3, r3
 8001136:	4618      	mov	r0, r3
 8001138:	f7ff ff72 	bl	8001020 <LCD_WR_DATA>
 800113c:	88bb      	ldrh	r3, [r7, #4]
 800113e:	b2db      	uxtb	r3, r3
 8001140:	b29b      	uxth	r3, r3
 8001142:	4618      	mov	r0, r3
 8001144:	f7ff ff6c 	bl	8001020 <LCD_WR_DATA>
		LCD_WR_REG(lcddev.setxcmd);LCD_WR_DATA(Xpos>>8); 		
		LCD_WR_REG(lcddev.setxcmd+1);LCD_WR_DATA(Xpos&0XFF);			 
		LCD_WR_REG(lcddev.setycmd);LCD_WR_DATA(Ypos>>8);  		
		LCD_WR_REG(lcddev.setycmd+1);LCD_WR_DATA(Ypos&0XFF);			
	} 
} 		 
 8001148:	e0a3      	b.n	8001292 <LCD_SetCursor+0x1b6>
	}else if(lcddev.id==0X1963)
 800114a:	4b54      	ldr	r3, [pc, #336]	; (800129c <LCD_SetCursor+0x1c0>)
 800114c:	889b      	ldrh	r3, [r3, #4]
 800114e:	f641 1263 	movw	r2, #6499	; 0x1963
 8001152:	4293      	cmp	r3, r2
 8001154:	d167      	bne.n	8001226 <LCD_SetCursor+0x14a>
		if(lcddev.dir==0)//x坐标需要变换
 8001156:	4b51      	ldr	r3, [pc, #324]	; (800129c <LCD_SetCursor+0x1c0>)
 8001158:	799b      	ldrb	r3, [r3, #6]
 800115a:	2b00      	cmp	r3, #0
 800115c:	d11e      	bne.n	800119c <LCD_SetCursor+0xc0>
			Xpos=lcddev.width-1-Xpos;
 800115e:	4b4f      	ldr	r3, [pc, #316]	; (800129c <LCD_SetCursor+0x1c0>)
 8001160:	881a      	ldrh	r2, [r3, #0]
 8001162:	88fb      	ldrh	r3, [r7, #6]
 8001164:	1ad3      	subs	r3, r2, r3
 8001166:	b29b      	uxth	r3, r3
 8001168:	3b01      	subs	r3, #1
 800116a:	80fb      	strh	r3, [r7, #6]
			LCD_WR_REG(lcddev.setxcmd); 
 800116c:	4b4b      	ldr	r3, [pc, #300]	; (800129c <LCD_SetCursor+0x1c0>)
 800116e:	895b      	ldrh	r3, [r3, #10]
 8001170:	4618      	mov	r0, r3
 8001172:	f7ff ff41 	bl	8000ff8 <LCD_WR_REG>
			LCD_WR_DATA(0);LCD_WR_DATA(0); 		
 8001176:	2000      	movs	r0, #0
 8001178:	f7ff ff52 	bl	8001020 <LCD_WR_DATA>
 800117c:	2000      	movs	r0, #0
 800117e:	f7ff ff4f 	bl	8001020 <LCD_WR_DATA>
			LCD_WR_DATA(Xpos>>8);LCD_WR_DATA(Xpos&0XFF);		 	 
 8001182:	88fb      	ldrh	r3, [r7, #6]
 8001184:	0a1b      	lsrs	r3, r3, #8
 8001186:	b29b      	uxth	r3, r3
 8001188:	4618      	mov	r0, r3
 800118a:	f7ff ff49 	bl	8001020 <LCD_WR_DATA>
 800118e:	88fb      	ldrh	r3, [r7, #6]
 8001190:	b2db      	uxtb	r3, r3
 8001192:	b29b      	uxth	r3, r3
 8001194:	4618      	mov	r0, r3
 8001196:	f7ff ff43 	bl	8001020 <LCD_WR_DATA>
 800119a:	e021      	b.n	80011e0 <LCD_SetCursor+0x104>
			LCD_WR_REG(lcddev.setxcmd); 
 800119c:	4b3f      	ldr	r3, [pc, #252]	; (800129c <LCD_SetCursor+0x1c0>)
 800119e:	895b      	ldrh	r3, [r3, #10]
 80011a0:	4618      	mov	r0, r3
 80011a2:	f7ff ff29 	bl	8000ff8 <LCD_WR_REG>
			LCD_WR_DATA(Xpos>>8);LCD_WR_DATA(Xpos&0XFF); 		
 80011a6:	88fb      	ldrh	r3, [r7, #6]
 80011a8:	0a1b      	lsrs	r3, r3, #8
 80011aa:	b29b      	uxth	r3, r3
 80011ac:	4618      	mov	r0, r3
 80011ae:	f7ff ff37 	bl	8001020 <LCD_WR_DATA>
 80011b2:	88fb      	ldrh	r3, [r7, #6]
 80011b4:	b2db      	uxtb	r3, r3
 80011b6:	b29b      	uxth	r3, r3
 80011b8:	4618      	mov	r0, r3
 80011ba:	f7ff ff31 	bl	8001020 <LCD_WR_DATA>
			LCD_WR_DATA((lcddev.width-1)>>8);LCD_WR_DATA((lcddev.width-1)&0XFF);		 	 			
 80011be:	4b37      	ldr	r3, [pc, #220]	; (800129c <LCD_SetCursor+0x1c0>)
 80011c0:	881b      	ldrh	r3, [r3, #0]
 80011c2:	3b01      	subs	r3, #1
 80011c4:	121b      	asrs	r3, r3, #8
 80011c6:	b29b      	uxth	r3, r3
 80011c8:	4618      	mov	r0, r3
 80011ca:	f7ff ff29 	bl	8001020 <LCD_WR_DATA>
 80011ce:	4b33      	ldr	r3, [pc, #204]	; (800129c <LCD_SetCursor+0x1c0>)
 80011d0:	881b      	ldrh	r3, [r3, #0]
 80011d2:	3b01      	subs	r3, #1
 80011d4:	b29b      	uxth	r3, r3
 80011d6:	b2db      	uxtb	r3, r3
 80011d8:	b29b      	uxth	r3, r3
 80011da:	4618      	mov	r0, r3
 80011dc:	f7ff ff20 	bl	8001020 <LCD_WR_DATA>
		LCD_WR_REG(lcddev.setycmd); 
 80011e0:	4b2e      	ldr	r3, [pc, #184]	; (800129c <LCD_SetCursor+0x1c0>)
 80011e2:	899b      	ldrh	r3, [r3, #12]
 80011e4:	4618      	mov	r0, r3
 80011e6:	f7ff ff07 	bl	8000ff8 <LCD_WR_REG>
		LCD_WR_DATA(Ypos>>8);LCD_WR_DATA(Ypos&0XFF); 		
 80011ea:	88bb      	ldrh	r3, [r7, #4]
 80011ec:	0a1b      	lsrs	r3, r3, #8
 80011ee:	b29b      	uxth	r3, r3
 80011f0:	4618      	mov	r0, r3
 80011f2:	f7ff ff15 	bl	8001020 <LCD_WR_DATA>
 80011f6:	88bb      	ldrh	r3, [r7, #4]
 80011f8:	b2db      	uxtb	r3, r3
 80011fa:	b29b      	uxth	r3, r3
 80011fc:	4618      	mov	r0, r3
 80011fe:	f7ff ff0f 	bl	8001020 <LCD_WR_DATA>
		LCD_WR_DATA((lcddev.height-1)>>8);LCD_WR_DATA((lcddev.height-1)&0XFF); 			 		
 8001202:	4b26      	ldr	r3, [pc, #152]	; (800129c <LCD_SetCursor+0x1c0>)
 8001204:	885b      	ldrh	r3, [r3, #2]
 8001206:	3b01      	subs	r3, #1
 8001208:	121b      	asrs	r3, r3, #8
 800120a:	b29b      	uxth	r3, r3
 800120c:	4618      	mov	r0, r3
 800120e:	f7ff ff07 	bl	8001020 <LCD_WR_DATA>
 8001212:	4b22      	ldr	r3, [pc, #136]	; (800129c <LCD_SetCursor+0x1c0>)
 8001214:	885b      	ldrh	r3, [r3, #2]
 8001216:	3b01      	subs	r3, #1
 8001218:	b29b      	uxth	r3, r3
 800121a:	b2db      	uxtb	r3, r3
 800121c:	b29b      	uxth	r3, r3
 800121e:	4618      	mov	r0, r3
 8001220:	f7ff fefe 	bl	8001020 <LCD_WR_DATA>
} 		 
 8001224:	e035      	b.n	8001292 <LCD_SetCursor+0x1b6>
	}else if(lcddev.id==0X5510)
 8001226:	4b1d      	ldr	r3, [pc, #116]	; (800129c <LCD_SetCursor+0x1c0>)
 8001228:	889b      	ldrh	r3, [r3, #4]
 800122a:	f245 5210 	movw	r2, #21776	; 0x5510
 800122e:	4293      	cmp	r3, r2
 8001230:	d12f      	bne.n	8001292 <LCD_SetCursor+0x1b6>
		LCD_WR_REG(lcddev.setxcmd);LCD_WR_DATA(Xpos>>8); 		
 8001232:	4b1a      	ldr	r3, [pc, #104]	; (800129c <LCD_SetCursor+0x1c0>)
 8001234:	895b      	ldrh	r3, [r3, #10]
 8001236:	4618      	mov	r0, r3
 8001238:	f7ff fede 	bl	8000ff8 <LCD_WR_REG>
 800123c:	88fb      	ldrh	r3, [r7, #6]
 800123e:	0a1b      	lsrs	r3, r3, #8
 8001240:	b29b      	uxth	r3, r3
 8001242:	4618      	mov	r0, r3
 8001244:	f7ff feec 	bl	8001020 <LCD_WR_DATA>
		LCD_WR_REG(lcddev.setxcmd+1);LCD_WR_DATA(Xpos&0XFF);			 
 8001248:	4b14      	ldr	r3, [pc, #80]	; (800129c <LCD_SetCursor+0x1c0>)
 800124a:	895b      	ldrh	r3, [r3, #10]
 800124c:	3301      	adds	r3, #1
 800124e:	b29b      	uxth	r3, r3
 8001250:	4618      	mov	r0, r3
 8001252:	f7ff fed1 	bl	8000ff8 <LCD_WR_REG>
 8001256:	88fb      	ldrh	r3, [r7, #6]
 8001258:	b2db      	uxtb	r3, r3
 800125a:	b29b      	uxth	r3, r3
 800125c:	4618      	mov	r0, r3
 800125e:	f7ff fedf 	bl	8001020 <LCD_WR_DATA>
		LCD_WR_REG(lcddev.setycmd);LCD_WR_DATA(Ypos>>8);  		
 8001262:	4b0e      	ldr	r3, [pc, #56]	; (800129c <LCD_SetCursor+0x1c0>)
 8001264:	899b      	ldrh	r3, [r3, #12]
 8001266:	4618      	mov	r0, r3
 8001268:	f7ff fec6 	bl	8000ff8 <LCD_WR_REG>
 800126c:	88bb      	ldrh	r3, [r7, #4]
 800126e:	0a1b      	lsrs	r3, r3, #8
 8001270:	b29b      	uxth	r3, r3
 8001272:	4618      	mov	r0, r3
 8001274:	f7ff fed4 	bl	8001020 <LCD_WR_DATA>
		LCD_WR_REG(lcddev.setycmd+1);LCD_WR_DATA(Ypos&0XFF);			
 8001278:	4b08      	ldr	r3, [pc, #32]	; (800129c <LCD_SetCursor+0x1c0>)
 800127a:	899b      	ldrh	r3, [r3, #12]
 800127c:	3301      	adds	r3, #1
 800127e:	b29b      	uxth	r3, r3
 8001280:	4618      	mov	r0, r3
 8001282:	f7ff feb9 	bl	8000ff8 <LCD_WR_REG>
 8001286:	88bb      	ldrh	r3, [r7, #4]
 8001288:	b2db      	uxtb	r3, r3
 800128a:	b29b      	uxth	r3, r3
 800128c:	4618      	mov	r0, r3
 800128e:	f7ff fec7 	bl	8001020 <LCD_WR_DATA>
} 		 
 8001292:	bf00      	nop
 8001294:	3708      	adds	r7, #8
 8001296:	46bd      	mov	sp, r7
 8001298:	bd80      	pop	{r7, pc}
 800129a:	bf00      	nop
 800129c:	20000204 	.word	0x20000204

080012a0 <LCD_Scan_Dir>:
//注意:其他函数可能会受到此函数设置的影响(尤其是9341),
//所以,一般设置为L2R_U2D即可,如果设置为其他扫描方式,可能导致显示不正常.
//dir:0~7,代表8个方向(具体定义见lcd.h)
//9341/5310/5510/1963等IC已经实际测试	   	   
void LCD_Scan_Dir(uint8_t dir)
{
 80012a0:	b580      	push	{r7, lr}
 80012a2:	b084      	sub	sp, #16
 80012a4:	af00      	add	r7, sp, #0
 80012a6:	4603      	mov	r3, r0
 80012a8:	71fb      	strb	r3, [r7, #7]
	uint16_t regval=0;
 80012aa:	2300      	movs	r3, #0
 80012ac:	81fb      	strh	r3, [r7, #14]
	uint16_t dirreg=0;
 80012ae:	2300      	movs	r3, #0
 80012b0:	81bb      	strh	r3, [r7, #12]
	uint16_t temp;  
	if((lcddev.dir==1&&lcddev.id!=0X1963)||(lcddev.dir==0&&lcddev.id==0X1963))//横屏时，对1963不改变扫描方向！竖屏时1963改变方向
 80012b2:	4b6d      	ldr	r3, [pc, #436]	; (8001468 <LCD_Scan_Dir+0x1c8>)
 80012b4:	799b      	ldrb	r3, [r3, #6]
 80012b6:	2b01      	cmp	r3, #1
 80012b8:	d105      	bne.n	80012c6 <LCD_Scan_Dir+0x26>
 80012ba:	4b6b      	ldr	r3, [pc, #428]	; (8001468 <LCD_Scan_Dir+0x1c8>)
 80012bc:	889b      	ldrh	r3, [r3, #4]
 80012be:	f641 1263 	movw	r2, #6499	; 0x1963
 80012c2:	4293      	cmp	r3, r2
 80012c4:	d109      	bne.n	80012da <LCD_Scan_Dir+0x3a>
 80012c6:	4b68      	ldr	r3, [pc, #416]	; (8001468 <LCD_Scan_Dir+0x1c8>)
 80012c8:	799b      	ldrb	r3, [r3, #6]
 80012ca:	2b00      	cmp	r3, #0
 80012cc:	d134      	bne.n	8001338 <LCD_Scan_Dir+0x98>
 80012ce:	4b66      	ldr	r3, [pc, #408]	; (8001468 <LCD_Scan_Dir+0x1c8>)
 80012d0:	889b      	ldrh	r3, [r3, #4]
 80012d2:	f641 1263 	movw	r2, #6499	; 0x1963
 80012d6:	4293      	cmp	r3, r2
 80012d8:	d12e      	bne.n	8001338 <LCD_Scan_Dir+0x98>
	{			   
		switch(dir)//方向转换
 80012da:	79fb      	ldrb	r3, [r7, #7]
 80012dc:	2b07      	cmp	r3, #7
 80012de:	d82c      	bhi.n	800133a <LCD_Scan_Dir+0x9a>
 80012e0:	a201      	add	r2, pc, #4	; (adr r2, 80012e8 <LCD_Scan_Dir+0x48>)
 80012e2:	f852 f023 	ldr.w	pc, [r2, r3, lsl #2]
 80012e6:	bf00      	nop
 80012e8:	08001309 	.word	0x08001309
 80012ec:	0800130f 	.word	0x0800130f
 80012f0:	08001315 	.word	0x08001315
 80012f4:	0800131b 	.word	0x0800131b
 80012f8:	08001321 	.word	0x08001321
 80012fc:	08001327 	.word	0x08001327
 8001300:	0800132d 	.word	0x0800132d
 8001304:	08001333 	.word	0x08001333
		{
			case 0:dir=6;break;
 8001308:	2306      	movs	r3, #6
 800130a:	71fb      	strb	r3, [r7, #7]
 800130c:	e015      	b.n	800133a <LCD_Scan_Dir+0x9a>
			case 1:dir=7;break;
 800130e:	2307      	movs	r3, #7
 8001310:	71fb      	strb	r3, [r7, #7]
 8001312:	e012      	b.n	800133a <LCD_Scan_Dir+0x9a>
			case 2:dir=4;break;
 8001314:	2304      	movs	r3, #4
 8001316:	71fb      	strb	r3, [r7, #7]
 8001318:	e00f      	b.n	800133a <LCD_Scan_Dir+0x9a>
			case 3:dir=5;break;
 800131a:	2305      	movs	r3, #5
 800131c:	71fb      	strb	r3, [r7, #7]
 800131e:	e00c      	b.n	800133a <LCD_Scan_Dir+0x9a>
			case 4:dir=1;break;
 8001320:	2301      	movs	r3, #1
 8001322:	71fb      	strb	r3, [r7, #7]
 8001324:	e009      	b.n	800133a <LCD_Scan_Dir+0x9a>
			case 5:dir=0;break;
 8001326:	2300      	movs	r3, #0
 8001328:	71fb      	strb	r3, [r7, #7]
 800132a:	e006      	b.n	800133a <LCD_Scan_Dir+0x9a>
			case 6:dir=3;break;
 800132c:	2303      	movs	r3, #3
 800132e:	71fb      	strb	r3, [r7, #7]
 8001330:	e003      	b.n	800133a <LCD_Scan_Dir+0x9a>
			case 7:dir=2;break;	     
 8001332:	2302      	movs	r3, #2
 8001334:	71fb      	strb	r3, [r7, #7]
 8001336:	e000      	b.n	800133a <LCD_Scan_Dir+0x9a>
		}
	} 
 8001338:	bf00      	nop
	if(lcddev.id==0x9341||lcddev.id==0X5310||lcddev.id==0X5510||lcddev.id==0X1963)//9341/5310/5510/1963,特殊处理
 800133a:	4b4b      	ldr	r3, [pc, #300]	; (8001468 <LCD_Scan_Dir+0x1c8>)
 800133c:	889b      	ldrh	r3, [r3, #4]
 800133e:	f249 3241 	movw	r2, #37697	; 0x9341
 8001342:	4293      	cmp	r3, r2
 8001344:	d012      	beq.n	800136c <LCD_Scan_Dir+0xcc>
 8001346:	4b48      	ldr	r3, [pc, #288]	; (8001468 <LCD_Scan_Dir+0x1c8>)
 8001348:	889b      	ldrh	r3, [r3, #4]
 800134a:	f245 3210 	movw	r2, #21264	; 0x5310
 800134e:	4293      	cmp	r3, r2
 8001350:	d00c      	beq.n	800136c <LCD_Scan_Dir+0xcc>
 8001352:	4b45      	ldr	r3, [pc, #276]	; (8001468 <LCD_Scan_Dir+0x1c8>)
 8001354:	889b      	ldrh	r3, [r3, #4]
 8001356:	f245 5210 	movw	r2, #21776	; 0x5510
 800135a:	4293      	cmp	r3, r2
 800135c:	d006      	beq.n	800136c <LCD_Scan_Dir+0xcc>
 800135e:	4b42      	ldr	r3, [pc, #264]	; (8001468 <LCD_Scan_Dir+0x1c8>)
 8001360:	889b      	ldrh	r3, [r3, #4]
 8001362:	f641 1263 	movw	r2, #6499	; 0x1963
 8001366:	4293      	cmp	r3, r2
 8001368:	f040 8131 	bne.w	80015ce <LCD_Scan_Dir+0x32e>
	{
		switch(dir)
 800136c:	79fb      	ldrb	r3, [r7, #7]
 800136e:	2b07      	cmp	r3, #7
 8001370:	d835      	bhi.n	80013de <LCD_Scan_Dir+0x13e>
 8001372:	a201      	add	r2, pc, #4	; (adr r2, 8001378 <LCD_Scan_Dir+0xd8>)
 8001374:	f852 f023 	ldr.w	pc, [r2, r3, lsl #2]
 8001378:	080013df 	.word	0x080013df
 800137c:	08001399 	.word	0x08001399
 8001380:	080013a3 	.word	0x080013a3
 8001384:	080013ad 	.word	0x080013ad
 8001388:	080013b7 	.word	0x080013b7
 800138c:	080013c1 	.word	0x080013c1
 8001390:	080013cb 	.word	0x080013cb
 8001394:	080013d5 	.word	0x080013d5
		{
			case L2R_U2D://从左到右,从上到下
				regval|=(0<<7)|(0<<6)|(0<<5); 
				break;
			case L2R_D2U://从左到右,从下到上
				regval|=(1<<7)|(0<<6)|(0<<5); 
 8001398:	89fb      	ldrh	r3, [r7, #14]
 800139a:	f043 0380 	orr.w	r3, r3, #128	; 0x80
 800139e:	81fb      	strh	r3, [r7, #14]
				break;
 80013a0:	e01d      	b.n	80013de <LCD_Scan_Dir+0x13e>
			case R2L_U2D://从右到左,从上到下
				regval|=(0<<7)|(1<<6)|(0<<5); 
 80013a2:	89fb      	ldrh	r3, [r7, #14]
 80013a4:	f043 0340 	orr.w	r3, r3, #64	; 0x40
 80013a8:	81fb      	strh	r3, [r7, #14]
				break;
 80013aa:	e018      	b.n	80013de <LCD_Scan_Dir+0x13e>
			case R2L_D2U://从右到左,从下到上
				regval|=(1<<7)|(1<<6)|(0<<5); 
 80013ac:	89fb      	ldrh	r3, [r7, #14]
 80013ae:	f043 03c0 	orr.w	r3, r3, #192	; 0xc0
 80013b2:	81fb      	strh	r3, [r7, #14]
				break;	 
 80013b4:	e013      	b.n	80013de <LCD_Scan_Dir+0x13e>
			case U2D_L2R://从上到下,从左到右
				regval|=(0<<7)|(0<<6)|(1<<5); 
 80013b6:	89fb      	ldrh	r3, [r7, #14]
 80013b8:	f043 0320 	orr.w	r3, r3, #32
 80013bc:	81fb      	strh	r3, [r7, #14]
				break;
 80013be:	e00e      	b.n	80013de <LCD_Scan_Dir+0x13e>
			case U2D_R2L://从上到下,从右到左
				regval|=(0<<7)|(1<<6)|(1<<5); 
 80013c0:	89fb      	ldrh	r3, [r7, #14]
 80013c2:	f043 0360 	orr.w	r3, r3, #96	; 0x60
 80013c6:	81fb      	strh	r3, [r7, #14]
				break;
 80013c8:	e009      	b.n	80013de <LCD_Scan_Dir+0x13e>
			case D2U_L2R://从下到上,从左到右
				regval|=(1<<7)|(0<<6)|(1<<5); 
 80013ca:	89fb      	ldrh	r3, [r7, #14]
 80013cc:	f043 03a0 	orr.w	r3, r3, #160	; 0xa0
 80013d0:	81fb      	strh	r3, [r7, #14]
				break;
 80013d2:	e004      	b.n	80013de <LCD_Scan_Dir+0x13e>
			case D2U_R2L://从下到上,从右到左
				regval|=(1<<7)|(1<<6)|(1<<5); 
 80013d4:	89fb      	ldrh	r3, [r7, #14]
 80013d6:	f043 03e0 	orr.w	r3, r3, #224	; 0xe0
 80013da:	81fb      	strh	r3, [r7, #14]
				break;	 
 80013dc:	bf00      	nop
		}
		if(lcddev.id==0X5510)dirreg=0X3600;
 80013de:	4b22      	ldr	r3, [pc, #136]	; (8001468 <LCD_Scan_Dir+0x1c8>)
 80013e0:	889b      	ldrh	r3, [r3, #4]
 80013e2:	f245 5210 	movw	r2, #21776	; 0x5510
 80013e6:	4293      	cmp	r3, r2
 80013e8:	d103      	bne.n	80013f2 <LCD_Scan_Dir+0x152>
 80013ea:	f44f 5358 	mov.w	r3, #13824	; 0x3600
 80013ee:	81bb      	strh	r3, [r7, #12]
 80013f0:	e001      	b.n	80013f6 <LCD_Scan_Dir+0x156>
		else dirreg=0X36;
 80013f2:	2336      	movs	r3, #54	; 0x36
 80013f4:	81bb      	strh	r3, [r7, #12]
 		if((lcddev.id!=0X5310)&&(lcddev.id!=0X5510)&&(lcddev.id!=0X1963))regval|=0X08;//5310/5510/1963不需要BGR   
 80013f6:	4b1c      	ldr	r3, [pc, #112]	; (8001468 <LCD_Scan_Dir+0x1c8>)
 80013f8:	889b      	ldrh	r3, [r3, #4]
 80013fa:	f245 3210 	movw	r2, #21264	; 0x5310
 80013fe:	4293      	cmp	r3, r2
 8001400:	d00f      	beq.n	8001422 <LCD_Scan_Dir+0x182>
 8001402:	4b19      	ldr	r3, [pc, #100]	; (8001468 <LCD_Scan_Dir+0x1c8>)
 8001404:	889b      	ldrh	r3, [r3, #4]
 8001406:	f245 5210 	movw	r2, #21776	; 0x5510
 800140a:	4293      	cmp	r3, r2
 800140c:	d009      	beq.n	8001422 <LCD_Scan_Dir+0x182>
 800140e:	4b16      	ldr	r3, [pc, #88]	; (8001468 <LCD_Scan_Dir+0x1c8>)
 8001410:	889b      	ldrh	r3, [r3, #4]
 8001412:	f641 1263 	movw	r2, #6499	; 0x1963
 8001416:	4293      	cmp	r3, r2
 8001418:	d003      	beq.n	8001422 <LCD_Scan_Dir+0x182>
 800141a:	89fb      	ldrh	r3, [r7, #14]
 800141c:	f043 0308 	orr.w	r3, r3, #8
 8001420:	81fb      	strh	r3, [r7, #14]
 		LCD_WriteReg(dirreg,regval);
 8001422:	89fa      	ldrh	r2, [r7, #14]
 8001424:	89bb      	ldrh	r3, [r7, #12]
 8001426:	4611      	mov	r1, r2
 8001428:	4618      	mov	r0, r3
 800142a:	f7ff fe1f 	bl	800106c <LCD_WriteReg>
		if(lcddev.id!=0X1963)//1963不做坐标处理
 800142e:	4b0e      	ldr	r3, [pc, #56]	; (8001468 <LCD_Scan_Dir+0x1c8>)
 8001430:	889b      	ldrh	r3, [r3, #4]
 8001432:	f641 1263 	movw	r2, #6499	; 0x1963
 8001436:	4293      	cmp	r3, r2
 8001438:	d028      	beq.n	800148c <LCD_Scan_Dir+0x1ec>
		{
			if(regval&0X20)
 800143a:	89fb      	ldrh	r3, [r7, #14]
 800143c:	f003 0320 	and.w	r3, r3, #32
 8001440:	2b00      	cmp	r3, #0
 8001442:	d013      	beq.n	800146c <LCD_Scan_Dir+0x1cc>
			{
				if(lcddev.width<lcddev.height)//交换X,Y
 8001444:	4b08      	ldr	r3, [pc, #32]	; (8001468 <LCD_Scan_Dir+0x1c8>)
 8001446:	881a      	ldrh	r2, [r3, #0]
 8001448:	4b07      	ldr	r3, [pc, #28]	; (8001468 <LCD_Scan_Dir+0x1c8>)
 800144a:	885b      	ldrh	r3, [r3, #2]
 800144c:	429a      	cmp	r2, r3
 800144e:	d21d      	bcs.n	800148c <LCD_Scan_Dir+0x1ec>
				{
					temp=lcddev.width;
 8001450:	4b05      	ldr	r3, [pc, #20]	; (8001468 <LCD_Scan_Dir+0x1c8>)
 8001452:	881b      	ldrh	r3, [r3, #0]
 8001454:	817b      	strh	r3, [r7, #10]
					lcddev.width=lcddev.height;
 8001456:	4b04      	ldr	r3, [pc, #16]	; (8001468 <LCD_Scan_Dir+0x1c8>)
 8001458:	885a      	ldrh	r2, [r3, #2]
 800145a:	4b03      	ldr	r3, [pc, #12]	; (8001468 <LCD_Scan_Dir+0x1c8>)
 800145c:	801a      	strh	r2, [r3, #0]
					lcddev.height=temp;
 800145e:	4a02      	ldr	r2, [pc, #8]	; (8001468 <LCD_Scan_Dir+0x1c8>)
 8001460:	897b      	ldrh	r3, [r7, #10]
 8001462:	8053      	strh	r3, [r2, #2]
 8001464:	e012      	b.n	800148c <LCD_Scan_Dir+0x1ec>
 8001466:	bf00      	nop
 8001468:	20000204 	.word	0x20000204
				}
			}else  
			{
				if(lcddev.width>lcddev.height)//交换X,Y
 800146c:	4b5a      	ldr	r3, [pc, #360]	; (80015d8 <LCD_Scan_Dir+0x338>)
 800146e:	881a      	ldrh	r2, [r3, #0]
 8001470:	4b59      	ldr	r3, [pc, #356]	; (80015d8 <LCD_Scan_Dir+0x338>)
 8001472:	885b      	ldrh	r3, [r3, #2]
 8001474:	429a      	cmp	r2, r3
 8001476:	d909      	bls.n	800148c <LCD_Scan_Dir+0x1ec>
				{
					temp=lcddev.width;
 8001478:	4b57      	ldr	r3, [pc, #348]	; (80015d8 <LCD_Scan_Dir+0x338>)
 800147a:	881b      	ldrh	r3, [r3, #0]
 800147c:	817b      	strh	r3, [r7, #10]
					lcddev.width=lcddev.height;
 800147e:	4b56      	ldr	r3, [pc, #344]	; (80015d8 <LCD_Scan_Dir+0x338>)
 8001480:	885a      	ldrh	r2, [r3, #2]
 8001482:	4b55      	ldr	r3, [pc, #340]	; (80015d8 <LCD_Scan_Dir+0x338>)
 8001484:	801a      	strh	r2, [r3, #0]
					lcddev.height=temp;
 8001486:	4a54      	ldr	r2, [pc, #336]	; (80015d8 <LCD_Scan_Dir+0x338>)
 8001488:	897b      	ldrh	r3, [r7, #10]
 800148a:	8053      	strh	r3, [r2, #2]
				}
			}  
		}
		if(lcddev.id==0X5510)
 800148c:	4b52      	ldr	r3, [pc, #328]	; (80015d8 <LCD_Scan_Dir+0x338>)
 800148e:	889b      	ldrh	r3, [r3, #4]
 8001490:	f245 5210 	movw	r2, #21776	; 0x5510
 8001494:	4293      	cmp	r3, r2
 8001496:	d162      	bne.n	800155e <LCD_Scan_Dir+0x2be>
		{
			LCD_WR_REG(lcddev.setxcmd);LCD_WR_DATA(0); 
 8001498:	4b4f      	ldr	r3, [pc, #316]	; (80015d8 <LCD_Scan_Dir+0x338>)
 800149a:	895b      	ldrh	r3, [r3, #10]
 800149c:	4618      	mov	r0, r3
 800149e:	f7ff fdab 	bl	8000ff8 <LCD_WR_REG>
 80014a2:	2000      	movs	r0, #0
 80014a4:	f7ff fdbc 	bl	8001020 <LCD_WR_DATA>
			LCD_WR_REG(lcddev.setxcmd+1);LCD_WR_DATA(0); 
 80014a8:	4b4b      	ldr	r3, [pc, #300]	; (80015d8 <LCD_Scan_Dir+0x338>)
 80014aa:	895b      	ldrh	r3, [r3, #10]
 80014ac:	3301      	adds	r3, #1
 80014ae:	b29b      	uxth	r3, r3
 80014b0:	4618      	mov	r0, r3
 80014b2:	f7ff fda1 	bl	8000ff8 <LCD_WR_REG>
 80014b6:	2000      	movs	r0, #0
 80014b8:	f7ff fdb2 	bl	8001020 <LCD_WR_DATA>
			LCD_WR_REG(lcddev.setxcmd+2);LCD_WR_DATA((lcddev.width-1)>>8); 
 80014bc:	4b46      	ldr	r3, [pc, #280]	; (80015d8 <LCD_Scan_Dir+0x338>)
 80014be:	895b      	ldrh	r3, [r3, #10]
 80014c0:	3302      	adds	r3, #2
 80014c2:	b29b      	uxth	r3, r3
 80014c4:	4618      	mov	r0, r3
 80014c6:	f7ff fd97 	bl	8000ff8 <LCD_WR_REG>
 80014ca:	4b43      	ldr	r3, [pc, #268]	; (80015d8 <LCD_Scan_Dir+0x338>)
 80014cc:	881b      	ldrh	r3, [r3, #0]
 80014ce:	3b01      	subs	r3, #1
 80014d0:	121b      	asrs	r3, r3, #8
 80014d2:	b29b      	uxth	r3, r3
 80014d4:	4618      	mov	r0, r3
 80014d6:	f7ff fda3 	bl	8001020 <LCD_WR_DATA>
			LCD_WR_REG(lcddev.setxcmd+3);LCD_WR_DATA((lcddev.width-1)&0XFF); 
 80014da:	4b3f      	ldr	r3, [pc, #252]	; (80015d8 <LCD_Scan_Dir+0x338>)
 80014dc:	895b      	ldrh	r3, [r3, #10]
 80014de:	3303      	adds	r3, #3
 80014e0:	b29b      	uxth	r3, r3
 80014e2:	4618      	mov	r0, r3
 80014e4:	f7ff fd88 	bl	8000ff8 <LCD_WR_REG>
 80014e8:	4b3b      	ldr	r3, [pc, #236]	; (80015d8 <LCD_Scan_Dir+0x338>)
 80014ea:	881b      	ldrh	r3, [r3, #0]
 80014ec:	3b01      	subs	r3, #1
 80014ee:	b29b      	uxth	r3, r3
 80014f0:	b2db      	uxtb	r3, r3
 80014f2:	b29b      	uxth	r3, r3
 80014f4:	4618      	mov	r0, r3
 80014f6:	f7ff fd93 	bl	8001020 <LCD_WR_DATA>
			LCD_WR_REG(lcddev.setycmd);LCD_WR_DATA(0); 
 80014fa:	4b37      	ldr	r3, [pc, #220]	; (80015d8 <LCD_Scan_Dir+0x338>)
 80014fc:	899b      	ldrh	r3, [r3, #12]
 80014fe:	4618      	mov	r0, r3
 8001500:	f7ff fd7a 	bl	8000ff8 <LCD_WR_REG>
 8001504:	2000      	movs	r0, #0
 8001506:	f7ff fd8b 	bl	8001020 <LCD_WR_DATA>
			LCD_WR_REG(lcddev.setycmd+1);LCD_WR_DATA(0); 
 800150a:	4b33      	ldr	r3, [pc, #204]	; (80015d8 <LCD_Scan_Dir+0x338>)
 800150c:	899b      	ldrh	r3, [r3, #12]
 800150e:	3301      	adds	r3, #1
 8001510:	b29b      	uxth	r3, r3
 8001512:	4618      	mov	r0, r3
 8001514:	f7ff fd70 	bl	8000ff8 <LCD_WR_REG>
 8001518:	2000      	movs	r0, #0
 800151a:	f7ff fd81 	bl	8001020 <LCD_WR_DATA>
			LCD_WR_REG(lcddev.setycmd+2);LCD_WR_DATA((lcddev.height-1)>>8); 
 800151e:	4b2e      	ldr	r3, [pc, #184]	; (80015d8 <LCD_Scan_Dir+0x338>)
 8001520:	899b      	ldrh	r3, [r3, #12]
 8001522:	3302      	adds	r3, #2
 8001524:	b29b      	uxth	r3, r3
 8001526:	4618      	mov	r0, r3
 8001528:	f7ff fd66 	bl	8000ff8 <LCD_WR_REG>
 800152c:	4b2a      	ldr	r3, [pc, #168]	; (80015d8 <LCD_Scan_Dir+0x338>)
 800152e:	885b      	ldrh	r3, [r3, #2]
 8001530:	3b01      	subs	r3, #1
 8001532:	121b      	asrs	r3, r3, #8
 8001534:	b29b      	uxth	r3, r3
 8001536:	4618      	mov	r0, r3
 8001538:	f7ff fd72 	bl	8001020 <LCD_WR_DATA>
			LCD_WR_REG(lcddev.setycmd+3);LCD_WR_DATA((lcddev.height-1)&0XFF);
 800153c:	4b26      	ldr	r3, [pc, #152]	; (80015d8 <LCD_Scan_Dir+0x338>)
 800153e:	899b      	ldrh	r3, [r3, #12]
 8001540:	3303      	adds	r3, #3
 8001542:	b29b      	uxth	r3, r3
 8001544:	4618      	mov	r0, r3
 8001546:	f7ff fd57 	bl	8000ff8 <LCD_WR_REG>
 800154a:	4b23      	ldr	r3, [pc, #140]	; (80015d8 <LCD_Scan_Dir+0x338>)
 800154c:	885b      	ldrh	r3, [r3, #2]
 800154e:	3b01      	subs	r3, #1
 8001550:	b29b      	uxth	r3, r3
 8001552:	b2db      	uxtb	r3, r3
 8001554:	b29b      	uxth	r3, r3
 8001556:	4618      	mov	r0, r3
 8001558:	f7ff fd62 	bl	8001020 <LCD_WR_DATA>
			LCD_WR_REG(lcddev.setycmd); 
			LCD_WR_DATA(0);LCD_WR_DATA(0);
			LCD_WR_DATA((lcddev.height-1)>>8);LCD_WR_DATA((lcddev.height-1)&0XFF);  
		}
  	} 
}     
 800155c:	e037      	b.n	80015ce <LCD_Scan_Dir+0x32e>
			LCD_WR_REG(lcddev.setxcmd); 
 800155e:	4b1e      	ldr	r3, [pc, #120]	; (80015d8 <LCD_Scan_Dir+0x338>)
 8001560:	895b      	ldrh	r3, [r3, #10]
 8001562:	4618      	mov	r0, r3
 8001564:	f7ff fd48 	bl	8000ff8 <LCD_WR_REG>
			LCD_WR_DATA(0);LCD_WR_DATA(0);
 8001568:	2000      	movs	r0, #0
 800156a:	f7ff fd59 	bl	8001020 <LCD_WR_DATA>
 800156e:	2000      	movs	r0, #0
 8001570:	f7ff fd56 	bl	8001020 <LCD_WR_DATA>
			LCD_WR_DATA((lcddev.width-1)>>8);LCD_WR_DATA((lcddev.width-1)&0XFF);
 8001574:	4b18      	ldr	r3, [pc, #96]	; (80015d8 <LCD_Scan_Dir+0x338>)
 8001576:	881b      	ldrh	r3, [r3, #0]
 8001578:	3b01      	subs	r3, #1
 800157a:	121b      	asrs	r3, r3, #8
 800157c:	b29b      	uxth	r3, r3
 800157e:	4618      	mov	r0, r3
 8001580:	f7ff fd4e 	bl	8001020 <LCD_WR_DATA>
 8001584:	4b14      	ldr	r3, [pc, #80]	; (80015d8 <LCD_Scan_Dir+0x338>)
 8001586:	881b      	ldrh	r3, [r3, #0]
 8001588:	3b01      	subs	r3, #1
 800158a:	b29b      	uxth	r3, r3
 800158c:	b2db      	uxtb	r3, r3
 800158e:	b29b      	uxth	r3, r3
 8001590:	4618      	mov	r0, r3
 8001592:	f7ff fd45 	bl	8001020 <LCD_WR_DATA>
			LCD_WR_REG(lcddev.setycmd); 
 8001596:	4b10      	ldr	r3, [pc, #64]	; (80015d8 <LCD_Scan_Dir+0x338>)
 8001598:	899b      	ldrh	r3, [r3, #12]
 800159a:	4618      	mov	r0, r3
 800159c:	f7ff fd2c 	bl	8000ff8 <LCD_WR_REG>
			LCD_WR_DATA(0);LCD_WR_DATA(0);
 80015a0:	2000      	movs	r0, #0
 80015a2:	f7ff fd3d 	bl	8001020 <LCD_WR_DATA>
 80015a6:	2000      	movs	r0, #0
 80015a8:	f7ff fd3a 	bl	8001020 <LCD_WR_DATA>
			LCD_WR_DATA((lcddev.height-1)>>8);LCD_WR_DATA((lcddev.height-1)&0XFF);  
 80015ac:	4b0a      	ldr	r3, [pc, #40]	; (80015d8 <LCD_Scan_Dir+0x338>)
 80015ae:	885b      	ldrh	r3, [r3, #2]
 80015b0:	3b01      	subs	r3, #1
 80015b2:	121b      	asrs	r3, r3, #8
 80015b4:	b29b      	uxth	r3, r3
 80015b6:	4618      	mov	r0, r3
 80015b8:	f7ff fd32 	bl	8001020 <LCD_WR_DATA>
 80015bc:	4b06      	ldr	r3, [pc, #24]	; (80015d8 <LCD_Scan_Dir+0x338>)
 80015be:	885b      	ldrh	r3, [r3, #2]
 80015c0:	3b01      	subs	r3, #1
 80015c2:	b29b      	uxth	r3, r3
 80015c4:	b2db      	uxtb	r3, r3
 80015c6:	b29b      	uxth	r3, r3
 80015c8:	4618      	mov	r0, r3
 80015ca:	f7ff fd29 	bl	8001020 <LCD_WR_DATA>
}     
 80015ce:	bf00      	nop
 80015d0:	3710      	adds	r7, #16
 80015d2:	46bd      	mov	sp, r7
 80015d4:	bd80      	pop	{r7, pc}
 80015d6:	bf00      	nop
 80015d8:	20000204 	.word	0x20000204

080015dc <LCD_Fast_DrawPoint>:
}
//快速画点
//x,y:坐标
//color:颜色
void LCD_Fast_DrawPoint(uint16_t x,uint16_t y,uint32_t color)
{	   
 80015dc:	b580      	push	{r7, lr}
 80015de:	b082      	sub	sp, #8
 80015e0:	af00      	add	r7, sp, #0
 80015e2:	4603      	mov	r3, r0
 80015e4:	603a      	str	r2, [r7, #0]
 80015e6:	80fb      	strh	r3, [r7, #6]
 80015e8:	460b      	mov	r3, r1
 80015ea:	80bb      	strh	r3, [r7, #4]
	if(lcddev.id==0X9341||lcddev.id==0X5310)
 80015ec:	4b85      	ldr	r3, [pc, #532]	; (8001804 <LCD_Fast_DrawPoint+0x228>)
 80015ee:	889b      	ldrh	r3, [r3, #4]
 80015f0:	f249 3241 	movw	r2, #37697	; 0x9341
 80015f4:	4293      	cmp	r3, r2
 80015f6:	d005      	beq.n	8001604 <LCD_Fast_DrawPoint+0x28>
 80015f8:	4b82      	ldr	r3, [pc, #520]	; (8001804 <LCD_Fast_DrawPoint+0x228>)
 80015fa:	889b      	ldrh	r3, [r3, #4]
 80015fc:	f245 3210 	movw	r2, #21264	; 0x5310
 8001600:	4293      	cmp	r3, r2
 8001602:	d122      	bne.n	800164a <LCD_Fast_DrawPoint+0x6e>
	{
		LCD_WR_REG(lcddev.setxcmd); 
 8001604:	4b7f      	ldr	r3, [pc, #508]	; (8001804 <LCD_Fast_DrawPoint+0x228>)
 8001606:	895b      	ldrh	r3, [r3, #10]
 8001608:	4618      	mov	r0, r3
 800160a:	f7ff fcf5 	bl	8000ff8 <LCD_WR_REG>
		LCD_WR_DATA(x>>8);LCD_WR_DATA(x&0XFF);  			 
 800160e:	88fb      	ldrh	r3, [r7, #6]
 8001610:	0a1b      	lsrs	r3, r3, #8
 8001612:	b29b      	uxth	r3, r3
 8001614:	4618      	mov	r0, r3
 8001616:	f7ff fd03 	bl	8001020 <LCD_WR_DATA>
 800161a:	88fb      	ldrh	r3, [r7, #6]
 800161c:	b2db      	uxtb	r3, r3
 800161e:	b29b      	uxth	r3, r3
 8001620:	4618      	mov	r0, r3
 8001622:	f7ff fcfd 	bl	8001020 <LCD_WR_DATA>
		LCD_WR_REG(lcddev.setycmd); 
 8001626:	4b77      	ldr	r3, [pc, #476]	; (8001804 <LCD_Fast_DrawPoint+0x228>)
 8001628:	899b      	ldrh	r3, [r3, #12]
 800162a:	4618      	mov	r0, r3
 800162c:	f7ff fce4 	bl	8000ff8 <LCD_WR_REG>
		LCD_WR_DATA(y>>8);LCD_WR_DATA(y&0XFF); 		 	 
 8001630:	88bb      	ldrh	r3, [r7, #4]
 8001632:	0a1b      	lsrs	r3, r3, #8
 8001634:	b29b      	uxth	r3, r3
 8001636:	4618      	mov	r0, r3
 8001638:	f7ff fcf2 	bl	8001020 <LCD_WR_DATA>
 800163c:	88bb      	ldrh	r3, [r7, #4]
 800163e:	b2db      	uxtb	r3, r3
 8001640:	b29b      	uxth	r3, r3
 8001642:	4618      	mov	r0, r3
 8001644:	f7ff fcec 	bl	8001020 <LCD_WR_DATA>
 8001648:	e0cf      	b.n	80017ea <LCD_Fast_DrawPoint+0x20e>
	}else if(lcddev.id==0X5510)
 800164a:	4b6e      	ldr	r3, [pc, #440]	; (8001804 <LCD_Fast_DrawPoint+0x228>)
 800164c:	889b      	ldrh	r3, [r3, #4]
 800164e:	f245 5210 	movw	r2, #21776	; 0x5510
 8001652:	4293      	cmp	r3, r2
 8001654:	d130      	bne.n	80016b8 <LCD_Fast_DrawPoint+0xdc>
	{
		LCD_WR_REG(lcddev.setxcmd);LCD_WR_DATA(x>>8);  
 8001656:	4b6b      	ldr	r3, [pc, #428]	; (8001804 <LCD_Fast_DrawPoint+0x228>)
 8001658:	895b      	ldrh	r3, [r3, #10]
 800165a:	4618      	mov	r0, r3
 800165c:	f7ff fccc 	bl	8000ff8 <LCD_WR_REG>
 8001660:	88fb      	ldrh	r3, [r7, #6]
 8001662:	0a1b      	lsrs	r3, r3, #8
 8001664:	b29b      	uxth	r3, r3
 8001666:	4618      	mov	r0, r3
 8001668:	f7ff fcda 	bl	8001020 <LCD_WR_DATA>
		LCD_WR_REG(lcddev.setxcmd+1);LCD_WR_DATA(x&0XFF);	  
 800166c:	4b65      	ldr	r3, [pc, #404]	; (8001804 <LCD_Fast_DrawPoint+0x228>)
 800166e:	895b      	ldrh	r3, [r3, #10]
 8001670:	3301      	adds	r3, #1
 8001672:	b29b      	uxth	r3, r3
 8001674:	4618      	mov	r0, r3
 8001676:	f7ff fcbf 	bl	8000ff8 <LCD_WR_REG>
 800167a:	88fb      	ldrh	r3, [r7, #6]
 800167c:	b2db      	uxtb	r3, r3
 800167e:	b29b      	uxth	r3, r3
 8001680:	4618      	mov	r0, r3
 8001682:	f7ff fccd 	bl	8001020 <LCD_WR_DATA>
		LCD_WR_REG(lcddev.setycmd);LCD_WR_DATA(y>>8);  
 8001686:	4b5f      	ldr	r3, [pc, #380]	; (8001804 <LCD_Fast_DrawPoint+0x228>)
 8001688:	899b      	ldrh	r3, [r3, #12]
 800168a:	4618      	mov	r0, r3
 800168c:	f7ff fcb4 	bl	8000ff8 <LCD_WR_REG>
 8001690:	88bb      	ldrh	r3, [r7, #4]
 8001692:	0a1b      	lsrs	r3, r3, #8
 8001694:	b29b      	uxth	r3, r3
 8001696:	4618      	mov	r0, r3
 8001698:	f7ff fcc2 	bl	8001020 <LCD_WR_DATA>
		LCD_WR_REG(lcddev.setycmd+1);LCD_WR_DATA(y&0XFF); 
 800169c:	4b59      	ldr	r3, [pc, #356]	; (8001804 <LCD_Fast_DrawPoint+0x228>)
 800169e:	899b      	ldrh	r3, [r3, #12]
 80016a0:	3301      	adds	r3, #1
 80016a2:	b29b      	uxth	r3, r3
 80016a4:	4618      	mov	r0, r3
 80016a6:	f7ff fca7 	bl	8000ff8 <LCD_WR_REG>
 80016aa:	88bb      	ldrh	r3, [r7, #4]
 80016ac:	b2db      	uxtb	r3, r3
 80016ae:	b29b      	uxth	r3, r3
 80016b0:	4618      	mov	r0, r3
 80016b2:	f7ff fcb5 	bl	8001020 <LCD_WR_DATA>
 80016b6:	e098      	b.n	80017ea <LCD_Fast_DrawPoint+0x20e>
	}else if(lcddev.id==0X1963)
 80016b8:	4b52      	ldr	r3, [pc, #328]	; (8001804 <LCD_Fast_DrawPoint+0x228>)
 80016ba:	889b      	ldrh	r3, [r3, #4]
 80016bc:	f641 1263 	movw	r2, #6499	; 0x1963
 80016c0:	4293      	cmp	r3, r2
 80016c2:	d145      	bne.n	8001750 <LCD_Fast_DrawPoint+0x174>
	{
		if(lcddev.dir==0)x=lcddev.width-1-x;
 80016c4:	4b4f      	ldr	r3, [pc, #316]	; (8001804 <LCD_Fast_DrawPoint+0x228>)
 80016c6:	799b      	ldrb	r3, [r3, #6]
 80016c8:	2b00      	cmp	r3, #0
 80016ca:	d106      	bne.n	80016da <LCD_Fast_DrawPoint+0xfe>
 80016cc:	4b4d      	ldr	r3, [pc, #308]	; (8001804 <LCD_Fast_DrawPoint+0x228>)
 80016ce:	881a      	ldrh	r2, [r3, #0]
 80016d0:	88fb      	ldrh	r3, [r7, #6]
 80016d2:	1ad3      	subs	r3, r2, r3
 80016d4:	b29b      	uxth	r3, r3
 80016d6:	3b01      	subs	r3, #1
 80016d8:	80fb      	strh	r3, [r7, #6]
		LCD_WR_REG(lcddev.setxcmd); 
 80016da:	4b4a      	ldr	r3, [pc, #296]	; (8001804 <LCD_Fast_DrawPoint+0x228>)
 80016dc:	895b      	ldrh	r3, [r3, #10]
 80016de:	4618      	mov	r0, r3
 80016e0:	f7ff fc8a 	bl	8000ff8 <LCD_WR_REG>
		LCD_WR_DATA(x>>8);LCD_WR_DATA(x&0XFF); 		
 80016e4:	88fb      	ldrh	r3, [r7, #6]
 80016e6:	0a1b      	lsrs	r3, r3, #8
 80016e8:	b29b      	uxth	r3, r3
 80016ea:	4618      	mov	r0, r3
 80016ec:	f7ff fc98 	bl	8001020 <LCD_WR_DATA>
 80016f0:	88fb      	ldrh	r3, [r7, #6]
 80016f2:	b2db      	uxtb	r3, r3
 80016f4:	b29b      	uxth	r3, r3
 80016f6:	4618      	mov	r0, r3
 80016f8:	f7ff fc92 	bl	8001020 <LCD_WR_DATA>
		LCD_WR_DATA(x>>8);LCD_WR_DATA(x&0XFF); 		
 80016fc:	88fb      	ldrh	r3, [r7, #6]
 80016fe:	0a1b      	lsrs	r3, r3, #8
 8001700:	b29b      	uxth	r3, r3
 8001702:	4618      	mov	r0, r3
 8001704:	f7ff fc8c 	bl	8001020 <LCD_WR_DATA>
 8001708:	88fb      	ldrh	r3, [r7, #6]
 800170a:	b2db      	uxtb	r3, r3
 800170c:	b29b      	uxth	r3, r3
 800170e:	4618      	mov	r0, r3
 8001710:	f7ff fc86 	bl	8001020 <LCD_WR_DATA>
		LCD_WR_REG(lcddev.setycmd); 
 8001714:	4b3b      	ldr	r3, [pc, #236]	; (8001804 <LCD_Fast_DrawPoint+0x228>)
 8001716:	899b      	ldrh	r3, [r3, #12]
 8001718:	4618      	mov	r0, r3
 800171a:	f7ff fc6d 	bl	8000ff8 <LCD_WR_REG>
		LCD_WR_DATA(y>>8);LCD_WR_DATA(y&0XFF); 		
 800171e:	88bb      	ldrh	r3, [r7, #4]
 8001720:	0a1b      	lsrs	r3, r3, #8
 8001722:	b29b      	uxth	r3, r3
 8001724:	4618      	mov	r0, r3
 8001726:	f7ff fc7b 	bl	8001020 <LCD_WR_DATA>
 800172a:	88bb      	ldrh	r3, [r7, #4]
 800172c:	b2db      	uxtb	r3, r3
 800172e:	b29b      	uxth	r3, r3
 8001730:	4618      	mov	r0, r3
 8001732:	f7ff fc75 	bl	8001020 <LCD_WR_DATA>
		LCD_WR_DATA(y>>8);LCD_WR_DATA(y&0XFF); 		
 8001736:	88bb      	ldrh	r3, [r7, #4]
 8001738:	0a1b      	lsrs	r3, r3, #8
 800173a:	b29b      	uxth	r3, r3
 800173c:	4618      	mov	r0, r3
 800173e:	f7ff fc6f 	bl	8001020 <LCD_WR_DATA>
 8001742:	88bb      	ldrh	r3, [r7, #4]
 8001744:	b2db      	uxtb	r3, r3
 8001746:	b29b      	uxth	r3, r3
 8001748:	4618      	mov	r0, r3
 800174a:	f7ff fc69 	bl	8001020 <LCD_WR_DATA>
 800174e:	e04c      	b.n	80017ea <LCD_Fast_DrawPoint+0x20e>
	}else if(lcddev.id==0X6804)
 8001750:	4b2c      	ldr	r3, [pc, #176]	; (8001804 <LCD_Fast_DrawPoint+0x228>)
 8001752:	889b      	ldrh	r3, [r3, #4]
 8001754:	f646 0204 	movw	r2, #26628	; 0x6804
 8001758:	4293      	cmp	r3, r2
 800175a:	d12d      	bne.n	80017b8 <LCD_Fast_DrawPoint+0x1dc>
	{		    
		if(lcddev.dir==1)x=lcddev.width-1-x;//横屏时处理
 800175c:	4b29      	ldr	r3, [pc, #164]	; (8001804 <LCD_Fast_DrawPoint+0x228>)
 800175e:	799b      	ldrb	r3, [r3, #6]
 8001760:	2b01      	cmp	r3, #1
 8001762:	d106      	bne.n	8001772 <LCD_Fast_DrawPoint+0x196>
 8001764:	4b27      	ldr	r3, [pc, #156]	; (8001804 <LCD_Fast_DrawPoint+0x228>)
 8001766:	881a      	ldrh	r2, [r3, #0]
 8001768:	88fb      	ldrh	r3, [r7, #6]
 800176a:	1ad3      	subs	r3, r2, r3
 800176c:	b29b      	uxth	r3, r3
 800176e:	3b01      	subs	r3, #1
 8001770:	80fb      	strh	r3, [r7, #6]
		LCD_WR_REG(lcddev.setxcmd); 
 8001772:	4b24      	ldr	r3, [pc, #144]	; (8001804 <LCD_Fast_DrawPoint+0x228>)
 8001774:	895b      	ldrh	r3, [r3, #10]
 8001776:	4618      	mov	r0, r3
 8001778:	f7ff fc3e 	bl	8000ff8 <LCD_WR_REG>
		LCD_WR_DATA(x>>8);LCD_WR_DATA(x&0XFF);			 
 800177c:	88fb      	ldrh	r3, [r7, #6]
 800177e:	0a1b      	lsrs	r3, r3, #8
 8001780:	b29b      	uxth	r3, r3
 8001782:	4618      	mov	r0, r3
 8001784:	f7ff fc4c 	bl	8001020 <LCD_WR_DATA>
 8001788:	88fb      	ldrh	r3, [r7, #6]
 800178a:	b2db      	uxtb	r3, r3
 800178c:	b29b      	uxth	r3, r3
 800178e:	4618      	mov	r0, r3
 8001790:	f7ff fc46 	bl	8001020 <LCD_WR_DATA>
		LCD_WR_REG(lcddev.setycmd); 
 8001794:	4b1b      	ldr	r3, [pc, #108]	; (8001804 <LCD_Fast_DrawPoint+0x228>)
 8001796:	899b      	ldrh	r3, [r3, #12]
 8001798:	4618      	mov	r0, r3
 800179a:	f7ff fc2d 	bl	8000ff8 <LCD_WR_REG>
		LCD_WR_DATA(y>>8);LCD_WR_DATA(y&0XFF); 		
 800179e:	88bb      	ldrh	r3, [r7, #4]
 80017a0:	0a1b      	lsrs	r3, r3, #8
 80017a2:	b29b      	uxth	r3, r3
 80017a4:	4618      	mov	r0, r3
 80017a6:	f7ff fc3b 	bl	8001020 <LCD_WR_DATA>
 80017aa:	88bb      	ldrh	r3, [r7, #4]
 80017ac:	b2db      	uxtb	r3, r3
 80017ae:	b29b      	uxth	r3, r3
 80017b0:	4618      	mov	r0, r3
 80017b2:	f7ff fc35 	bl	8001020 <LCD_WR_DATA>
 80017b6:	e018      	b.n	80017ea <LCD_Fast_DrawPoint+0x20e>
	}else
	{
 		if(lcddev.dir==1)x=lcddev.width-1-x;//横屏其实就是调转x,y坐标
 80017b8:	4b12      	ldr	r3, [pc, #72]	; (8001804 <LCD_Fast_DrawPoint+0x228>)
 80017ba:	799b      	ldrb	r3, [r3, #6]
 80017bc:	2b01      	cmp	r3, #1
 80017be:	d106      	bne.n	80017ce <LCD_Fast_DrawPoint+0x1f2>
 80017c0:	4b10      	ldr	r3, [pc, #64]	; (8001804 <LCD_Fast_DrawPoint+0x228>)
 80017c2:	881a      	ldrh	r2, [r3, #0]
 80017c4:	88fb      	ldrh	r3, [r7, #6]
 80017c6:	1ad3      	subs	r3, r2, r3
 80017c8:	b29b      	uxth	r3, r3
 80017ca:	3b01      	subs	r3, #1
 80017cc:	80fb      	strh	r3, [r7, #6]
		LCD_WriteReg(lcddev.setxcmd,x);
 80017ce:	4b0d      	ldr	r3, [pc, #52]	; (8001804 <LCD_Fast_DrawPoint+0x228>)
 80017d0:	895b      	ldrh	r3, [r3, #10]
 80017d2:	88fa      	ldrh	r2, [r7, #6]
 80017d4:	4611      	mov	r1, r2
 80017d6:	4618      	mov	r0, r3
 80017d8:	f7ff fc48 	bl	800106c <LCD_WriteReg>
		LCD_WriteReg(lcddev.setycmd,y);
 80017dc:	4b09      	ldr	r3, [pc, #36]	; (8001804 <LCD_Fast_DrawPoint+0x228>)
 80017de:	899b      	ldrh	r3, [r3, #12]
 80017e0:	88ba      	ldrh	r2, [r7, #4]
 80017e2:	4611      	mov	r1, r2
 80017e4:	4618      	mov	r0, r3
 80017e6:	f7ff fc41 	bl	800106c <LCD_WriteReg>
	}			 
	TFT_LCD->LCD_REG=lcddev.wramcmd; 
 80017ea:	4b07      	ldr	r3, [pc, #28]	; (8001808 <LCD_Fast_DrawPoint+0x22c>)
 80017ec:	4a05      	ldr	r2, [pc, #20]	; (8001804 <LCD_Fast_DrawPoint+0x228>)
 80017ee:	8912      	ldrh	r2, [r2, #8]
 80017f0:	801a      	strh	r2, [r3, #0]
	TFT_LCD->LCD_RAM=color; 
 80017f2:	4b05      	ldr	r3, [pc, #20]	; (8001808 <LCD_Fast_DrawPoint+0x22c>)
 80017f4:	683a      	ldr	r2, [r7, #0]
 80017f6:	b292      	uxth	r2, r2
 80017f8:	805a      	strh	r2, [r3, #2]
}	 
 80017fa:	bf00      	nop
 80017fc:	3708      	adds	r7, #8
 80017fe:	46bd      	mov	sp, r7
 8001800:	bd80      	pop	{r7, pc}
 8001802:	bf00      	nop
 8001804:	20000204 	.word	0x20000204
 8001808:	6c00007e 	.word	0x6c00007e
 800180c:	00000000 	.word	0x00000000

08001810 <LCD_SSD_BackLightSet>:
//SSD1963 背光设置
//pwm:背光等级,0~100.越大越亮.
void LCD_SSD_BackLightSet(uint8_t pwm)
{	
 8001810:	b580      	push	{r7, lr}
 8001812:	b082      	sub	sp, #8
 8001814:	af00      	add	r7, sp, #0
 8001816:	4603      	mov	r3, r0
 8001818:	71fb      	strb	r3, [r7, #7]
	LCD_WR_REG(0xBE);	//配置PWM输出
 800181a:	20be      	movs	r0, #190	; 0xbe
 800181c:	f7ff fbec 	bl	8000ff8 <LCD_WR_REG>
	LCD_WR_DATA(0x05);	//1设置PWM频率
 8001820:	2005      	movs	r0, #5
 8001822:	f7ff fbfd 	bl	8001020 <LCD_WR_DATA>
	LCD_WR_DATA(pwm*2.55);//2设置PWM占空比
 8001826:	79fb      	ldrb	r3, [r7, #7]
 8001828:	4618      	mov	r0, r3
 800182a:	f7fe fe7b 	bl	8000524 <__aeabi_i2d>
 800182e:	a310      	add	r3, pc, #64	; (adr r3, 8001870 <LCD_SSD_BackLightSet+0x60>)
 8001830:	e9d3 2300 	ldrd	r2, r3, [r3]
 8001834:	f7fe fee0 	bl	80005f8 <__aeabi_dmul>
 8001838:	4602      	mov	r2, r0
 800183a:	460b      	mov	r3, r1
 800183c:	4610      	mov	r0, r2
 800183e:	4619      	mov	r1, r3
 8001840:	f7ff f9b2 	bl	8000ba8 <__aeabi_d2uiz>
 8001844:	4603      	mov	r3, r0
 8001846:	b29b      	uxth	r3, r3
 8001848:	4618      	mov	r0, r3
 800184a:	f7ff fbe9 	bl	8001020 <LCD_WR_DATA>
	LCD_WR_DATA(0x01);	//3设置C
 800184e:	2001      	movs	r0, #1
 8001850:	f7ff fbe6 	bl	8001020 <LCD_WR_DATA>
	LCD_WR_DATA(0xFF);	//4设置D
 8001854:	20ff      	movs	r0, #255	; 0xff
 8001856:	f7ff fbe3 	bl	8001020 <LCD_WR_DATA>
	LCD_WR_DATA(0x00);	//5设置E
 800185a:	2000      	movs	r0, #0
 800185c:	f7ff fbe0 	bl	8001020 <LCD_WR_DATA>
	LCD_WR_DATA(0x00);	//6设置F
 8001860:	2000      	movs	r0, #0
 8001862:	f7ff fbdd 	bl	8001020 <LCD_WR_DATA>
}
 8001866:	bf00      	nop
 8001868:	3708      	adds	r7, #8
 800186a:	46bd      	mov	sp, r7
 800186c:	bd80      	pop	{r7, pc}
 800186e:	bf00      	nop
 8001870:	66666666 	.word	0x66666666
 8001874:	40046666 	.word	0x40046666

08001878 <LCD_Display_Dir>:

//设置LCD显示方向
//dir:0,竖屏；1,横屏
void LCD_Display_Dir(uint8_t dir)
{
 8001878:	b580      	push	{r7, lr}
 800187a:	b082      	sub	sp, #8
 800187c:	af00      	add	r7, sp, #0
 800187e:	4603      	mov	r3, r0
 8001880:	71fb      	strb	r3, [r7, #7]
	lcddev.dir=dir;		//竖屏/横屏 
 8001882:	4a64      	ldr	r2, [pc, #400]	; (8001a14 <LCD_Display_Dir+0x19c>)
 8001884:	79fb      	ldrb	r3, [r7, #7]
 8001886:	7193      	strb	r3, [r2, #6]
	if(dir==0)			//竖屏
 8001888:	79fb      	ldrb	r3, [r7, #7]
 800188a:	2b00      	cmp	r3, #0
 800188c:	d15e      	bne.n	800194c <LCD_Display_Dir+0xd4>
	{
		lcddev.width=240;
 800188e:	4b61      	ldr	r3, [pc, #388]	; (8001a14 <LCD_Display_Dir+0x19c>)
 8001890:	22f0      	movs	r2, #240	; 0xf0
 8001892:	801a      	strh	r2, [r3, #0]
		lcddev.height=320;
 8001894:	4b5f      	ldr	r3, [pc, #380]	; (8001a14 <LCD_Display_Dir+0x19c>)
 8001896:	f44f 72a0 	mov.w	r2, #320	; 0x140
 800189a:	805a      	strh	r2, [r3, #2]
		if(lcddev.id==0X9341||lcddev.id==0X5310)
 800189c:	4b5d      	ldr	r3, [pc, #372]	; (8001a14 <LCD_Display_Dir+0x19c>)
 800189e:	889b      	ldrh	r3, [r3, #4]
 80018a0:	f249 3241 	movw	r2, #37697	; 0x9341
 80018a4:	4293      	cmp	r3, r2
 80018a6:	d005      	beq.n	80018b4 <LCD_Display_Dir+0x3c>
 80018a8:	4b5a      	ldr	r3, [pc, #360]	; (8001a14 <LCD_Display_Dir+0x19c>)
 80018aa:	889b      	ldrh	r3, [r3, #4]
 80018ac:	f245 3210 	movw	r2, #21264	; 0x5310
 80018b0:	4293      	cmp	r3, r2
 80018b2:	d118      	bne.n	80018e6 <LCD_Display_Dir+0x6e>
		{
			lcddev.wramcmd=0X2C;
 80018b4:	4b57      	ldr	r3, [pc, #348]	; (8001a14 <LCD_Display_Dir+0x19c>)
 80018b6:	222c      	movs	r2, #44	; 0x2c
 80018b8:	811a      	strh	r2, [r3, #8]
	 		lcddev.setxcmd=0X2A;
 80018ba:	4b56      	ldr	r3, [pc, #344]	; (8001a14 <LCD_Display_Dir+0x19c>)
 80018bc:	222a      	movs	r2, #42	; 0x2a
 80018be:	815a      	strh	r2, [r3, #10]
			lcddev.setycmd=0X2B;  	 
 80018c0:	4b54      	ldr	r3, [pc, #336]	; (8001a14 <LCD_Display_Dir+0x19c>)
 80018c2:	222b      	movs	r2, #43	; 0x2b
 80018c4:	819a      	strh	r2, [r3, #12]
			if(lcddev.id==0X5310)
 80018c6:	4b53      	ldr	r3, [pc, #332]	; (8001a14 <LCD_Display_Dir+0x19c>)
 80018c8:	889b      	ldrh	r3, [r3, #4]
 80018ca:	f245 3210 	movw	r2, #21264	; 0x5310
 80018ce:	4293      	cmp	r3, r2
 80018d0:	f040 8099 	bne.w	8001a06 <LCD_Display_Dir+0x18e>
			{
				lcddev.width=320;
 80018d4:	4b4f      	ldr	r3, [pc, #316]	; (8001a14 <LCD_Display_Dir+0x19c>)
 80018d6:	f44f 72a0 	mov.w	r2, #320	; 0x140
 80018da:	801a      	strh	r2, [r3, #0]
				lcddev.height=480;
 80018dc:	4b4d      	ldr	r3, [pc, #308]	; (8001a14 <LCD_Display_Dir+0x19c>)
 80018de:	f44f 72f0 	mov.w	r2, #480	; 0x1e0
 80018e2:	805a      	strh	r2, [r3, #2]
			if(lcddev.id==0X5310)
 80018e4:	e08f      	b.n	8001a06 <LCD_Display_Dir+0x18e>
			}
		}else if(lcddev.id==0x5510)
 80018e6:	4b4b      	ldr	r3, [pc, #300]	; (8001a14 <LCD_Display_Dir+0x19c>)
 80018e8:	889b      	ldrh	r3, [r3, #4]
 80018ea:	f245 5210 	movw	r2, #21776	; 0x5510
 80018ee:	4293      	cmp	r3, r2
 80018f0:	d114      	bne.n	800191c <LCD_Display_Dir+0xa4>
		{
			lcddev.wramcmd=0X2C00;
 80018f2:	4b48      	ldr	r3, [pc, #288]	; (8001a14 <LCD_Display_Dir+0x19c>)
 80018f4:	f44f 5230 	mov.w	r2, #11264	; 0x2c00
 80018f8:	811a      	strh	r2, [r3, #8]
	 		lcddev.setxcmd=0X2A00;
 80018fa:	4b46      	ldr	r3, [pc, #280]	; (8001a14 <LCD_Display_Dir+0x19c>)
 80018fc:	f44f 5228 	mov.w	r2, #10752	; 0x2a00
 8001900:	815a      	strh	r2, [r3, #10]
			lcddev.setycmd=0X2B00; 
 8001902:	4b44      	ldr	r3, [pc, #272]	; (8001a14 <LCD_Display_Dir+0x19c>)
 8001904:	f44f 522c 	mov.w	r2, #11008	; 0x2b00
 8001908:	819a      	strh	r2, [r3, #12]
			lcddev.width=480;
 800190a:	4b42      	ldr	r3, [pc, #264]	; (8001a14 <LCD_Display_Dir+0x19c>)
 800190c:	f44f 72f0 	mov.w	r2, #480	; 0x1e0
 8001910:	801a      	strh	r2, [r3, #0]
			lcddev.height=800;
 8001912:	4b40      	ldr	r3, [pc, #256]	; (8001a14 <LCD_Display_Dir+0x19c>)
 8001914:	f44f 7248 	mov.w	r2, #800	; 0x320
 8001918:	805a      	strh	r2, [r3, #2]
 800191a:	e074      	b.n	8001a06 <LCD_Display_Dir+0x18e>
		}else if(lcddev.id==0X1963)
 800191c:	4b3d      	ldr	r3, [pc, #244]	; (8001a14 <LCD_Display_Dir+0x19c>)
 800191e:	889b      	ldrh	r3, [r3, #4]
 8001920:	f641 1263 	movw	r2, #6499	; 0x1963
 8001924:	4293      	cmp	r3, r2
 8001926:	d16e      	bne.n	8001a06 <LCD_Display_Dir+0x18e>
		{
			lcddev.wramcmd=0X2C;	//设置写入GRAM的指令 
 8001928:	4b3a      	ldr	r3, [pc, #232]	; (8001a14 <LCD_Display_Dir+0x19c>)
 800192a:	222c      	movs	r2, #44	; 0x2c
 800192c:	811a      	strh	r2, [r3, #8]
			lcddev.setxcmd=0X2B;	//设置写X坐标指令
 800192e:	4b39      	ldr	r3, [pc, #228]	; (8001a14 <LCD_Display_Dir+0x19c>)
 8001930:	222b      	movs	r2, #43	; 0x2b
 8001932:	815a      	strh	r2, [r3, #10]
			lcddev.setycmd=0X2A;	//设置写Y坐标指令
 8001934:	4b37      	ldr	r3, [pc, #220]	; (8001a14 <LCD_Display_Dir+0x19c>)
 8001936:	222a      	movs	r2, #42	; 0x2a
 8001938:	819a      	strh	r2, [r3, #12]
			lcddev.width=480;		//设置宽度480
 800193a:	4b36      	ldr	r3, [pc, #216]	; (8001a14 <LCD_Display_Dir+0x19c>)
 800193c:	f44f 72f0 	mov.w	r2, #480	; 0x1e0
 8001940:	801a      	strh	r2, [r3, #0]
			lcddev.height=800;		//设置高度800  
 8001942:	4b34      	ldr	r3, [pc, #208]	; (8001a14 <LCD_Display_Dir+0x19c>)
 8001944:	f44f 7248 	mov.w	r2, #800	; 0x320
 8001948:	805a      	strh	r2, [r3, #2]
 800194a:	e05c      	b.n	8001a06 <LCD_Display_Dir+0x18e>
		}
	}else 				//横屏
	{	  				 
		lcddev.width=320;
 800194c:	4b31      	ldr	r3, [pc, #196]	; (8001a14 <LCD_Display_Dir+0x19c>)
 800194e:	f44f 72a0 	mov.w	r2, #320	; 0x140
 8001952:	801a      	strh	r2, [r3, #0]
		lcddev.height=240;
 8001954:	4b2f      	ldr	r3, [pc, #188]	; (8001a14 <LCD_Display_Dir+0x19c>)
 8001956:	22f0      	movs	r2, #240	; 0xf0
 8001958:	805a      	strh	r2, [r3, #2]
		if(lcddev.id==0X9341||lcddev.id==0X5310)
 800195a:	4b2e      	ldr	r3, [pc, #184]	; (8001a14 <LCD_Display_Dir+0x19c>)
 800195c:	889b      	ldrh	r3, [r3, #4]
 800195e:	f249 3241 	movw	r2, #37697	; 0x9341
 8001962:	4293      	cmp	r3, r2
 8001964:	d005      	beq.n	8001972 <LCD_Display_Dir+0xfa>
 8001966:	4b2b      	ldr	r3, [pc, #172]	; (8001a14 <LCD_Display_Dir+0x19c>)
 8001968:	889b      	ldrh	r3, [r3, #4]
 800196a:	f245 3210 	movw	r2, #21264	; 0x5310
 800196e:	4293      	cmp	r3, r2
 8001970:	d109      	bne.n	8001986 <LCD_Display_Dir+0x10e>
		{
			lcddev.wramcmd=0X2C;
 8001972:	4b28      	ldr	r3, [pc, #160]	; (8001a14 <LCD_Display_Dir+0x19c>)
 8001974:	222c      	movs	r2, #44	; 0x2c
 8001976:	811a      	strh	r2, [r3, #8]
	 		lcddev.setxcmd=0X2A;
 8001978:	4b26      	ldr	r3, [pc, #152]	; (8001a14 <LCD_Display_Dir+0x19c>)
 800197a:	222a      	movs	r2, #42	; 0x2a
 800197c:	815a      	strh	r2, [r3, #10]
			lcddev.setycmd=0X2B;  	 
 800197e:	4b25      	ldr	r3, [pc, #148]	; (8001a14 <LCD_Display_Dir+0x19c>)
 8001980:	222b      	movs	r2, #43	; 0x2b
 8001982:	819a      	strh	r2, [r3, #12]
 8001984:	e031      	b.n	80019ea <LCD_Display_Dir+0x172>
		}else if(lcddev.id==0x5510)
 8001986:	4b23      	ldr	r3, [pc, #140]	; (8001a14 <LCD_Display_Dir+0x19c>)
 8001988:	889b      	ldrh	r3, [r3, #4]
 800198a:	f245 5210 	movw	r2, #21776	; 0x5510
 800198e:	4293      	cmp	r3, r2
 8001990:	d114      	bne.n	80019bc <LCD_Display_Dir+0x144>
		{
			lcddev.wramcmd=0X2C00;
 8001992:	4b20      	ldr	r3, [pc, #128]	; (8001a14 <LCD_Display_Dir+0x19c>)
 8001994:	f44f 5230 	mov.w	r2, #11264	; 0x2c00
 8001998:	811a      	strh	r2, [r3, #8]
	 		lcddev.setxcmd=0X2A00;
 800199a:	4b1e      	ldr	r3, [pc, #120]	; (8001a14 <LCD_Display_Dir+0x19c>)
 800199c:	f44f 5228 	mov.w	r2, #10752	; 0x2a00
 80019a0:	815a      	strh	r2, [r3, #10]
			lcddev.setycmd=0X2B00; 
 80019a2:	4b1c      	ldr	r3, [pc, #112]	; (8001a14 <LCD_Display_Dir+0x19c>)
 80019a4:	f44f 522c 	mov.w	r2, #11008	; 0x2b00
 80019a8:	819a      	strh	r2, [r3, #12]
			lcddev.width=800;
 80019aa:	4b1a      	ldr	r3, [pc, #104]	; (8001a14 <LCD_Display_Dir+0x19c>)
 80019ac:	f44f 7248 	mov.w	r2, #800	; 0x320
 80019b0:	801a      	strh	r2, [r3, #0]
			lcddev.height=480;
 80019b2:	4b18      	ldr	r3, [pc, #96]	; (8001a14 <LCD_Display_Dir+0x19c>)
 80019b4:	f44f 72f0 	mov.w	r2, #480	; 0x1e0
 80019b8:	805a      	strh	r2, [r3, #2]
 80019ba:	e016      	b.n	80019ea <LCD_Display_Dir+0x172>
		}else if(lcddev.id==0X1963)
 80019bc:	4b15      	ldr	r3, [pc, #84]	; (8001a14 <LCD_Display_Dir+0x19c>)
 80019be:	889b      	ldrh	r3, [r3, #4]
 80019c0:	f641 1263 	movw	r2, #6499	; 0x1963
 80019c4:	4293      	cmp	r3, r2
 80019c6:	d110      	bne.n	80019ea <LCD_Display_Dir+0x172>
		{
			lcddev.wramcmd=0X2C;	//设置写入GRAM的指令 
 80019c8:	4b12      	ldr	r3, [pc, #72]	; (8001a14 <LCD_Display_Dir+0x19c>)
 80019ca:	222c      	movs	r2, #44	; 0x2c
 80019cc:	811a      	strh	r2, [r3, #8]
			lcddev.setxcmd=0X2A;	//设置写X坐标指令
 80019ce:	4b11      	ldr	r3, [pc, #68]	; (8001a14 <LCD_Display_Dir+0x19c>)
 80019d0:	222a      	movs	r2, #42	; 0x2a
 80019d2:	815a      	strh	r2, [r3, #10]
			lcddev.setycmd=0X2B;	//设置写Y坐标指令
 80019d4:	4b0f      	ldr	r3, [pc, #60]	; (8001a14 <LCD_Display_Dir+0x19c>)
 80019d6:	222b      	movs	r2, #43	; 0x2b
 80019d8:	819a      	strh	r2, [r3, #12]
			lcddev.width=800;		//设置宽度800
 80019da:	4b0e      	ldr	r3, [pc, #56]	; (8001a14 <LCD_Display_Dir+0x19c>)
 80019dc:	f44f 7248 	mov.w	r2, #800	; 0x320
 80019e0:	801a      	strh	r2, [r3, #0]
			lcddev.height=480;		//设置高度480  
 80019e2:	4b0c      	ldr	r3, [pc, #48]	; (8001a14 <LCD_Display_Dir+0x19c>)
 80019e4:	f44f 72f0 	mov.w	r2, #480	; 0x1e0
 80019e8:	805a      	strh	r2, [r3, #2]
		}
		if(lcddev.id==0X5310)
 80019ea:	4b0a      	ldr	r3, [pc, #40]	; (8001a14 <LCD_Display_Dir+0x19c>)
 80019ec:	889b      	ldrh	r3, [r3, #4]
 80019ee:	f245 3210 	movw	r2, #21264	; 0x5310
 80019f2:	4293      	cmp	r3, r2
 80019f4:	d107      	bne.n	8001a06 <LCD_Display_Dir+0x18e>
		{ 	 
			lcddev.width=480;
 80019f6:	4b07      	ldr	r3, [pc, #28]	; (8001a14 <LCD_Display_Dir+0x19c>)
 80019f8:	f44f 72f0 	mov.w	r2, #480	; 0x1e0
 80019fc:	801a      	strh	r2, [r3, #0]
			lcddev.height=320; 			
 80019fe:	4b05      	ldr	r3, [pc, #20]	; (8001a14 <LCD_Display_Dir+0x19c>)
 8001a00:	f44f 72a0 	mov.w	r2, #320	; 0x140
 8001a04:	805a      	strh	r2, [r3, #2]
		}
	} 
	LCD_Scan_Dir(DFT_SCAN_DIR);	//默认扫描方向
 8001a06:	2000      	movs	r0, #0
 8001a08:	f7ff fc4a 	bl	80012a0 <LCD_Scan_Dir>
}	 
 8001a0c:	bf00      	nop
 8001a0e:	3708      	adds	r7, #8
 8001a10:	46bd      	mov	sp, r7
 8001a12:	bd80      	pop	{r7, pc}
 8001a14:	20000204 	.word	0x20000204

08001a18 <TFTLCD_Init>:

        
//初始化lcd
//该初始化函数可以初始化各种型号的LCD(详见本.c文件最前面的描述)
void TFTLCD_Init(void)
{ 	  
 8001a18:	b580      	push	{r7, lr}
 8001a1a:	af00      	add	r7, sp, #0
	HAL_Delay(50); // delay 50 ms 
 8001a1c:	2032      	movs	r0, #50	; 0x32
 8001a1e:	f003 fa0b 	bl	8004e38 <HAL_Delay>
	
	//尝试9341 ID的读取		
	LCD_WR_REG(0XD3);				   
 8001a22:	20d3      	movs	r0, #211	; 0xd3
 8001a24:	f7ff fae8 	bl	8000ff8 <LCD_WR_REG>
	lcddev.id=LCD_RD_DATA();	//dummy read 	
 8001a28:	f7ff fb0e 	bl	8001048 <LCD_RD_DATA>
 8001a2c:	4603      	mov	r3, r0
 8001a2e:	461a      	mov	r2, r3
 8001a30:	4b5e      	ldr	r3, [pc, #376]	; (8001bac <TFTLCD_Init+0x194>)
 8001a32:	809a      	strh	r2, [r3, #4]
	lcddev.id=LCD_RD_DATA();	//读到0X00
 8001a34:	f7ff fb08 	bl	8001048 <LCD_RD_DATA>
 8001a38:	4603      	mov	r3, r0
 8001a3a:	461a      	mov	r2, r3
 8001a3c:	4b5b      	ldr	r3, [pc, #364]	; (8001bac <TFTLCD_Init+0x194>)
 8001a3e:	809a      	strh	r2, [r3, #4]
	lcddev.id=LCD_RD_DATA();   	//读取93								   
 8001a40:	f7ff fb02 	bl	8001048 <LCD_RD_DATA>
 8001a44:	4603      	mov	r3, r0
 8001a46:	461a      	mov	r2, r3
 8001a48:	4b58      	ldr	r3, [pc, #352]	; (8001bac <TFTLCD_Init+0x194>)
 8001a4a:	809a      	strh	r2, [r3, #4]
	lcddev.id<<=8;
 8001a4c:	4b57      	ldr	r3, [pc, #348]	; (8001bac <TFTLCD_Init+0x194>)
 8001a4e:	889b      	ldrh	r3, [r3, #4]
 8001a50:	021b      	lsls	r3, r3, #8
 8001a52:	b29a      	uxth	r2, r3
 8001a54:	4b55      	ldr	r3, [pc, #340]	; (8001bac <TFTLCD_Init+0x194>)
 8001a56:	809a      	strh	r2, [r3, #4]
	lcddev.id|=LCD_RD_DATA();  	//读取41 	   			   
 8001a58:	f7ff faf6 	bl	8001048 <LCD_RD_DATA>
 8001a5c:	4603      	mov	r3, r0
 8001a5e:	461a      	mov	r2, r3
 8001a60:	4b52      	ldr	r3, [pc, #328]	; (8001bac <TFTLCD_Init+0x194>)
 8001a62:	889b      	ldrh	r3, [r3, #4]
 8001a64:	4313      	orrs	r3, r2
 8001a66:	b29a      	uxth	r2, r3
 8001a68:	4b50      	ldr	r3, [pc, #320]	; (8001bac <TFTLCD_Init+0x194>)
 8001a6a:	809a      	strh	r2, [r3, #4]
	if(lcddev.id!=0X9341)		//非9341,尝试看看是不是NT35310
 8001a6c:	4b4f      	ldr	r3, [pc, #316]	; (8001bac <TFTLCD_Init+0x194>)
 8001a6e:	889b      	ldrh	r3, [r3, #4]
 8001a70:	f249 3241 	movw	r2, #37697	; 0x9341
 8001a74:	4293      	cmp	r3, r2
 8001a76:	f000 808b 	beq.w	8001b90 <TFTLCD_Init+0x178>
	{	 
		LCD_WR_REG(0XD4);				   
 8001a7a:	20d4      	movs	r0, #212	; 0xd4
 8001a7c:	f7ff fabc 	bl	8000ff8 <LCD_WR_REG>
		lcddev.id=LCD_RD_DATA();//dummy read  
 8001a80:	f7ff fae2 	bl	8001048 <LCD_RD_DATA>
 8001a84:	4603      	mov	r3, r0
 8001a86:	461a      	mov	r2, r3
 8001a88:	4b48      	ldr	r3, [pc, #288]	; (8001bac <TFTLCD_Init+0x194>)
 8001a8a:	809a      	strh	r2, [r3, #4]
		lcddev.id=LCD_RD_DATA();//读回0X01	 
 8001a8c:	f7ff fadc 	bl	8001048 <LCD_RD_DATA>
 8001a90:	4603      	mov	r3, r0
 8001a92:	461a      	mov	r2, r3
 8001a94:	4b45      	ldr	r3, [pc, #276]	; (8001bac <TFTLCD_Init+0x194>)
 8001a96:	809a      	strh	r2, [r3, #4]
		lcddev.id=LCD_RD_DATA();//读回0X53	
 8001a98:	f7ff fad6 	bl	8001048 <LCD_RD_DATA>
 8001a9c:	4603      	mov	r3, r0
 8001a9e:	461a      	mov	r2, r3
 8001aa0:	4b42      	ldr	r3, [pc, #264]	; (8001bac <TFTLCD_Init+0x194>)
 8001aa2:	809a      	strh	r2, [r3, #4]
		lcddev.id<<=8;	 
 8001aa4:	4b41      	ldr	r3, [pc, #260]	; (8001bac <TFTLCD_Init+0x194>)
 8001aa6:	889b      	ldrh	r3, [r3, #4]
 8001aa8:	021b      	lsls	r3, r3, #8
 8001aaa:	b29a      	uxth	r2, r3
 8001aac:	4b3f      	ldr	r3, [pc, #252]	; (8001bac <TFTLCD_Init+0x194>)
 8001aae:	809a      	strh	r2, [r3, #4]
		lcddev.id|=LCD_RD_DATA();	//这里读回0X10	 
 8001ab0:	f7ff faca 	bl	8001048 <LCD_RD_DATA>
 8001ab4:	4603      	mov	r3, r0
 8001ab6:	461a      	mov	r2, r3
 8001ab8:	4b3c      	ldr	r3, [pc, #240]	; (8001bac <TFTLCD_Init+0x194>)
 8001aba:	889b      	ldrh	r3, [r3, #4]
 8001abc:	4313      	orrs	r3, r2
 8001abe:	b29a      	uxth	r2, r3
 8001ac0:	4b3a      	ldr	r3, [pc, #232]	; (8001bac <TFTLCD_Init+0x194>)
 8001ac2:	809a      	strh	r2, [r3, #4]
		if(lcddev.id!=0X5310)		//也不是NT35310,尝试看看是不是NT35510
 8001ac4:	4b39      	ldr	r3, [pc, #228]	; (8001bac <TFTLCD_Init+0x194>)
 8001ac6:	889b      	ldrh	r3, [r3, #4]
 8001ac8:	f245 3210 	movw	r2, #21264	; 0x5310
 8001acc:	4293      	cmp	r3, r2
 8001ace:	d05f      	beq.n	8001b90 <TFTLCD_Init+0x178>
		{
			LCD_WR_REG(0XDA00);	
 8001ad0:	f44f 405a 	mov.w	r0, #55808	; 0xda00
 8001ad4:	f7ff fa90 	bl	8000ff8 <LCD_WR_REG>
			lcddev.id=LCD_RD_DATA();		//读回0X00	 
 8001ad8:	f7ff fab6 	bl	8001048 <LCD_RD_DATA>
 8001adc:	4603      	mov	r3, r0
 8001ade:	461a      	mov	r2, r3
 8001ae0:	4b32      	ldr	r3, [pc, #200]	; (8001bac <TFTLCD_Init+0x194>)
 8001ae2:	809a      	strh	r2, [r3, #4]
			LCD_WR_REG(0XDB00);	
 8001ae4:	f44f 405b 	mov.w	r0, #56064	; 0xdb00
 8001ae8:	f7ff fa86 	bl	8000ff8 <LCD_WR_REG>
			lcddev.id=LCD_RD_DATA();		//读回0X80
 8001aec:	f7ff faac 	bl	8001048 <LCD_RD_DATA>
 8001af0:	4603      	mov	r3, r0
 8001af2:	461a      	mov	r2, r3
 8001af4:	4b2d      	ldr	r3, [pc, #180]	; (8001bac <TFTLCD_Init+0x194>)
 8001af6:	809a      	strh	r2, [r3, #4]
			lcddev.id<<=8;	
 8001af8:	4b2c      	ldr	r3, [pc, #176]	; (8001bac <TFTLCD_Init+0x194>)
 8001afa:	889b      	ldrh	r3, [r3, #4]
 8001afc:	021b      	lsls	r3, r3, #8
 8001afe:	b29a      	uxth	r2, r3
 8001b00:	4b2a      	ldr	r3, [pc, #168]	; (8001bac <TFTLCD_Init+0x194>)
 8001b02:	809a      	strh	r2, [r3, #4]
			LCD_WR_REG(0XDC00);	
 8001b04:	f44f 405c 	mov.w	r0, #56320	; 0xdc00
 8001b08:	f7ff fa76 	bl	8000ff8 <LCD_WR_REG>
			lcddev.id|=LCD_RD_DATA();		//读回0X00		
 8001b0c:	f7ff fa9c 	bl	8001048 <LCD_RD_DATA>
 8001b10:	4603      	mov	r3, r0
 8001b12:	461a      	mov	r2, r3
 8001b14:	4b25      	ldr	r3, [pc, #148]	; (8001bac <TFTLCD_Init+0x194>)
 8001b16:	889b      	ldrh	r3, [r3, #4]
 8001b18:	4313      	orrs	r3, r2
 8001b1a:	b29a      	uxth	r2, r3
 8001b1c:	4b23      	ldr	r3, [pc, #140]	; (8001bac <TFTLCD_Init+0x194>)
 8001b1e:	809a      	strh	r2, [r3, #4]
			if(lcddev.id==0x8000)lcddev.id=0x5510;//NT35510读回的ID是8000H,为方便区分,我们强制设置为5510
 8001b20:	4b22      	ldr	r3, [pc, #136]	; (8001bac <TFTLCD_Init+0x194>)
 8001b22:	889b      	ldrh	r3, [r3, #4]
 8001b24:	f5b3 4f00 	cmp.w	r3, #32768	; 0x8000
 8001b28:	d103      	bne.n	8001b32 <TFTLCD_Init+0x11a>
 8001b2a:	4b20      	ldr	r3, [pc, #128]	; (8001bac <TFTLCD_Init+0x194>)
 8001b2c:	f245 5210 	movw	r2, #21776	; 0x5510
 8001b30:	809a      	strh	r2, [r3, #4]
			if(lcddev.id!=0X5510)			//也不是NT5510,尝试看看是不是SSD1963
 8001b32:	4b1e      	ldr	r3, [pc, #120]	; (8001bac <TFTLCD_Init+0x194>)
 8001b34:	889b      	ldrh	r3, [r3, #4]
 8001b36:	f245 5210 	movw	r2, #21776	; 0x5510
 8001b3a:	4293      	cmp	r3, r2
 8001b3c:	d028      	beq.n	8001b90 <TFTLCD_Init+0x178>
			{
				LCD_WR_REG(0XA1);
 8001b3e:	20a1      	movs	r0, #161	; 0xa1
 8001b40:	f7ff fa5a 	bl	8000ff8 <LCD_WR_REG>
				lcddev.id=LCD_RD_DATA();
 8001b44:	f7ff fa80 	bl	8001048 <LCD_RD_DATA>
 8001b48:	4603      	mov	r3, r0
 8001b4a:	461a      	mov	r2, r3
 8001b4c:	4b17      	ldr	r3, [pc, #92]	; (8001bac <TFTLCD_Init+0x194>)
 8001b4e:	809a      	strh	r2, [r3, #4]
				lcddev.id=LCD_RD_DATA();	//读回0X57
 8001b50:	f7ff fa7a 	bl	8001048 <LCD_RD_DATA>
 8001b54:	4603      	mov	r3, r0
 8001b56:	461a      	mov	r2, r3
 8001b58:	4b14      	ldr	r3, [pc, #80]	; (8001bac <TFTLCD_Init+0x194>)
 8001b5a:	809a      	strh	r2, [r3, #4]
				lcddev.id<<=8;	 
 8001b5c:	4b13      	ldr	r3, [pc, #76]	; (8001bac <TFTLCD_Init+0x194>)
 8001b5e:	889b      	ldrh	r3, [r3, #4]
 8001b60:	021b      	lsls	r3, r3, #8
 8001b62:	b29a      	uxth	r2, r3
 8001b64:	4b11      	ldr	r3, [pc, #68]	; (8001bac <TFTLCD_Init+0x194>)
 8001b66:	809a      	strh	r2, [r3, #4]
				lcddev.id|=LCD_RD_DATA();	//读回0X61	
 8001b68:	f7ff fa6e 	bl	8001048 <LCD_RD_DATA>
 8001b6c:	4603      	mov	r3, r0
 8001b6e:	461a      	mov	r2, r3
 8001b70:	4b0e      	ldr	r3, [pc, #56]	; (8001bac <TFTLCD_Init+0x194>)
 8001b72:	889b      	ldrh	r3, [r3, #4]
 8001b74:	4313      	orrs	r3, r2
 8001b76:	b29a      	uxth	r2, r3
 8001b78:	4b0c      	ldr	r3, [pc, #48]	; (8001bac <TFTLCD_Init+0x194>)
 8001b7a:	809a      	strh	r2, [r3, #4]
				if(lcddev.id==0X5761)lcddev.id=0X1963;//SSD1963读回的ID是5761H,为方便区分,我们强制设置为1963
 8001b7c:	4b0b      	ldr	r3, [pc, #44]	; (8001bac <TFTLCD_Init+0x194>)
 8001b7e:	889b      	ldrh	r3, [r3, #4]
 8001b80:	f245 7261 	movw	r2, #22369	; 0x5761
 8001b84:	4293      	cmp	r3, r2
 8001b86:	d103      	bne.n	8001b90 <TFTLCD_Init+0x178>
 8001b88:	4b08      	ldr	r3, [pc, #32]	; (8001bac <TFTLCD_Init+0x194>)
 8001b8a:	f641 1263 	movw	r2, #6499	; 0x1963
 8001b8e:	809a      	strh	r2, [r3, #4]
			} 
		}
	}   
	printf(" LCD ID:%x\r\n",lcddev.id); //打印LCD ID   
 8001b90:	4b06      	ldr	r3, [pc, #24]	; (8001bac <TFTLCD_Init+0x194>)
 8001b92:	889b      	ldrh	r3, [r3, #4]
 8001b94:	4619      	mov	r1, r3
 8001b96:	4806      	ldr	r0, [pc, #24]	; (8001bb0 <TFTLCD_Init+0x198>)
 8001b98:	f005 ff4e 	bl	8007a38 <iprintf>
	if(lcddev.id==0X9341)	//9341初始化
 8001b9c:	4b03      	ldr	r3, [pc, #12]	; (8001bac <TFTLCD_Init+0x194>)
 8001b9e:	889b      	ldrh	r3, [r3, #4]
 8001ba0:	f249 3241 	movw	r2, #37697	; 0x9341
 8001ba4:	4293      	cmp	r3, r2
 8001ba6:	f040 811b 	bne.w	8001de0 <TFTLCD_Init+0x3c8>
 8001baa:	e003      	b.n	8001bb4 <TFTLCD_Init+0x19c>
 8001bac:	20000204 	.word	0x20000204
 8001bb0:	0800b758 	.word	0x0800b758
	{	 
		LCD_WR_REG(0xCF);  
 8001bb4:	20cf      	movs	r0, #207	; 0xcf
 8001bb6:	f7ff fa1f 	bl	8000ff8 <LCD_WR_REG>
		LCD_WR_DATA(0x00); 
 8001bba:	2000      	movs	r0, #0
 8001bbc:	f7ff fa30 	bl	8001020 <LCD_WR_DATA>
		LCD_WR_DATA(0xC1); 
 8001bc0:	20c1      	movs	r0, #193	; 0xc1
 8001bc2:	f7ff fa2d 	bl	8001020 <LCD_WR_DATA>
		LCD_WR_DATA(0X30); 
 8001bc6:	2030      	movs	r0, #48	; 0x30
 8001bc8:	f7ff fa2a 	bl	8001020 <LCD_WR_DATA>
		LCD_WR_REG(0xED);  
 8001bcc:	20ed      	movs	r0, #237	; 0xed
 8001bce:	f7ff fa13 	bl	8000ff8 <LCD_WR_REG>
		LCD_WR_DATA(0x64); 
 8001bd2:	2064      	movs	r0, #100	; 0x64
 8001bd4:	f7ff fa24 	bl	8001020 <LCD_WR_DATA>
		LCD_WR_DATA(0x03); 
 8001bd8:	2003      	movs	r0, #3
 8001bda:	f7ff fa21 	bl	8001020 <LCD_WR_DATA>
		LCD_WR_DATA(0X12); 
 8001bde:	2012      	movs	r0, #18
 8001be0:	f7ff fa1e 	bl	8001020 <LCD_WR_DATA>
		LCD_WR_DATA(0X81); 
 8001be4:	2081      	movs	r0, #129	; 0x81
 8001be6:	f7ff fa1b 	bl	8001020 <LCD_WR_DATA>
		LCD_WR_REG(0xE8);  
 8001bea:	20e8      	movs	r0, #232	; 0xe8
 8001bec:	f7ff fa04 	bl	8000ff8 <LCD_WR_REG>
		LCD_WR_DATA(0x85); 
 8001bf0:	2085      	movs	r0, #133	; 0x85
 8001bf2:	f7ff fa15 	bl	8001020 <LCD_WR_DATA>
		LCD_WR_DATA(0x10); 
 8001bf6:	2010      	movs	r0, #16
 8001bf8:	f7ff fa12 	bl	8001020 <LCD_WR_DATA>
		LCD_WR_DATA(0x7A); 
 8001bfc:	207a      	movs	r0, #122	; 0x7a
 8001bfe:	f7ff fa0f 	bl	8001020 <LCD_WR_DATA>
		LCD_WR_REG(0xCB);  
 8001c02:	20cb      	movs	r0, #203	; 0xcb
 8001c04:	f7ff f9f8 	bl	8000ff8 <LCD_WR_REG>
		LCD_WR_DATA(0x39); 
 8001c08:	2039      	movs	r0, #57	; 0x39
 8001c0a:	f7ff fa09 	bl	8001020 <LCD_WR_DATA>
		LCD_WR_DATA(0x2C); 
 8001c0e:	202c      	movs	r0, #44	; 0x2c
 8001c10:	f7ff fa06 	bl	8001020 <LCD_WR_DATA>
		LCD_WR_DATA(0x00); 
 8001c14:	2000      	movs	r0, #0
 8001c16:	f7ff fa03 	bl	8001020 <LCD_WR_DATA>
		LCD_WR_DATA(0x34); 
 8001c1a:	2034      	movs	r0, #52	; 0x34
 8001c1c:	f7ff fa00 	bl	8001020 <LCD_WR_DATA>
		LCD_WR_DATA(0x02); 
 8001c20:	2002      	movs	r0, #2
 8001c22:	f7ff f9fd 	bl	8001020 <LCD_WR_DATA>
		LCD_WR_REG(0xF7);  
 8001c26:	20f7      	movs	r0, #247	; 0xf7
 8001c28:	f7ff f9e6 	bl	8000ff8 <LCD_WR_REG>
		LCD_WR_DATA(0x20); 
 8001c2c:	2020      	movs	r0, #32
 8001c2e:	f7ff f9f7 	bl	8001020 <LCD_WR_DATA>
		LCD_WR_REG(0xEA);  
 8001c32:	20ea      	movs	r0, #234	; 0xea
 8001c34:	f7ff f9e0 	bl	8000ff8 <LCD_WR_REG>
		LCD_WR_DATA(0x00); 
 8001c38:	2000      	movs	r0, #0
 8001c3a:	f7ff f9f1 	bl	8001020 <LCD_WR_DATA>
		LCD_WR_DATA(0x00); 
 8001c3e:	2000      	movs	r0, #0
 8001c40:	f7ff f9ee 	bl	8001020 <LCD_WR_DATA>
		LCD_WR_REG(0xC0);    //Power control 
 8001c44:	20c0      	movs	r0, #192	; 0xc0
 8001c46:	f7ff f9d7 	bl	8000ff8 <LCD_WR_REG>
		LCD_WR_DATA(0x1B);   //VRH[5:0] 
 8001c4a:	201b      	movs	r0, #27
 8001c4c:	f7ff f9e8 	bl	8001020 <LCD_WR_DATA>
		LCD_WR_REG(0xC1);    //Power control 
 8001c50:	20c1      	movs	r0, #193	; 0xc1
 8001c52:	f7ff f9d1 	bl	8000ff8 <LCD_WR_REG>
		LCD_WR_DATA(0x01);   //SAP[2:0];BT[3:0] 
 8001c56:	2001      	movs	r0, #1
 8001c58:	f7ff f9e2 	bl	8001020 <LCD_WR_DATA>
		LCD_WR_REG(0xC5);    //VCM control 
 8001c5c:	20c5      	movs	r0, #197	; 0xc5
 8001c5e:	f7ff f9cb 	bl	8000ff8 <LCD_WR_REG>
		LCD_WR_DATA(0x30); 	 //3F
 8001c62:	2030      	movs	r0, #48	; 0x30
 8001c64:	f7ff f9dc 	bl	8001020 <LCD_WR_DATA>
		LCD_WR_DATA(0x30); 	 //3C
 8001c68:	2030      	movs	r0, #48	; 0x30
 8001c6a:	f7ff f9d9 	bl	8001020 <LCD_WR_DATA>
		LCD_WR_REG(0xC7);    //VCM control2 
 8001c6e:	20c7      	movs	r0, #199	; 0xc7
 8001c70:	f7ff f9c2 	bl	8000ff8 <LCD_WR_REG>
		LCD_WR_DATA(0XB7); 
 8001c74:	20b7      	movs	r0, #183	; 0xb7
 8001c76:	f7ff f9d3 	bl	8001020 <LCD_WR_DATA>
		LCD_WR_REG(0x36);    // Memory Access Control 
 8001c7a:	2036      	movs	r0, #54	; 0x36
 8001c7c:	f7ff f9bc 	bl	8000ff8 <LCD_WR_REG>
		LCD_WR_DATA(0x48); 
 8001c80:	2048      	movs	r0, #72	; 0x48
 8001c82:	f7ff f9cd 	bl	8001020 <LCD_WR_DATA>
		LCD_WR_REG(0x3A);   
 8001c86:	203a      	movs	r0, #58	; 0x3a
 8001c88:	f7ff f9b6 	bl	8000ff8 <LCD_WR_REG>
		LCD_WR_DATA(0x55); 
 8001c8c:	2055      	movs	r0, #85	; 0x55
 8001c8e:	f7ff f9c7 	bl	8001020 <LCD_WR_DATA>
		LCD_WR_REG(0xB1);   
 8001c92:	20b1      	movs	r0, #177	; 0xb1
 8001c94:	f7ff f9b0 	bl	8000ff8 <LCD_WR_REG>
		LCD_WR_DATA(0x00);   
 8001c98:	2000      	movs	r0, #0
 8001c9a:	f7ff f9c1 	bl	8001020 <LCD_WR_DATA>
		LCD_WR_DATA(0x1A); 
 8001c9e:	201a      	movs	r0, #26
 8001ca0:	f7ff f9be 	bl	8001020 <LCD_WR_DATA>
		LCD_WR_REG(0xB6);    // Display Function Control 
 8001ca4:	20b6      	movs	r0, #182	; 0xb6
 8001ca6:	f7ff f9a7 	bl	8000ff8 <LCD_WR_REG>
		LCD_WR_DATA(0x0A); 
 8001caa:	200a      	movs	r0, #10
 8001cac:	f7ff f9b8 	bl	8001020 <LCD_WR_DATA>
		LCD_WR_DATA(0xA2); 
 8001cb0:	20a2      	movs	r0, #162	; 0xa2
 8001cb2:	f7ff f9b5 	bl	8001020 <LCD_WR_DATA>
		LCD_WR_REG(0xF2);    // 3Gamma Function Disable 
 8001cb6:	20f2      	movs	r0, #242	; 0xf2
 8001cb8:	f7ff f99e 	bl	8000ff8 <LCD_WR_REG>
		LCD_WR_DATA(0x00); 
 8001cbc:	2000      	movs	r0, #0
 8001cbe:	f7ff f9af 	bl	8001020 <LCD_WR_DATA>
		LCD_WR_REG(0x26);    //Gamma curve selected 
 8001cc2:	2026      	movs	r0, #38	; 0x26
 8001cc4:	f7ff f998 	bl	8000ff8 <LCD_WR_REG>
		LCD_WR_DATA(0x01); 
 8001cc8:	2001      	movs	r0, #1
 8001cca:	f7ff f9a9 	bl	8001020 <LCD_WR_DATA>
		LCD_WR_REG(0xE0);    //Set Gamma 
 8001cce:	20e0      	movs	r0, #224	; 0xe0
 8001cd0:	f7ff f992 	bl	8000ff8 <LCD_WR_REG>
		LCD_WR_DATA(0x0F); 
 8001cd4:	200f      	movs	r0, #15
 8001cd6:	f7ff f9a3 	bl	8001020 <LCD_WR_DATA>
		LCD_WR_DATA(0x2A); 
 8001cda:	202a      	movs	r0, #42	; 0x2a
 8001cdc:	f7ff f9a0 	bl	8001020 <LCD_WR_DATA>
		LCD_WR_DATA(0x28); 
 8001ce0:	2028      	movs	r0, #40	; 0x28
 8001ce2:	f7ff f99d 	bl	8001020 <LCD_WR_DATA>
		LCD_WR_DATA(0x08); 
 8001ce6:	2008      	movs	r0, #8
 8001ce8:	f7ff f99a 	bl	8001020 <LCD_WR_DATA>
		LCD_WR_DATA(0x0E); 
 8001cec:	200e      	movs	r0, #14
 8001cee:	f7ff f997 	bl	8001020 <LCD_WR_DATA>
		LCD_WR_DATA(0x08); 
 8001cf2:	2008      	movs	r0, #8
 8001cf4:	f7ff f994 	bl	8001020 <LCD_WR_DATA>
		LCD_WR_DATA(0x54); 
 8001cf8:	2054      	movs	r0, #84	; 0x54
 8001cfa:	f7ff f991 	bl	8001020 <LCD_WR_DATA>
		LCD_WR_DATA(0XA9); 
 8001cfe:	20a9      	movs	r0, #169	; 0xa9
 8001d00:	f7ff f98e 	bl	8001020 <LCD_WR_DATA>
		LCD_WR_DATA(0x43); 
 8001d04:	2043      	movs	r0, #67	; 0x43
 8001d06:	f7ff f98b 	bl	8001020 <LCD_WR_DATA>
		LCD_WR_DATA(0x0A); 
 8001d0a:	200a      	movs	r0, #10
 8001d0c:	f7ff f988 	bl	8001020 <LCD_WR_DATA>
		LCD_WR_DATA(0x0F); 
 8001d10:	200f      	movs	r0, #15
 8001d12:	f7ff f985 	bl	8001020 <LCD_WR_DATA>
		LCD_WR_DATA(0x00); 
 8001d16:	2000      	movs	r0, #0
 8001d18:	f7ff f982 	bl	8001020 <LCD_WR_DATA>
		LCD_WR_DATA(0x00); 
 8001d1c:	2000      	movs	r0, #0
 8001d1e:	f7ff f97f 	bl	8001020 <LCD_WR_DATA>
		LCD_WR_DATA(0x00); 
 8001d22:	2000      	movs	r0, #0
 8001d24:	f7ff f97c 	bl	8001020 <LCD_WR_DATA>
		LCD_WR_DATA(0x00); 		 
 8001d28:	2000      	movs	r0, #0
 8001d2a:	f7ff f979 	bl	8001020 <LCD_WR_DATA>
		LCD_WR_REG(0XE1);    //Set Gamma 
 8001d2e:	20e1      	movs	r0, #225	; 0xe1
 8001d30:	f7ff f962 	bl	8000ff8 <LCD_WR_REG>
		LCD_WR_DATA(0x00); 
 8001d34:	2000      	movs	r0, #0
 8001d36:	f7ff f973 	bl	8001020 <LCD_WR_DATA>
		LCD_WR_DATA(0x15); 
 8001d3a:	2015      	movs	r0, #21
 8001d3c:	f7ff f970 	bl	8001020 <LCD_WR_DATA>
		LCD_WR_DATA(0x17); 
 8001d40:	2017      	movs	r0, #23
 8001d42:	f7ff f96d 	bl	8001020 <LCD_WR_DATA>
		LCD_WR_DATA(0x07); 
 8001d46:	2007      	movs	r0, #7
 8001d48:	f7ff f96a 	bl	8001020 <LCD_WR_DATA>
		LCD_WR_DATA(0x11); 
 8001d4c:	2011      	movs	r0, #17
 8001d4e:	f7ff f967 	bl	8001020 <LCD_WR_DATA>
		LCD_WR_DATA(0x06); 
 8001d52:	2006      	movs	r0, #6
 8001d54:	f7ff f964 	bl	8001020 <LCD_WR_DATA>
		LCD_WR_DATA(0x2B); 
 8001d58:	202b      	movs	r0, #43	; 0x2b
 8001d5a:	f7ff f961 	bl	8001020 <LCD_WR_DATA>
		LCD_WR_DATA(0x56); 
 8001d5e:	2056      	movs	r0, #86	; 0x56
 8001d60:	f7ff f95e 	bl	8001020 <LCD_WR_DATA>
		LCD_WR_DATA(0x3C); 
 8001d64:	203c      	movs	r0, #60	; 0x3c
 8001d66:	f7ff f95b 	bl	8001020 <LCD_WR_DATA>
		LCD_WR_DATA(0x05); 
 8001d6a:	2005      	movs	r0, #5
 8001d6c:	f7ff f958 	bl	8001020 <LCD_WR_DATA>
		LCD_WR_DATA(0x10); 
 8001d70:	2010      	movs	r0, #16
 8001d72:	f7ff f955 	bl	8001020 <LCD_WR_DATA>
		LCD_WR_DATA(0x0F); 
 8001d76:	200f      	movs	r0, #15
 8001d78:	f7ff f952 	bl	8001020 <LCD_WR_DATA>
		LCD_WR_DATA(0x3F); 
 8001d7c:	203f      	movs	r0, #63	; 0x3f
 8001d7e:	f7ff f94f 	bl	8001020 <LCD_WR_DATA>
		LCD_WR_DATA(0x3F); 
 8001d82:	203f      	movs	r0, #63	; 0x3f
 8001d84:	f7ff f94c 	bl	8001020 <LCD_WR_DATA>
		LCD_WR_DATA(0x0F); 
 8001d88:	200f      	movs	r0, #15
 8001d8a:	f7ff f949 	bl	8001020 <LCD_WR_DATA>
		LCD_WR_REG(0x2B); 
 8001d8e:	202b      	movs	r0, #43	; 0x2b
 8001d90:	f7ff f932 	bl	8000ff8 <LCD_WR_REG>
		LCD_WR_DATA(0x00);
 8001d94:	2000      	movs	r0, #0
 8001d96:	f7ff f943 	bl	8001020 <LCD_WR_DATA>
		LCD_WR_DATA(0x00);
 8001d9a:	2000      	movs	r0, #0
 8001d9c:	f7ff f940 	bl	8001020 <LCD_WR_DATA>
		LCD_WR_DATA(0x01);
 8001da0:	2001      	movs	r0, #1
 8001da2:	f7ff f93d 	bl	8001020 <LCD_WR_DATA>
		LCD_WR_DATA(0x3f);
 8001da6:	203f      	movs	r0, #63	; 0x3f
 8001da8:	f7ff f93a 	bl	8001020 <LCD_WR_DATA>
		LCD_WR_REG(0x2A); 
 8001dac:	202a      	movs	r0, #42	; 0x2a
 8001dae:	f7ff f923 	bl	8000ff8 <LCD_WR_REG>
		LCD_WR_DATA(0x00);
 8001db2:	2000      	movs	r0, #0
 8001db4:	f7ff f934 	bl	8001020 <LCD_WR_DATA>
		LCD_WR_DATA(0x00);
 8001db8:	2000      	movs	r0, #0
 8001dba:	f7ff f931 	bl	8001020 <LCD_WR_DATA>
		LCD_WR_DATA(0x00);
 8001dbe:	2000      	movs	r0, #0
 8001dc0:	f7ff f92e 	bl	8001020 <LCD_WR_DATA>
		LCD_WR_DATA(0xef);	 
 8001dc4:	20ef      	movs	r0, #239	; 0xef
 8001dc6:	f7ff f92b 	bl	8001020 <LCD_WR_DATA>
		LCD_WR_REG(0x11); //Exit Sleep
 8001dca:	2011      	movs	r0, #17
 8001dcc:	f7ff f914 	bl	8000ff8 <LCD_WR_REG>
		HAL_Delay(120);
 8001dd0:	2078      	movs	r0, #120	; 0x78
 8001dd2:	f003 f831 	bl	8004e38 <HAL_Delay>
		LCD_WR_REG(0x29); //display on	
 8001dd6:	2029      	movs	r0, #41	; 0x29
 8001dd8:	f7ff f90e 	bl	8000ff8 <LCD_WR_REG>
 8001ddc:	f001 bfca 	b.w	8003d74 <TFTLCD_Init+0x235c>
	}else if(lcddev.id==0x5310)
 8001de0:	4b03      	ldr	r3, [pc, #12]	; (8001df0 <TFTLCD_Init+0x3d8>)
 8001de2:	889b      	ldrh	r3, [r3, #4]
 8001de4:	f245 3210 	movw	r2, #21264	; 0x5310
 8001de8:	4293      	cmp	r3, r2
 8001dea:	f040 877c 	bne.w	8002ce6 <TFTLCD_Init+0x12ce>
 8001dee:	e001      	b.n	8001df4 <TFTLCD_Init+0x3dc>
 8001df0:	20000204 	.word	0x20000204
	{ 
		LCD_WR_REG(0xED);
 8001df4:	20ed      	movs	r0, #237	; 0xed
 8001df6:	f7ff f8ff 	bl	8000ff8 <LCD_WR_REG>
		LCD_WR_DATA(0x01);
 8001dfa:	2001      	movs	r0, #1
 8001dfc:	f7ff f910 	bl	8001020 <LCD_WR_DATA>
		LCD_WR_DATA(0xFE);
 8001e00:	20fe      	movs	r0, #254	; 0xfe
 8001e02:	f7ff f90d 	bl	8001020 <LCD_WR_DATA>

		LCD_WR_REG(0xEE);
 8001e06:	20ee      	movs	r0, #238	; 0xee
 8001e08:	f7ff f8f6 	bl	8000ff8 <LCD_WR_REG>
		LCD_WR_DATA(0xDE);
 8001e0c:	20de      	movs	r0, #222	; 0xde
 8001e0e:	f7ff f907 	bl	8001020 <LCD_WR_DATA>
		LCD_WR_DATA(0x21);
 8001e12:	2021      	movs	r0, #33	; 0x21
 8001e14:	f7ff f904 	bl	8001020 <LCD_WR_DATA>

		LCD_WR_REG(0xF1);
 8001e18:	20f1      	movs	r0, #241	; 0xf1
 8001e1a:	f7ff f8ed 	bl	8000ff8 <LCD_WR_REG>
		LCD_WR_DATA(0x01);
 8001e1e:	2001      	movs	r0, #1
 8001e20:	f7ff f8fe 	bl	8001020 <LCD_WR_DATA>
		LCD_WR_REG(0xDF);
 8001e24:	20df      	movs	r0, #223	; 0xdf
 8001e26:	f7ff f8e7 	bl	8000ff8 <LCD_WR_REG>
		LCD_WR_DATA(0x10);
 8001e2a:	2010      	movs	r0, #16
 8001e2c:	f7ff f8f8 	bl	8001020 <LCD_WR_DATA>

		//VCOMvoltage//
		LCD_WR_REG(0xC4);
 8001e30:	20c4      	movs	r0, #196	; 0xc4
 8001e32:	f7ff f8e1 	bl	8000ff8 <LCD_WR_REG>
		LCD_WR_DATA(0x8F);	  //5f
 8001e36:	208f      	movs	r0, #143	; 0x8f
 8001e38:	f7ff f8f2 	bl	8001020 <LCD_WR_DATA>

		LCD_WR_REG(0xC6);
 8001e3c:	20c6      	movs	r0, #198	; 0xc6
 8001e3e:	f7ff f8db 	bl	8000ff8 <LCD_WR_REG>
		LCD_WR_DATA(0x00);
 8001e42:	2000      	movs	r0, #0
 8001e44:	f7ff f8ec 	bl	8001020 <LCD_WR_DATA>
		LCD_WR_DATA(0xE2);
 8001e48:	20e2      	movs	r0, #226	; 0xe2
 8001e4a:	f7ff f8e9 	bl	8001020 <LCD_WR_DATA>
		LCD_WR_DATA(0xE2);
 8001e4e:	20e2      	movs	r0, #226	; 0xe2
 8001e50:	f7ff f8e6 	bl	8001020 <LCD_WR_DATA>
		LCD_WR_DATA(0xE2);
 8001e54:	20e2      	movs	r0, #226	; 0xe2
 8001e56:	f7ff f8e3 	bl	8001020 <LCD_WR_DATA>
		LCD_WR_REG(0xBF);
 8001e5a:	20bf      	movs	r0, #191	; 0xbf
 8001e5c:	f7ff f8cc 	bl	8000ff8 <LCD_WR_REG>
		LCD_WR_DATA(0xAA);
 8001e60:	20aa      	movs	r0, #170	; 0xaa
 8001e62:	f7ff f8dd 	bl	8001020 <LCD_WR_DATA>

		LCD_WR_REG(0xB0);
 8001e66:	20b0      	movs	r0, #176	; 0xb0
 8001e68:	f7ff f8c6 	bl	8000ff8 <LCD_WR_REG>
		LCD_WR_DATA(0x0D);
 8001e6c:	200d      	movs	r0, #13
 8001e6e:	f7ff f8d7 	bl	8001020 <LCD_WR_DATA>
		LCD_WR_DATA(0x00);
 8001e72:	2000      	movs	r0, #0
 8001e74:	f7ff f8d4 	bl	8001020 <LCD_WR_DATA>
		LCD_WR_DATA(0x0D);
 8001e78:	200d      	movs	r0, #13
 8001e7a:	f7ff f8d1 	bl	8001020 <LCD_WR_DATA>
		LCD_WR_DATA(0x00);
 8001e7e:	2000      	movs	r0, #0
 8001e80:	f7ff f8ce 	bl	8001020 <LCD_WR_DATA>
		LCD_WR_DATA(0x11);
 8001e84:	2011      	movs	r0, #17
 8001e86:	f7ff f8cb 	bl	8001020 <LCD_WR_DATA>
		LCD_WR_DATA(0x00);
 8001e8a:	2000      	movs	r0, #0
 8001e8c:	f7ff f8c8 	bl	8001020 <LCD_WR_DATA>
		LCD_WR_DATA(0x19);
 8001e90:	2019      	movs	r0, #25
 8001e92:	f7ff f8c5 	bl	8001020 <LCD_WR_DATA>
		LCD_WR_DATA(0x00);
 8001e96:	2000      	movs	r0, #0
 8001e98:	f7ff f8c2 	bl	8001020 <LCD_WR_DATA>
		LCD_WR_DATA(0x21);
 8001e9c:	2021      	movs	r0, #33	; 0x21
 8001e9e:	f7ff f8bf 	bl	8001020 <LCD_WR_DATA>
		LCD_WR_DATA(0x00);
 8001ea2:	2000      	movs	r0, #0
 8001ea4:	f7ff f8bc 	bl	8001020 <LCD_WR_DATA>
		LCD_WR_DATA(0x2D);
 8001ea8:	202d      	movs	r0, #45	; 0x2d
 8001eaa:	f7ff f8b9 	bl	8001020 <LCD_WR_DATA>
		LCD_WR_DATA(0x00);
 8001eae:	2000      	movs	r0, #0
 8001eb0:	f7ff f8b6 	bl	8001020 <LCD_WR_DATA>
		LCD_WR_DATA(0x3D);
 8001eb4:	203d      	movs	r0, #61	; 0x3d
 8001eb6:	f7ff f8b3 	bl	8001020 <LCD_WR_DATA>
		LCD_WR_DATA(0x00);
 8001eba:	2000      	movs	r0, #0
 8001ebc:	f7ff f8b0 	bl	8001020 <LCD_WR_DATA>
		LCD_WR_DATA(0x5D);
 8001ec0:	205d      	movs	r0, #93	; 0x5d
 8001ec2:	f7ff f8ad 	bl	8001020 <LCD_WR_DATA>
		LCD_WR_DATA(0x00);
 8001ec6:	2000      	movs	r0, #0
 8001ec8:	f7ff f8aa 	bl	8001020 <LCD_WR_DATA>
		LCD_WR_DATA(0x5D);
 8001ecc:	205d      	movs	r0, #93	; 0x5d
 8001ece:	f7ff f8a7 	bl	8001020 <LCD_WR_DATA>
		LCD_WR_DATA(0x00);
 8001ed2:	2000      	movs	r0, #0
 8001ed4:	f7ff f8a4 	bl	8001020 <LCD_WR_DATA>

		LCD_WR_REG(0xB1);
 8001ed8:	20b1      	movs	r0, #177	; 0xb1
 8001eda:	f7ff f88d 	bl	8000ff8 <LCD_WR_REG>
		LCD_WR_DATA(0x80);
 8001ede:	2080      	movs	r0, #128	; 0x80
 8001ee0:	f7ff f89e 	bl	8001020 <LCD_WR_DATA>
		LCD_WR_DATA(0x00);
 8001ee4:	2000      	movs	r0, #0
 8001ee6:	f7ff f89b 	bl	8001020 <LCD_WR_DATA>
		LCD_WR_DATA(0x8B);
 8001eea:	208b      	movs	r0, #139	; 0x8b
 8001eec:	f7ff f898 	bl	8001020 <LCD_WR_DATA>
		LCD_WR_DATA(0x00);
 8001ef0:	2000      	movs	r0, #0
 8001ef2:	f7ff f895 	bl	8001020 <LCD_WR_DATA>
		LCD_WR_DATA(0x96);
 8001ef6:	2096      	movs	r0, #150	; 0x96
 8001ef8:	f7ff f892 	bl	8001020 <LCD_WR_DATA>
		LCD_WR_DATA(0x00);
 8001efc:	2000      	movs	r0, #0
 8001efe:	f7ff f88f 	bl	8001020 <LCD_WR_DATA>

		LCD_WR_REG(0xB2);
 8001f02:	20b2      	movs	r0, #178	; 0xb2
 8001f04:	f7ff f878 	bl	8000ff8 <LCD_WR_REG>
		LCD_WR_DATA(0x00);
 8001f08:	2000      	movs	r0, #0
 8001f0a:	f7ff f889 	bl	8001020 <LCD_WR_DATA>
		LCD_WR_DATA(0x00);
 8001f0e:	2000      	movs	r0, #0
 8001f10:	f7ff f886 	bl	8001020 <LCD_WR_DATA>
		LCD_WR_DATA(0x02);
 8001f14:	2002      	movs	r0, #2
 8001f16:	f7ff f883 	bl	8001020 <LCD_WR_DATA>
		LCD_WR_DATA(0x00);
 8001f1a:	2000      	movs	r0, #0
 8001f1c:	f7ff f880 	bl	8001020 <LCD_WR_DATA>
		LCD_WR_DATA(0x03);
 8001f20:	2003      	movs	r0, #3
 8001f22:	f7ff f87d 	bl	8001020 <LCD_WR_DATA>
		LCD_WR_DATA(0x00);
 8001f26:	2000      	movs	r0, #0
 8001f28:	f7ff f87a 	bl	8001020 <LCD_WR_DATA>

		LCD_WR_REG(0xB3);
 8001f2c:	20b3      	movs	r0, #179	; 0xb3
 8001f2e:	f7ff f863 	bl	8000ff8 <LCD_WR_REG>
		LCD_WR_DATA(0x00);
 8001f32:	2000      	movs	r0, #0
 8001f34:	f7ff f874 	bl	8001020 <LCD_WR_DATA>
		LCD_WR_DATA(0x00);
 8001f38:	2000      	movs	r0, #0
 8001f3a:	f7ff f871 	bl	8001020 <LCD_WR_DATA>
		LCD_WR_DATA(0x00);
 8001f3e:	2000      	movs	r0, #0
 8001f40:	f7ff f86e 	bl	8001020 <LCD_WR_DATA>
		LCD_WR_DATA(0x00);
 8001f44:	2000      	movs	r0, #0
 8001f46:	f7ff f86b 	bl	8001020 <LCD_WR_DATA>
		LCD_WR_DATA(0x00);
 8001f4a:	2000      	movs	r0, #0
 8001f4c:	f7ff f868 	bl	8001020 <LCD_WR_DATA>
		LCD_WR_DATA(0x00);
 8001f50:	2000      	movs	r0, #0
 8001f52:	f7ff f865 	bl	8001020 <LCD_WR_DATA>
		LCD_WR_DATA(0x00);
 8001f56:	2000      	movs	r0, #0
 8001f58:	f7ff f862 	bl	8001020 <LCD_WR_DATA>
		LCD_WR_DATA(0x00);
 8001f5c:	2000      	movs	r0, #0
 8001f5e:	f7ff f85f 	bl	8001020 <LCD_WR_DATA>
		LCD_WR_DATA(0x00);
 8001f62:	2000      	movs	r0, #0
 8001f64:	f7ff f85c 	bl	8001020 <LCD_WR_DATA>
		LCD_WR_DATA(0x00);
 8001f68:	2000      	movs	r0, #0
 8001f6a:	f7ff f859 	bl	8001020 <LCD_WR_DATA>
		LCD_WR_DATA(0x00);
 8001f6e:	2000      	movs	r0, #0
 8001f70:	f7ff f856 	bl	8001020 <LCD_WR_DATA>
		LCD_WR_DATA(0x00);
 8001f74:	2000      	movs	r0, #0
 8001f76:	f7ff f853 	bl	8001020 <LCD_WR_DATA>
		LCD_WR_DATA(0x00);
 8001f7a:	2000      	movs	r0, #0
 8001f7c:	f7ff f850 	bl	8001020 <LCD_WR_DATA>
		LCD_WR_DATA(0x00);
 8001f80:	2000      	movs	r0, #0
 8001f82:	f7ff f84d 	bl	8001020 <LCD_WR_DATA>
		LCD_WR_DATA(0x00);
 8001f86:	2000      	movs	r0, #0
 8001f88:	f7ff f84a 	bl	8001020 <LCD_WR_DATA>
		LCD_WR_DATA(0x00);
 8001f8c:	2000      	movs	r0, #0
 8001f8e:	f7ff f847 	bl	8001020 <LCD_WR_DATA>
		LCD_WR_DATA(0x00);
 8001f92:	2000      	movs	r0, #0
 8001f94:	f7ff f844 	bl	8001020 <LCD_WR_DATA>
		LCD_WR_DATA(0x00);
 8001f98:	2000      	movs	r0, #0
 8001f9a:	f7ff f841 	bl	8001020 <LCD_WR_DATA>
		LCD_WR_DATA(0x00);
 8001f9e:	2000      	movs	r0, #0
 8001fa0:	f7ff f83e 	bl	8001020 <LCD_WR_DATA>
		LCD_WR_DATA(0x00);
 8001fa4:	2000      	movs	r0, #0
 8001fa6:	f7ff f83b 	bl	8001020 <LCD_WR_DATA>
		LCD_WR_DATA(0x00);
 8001faa:	2000      	movs	r0, #0
 8001fac:	f7ff f838 	bl	8001020 <LCD_WR_DATA>
		LCD_WR_DATA(0x00);
 8001fb0:	2000      	movs	r0, #0
 8001fb2:	f7ff f835 	bl	8001020 <LCD_WR_DATA>
		LCD_WR_DATA(0x00);
 8001fb6:	2000      	movs	r0, #0
 8001fb8:	f7ff f832 	bl	8001020 <LCD_WR_DATA>
		LCD_WR_DATA(0x00);
 8001fbc:	2000      	movs	r0, #0
 8001fbe:	f7ff f82f 	bl	8001020 <LCD_WR_DATA>

		LCD_WR_REG(0xB4);
 8001fc2:	20b4      	movs	r0, #180	; 0xb4
 8001fc4:	f7ff f818 	bl	8000ff8 <LCD_WR_REG>
		LCD_WR_DATA(0x8B);
 8001fc8:	208b      	movs	r0, #139	; 0x8b
 8001fca:	f7ff f829 	bl	8001020 <LCD_WR_DATA>
		LCD_WR_DATA(0x00);
 8001fce:	2000      	movs	r0, #0
 8001fd0:	f7ff f826 	bl	8001020 <LCD_WR_DATA>
		LCD_WR_DATA(0x96);
 8001fd4:	2096      	movs	r0, #150	; 0x96
 8001fd6:	f7ff f823 	bl	8001020 <LCD_WR_DATA>
		LCD_WR_DATA(0x00);
 8001fda:	2000      	movs	r0, #0
 8001fdc:	f7ff f820 	bl	8001020 <LCD_WR_DATA>
		LCD_WR_DATA(0xA1);
 8001fe0:	20a1      	movs	r0, #161	; 0xa1
 8001fe2:	f7ff f81d 	bl	8001020 <LCD_WR_DATA>
		LCD_WR_DATA(0x00);
 8001fe6:	2000      	movs	r0, #0
 8001fe8:	f7ff f81a 	bl	8001020 <LCD_WR_DATA>

		LCD_WR_REG(0xB5);
 8001fec:	20b5      	movs	r0, #181	; 0xb5
 8001fee:	f7ff f803 	bl	8000ff8 <LCD_WR_REG>
		LCD_WR_DATA(0x02);
 8001ff2:	2002      	movs	r0, #2
 8001ff4:	f7ff f814 	bl	8001020 <LCD_WR_DATA>
		LCD_WR_DATA(0x00);
 8001ff8:	2000      	movs	r0, #0
 8001ffa:	f7ff f811 	bl	8001020 <LCD_WR_DATA>
		LCD_WR_DATA(0x03);
 8001ffe:	2003      	movs	r0, #3
 8002000:	f7ff f80e 	bl	8001020 <LCD_WR_DATA>
		LCD_WR_DATA(0x00);
 8002004:	2000      	movs	r0, #0
 8002006:	f7ff f80b 	bl	8001020 <LCD_WR_DATA>
		LCD_WR_DATA(0x04);
 800200a:	2004      	movs	r0, #4
 800200c:	f7ff f808 	bl	8001020 <LCD_WR_DATA>
		LCD_WR_DATA(0x00);
 8002010:	2000      	movs	r0, #0
 8002012:	f7ff f805 	bl	8001020 <LCD_WR_DATA>

		LCD_WR_REG(0xB6);
 8002016:	20b6      	movs	r0, #182	; 0xb6
 8002018:	f7fe ffee 	bl	8000ff8 <LCD_WR_REG>
		LCD_WR_DATA(0x00);
 800201c:	2000      	movs	r0, #0
 800201e:	f7fe ffff 	bl	8001020 <LCD_WR_DATA>
		LCD_WR_DATA(0x00);
 8002022:	2000      	movs	r0, #0
 8002024:	f7fe fffc 	bl	8001020 <LCD_WR_DATA>

		LCD_WR_REG(0xB7);
 8002028:	20b7      	movs	r0, #183	; 0xb7
 800202a:	f7fe ffe5 	bl	8000ff8 <LCD_WR_REG>
		LCD_WR_DATA(0x00);
 800202e:	2000      	movs	r0, #0
 8002030:	f7fe fff6 	bl	8001020 <LCD_WR_DATA>
		LCD_WR_DATA(0x00);
 8002034:	2000      	movs	r0, #0
 8002036:	f7fe fff3 	bl	8001020 <LCD_WR_DATA>
		LCD_WR_DATA(0x3F);
 800203a:	203f      	movs	r0, #63	; 0x3f
 800203c:	f7fe fff0 	bl	8001020 <LCD_WR_DATA>
		LCD_WR_DATA(0x00);
 8002040:	2000      	movs	r0, #0
 8002042:	f7fe ffed 	bl	8001020 <LCD_WR_DATA>
		LCD_WR_DATA(0x5E);
 8002046:	205e      	movs	r0, #94	; 0x5e
 8002048:	f7fe ffea 	bl	8001020 <LCD_WR_DATA>
		LCD_WR_DATA(0x00);
 800204c:	2000      	movs	r0, #0
 800204e:	f7fe ffe7 	bl	8001020 <LCD_WR_DATA>
		LCD_WR_DATA(0x64);
 8002052:	2064      	movs	r0, #100	; 0x64
 8002054:	f7fe ffe4 	bl	8001020 <LCD_WR_DATA>
		LCD_WR_DATA(0x00);
 8002058:	2000      	movs	r0, #0
 800205a:	f7fe ffe1 	bl	8001020 <LCD_WR_DATA>
		LCD_WR_DATA(0x8C);
 800205e:	208c      	movs	r0, #140	; 0x8c
 8002060:	f7fe ffde 	bl	8001020 <LCD_WR_DATA>
		LCD_WR_DATA(0x00);
 8002064:	2000      	movs	r0, #0
 8002066:	f7fe ffdb 	bl	8001020 <LCD_WR_DATA>
		LCD_WR_DATA(0xAC);
 800206a:	20ac      	movs	r0, #172	; 0xac
 800206c:	f7fe ffd8 	bl	8001020 <LCD_WR_DATA>
		LCD_WR_DATA(0x00);
 8002070:	2000      	movs	r0, #0
 8002072:	f7fe ffd5 	bl	8001020 <LCD_WR_DATA>
		LCD_WR_DATA(0xDC);
 8002076:	20dc      	movs	r0, #220	; 0xdc
 8002078:	f7fe ffd2 	bl	8001020 <LCD_WR_DATA>
		LCD_WR_DATA(0x00);
 800207c:	2000      	movs	r0, #0
 800207e:	f7fe ffcf 	bl	8001020 <LCD_WR_DATA>
		LCD_WR_DATA(0x70);
 8002082:	2070      	movs	r0, #112	; 0x70
 8002084:	f7fe ffcc 	bl	8001020 <LCD_WR_DATA>
		LCD_WR_DATA(0x00);
 8002088:	2000      	movs	r0, #0
 800208a:	f7fe ffc9 	bl	8001020 <LCD_WR_DATA>
		LCD_WR_DATA(0x90);
 800208e:	2090      	movs	r0, #144	; 0x90
 8002090:	f7fe ffc6 	bl	8001020 <LCD_WR_DATA>
		LCD_WR_DATA(0x00);
 8002094:	2000      	movs	r0, #0
 8002096:	f7fe ffc3 	bl	8001020 <LCD_WR_DATA>
		LCD_WR_DATA(0xEB);
 800209a:	20eb      	movs	r0, #235	; 0xeb
 800209c:	f7fe ffc0 	bl	8001020 <LCD_WR_DATA>
		LCD_WR_DATA(0x00);
 80020a0:	2000      	movs	r0, #0
 80020a2:	f7fe ffbd 	bl	8001020 <LCD_WR_DATA>
		LCD_WR_DATA(0xDC);
 80020a6:	20dc      	movs	r0, #220	; 0xdc
 80020a8:	f7fe ffba 	bl	8001020 <LCD_WR_DATA>
		LCD_WR_DATA(0x00);
 80020ac:	2000      	movs	r0, #0
 80020ae:	f7fe ffb7 	bl	8001020 <LCD_WR_DATA>

		LCD_WR_REG(0xB8);
 80020b2:	20b8      	movs	r0, #184	; 0xb8
 80020b4:	f7fe ffa0 	bl	8000ff8 <LCD_WR_REG>
		LCD_WR_DATA(0x00);
 80020b8:	2000      	movs	r0, #0
 80020ba:	f7fe ffb1 	bl	8001020 <LCD_WR_DATA>
		LCD_WR_DATA(0x00);
 80020be:	2000      	movs	r0, #0
 80020c0:	f7fe ffae 	bl	8001020 <LCD_WR_DATA>
		LCD_WR_DATA(0x00);
 80020c4:	2000      	movs	r0, #0
 80020c6:	f7fe ffab 	bl	8001020 <LCD_WR_DATA>
		LCD_WR_DATA(0x00);
 80020ca:	2000      	movs	r0, #0
 80020cc:	f7fe ffa8 	bl	8001020 <LCD_WR_DATA>
		LCD_WR_DATA(0x00);
 80020d0:	2000      	movs	r0, #0
 80020d2:	f7fe ffa5 	bl	8001020 <LCD_WR_DATA>
		LCD_WR_DATA(0x00);
 80020d6:	2000      	movs	r0, #0
 80020d8:	f7fe ffa2 	bl	8001020 <LCD_WR_DATA>
		LCD_WR_DATA(0x00);
 80020dc:	2000      	movs	r0, #0
 80020de:	f7fe ff9f 	bl	8001020 <LCD_WR_DATA>
		LCD_WR_DATA(0x00);
 80020e2:	2000      	movs	r0, #0
 80020e4:	f7fe ff9c 	bl	8001020 <LCD_WR_DATA>

		LCD_WR_REG(0xBA);
 80020e8:	20ba      	movs	r0, #186	; 0xba
 80020ea:	f7fe ff85 	bl	8000ff8 <LCD_WR_REG>
		LCD_WR_DATA(0x24);
 80020ee:	2024      	movs	r0, #36	; 0x24
 80020f0:	f7fe ff96 	bl	8001020 <LCD_WR_DATA>
		LCD_WR_DATA(0x00);
 80020f4:	2000      	movs	r0, #0
 80020f6:	f7fe ff93 	bl	8001020 <LCD_WR_DATA>
		LCD_WR_DATA(0x00);
 80020fa:	2000      	movs	r0, #0
 80020fc:	f7fe ff90 	bl	8001020 <LCD_WR_DATA>
		LCD_WR_DATA(0x00);
 8002100:	2000      	movs	r0, #0
 8002102:	f7fe ff8d 	bl	8001020 <LCD_WR_DATA>

		LCD_WR_REG(0xC1);
 8002106:	20c1      	movs	r0, #193	; 0xc1
 8002108:	f7fe ff76 	bl	8000ff8 <LCD_WR_REG>
		LCD_WR_DATA(0x20);
 800210c:	2020      	movs	r0, #32
 800210e:	f7fe ff87 	bl	8001020 <LCD_WR_DATA>
		LCD_WR_DATA(0x00);
 8002112:	2000      	movs	r0, #0
 8002114:	f7fe ff84 	bl	8001020 <LCD_WR_DATA>
		LCD_WR_DATA(0x54);
 8002118:	2054      	movs	r0, #84	; 0x54
 800211a:	f7fe ff81 	bl	8001020 <LCD_WR_DATA>
		LCD_WR_DATA(0x00);
 800211e:	2000      	movs	r0, #0
 8002120:	f7fe ff7e 	bl	8001020 <LCD_WR_DATA>
		LCD_WR_DATA(0xFF);
 8002124:	20ff      	movs	r0, #255	; 0xff
 8002126:	f7fe ff7b 	bl	8001020 <LCD_WR_DATA>
		LCD_WR_DATA(0x00);
 800212a:	2000      	movs	r0, #0
 800212c:	f7fe ff78 	bl	8001020 <LCD_WR_DATA>

		LCD_WR_REG(0xC2);
 8002130:	20c2      	movs	r0, #194	; 0xc2
 8002132:	f7fe ff61 	bl	8000ff8 <LCD_WR_REG>
		LCD_WR_DATA(0x0A);
 8002136:	200a      	movs	r0, #10
 8002138:	f7fe ff72 	bl	8001020 <LCD_WR_DATA>
		LCD_WR_DATA(0x00);
 800213c:	2000      	movs	r0, #0
 800213e:	f7fe ff6f 	bl	8001020 <LCD_WR_DATA>
		LCD_WR_DATA(0x04);
 8002142:	2004      	movs	r0, #4
 8002144:	f7fe ff6c 	bl	8001020 <LCD_WR_DATA>
		LCD_WR_DATA(0x00);
 8002148:	2000      	movs	r0, #0
 800214a:	f7fe ff69 	bl	8001020 <LCD_WR_DATA>

		LCD_WR_REG(0xC3);
 800214e:	20c3      	movs	r0, #195	; 0xc3
 8002150:	f7fe ff52 	bl	8000ff8 <LCD_WR_REG>
		LCD_WR_DATA(0x3C);
 8002154:	203c      	movs	r0, #60	; 0x3c
 8002156:	f7fe ff63 	bl	8001020 <LCD_WR_DATA>
		LCD_WR_DATA(0x00);
 800215a:	2000      	movs	r0, #0
 800215c:	f7fe ff60 	bl	8001020 <LCD_WR_DATA>
		LCD_WR_DATA(0x3A);
 8002160:	203a      	movs	r0, #58	; 0x3a
 8002162:	f7fe ff5d 	bl	8001020 <LCD_WR_DATA>
		LCD_WR_DATA(0x00);
 8002166:	2000      	movs	r0, #0
 8002168:	f7fe ff5a 	bl	8001020 <LCD_WR_DATA>
		LCD_WR_DATA(0x39);
 800216c:	2039      	movs	r0, #57	; 0x39
 800216e:	f7fe ff57 	bl	8001020 <LCD_WR_DATA>
		LCD_WR_DATA(0x00);
 8002172:	2000      	movs	r0, #0
 8002174:	f7fe ff54 	bl	8001020 <LCD_WR_DATA>
		LCD_WR_DATA(0x37);
 8002178:	2037      	movs	r0, #55	; 0x37
 800217a:	f7fe ff51 	bl	8001020 <LCD_WR_DATA>
		LCD_WR_DATA(0x00);
 800217e:	2000      	movs	r0, #0
 8002180:	f7fe ff4e 	bl	8001020 <LCD_WR_DATA>
		LCD_WR_DATA(0x3C);
 8002184:	203c      	movs	r0, #60	; 0x3c
 8002186:	f7fe ff4b 	bl	8001020 <LCD_WR_DATA>
		LCD_WR_DATA(0x00);
 800218a:	2000      	movs	r0, #0
 800218c:	f7fe ff48 	bl	8001020 <LCD_WR_DATA>
		LCD_WR_DATA(0x36);
 8002190:	2036      	movs	r0, #54	; 0x36
 8002192:	f7fe ff45 	bl	8001020 <LCD_WR_DATA>
		LCD_WR_DATA(0x00);
 8002196:	2000      	movs	r0, #0
 8002198:	f7fe ff42 	bl	8001020 <LCD_WR_DATA>
		LCD_WR_DATA(0x32);
 800219c:	2032      	movs	r0, #50	; 0x32
 800219e:	f7fe ff3f 	bl	8001020 <LCD_WR_DATA>
		LCD_WR_DATA(0x00);
 80021a2:	2000      	movs	r0, #0
 80021a4:	f7fe ff3c 	bl	8001020 <LCD_WR_DATA>
		LCD_WR_DATA(0x2F);
 80021a8:	202f      	movs	r0, #47	; 0x2f
 80021aa:	f7fe ff39 	bl	8001020 <LCD_WR_DATA>
		LCD_WR_DATA(0x00);
 80021ae:	2000      	movs	r0, #0
 80021b0:	f7fe ff36 	bl	8001020 <LCD_WR_DATA>
		LCD_WR_DATA(0x2C);
 80021b4:	202c      	movs	r0, #44	; 0x2c
 80021b6:	f7fe ff33 	bl	8001020 <LCD_WR_DATA>
		LCD_WR_DATA(0x00);
 80021ba:	2000      	movs	r0, #0
 80021bc:	f7fe ff30 	bl	8001020 <LCD_WR_DATA>
		LCD_WR_DATA(0x29);
 80021c0:	2029      	movs	r0, #41	; 0x29
 80021c2:	f7fe ff2d 	bl	8001020 <LCD_WR_DATA>
		LCD_WR_DATA(0x00);
 80021c6:	2000      	movs	r0, #0
 80021c8:	f7fe ff2a 	bl	8001020 <LCD_WR_DATA>
		LCD_WR_DATA(0x26);
 80021cc:	2026      	movs	r0, #38	; 0x26
 80021ce:	f7fe ff27 	bl	8001020 <LCD_WR_DATA>
		LCD_WR_DATA(0x00);
 80021d2:	2000      	movs	r0, #0
 80021d4:	f7fe ff24 	bl	8001020 <LCD_WR_DATA>
		LCD_WR_DATA(0x24);
 80021d8:	2024      	movs	r0, #36	; 0x24
 80021da:	f7fe ff21 	bl	8001020 <LCD_WR_DATA>
		LCD_WR_DATA(0x00);
 80021de:	2000      	movs	r0, #0
 80021e0:	f7fe ff1e 	bl	8001020 <LCD_WR_DATA>
		LCD_WR_DATA(0x24);
 80021e4:	2024      	movs	r0, #36	; 0x24
 80021e6:	f7fe ff1b 	bl	8001020 <LCD_WR_DATA>
		LCD_WR_DATA(0x00);
 80021ea:	2000      	movs	r0, #0
 80021ec:	f7fe ff18 	bl	8001020 <LCD_WR_DATA>
		LCD_WR_DATA(0x23);
 80021f0:	2023      	movs	r0, #35	; 0x23
 80021f2:	f7fe ff15 	bl	8001020 <LCD_WR_DATA>
		LCD_WR_DATA(0x00);
 80021f6:	2000      	movs	r0, #0
 80021f8:	f7fe ff12 	bl	8001020 <LCD_WR_DATA>
		LCD_WR_DATA(0x3C);
 80021fc:	203c      	movs	r0, #60	; 0x3c
 80021fe:	f7fe ff0f 	bl	8001020 <LCD_WR_DATA>
		LCD_WR_DATA(0x00);
 8002202:	2000      	movs	r0, #0
 8002204:	f7fe ff0c 	bl	8001020 <LCD_WR_DATA>
		LCD_WR_DATA(0x36);
 8002208:	2036      	movs	r0, #54	; 0x36
 800220a:	f7fe ff09 	bl	8001020 <LCD_WR_DATA>
		LCD_WR_DATA(0x00);
 800220e:	2000      	movs	r0, #0
 8002210:	f7fe ff06 	bl	8001020 <LCD_WR_DATA>
		LCD_WR_DATA(0x32);
 8002214:	2032      	movs	r0, #50	; 0x32
 8002216:	f7fe ff03 	bl	8001020 <LCD_WR_DATA>
		LCD_WR_DATA(0x00);
 800221a:	2000      	movs	r0, #0
 800221c:	f7fe ff00 	bl	8001020 <LCD_WR_DATA>
		LCD_WR_DATA(0x2F);
 8002220:	202f      	movs	r0, #47	; 0x2f
 8002222:	f7fe fefd 	bl	8001020 <LCD_WR_DATA>
		LCD_WR_DATA(0x00);
 8002226:	2000      	movs	r0, #0
 8002228:	f7fe fefa 	bl	8001020 <LCD_WR_DATA>
		LCD_WR_DATA(0x2C);
 800222c:	202c      	movs	r0, #44	; 0x2c
 800222e:	f7fe fef7 	bl	8001020 <LCD_WR_DATA>
		LCD_WR_DATA(0x00);
 8002232:	2000      	movs	r0, #0
 8002234:	f7fe fef4 	bl	8001020 <LCD_WR_DATA>
		LCD_WR_DATA(0x29);
 8002238:	2029      	movs	r0, #41	; 0x29
 800223a:	f7fe fef1 	bl	8001020 <LCD_WR_DATA>
		LCD_WR_DATA(0x00);
 800223e:	2000      	movs	r0, #0
 8002240:	f7fe feee 	bl	8001020 <LCD_WR_DATA>
		LCD_WR_DATA(0x26);
 8002244:	2026      	movs	r0, #38	; 0x26
 8002246:	f7fe feeb 	bl	8001020 <LCD_WR_DATA>
		LCD_WR_DATA(0x00);
 800224a:	2000      	movs	r0, #0
 800224c:	f7fe fee8 	bl	8001020 <LCD_WR_DATA>
		LCD_WR_DATA(0x24);
 8002250:	2024      	movs	r0, #36	; 0x24
 8002252:	f7fe fee5 	bl	8001020 <LCD_WR_DATA>
		LCD_WR_DATA(0x00);
 8002256:	2000      	movs	r0, #0
 8002258:	f7fe fee2 	bl	8001020 <LCD_WR_DATA>
		LCD_WR_DATA(0x24);
 800225c:	2024      	movs	r0, #36	; 0x24
 800225e:	f7fe fedf 	bl	8001020 <LCD_WR_DATA>
		LCD_WR_DATA(0x00);
 8002262:	2000      	movs	r0, #0
 8002264:	f7fe fedc 	bl	8001020 <LCD_WR_DATA>
		LCD_WR_DATA(0x23);
 8002268:	2023      	movs	r0, #35	; 0x23
 800226a:	f7fe fed9 	bl	8001020 <LCD_WR_DATA>
		LCD_WR_DATA(0x00);
 800226e:	2000      	movs	r0, #0
 8002270:	f7fe fed6 	bl	8001020 <LCD_WR_DATA>

		LCD_WR_REG(0xC4);
 8002274:	20c4      	movs	r0, #196	; 0xc4
 8002276:	f7fe febf 	bl	8000ff8 <LCD_WR_REG>
		LCD_WR_DATA(0x62);
 800227a:	2062      	movs	r0, #98	; 0x62
 800227c:	f7fe fed0 	bl	8001020 <LCD_WR_DATA>
		LCD_WR_DATA(0x00);
 8002280:	2000      	movs	r0, #0
 8002282:	f7fe fecd 	bl	8001020 <LCD_WR_DATA>
		LCD_WR_DATA(0x05);
 8002286:	2005      	movs	r0, #5
 8002288:	f7fe feca 	bl	8001020 <LCD_WR_DATA>
		LCD_WR_DATA(0x00);
 800228c:	2000      	movs	r0, #0
 800228e:	f7fe fec7 	bl	8001020 <LCD_WR_DATA>
		LCD_WR_DATA(0x84);
 8002292:	2084      	movs	r0, #132	; 0x84
 8002294:	f7fe fec4 	bl	8001020 <LCD_WR_DATA>
		LCD_WR_DATA(0x00);
 8002298:	2000      	movs	r0, #0
 800229a:	f7fe fec1 	bl	8001020 <LCD_WR_DATA>
		LCD_WR_DATA(0xF0);
 800229e:	20f0      	movs	r0, #240	; 0xf0
 80022a0:	f7fe febe 	bl	8001020 <LCD_WR_DATA>
		LCD_WR_DATA(0x00);
 80022a4:	2000      	movs	r0, #0
 80022a6:	f7fe febb 	bl	8001020 <LCD_WR_DATA>
		LCD_WR_DATA(0x18);
 80022aa:	2018      	movs	r0, #24
 80022ac:	f7fe feb8 	bl	8001020 <LCD_WR_DATA>
		LCD_WR_DATA(0x00);
 80022b0:	2000      	movs	r0, #0
 80022b2:	f7fe feb5 	bl	8001020 <LCD_WR_DATA>
		LCD_WR_DATA(0xA4);
 80022b6:	20a4      	movs	r0, #164	; 0xa4
 80022b8:	f7fe feb2 	bl	8001020 <LCD_WR_DATA>
		LCD_WR_DATA(0x00);
 80022bc:	2000      	movs	r0, #0
 80022be:	f7fe feaf 	bl	8001020 <LCD_WR_DATA>
		LCD_WR_DATA(0x18);
 80022c2:	2018      	movs	r0, #24
 80022c4:	f7fe feac 	bl	8001020 <LCD_WR_DATA>
		LCD_WR_DATA(0x00);
 80022c8:	2000      	movs	r0, #0
 80022ca:	f7fe fea9 	bl	8001020 <LCD_WR_DATA>
		LCD_WR_DATA(0x50);
 80022ce:	2050      	movs	r0, #80	; 0x50
 80022d0:	f7fe fea6 	bl	8001020 <LCD_WR_DATA>
		LCD_WR_DATA(0x00);
 80022d4:	2000      	movs	r0, #0
 80022d6:	f7fe fea3 	bl	8001020 <LCD_WR_DATA>
		LCD_WR_DATA(0x0C);
 80022da:	200c      	movs	r0, #12
 80022dc:	f7fe fea0 	bl	8001020 <LCD_WR_DATA>
		LCD_WR_DATA(0x00);
 80022e0:	2000      	movs	r0, #0
 80022e2:	f7fe fe9d 	bl	8001020 <LCD_WR_DATA>
		LCD_WR_DATA(0x17);
 80022e6:	2017      	movs	r0, #23
 80022e8:	f7fe fe9a 	bl	8001020 <LCD_WR_DATA>
		LCD_WR_DATA(0x00);
 80022ec:	2000      	movs	r0, #0
 80022ee:	f7fe fe97 	bl	8001020 <LCD_WR_DATA>
		LCD_WR_DATA(0x95);
 80022f2:	2095      	movs	r0, #149	; 0x95
 80022f4:	f7fe fe94 	bl	8001020 <LCD_WR_DATA>
		LCD_WR_DATA(0x00);
 80022f8:	2000      	movs	r0, #0
 80022fa:	f7fe fe91 	bl	8001020 <LCD_WR_DATA>
		LCD_WR_DATA(0xF3);
 80022fe:	20f3      	movs	r0, #243	; 0xf3
 8002300:	f7fe fe8e 	bl	8001020 <LCD_WR_DATA>
		LCD_WR_DATA(0x00);
 8002304:	2000      	movs	r0, #0
 8002306:	f7fe fe8b 	bl	8001020 <LCD_WR_DATA>
		LCD_WR_DATA(0xE6);
 800230a:	20e6      	movs	r0, #230	; 0xe6
 800230c:	f7fe fe88 	bl	8001020 <LCD_WR_DATA>
		LCD_WR_DATA(0x00);
 8002310:	2000      	movs	r0, #0
 8002312:	f7fe fe85 	bl	8001020 <LCD_WR_DATA>

		LCD_WR_REG(0xC5);
 8002316:	20c5      	movs	r0, #197	; 0xc5
 8002318:	f7fe fe6e 	bl	8000ff8 <LCD_WR_REG>
		LCD_WR_DATA(0x32);
 800231c:	2032      	movs	r0, #50	; 0x32
 800231e:	f7fe fe7f 	bl	8001020 <LCD_WR_DATA>
		LCD_WR_DATA(0x00);
 8002322:	2000      	movs	r0, #0
 8002324:	f7fe fe7c 	bl	8001020 <LCD_WR_DATA>
		LCD_WR_DATA(0x44);
 8002328:	2044      	movs	r0, #68	; 0x44
 800232a:	f7fe fe79 	bl	8001020 <LCD_WR_DATA>
		LCD_WR_DATA(0x00);
 800232e:	2000      	movs	r0, #0
 8002330:	f7fe fe76 	bl	8001020 <LCD_WR_DATA>
		LCD_WR_DATA(0x65);
 8002334:	2065      	movs	r0, #101	; 0x65
 8002336:	f7fe fe73 	bl	8001020 <LCD_WR_DATA>
		LCD_WR_DATA(0x00);
 800233a:	2000      	movs	r0, #0
 800233c:	f7fe fe70 	bl	8001020 <LCD_WR_DATA>
		LCD_WR_DATA(0x76);
 8002340:	2076      	movs	r0, #118	; 0x76
 8002342:	f7fe fe6d 	bl	8001020 <LCD_WR_DATA>
		LCD_WR_DATA(0x00);
 8002346:	2000      	movs	r0, #0
 8002348:	f7fe fe6a 	bl	8001020 <LCD_WR_DATA>
		LCD_WR_DATA(0x88);
 800234c:	2088      	movs	r0, #136	; 0x88
 800234e:	f7fe fe67 	bl	8001020 <LCD_WR_DATA>
		LCD_WR_DATA(0x00);
 8002352:	2000      	movs	r0, #0
 8002354:	f7fe fe64 	bl	8001020 <LCD_WR_DATA>

		LCD_WR_REG(0xC6);
 8002358:	20c6      	movs	r0, #198	; 0xc6
 800235a:	f7fe fe4d 	bl	8000ff8 <LCD_WR_REG>
		LCD_WR_DATA(0x20);
 800235e:	2020      	movs	r0, #32
 8002360:	f7fe fe5e 	bl	8001020 <LCD_WR_DATA>
		LCD_WR_DATA(0x00);
 8002364:	2000      	movs	r0, #0
 8002366:	f7fe fe5b 	bl	8001020 <LCD_WR_DATA>
		LCD_WR_DATA(0x17);
 800236a:	2017      	movs	r0, #23
 800236c:	f7fe fe58 	bl	8001020 <LCD_WR_DATA>
		LCD_WR_DATA(0x00);
 8002370:	2000      	movs	r0, #0
 8002372:	f7fe fe55 	bl	8001020 <LCD_WR_DATA>
		LCD_WR_DATA(0x01);
 8002376:	2001      	movs	r0, #1
 8002378:	f7fe fe52 	bl	8001020 <LCD_WR_DATA>
		LCD_WR_DATA(0x00);
 800237c:	2000      	movs	r0, #0
 800237e:	f7fe fe4f 	bl	8001020 <LCD_WR_DATA>

		LCD_WR_REG(0xC7);
 8002382:	20c7      	movs	r0, #199	; 0xc7
 8002384:	f7fe fe38 	bl	8000ff8 <LCD_WR_REG>
		LCD_WR_DATA(0x00);
 8002388:	2000      	movs	r0, #0
 800238a:	f7fe fe49 	bl	8001020 <LCD_WR_DATA>
		LCD_WR_DATA(0x00);
 800238e:	2000      	movs	r0, #0
 8002390:	f7fe fe46 	bl	8001020 <LCD_WR_DATA>
		LCD_WR_DATA(0x00);
 8002394:	2000      	movs	r0, #0
 8002396:	f7fe fe43 	bl	8001020 <LCD_WR_DATA>
		LCD_WR_DATA(0x00);
 800239a:	2000      	movs	r0, #0
 800239c:	f7fe fe40 	bl	8001020 <LCD_WR_DATA>

		LCD_WR_REG(0xC8);
 80023a0:	20c8      	movs	r0, #200	; 0xc8
 80023a2:	f7fe fe29 	bl	8000ff8 <LCD_WR_REG>
		LCD_WR_DATA(0x00);
 80023a6:	2000      	movs	r0, #0
 80023a8:	f7fe fe3a 	bl	8001020 <LCD_WR_DATA>
		LCD_WR_DATA(0x00);
 80023ac:	2000      	movs	r0, #0
 80023ae:	f7fe fe37 	bl	8001020 <LCD_WR_DATA>
		LCD_WR_DATA(0x00);
 80023b2:	2000      	movs	r0, #0
 80023b4:	f7fe fe34 	bl	8001020 <LCD_WR_DATA>
		LCD_WR_DATA(0x00);
 80023b8:	2000      	movs	r0, #0
 80023ba:	f7fe fe31 	bl	8001020 <LCD_WR_DATA>

		LCD_WR_REG(0xC9);
 80023be:	20c9      	movs	r0, #201	; 0xc9
 80023c0:	f7fe fe1a 	bl	8000ff8 <LCD_WR_REG>
		LCD_WR_DATA(0x00);
 80023c4:	2000      	movs	r0, #0
 80023c6:	f7fe fe2b 	bl	8001020 <LCD_WR_DATA>
		LCD_WR_DATA(0x00);
 80023ca:	2000      	movs	r0, #0
 80023cc:	f7fe fe28 	bl	8001020 <LCD_WR_DATA>
		LCD_WR_DATA(0x00);
 80023d0:	2000      	movs	r0, #0
 80023d2:	f7fe fe25 	bl	8001020 <LCD_WR_DATA>
		LCD_WR_DATA(0x00);
 80023d6:	2000      	movs	r0, #0
 80023d8:	f7fe fe22 	bl	8001020 <LCD_WR_DATA>
		LCD_WR_DATA(0x00);
 80023dc:	2000      	movs	r0, #0
 80023de:	f7fe fe1f 	bl	8001020 <LCD_WR_DATA>
		LCD_WR_DATA(0x00);
 80023e2:	2000      	movs	r0, #0
 80023e4:	f7fe fe1c 	bl	8001020 <LCD_WR_DATA>
		LCD_WR_DATA(0x00);
 80023e8:	2000      	movs	r0, #0
 80023ea:	f7fe fe19 	bl	8001020 <LCD_WR_DATA>
		LCD_WR_DATA(0x00);
 80023ee:	2000      	movs	r0, #0
 80023f0:	f7fe fe16 	bl	8001020 <LCD_WR_DATA>
		LCD_WR_DATA(0x00);
 80023f4:	2000      	movs	r0, #0
 80023f6:	f7fe fe13 	bl	8001020 <LCD_WR_DATA>
		LCD_WR_DATA(0x00);
 80023fa:	2000      	movs	r0, #0
 80023fc:	f7fe fe10 	bl	8001020 <LCD_WR_DATA>
		LCD_WR_DATA(0x00);
 8002400:	2000      	movs	r0, #0
 8002402:	f7fe fe0d 	bl	8001020 <LCD_WR_DATA>
		LCD_WR_DATA(0x00);
 8002406:	2000      	movs	r0, #0
 8002408:	f7fe fe0a 	bl	8001020 <LCD_WR_DATA>
		LCD_WR_DATA(0x00);
 800240c:	2000      	movs	r0, #0
 800240e:	f7fe fe07 	bl	8001020 <LCD_WR_DATA>
		LCD_WR_DATA(0x00);
 8002412:	2000      	movs	r0, #0
 8002414:	f7fe fe04 	bl	8001020 <LCD_WR_DATA>
		LCD_WR_DATA(0x00);
 8002418:	2000      	movs	r0, #0
 800241a:	f7fe fe01 	bl	8001020 <LCD_WR_DATA>
		LCD_WR_DATA(0x00);
 800241e:	2000      	movs	r0, #0
 8002420:	f7fe fdfe 	bl	8001020 <LCD_WR_DATA>

		LCD_WR_REG(0xE0);
 8002424:	20e0      	movs	r0, #224	; 0xe0
 8002426:	f7fe fde7 	bl	8000ff8 <LCD_WR_REG>
		LCD_WR_DATA(0x16);
 800242a:	2016      	movs	r0, #22
 800242c:	f7fe fdf8 	bl	8001020 <LCD_WR_DATA>
		LCD_WR_DATA(0x00);
 8002430:	2000      	movs	r0, #0
 8002432:	f7fe fdf5 	bl	8001020 <LCD_WR_DATA>
		LCD_WR_DATA(0x1C);
 8002436:	201c      	movs	r0, #28
 8002438:	f7fe fdf2 	bl	8001020 <LCD_WR_DATA>
		LCD_WR_DATA(0x00);
 800243c:	2000      	movs	r0, #0
 800243e:	f7fe fdef 	bl	8001020 <LCD_WR_DATA>
		LCD_WR_DATA(0x21);
 8002442:	2021      	movs	r0, #33	; 0x21
 8002444:	f7fe fdec 	bl	8001020 <LCD_WR_DATA>
		LCD_WR_DATA(0x00);
 8002448:	2000      	movs	r0, #0
 800244a:	f7fe fde9 	bl	8001020 <LCD_WR_DATA>
		LCD_WR_DATA(0x36);
 800244e:	2036      	movs	r0, #54	; 0x36
 8002450:	f7fe fde6 	bl	8001020 <LCD_WR_DATA>
		LCD_WR_DATA(0x00);
 8002454:	2000      	movs	r0, #0
 8002456:	f7fe fde3 	bl	8001020 <LCD_WR_DATA>
		LCD_WR_DATA(0x46);
 800245a:	2046      	movs	r0, #70	; 0x46
 800245c:	f7fe fde0 	bl	8001020 <LCD_WR_DATA>
		LCD_WR_DATA(0x00);
 8002460:	2000      	movs	r0, #0
 8002462:	f7fe fddd 	bl	8001020 <LCD_WR_DATA>
		LCD_WR_DATA(0x52);
 8002466:	2052      	movs	r0, #82	; 0x52
 8002468:	f7fe fdda 	bl	8001020 <LCD_WR_DATA>
		LCD_WR_DATA(0x00);
 800246c:	2000      	movs	r0, #0
 800246e:	f7fe fdd7 	bl	8001020 <LCD_WR_DATA>
		LCD_WR_DATA(0x64);
 8002472:	2064      	movs	r0, #100	; 0x64
 8002474:	f7fe fdd4 	bl	8001020 <LCD_WR_DATA>
		LCD_WR_DATA(0x00);
 8002478:	2000      	movs	r0, #0
 800247a:	f7fe fdd1 	bl	8001020 <LCD_WR_DATA>
		LCD_WR_DATA(0x7A);
 800247e:	207a      	movs	r0, #122	; 0x7a
 8002480:	f7fe fdce 	bl	8001020 <LCD_WR_DATA>
		LCD_WR_DATA(0x00);
 8002484:	2000      	movs	r0, #0
 8002486:	f7fe fdcb 	bl	8001020 <LCD_WR_DATA>
		LCD_WR_DATA(0x8B);
 800248a:	208b      	movs	r0, #139	; 0x8b
 800248c:	f7fe fdc8 	bl	8001020 <LCD_WR_DATA>
		LCD_WR_DATA(0x00);
 8002490:	2000      	movs	r0, #0
 8002492:	f7fe fdc5 	bl	8001020 <LCD_WR_DATA>
		LCD_WR_DATA(0x99);
 8002496:	2099      	movs	r0, #153	; 0x99
 8002498:	f7fe fdc2 	bl	8001020 <LCD_WR_DATA>
		LCD_WR_DATA(0x00);
 800249c:	2000      	movs	r0, #0
 800249e:	f7fe fdbf 	bl	8001020 <LCD_WR_DATA>
		LCD_WR_DATA(0xA8);
 80024a2:	20a8      	movs	r0, #168	; 0xa8
 80024a4:	f7fe fdbc 	bl	8001020 <LCD_WR_DATA>
		LCD_WR_DATA(0x00);
 80024a8:	2000      	movs	r0, #0
 80024aa:	f7fe fdb9 	bl	8001020 <LCD_WR_DATA>
		LCD_WR_DATA(0xB9);
 80024ae:	20b9      	movs	r0, #185	; 0xb9
 80024b0:	f7fe fdb6 	bl	8001020 <LCD_WR_DATA>
		LCD_WR_DATA(0x00);
 80024b4:	2000      	movs	r0, #0
 80024b6:	f7fe fdb3 	bl	8001020 <LCD_WR_DATA>
		LCD_WR_DATA(0xC4);
 80024ba:	20c4      	movs	r0, #196	; 0xc4
 80024bc:	f7fe fdb0 	bl	8001020 <LCD_WR_DATA>
		LCD_WR_DATA(0x00);
 80024c0:	2000      	movs	r0, #0
 80024c2:	f7fe fdad 	bl	8001020 <LCD_WR_DATA>
		LCD_WR_DATA(0xCA);
 80024c6:	20ca      	movs	r0, #202	; 0xca
 80024c8:	f7fe fdaa 	bl	8001020 <LCD_WR_DATA>
		LCD_WR_DATA(0x00);
 80024cc:	2000      	movs	r0, #0
 80024ce:	f7fe fda7 	bl	8001020 <LCD_WR_DATA>
		LCD_WR_DATA(0xD2);
 80024d2:	20d2      	movs	r0, #210	; 0xd2
 80024d4:	f7fe fda4 	bl	8001020 <LCD_WR_DATA>
		LCD_WR_DATA(0x00);
 80024d8:	2000      	movs	r0, #0
 80024da:	f7fe fda1 	bl	8001020 <LCD_WR_DATA>
		LCD_WR_DATA(0xD9);
 80024de:	20d9      	movs	r0, #217	; 0xd9
 80024e0:	f7fe fd9e 	bl	8001020 <LCD_WR_DATA>
		LCD_WR_DATA(0x00);
 80024e4:	2000      	movs	r0, #0
 80024e6:	f7fe fd9b 	bl	8001020 <LCD_WR_DATA>
		LCD_WR_DATA(0xE0);
 80024ea:	20e0      	movs	r0, #224	; 0xe0
 80024ec:	f7fe fd98 	bl	8001020 <LCD_WR_DATA>
		LCD_WR_DATA(0x00);
 80024f0:	2000      	movs	r0, #0
 80024f2:	f7fe fd95 	bl	8001020 <LCD_WR_DATA>
		LCD_WR_DATA(0xF3);
 80024f6:	20f3      	movs	r0, #243	; 0xf3
 80024f8:	f7fe fd92 	bl	8001020 <LCD_WR_DATA>
		LCD_WR_DATA(0x00);
 80024fc:	2000      	movs	r0, #0
 80024fe:	f7fe fd8f 	bl	8001020 <LCD_WR_DATA>

		LCD_WR_REG(0xE1);
 8002502:	20e1      	movs	r0, #225	; 0xe1
 8002504:	f7fe fd78 	bl	8000ff8 <LCD_WR_REG>
		LCD_WR_DATA(0x16);
 8002508:	2016      	movs	r0, #22
 800250a:	f7fe fd89 	bl	8001020 <LCD_WR_DATA>
		LCD_WR_DATA(0x00);
 800250e:	2000      	movs	r0, #0
 8002510:	f7fe fd86 	bl	8001020 <LCD_WR_DATA>
		LCD_WR_DATA(0x1C);
 8002514:	201c      	movs	r0, #28
 8002516:	f7fe fd83 	bl	8001020 <LCD_WR_DATA>
		LCD_WR_DATA(0x00);
 800251a:	2000      	movs	r0, #0
 800251c:	f7fe fd80 	bl	8001020 <LCD_WR_DATA>
		LCD_WR_DATA(0x22);
 8002520:	2022      	movs	r0, #34	; 0x22
 8002522:	f7fe fd7d 	bl	8001020 <LCD_WR_DATA>
		LCD_WR_DATA(0x00);
 8002526:	2000      	movs	r0, #0
 8002528:	f7fe fd7a 	bl	8001020 <LCD_WR_DATA>
		LCD_WR_DATA(0x36);
 800252c:	2036      	movs	r0, #54	; 0x36
 800252e:	f7fe fd77 	bl	8001020 <LCD_WR_DATA>
		LCD_WR_DATA(0x00);
 8002532:	2000      	movs	r0, #0
 8002534:	f7fe fd74 	bl	8001020 <LCD_WR_DATA>
		LCD_WR_DATA(0x45);
 8002538:	2045      	movs	r0, #69	; 0x45
 800253a:	f7fe fd71 	bl	8001020 <LCD_WR_DATA>
		LCD_WR_DATA(0x00);
 800253e:	2000      	movs	r0, #0
 8002540:	f7fe fd6e 	bl	8001020 <LCD_WR_DATA>
		LCD_WR_DATA(0x52);
 8002544:	2052      	movs	r0, #82	; 0x52
 8002546:	f7fe fd6b 	bl	8001020 <LCD_WR_DATA>
		LCD_WR_DATA(0x00);
 800254a:	2000      	movs	r0, #0
 800254c:	f7fe fd68 	bl	8001020 <LCD_WR_DATA>
		LCD_WR_DATA(0x64);
 8002550:	2064      	movs	r0, #100	; 0x64
 8002552:	f7fe fd65 	bl	8001020 <LCD_WR_DATA>
		LCD_WR_DATA(0x00);
 8002556:	2000      	movs	r0, #0
 8002558:	f7fe fd62 	bl	8001020 <LCD_WR_DATA>
		LCD_WR_DATA(0x7A);
 800255c:	207a      	movs	r0, #122	; 0x7a
 800255e:	f7fe fd5f 	bl	8001020 <LCD_WR_DATA>
		LCD_WR_DATA(0x00);
 8002562:	2000      	movs	r0, #0
 8002564:	f7fe fd5c 	bl	8001020 <LCD_WR_DATA>
		LCD_WR_DATA(0x8B);
 8002568:	208b      	movs	r0, #139	; 0x8b
 800256a:	f7fe fd59 	bl	8001020 <LCD_WR_DATA>
		LCD_WR_DATA(0x00);
 800256e:	2000      	movs	r0, #0
 8002570:	f7fe fd56 	bl	8001020 <LCD_WR_DATA>
		LCD_WR_DATA(0x99);
 8002574:	2099      	movs	r0, #153	; 0x99
 8002576:	f7fe fd53 	bl	8001020 <LCD_WR_DATA>
		LCD_WR_DATA(0x00);
 800257a:	2000      	movs	r0, #0
 800257c:	f7fe fd50 	bl	8001020 <LCD_WR_DATA>
		LCD_WR_DATA(0xA8);
 8002580:	20a8      	movs	r0, #168	; 0xa8
 8002582:	f7fe fd4d 	bl	8001020 <LCD_WR_DATA>
		LCD_WR_DATA(0x00);
 8002586:	2000      	movs	r0, #0
 8002588:	f7fe fd4a 	bl	8001020 <LCD_WR_DATA>
		LCD_WR_DATA(0xB9);
 800258c:	20b9      	movs	r0, #185	; 0xb9
 800258e:	f7fe fd47 	bl	8001020 <LCD_WR_DATA>
		LCD_WR_DATA(0x00);
 8002592:	2000      	movs	r0, #0
 8002594:	f7fe fd44 	bl	8001020 <LCD_WR_DATA>
		LCD_WR_DATA(0xC4);
 8002598:	20c4      	movs	r0, #196	; 0xc4
 800259a:	f7fe fd41 	bl	8001020 <LCD_WR_DATA>
		LCD_WR_DATA(0x00);
 800259e:	2000      	movs	r0, #0
 80025a0:	f7fe fd3e 	bl	8001020 <LCD_WR_DATA>
		LCD_WR_DATA(0xCA);
 80025a4:	20ca      	movs	r0, #202	; 0xca
 80025a6:	f7fe fd3b 	bl	8001020 <LCD_WR_DATA>
		LCD_WR_DATA(0x00);
 80025aa:	2000      	movs	r0, #0
 80025ac:	f7fe fd38 	bl	8001020 <LCD_WR_DATA>
		LCD_WR_DATA(0xD2);
 80025b0:	20d2      	movs	r0, #210	; 0xd2
 80025b2:	f7fe fd35 	bl	8001020 <LCD_WR_DATA>
		LCD_WR_DATA(0x00);
 80025b6:	2000      	movs	r0, #0
 80025b8:	f7fe fd32 	bl	8001020 <LCD_WR_DATA>
		LCD_WR_DATA(0xD8);
 80025bc:	20d8      	movs	r0, #216	; 0xd8
 80025be:	f7fe fd2f 	bl	8001020 <LCD_WR_DATA>
		LCD_WR_DATA(0x00);
 80025c2:	2000      	movs	r0, #0
 80025c4:	f7fe fd2c 	bl	8001020 <LCD_WR_DATA>
		LCD_WR_DATA(0xE0);
 80025c8:	20e0      	movs	r0, #224	; 0xe0
 80025ca:	f7fe fd29 	bl	8001020 <LCD_WR_DATA>
		LCD_WR_DATA(0x00);
 80025ce:	2000      	movs	r0, #0
 80025d0:	f7fe fd26 	bl	8001020 <LCD_WR_DATA>
		LCD_WR_DATA(0xF3);
 80025d4:	20f3      	movs	r0, #243	; 0xf3
 80025d6:	f7fe fd23 	bl	8001020 <LCD_WR_DATA>
		LCD_WR_DATA(0x00);
 80025da:	2000      	movs	r0, #0
 80025dc:	f7fe fd20 	bl	8001020 <LCD_WR_DATA>

		LCD_WR_REG(0xE2);
 80025e0:	20e2      	movs	r0, #226	; 0xe2
 80025e2:	f7fe fd09 	bl	8000ff8 <LCD_WR_REG>
		LCD_WR_DATA(0x05);
 80025e6:	2005      	movs	r0, #5
 80025e8:	f7fe fd1a 	bl	8001020 <LCD_WR_DATA>
		LCD_WR_DATA(0x00);
 80025ec:	2000      	movs	r0, #0
 80025ee:	f7fe fd17 	bl	8001020 <LCD_WR_DATA>
		LCD_WR_DATA(0x0B);
 80025f2:	200b      	movs	r0, #11
 80025f4:	f7fe fd14 	bl	8001020 <LCD_WR_DATA>
		LCD_WR_DATA(0x00);
 80025f8:	2000      	movs	r0, #0
 80025fa:	f7fe fd11 	bl	8001020 <LCD_WR_DATA>
		LCD_WR_DATA(0x1B);
 80025fe:	201b      	movs	r0, #27
 8002600:	f7fe fd0e 	bl	8001020 <LCD_WR_DATA>
		LCD_WR_DATA(0x00);
 8002604:	2000      	movs	r0, #0
 8002606:	f7fe fd0b 	bl	8001020 <LCD_WR_DATA>
		LCD_WR_DATA(0x34);
 800260a:	2034      	movs	r0, #52	; 0x34
 800260c:	f7fe fd08 	bl	8001020 <LCD_WR_DATA>
		LCD_WR_DATA(0x00);
 8002610:	2000      	movs	r0, #0
 8002612:	f7fe fd05 	bl	8001020 <LCD_WR_DATA>
		LCD_WR_DATA(0x44);
 8002616:	2044      	movs	r0, #68	; 0x44
 8002618:	f7fe fd02 	bl	8001020 <LCD_WR_DATA>
		LCD_WR_DATA(0x00);
 800261c:	2000      	movs	r0, #0
 800261e:	f7fe fcff 	bl	8001020 <LCD_WR_DATA>
		LCD_WR_DATA(0x4F);
 8002622:	204f      	movs	r0, #79	; 0x4f
 8002624:	f7fe fcfc 	bl	8001020 <LCD_WR_DATA>
		LCD_WR_DATA(0x00);
 8002628:	2000      	movs	r0, #0
 800262a:	f7fe fcf9 	bl	8001020 <LCD_WR_DATA>
		LCD_WR_DATA(0x61);
 800262e:	2061      	movs	r0, #97	; 0x61
 8002630:	f7fe fcf6 	bl	8001020 <LCD_WR_DATA>
		LCD_WR_DATA(0x00);
 8002634:	2000      	movs	r0, #0
 8002636:	f7fe fcf3 	bl	8001020 <LCD_WR_DATA>
		LCD_WR_DATA(0x79);
 800263a:	2079      	movs	r0, #121	; 0x79
 800263c:	f7fe fcf0 	bl	8001020 <LCD_WR_DATA>
		LCD_WR_DATA(0x00);
 8002640:	2000      	movs	r0, #0
 8002642:	f7fe fced 	bl	8001020 <LCD_WR_DATA>
		LCD_WR_DATA(0x88);
 8002646:	2088      	movs	r0, #136	; 0x88
 8002648:	f7fe fcea 	bl	8001020 <LCD_WR_DATA>
		LCD_WR_DATA(0x00);
 800264c:	2000      	movs	r0, #0
 800264e:	f7fe fce7 	bl	8001020 <LCD_WR_DATA>
		LCD_WR_DATA(0x97);
 8002652:	2097      	movs	r0, #151	; 0x97
 8002654:	f7fe fce4 	bl	8001020 <LCD_WR_DATA>
		LCD_WR_DATA(0x00);
 8002658:	2000      	movs	r0, #0
 800265a:	f7fe fce1 	bl	8001020 <LCD_WR_DATA>
		LCD_WR_DATA(0xA6);
 800265e:	20a6      	movs	r0, #166	; 0xa6
 8002660:	f7fe fcde 	bl	8001020 <LCD_WR_DATA>
		LCD_WR_DATA(0x00);
 8002664:	2000      	movs	r0, #0
 8002666:	f7fe fcdb 	bl	8001020 <LCD_WR_DATA>
		LCD_WR_DATA(0xB7);
 800266a:	20b7      	movs	r0, #183	; 0xb7
 800266c:	f7fe fcd8 	bl	8001020 <LCD_WR_DATA>
		LCD_WR_DATA(0x00);
 8002670:	2000      	movs	r0, #0
 8002672:	f7fe fcd5 	bl	8001020 <LCD_WR_DATA>
		LCD_WR_DATA(0xC2);
 8002676:	20c2      	movs	r0, #194	; 0xc2
 8002678:	f7fe fcd2 	bl	8001020 <LCD_WR_DATA>
		LCD_WR_DATA(0x00);
 800267c:	2000      	movs	r0, #0
 800267e:	f7fe fccf 	bl	8001020 <LCD_WR_DATA>
		LCD_WR_DATA(0xC7);
 8002682:	20c7      	movs	r0, #199	; 0xc7
 8002684:	f7fe fccc 	bl	8001020 <LCD_WR_DATA>
		LCD_WR_DATA(0x00);
 8002688:	2000      	movs	r0, #0
 800268a:	f7fe fcc9 	bl	8001020 <LCD_WR_DATA>
		LCD_WR_DATA(0xD1);
 800268e:	20d1      	movs	r0, #209	; 0xd1
 8002690:	f7fe fcc6 	bl	8001020 <LCD_WR_DATA>
		LCD_WR_DATA(0x00);
 8002694:	2000      	movs	r0, #0
 8002696:	f7fe fcc3 	bl	8001020 <LCD_WR_DATA>
		LCD_WR_DATA(0xD6);
 800269a:	20d6      	movs	r0, #214	; 0xd6
 800269c:	f7fe fcc0 	bl	8001020 <LCD_WR_DATA>
		LCD_WR_DATA(0x00);
 80026a0:	2000      	movs	r0, #0
 80026a2:	f7fe fcbd 	bl	8001020 <LCD_WR_DATA>
		LCD_WR_DATA(0xDD);
 80026a6:	20dd      	movs	r0, #221	; 0xdd
 80026a8:	f7fe fcba 	bl	8001020 <LCD_WR_DATA>
		LCD_WR_DATA(0x00);
 80026ac:	2000      	movs	r0, #0
 80026ae:	f7fe fcb7 	bl	8001020 <LCD_WR_DATA>
		LCD_WR_DATA(0xF3);
 80026b2:	20f3      	movs	r0, #243	; 0xf3
 80026b4:	f7fe fcb4 	bl	8001020 <LCD_WR_DATA>
		LCD_WR_DATA(0x00);
 80026b8:	2000      	movs	r0, #0
 80026ba:	f7fe fcb1 	bl	8001020 <LCD_WR_DATA>
		LCD_WR_REG(0xE3);
 80026be:	20e3      	movs	r0, #227	; 0xe3
 80026c0:	f7fe fc9a 	bl	8000ff8 <LCD_WR_REG>
		LCD_WR_DATA(0x05);
 80026c4:	2005      	movs	r0, #5
 80026c6:	f7fe fcab 	bl	8001020 <LCD_WR_DATA>
		LCD_WR_DATA(0x00);
 80026ca:	2000      	movs	r0, #0
 80026cc:	f7fe fca8 	bl	8001020 <LCD_WR_DATA>
		LCD_WR_DATA(0xA);
 80026d0:	200a      	movs	r0, #10
 80026d2:	f7fe fca5 	bl	8001020 <LCD_WR_DATA>
		LCD_WR_DATA(0x00);
 80026d6:	2000      	movs	r0, #0
 80026d8:	f7fe fca2 	bl	8001020 <LCD_WR_DATA>
		LCD_WR_DATA(0x1C);
 80026dc:	201c      	movs	r0, #28
 80026de:	f7fe fc9f 	bl	8001020 <LCD_WR_DATA>
		LCD_WR_DATA(0x00);
 80026e2:	2000      	movs	r0, #0
 80026e4:	f7fe fc9c 	bl	8001020 <LCD_WR_DATA>
		LCD_WR_DATA(0x33);
 80026e8:	2033      	movs	r0, #51	; 0x33
 80026ea:	f7fe fc99 	bl	8001020 <LCD_WR_DATA>
		LCD_WR_DATA(0x00);
 80026ee:	2000      	movs	r0, #0
 80026f0:	f7fe fc96 	bl	8001020 <LCD_WR_DATA>
		LCD_WR_DATA(0x44);
 80026f4:	2044      	movs	r0, #68	; 0x44
 80026f6:	f7fe fc93 	bl	8001020 <LCD_WR_DATA>
		LCD_WR_DATA(0x00);
 80026fa:	2000      	movs	r0, #0
 80026fc:	f7fe fc90 	bl	8001020 <LCD_WR_DATA>
		LCD_WR_DATA(0x50);
 8002700:	2050      	movs	r0, #80	; 0x50
 8002702:	f7fe fc8d 	bl	8001020 <LCD_WR_DATA>
		LCD_WR_DATA(0x00);
 8002706:	2000      	movs	r0, #0
 8002708:	f7fe fc8a 	bl	8001020 <LCD_WR_DATA>
		LCD_WR_DATA(0x62);
 800270c:	2062      	movs	r0, #98	; 0x62
 800270e:	f7fe fc87 	bl	8001020 <LCD_WR_DATA>
		LCD_WR_DATA(0x00);
 8002712:	2000      	movs	r0, #0
 8002714:	f7fe fc84 	bl	8001020 <LCD_WR_DATA>
		LCD_WR_DATA(0x78);
 8002718:	2078      	movs	r0, #120	; 0x78
 800271a:	f7fe fc81 	bl	8001020 <LCD_WR_DATA>
		LCD_WR_DATA(0x00);
 800271e:	2000      	movs	r0, #0
 8002720:	f7fe fc7e 	bl	8001020 <LCD_WR_DATA>
		LCD_WR_DATA(0x88);
 8002724:	2088      	movs	r0, #136	; 0x88
 8002726:	f7fe fc7b 	bl	8001020 <LCD_WR_DATA>
		LCD_WR_DATA(0x00);
 800272a:	2000      	movs	r0, #0
 800272c:	f7fe fc78 	bl	8001020 <LCD_WR_DATA>
		LCD_WR_DATA(0x97);
 8002730:	2097      	movs	r0, #151	; 0x97
 8002732:	f7fe fc75 	bl	8001020 <LCD_WR_DATA>
		LCD_WR_DATA(0x00);
 8002736:	2000      	movs	r0, #0
 8002738:	f7fe fc72 	bl	8001020 <LCD_WR_DATA>
		LCD_WR_DATA(0xA6);
 800273c:	20a6      	movs	r0, #166	; 0xa6
 800273e:	f7fe fc6f 	bl	8001020 <LCD_WR_DATA>
		LCD_WR_DATA(0x00);
 8002742:	2000      	movs	r0, #0
 8002744:	f7fe fc6c 	bl	8001020 <LCD_WR_DATA>
		LCD_WR_DATA(0xB7);
 8002748:	20b7      	movs	r0, #183	; 0xb7
 800274a:	f7fe fc69 	bl	8001020 <LCD_WR_DATA>
		LCD_WR_DATA(0x00);
 800274e:	2000      	movs	r0, #0
 8002750:	f7fe fc66 	bl	8001020 <LCD_WR_DATA>
		LCD_WR_DATA(0xC2);
 8002754:	20c2      	movs	r0, #194	; 0xc2
 8002756:	f7fe fc63 	bl	8001020 <LCD_WR_DATA>
		LCD_WR_DATA(0x00);
 800275a:	2000      	movs	r0, #0
 800275c:	f7fe fc60 	bl	8001020 <LCD_WR_DATA>
		LCD_WR_DATA(0xC7);
 8002760:	20c7      	movs	r0, #199	; 0xc7
 8002762:	f7fe fc5d 	bl	8001020 <LCD_WR_DATA>
		LCD_WR_DATA(0x00);
 8002766:	2000      	movs	r0, #0
 8002768:	f7fe fc5a 	bl	8001020 <LCD_WR_DATA>
		LCD_WR_DATA(0xD1);
 800276c:	20d1      	movs	r0, #209	; 0xd1
 800276e:	f7fe fc57 	bl	8001020 <LCD_WR_DATA>
		LCD_WR_DATA(0x00);
 8002772:	2000      	movs	r0, #0
 8002774:	f7fe fc54 	bl	8001020 <LCD_WR_DATA>
		LCD_WR_DATA(0xD5);
 8002778:	20d5      	movs	r0, #213	; 0xd5
 800277a:	f7fe fc51 	bl	8001020 <LCD_WR_DATA>
		LCD_WR_DATA(0x00);
 800277e:	2000      	movs	r0, #0
 8002780:	f7fe fc4e 	bl	8001020 <LCD_WR_DATA>
		LCD_WR_DATA(0xDD);
 8002784:	20dd      	movs	r0, #221	; 0xdd
 8002786:	f7fe fc4b 	bl	8001020 <LCD_WR_DATA>
		LCD_WR_DATA(0x00);
 800278a:	2000      	movs	r0, #0
 800278c:	f7fe fc48 	bl	8001020 <LCD_WR_DATA>
		LCD_WR_DATA(0xF3);
 8002790:	20f3      	movs	r0, #243	; 0xf3
 8002792:	f7fe fc45 	bl	8001020 <LCD_WR_DATA>
		LCD_WR_DATA(0x00);
 8002796:	2000      	movs	r0, #0
 8002798:	f7fe fc42 	bl	8001020 <LCD_WR_DATA>

		LCD_WR_REG(0xE4);
 800279c:	20e4      	movs	r0, #228	; 0xe4
 800279e:	f7fe fc2b 	bl	8000ff8 <LCD_WR_REG>
		LCD_WR_DATA(0x01);
 80027a2:	2001      	movs	r0, #1
 80027a4:	f7fe fc3c 	bl	8001020 <LCD_WR_DATA>
		LCD_WR_DATA(0x00);
 80027a8:	2000      	movs	r0, #0
 80027aa:	f7fe fc39 	bl	8001020 <LCD_WR_DATA>
		LCD_WR_DATA(0x01);
 80027ae:	2001      	movs	r0, #1
 80027b0:	f7fe fc36 	bl	8001020 <LCD_WR_DATA>
		LCD_WR_DATA(0x00);
 80027b4:	2000      	movs	r0, #0
 80027b6:	f7fe fc33 	bl	8001020 <LCD_WR_DATA>
		LCD_WR_DATA(0x02);
 80027ba:	2002      	movs	r0, #2
 80027bc:	f7fe fc30 	bl	8001020 <LCD_WR_DATA>
		LCD_WR_DATA(0x00);
 80027c0:	2000      	movs	r0, #0
 80027c2:	f7fe fc2d 	bl	8001020 <LCD_WR_DATA>
		LCD_WR_DATA(0x2A);
 80027c6:	202a      	movs	r0, #42	; 0x2a
 80027c8:	f7fe fc2a 	bl	8001020 <LCD_WR_DATA>
		LCD_WR_DATA(0x00);
 80027cc:	2000      	movs	r0, #0
 80027ce:	f7fe fc27 	bl	8001020 <LCD_WR_DATA>
		LCD_WR_DATA(0x3C);
 80027d2:	203c      	movs	r0, #60	; 0x3c
 80027d4:	f7fe fc24 	bl	8001020 <LCD_WR_DATA>
		LCD_WR_DATA(0x00);
 80027d8:	2000      	movs	r0, #0
 80027da:	f7fe fc21 	bl	8001020 <LCD_WR_DATA>
		LCD_WR_DATA(0x4B);
 80027de:	204b      	movs	r0, #75	; 0x4b
 80027e0:	f7fe fc1e 	bl	8001020 <LCD_WR_DATA>
		LCD_WR_DATA(0x00);
 80027e4:	2000      	movs	r0, #0
 80027e6:	f7fe fc1b 	bl	8001020 <LCD_WR_DATA>
		LCD_WR_DATA(0x5D);
 80027ea:	205d      	movs	r0, #93	; 0x5d
 80027ec:	f7fe fc18 	bl	8001020 <LCD_WR_DATA>
		LCD_WR_DATA(0x00);
 80027f0:	2000      	movs	r0, #0
 80027f2:	f7fe fc15 	bl	8001020 <LCD_WR_DATA>
		LCD_WR_DATA(0x74);
 80027f6:	2074      	movs	r0, #116	; 0x74
 80027f8:	f7fe fc12 	bl	8001020 <LCD_WR_DATA>
		LCD_WR_DATA(0x00);
 80027fc:	2000      	movs	r0, #0
 80027fe:	f7fe fc0f 	bl	8001020 <LCD_WR_DATA>
		LCD_WR_DATA(0x84);
 8002802:	2084      	movs	r0, #132	; 0x84
 8002804:	f7fe fc0c 	bl	8001020 <LCD_WR_DATA>
		LCD_WR_DATA(0x00);
 8002808:	2000      	movs	r0, #0
 800280a:	f7fe fc09 	bl	8001020 <LCD_WR_DATA>
		LCD_WR_DATA(0x93);
 800280e:	2093      	movs	r0, #147	; 0x93
 8002810:	f7fe fc06 	bl	8001020 <LCD_WR_DATA>
		LCD_WR_DATA(0x00);
 8002814:	2000      	movs	r0, #0
 8002816:	f7fe fc03 	bl	8001020 <LCD_WR_DATA>
		LCD_WR_DATA(0xA2);
 800281a:	20a2      	movs	r0, #162	; 0xa2
 800281c:	f7fe fc00 	bl	8001020 <LCD_WR_DATA>
		LCD_WR_DATA(0x00);
 8002820:	2000      	movs	r0, #0
 8002822:	f7fe fbfd 	bl	8001020 <LCD_WR_DATA>
		LCD_WR_DATA(0xB3);
 8002826:	20b3      	movs	r0, #179	; 0xb3
 8002828:	f7fe fbfa 	bl	8001020 <LCD_WR_DATA>
		LCD_WR_DATA(0x00);
 800282c:	2000      	movs	r0, #0
 800282e:	f7fe fbf7 	bl	8001020 <LCD_WR_DATA>
		LCD_WR_DATA(0xBE);
 8002832:	20be      	movs	r0, #190	; 0xbe
 8002834:	f7fe fbf4 	bl	8001020 <LCD_WR_DATA>
		LCD_WR_DATA(0x00);
 8002838:	2000      	movs	r0, #0
 800283a:	f7fe fbf1 	bl	8001020 <LCD_WR_DATA>
		LCD_WR_DATA(0xC4);
 800283e:	20c4      	movs	r0, #196	; 0xc4
 8002840:	f7fe fbee 	bl	8001020 <LCD_WR_DATA>
		LCD_WR_DATA(0x00);
 8002844:	2000      	movs	r0, #0
 8002846:	f7fe fbeb 	bl	8001020 <LCD_WR_DATA>
		LCD_WR_DATA(0xCD);
 800284a:	20cd      	movs	r0, #205	; 0xcd
 800284c:	f7fe fbe8 	bl	8001020 <LCD_WR_DATA>
		LCD_WR_DATA(0x00);
 8002850:	2000      	movs	r0, #0
 8002852:	f7fe fbe5 	bl	8001020 <LCD_WR_DATA>
		LCD_WR_DATA(0xD3);
 8002856:	20d3      	movs	r0, #211	; 0xd3
 8002858:	f7fe fbe2 	bl	8001020 <LCD_WR_DATA>
		LCD_WR_DATA(0x00);
 800285c:	2000      	movs	r0, #0
 800285e:	f7fe fbdf 	bl	8001020 <LCD_WR_DATA>
		LCD_WR_DATA(0xDD);
 8002862:	20dd      	movs	r0, #221	; 0xdd
 8002864:	f7fe fbdc 	bl	8001020 <LCD_WR_DATA>
		LCD_WR_DATA(0x00);
 8002868:	2000      	movs	r0, #0
 800286a:	f7fe fbd9 	bl	8001020 <LCD_WR_DATA>
		LCD_WR_DATA(0xF3);
 800286e:	20f3      	movs	r0, #243	; 0xf3
 8002870:	f7fe fbd6 	bl	8001020 <LCD_WR_DATA>
		LCD_WR_DATA(0x00);
 8002874:	2000      	movs	r0, #0
 8002876:	f7fe fbd3 	bl	8001020 <LCD_WR_DATA>
		LCD_WR_REG(0xE5);
 800287a:	20e5      	movs	r0, #229	; 0xe5
 800287c:	f7fe fbbc 	bl	8000ff8 <LCD_WR_REG>
		LCD_WR_DATA(0x00);
 8002880:	2000      	movs	r0, #0
 8002882:	f7fe fbcd 	bl	8001020 <LCD_WR_DATA>
		LCD_WR_DATA(0x00);
 8002886:	2000      	movs	r0, #0
 8002888:	f7fe fbca 	bl	8001020 <LCD_WR_DATA>
		LCD_WR_DATA(0x00);
 800288c:	2000      	movs	r0, #0
 800288e:	f7fe fbc7 	bl	8001020 <LCD_WR_DATA>
		LCD_WR_DATA(0x00);
 8002892:	2000      	movs	r0, #0
 8002894:	f7fe fbc4 	bl	8001020 <LCD_WR_DATA>
		LCD_WR_DATA(0x02);
 8002898:	2002      	movs	r0, #2
 800289a:	f7fe fbc1 	bl	8001020 <LCD_WR_DATA>
		LCD_WR_DATA(0x00);
 800289e:	2000      	movs	r0, #0
 80028a0:	f7fe fbbe 	bl	8001020 <LCD_WR_DATA>
		LCD_WR_DATA(0x29);
 80028a4:	2029      	movs	r0, #41	; 0x29
 80028a6:	f7fe fbbb 	bl	8001020 <LCD_WR_DATA>
		LCD_WR_DATA(0x00);
 80028aa:	2000      	movs	r0, #0
 80028ac:	f7fe fbb8 	bl	8001020 <LCD_WR_DATA>
		LCD_WR_DATA(0x3C);
 80028b0:	203c      	movs	r0, #60	; 0x3c
 80028b2:	f7fe fbb5 	bl	8001020 <LCD_WR_DATA>
		LCD_WR_DATA(0x00);
 80028b6:	2000      	movs	r0, #0
 80028b8:	f7fe fbb2 	bl	8001020 <LCD_WR_DATA>
		LCD_WR_DATA(0x4B);
 80028bc:	204b      	movs	r0, #75	; 0x4b
 80028be:	f7fe fbaf 	bl	8001020 <LCD_WR_DATA>
		LCD_WR_DATA(0x00);
 80028c2:	2000      	movs	r0, #0
 80028c4:	f7fe fbac 	bl	8001020 <LCD_WR_DATA>
		LCD_WR_DATA(0x5D);
 80028c8:	205d      	movs	r0, #93	; 0x5d
 80028ca:	f7fe fba9 	bl	8001020 <LCD_WR_DATA>
		LCD_WR_DATA(0x00);
 80028ce:	2000      	movs	r0, #0
 80028d0:	f7fe fba6 	bl	8001020 <LCD_WR_DATA>
		LCD_WR_DATA(0x74);
 80028d4:	2074      	movs	r0, #116	; 0x74
 80028d6:	f7fe fba3 	bl	8001020 <LCD_WR_DATA>
		LCD_WR_DATA(0x00);
 80028da:	2000      	movs	r0, #0
 80028dc:	f7fe fba0 	bl	8001020 <LCD_WR_DATA>
		LCD_WR_DATA(0x84);
 80028e0:	2084      	movs	r0, #132	; 0x84
 80028e2:	f7fe fb9d 	bl	8001020 <LCD_WR_DATA>
		LCD_WR_DATA(0x00);
 80028e6:	2000      	movs	r0, #0
 80028e8:	f7fe fb9a 	bl	8001020 <LCD_WR_DATA>
		LCD_WR_DATA(0x93);
 80028ec:	2093      	movs	r0, #147	; 0x93
 80028ee:	f7fe fb97 	bl	8001020 <LCD_WR_DATA>
		LCD_WR_DATA(0x00);
 80028f2:	2000      	movs	r0, #0
 80028f4:	f7fe fb94 	bl	8001020 <LCD_WR_DATA>
		LCD_WR_DATA(0xA2);
 80028f8:	20a2      	movs	r0, #162	; 0xa2
 80028fa:	f7fe fb91 	bl	8001020 <LCD_WR_DATA>
		LCD_WR_DATA(0x00);
 80028fe:	2000      	movs	r0, #0
 8002900:	f7fe fb8e 	bl	8001020 <LCD_WR_DATA>
		LCD_WR_DATA(0xB3);
 8002904:	20b3      	movs	r0, #179	; 0xb3
 8002906:	f7fe fb8b 	bl	8001020 <LCD_WR_DATA>
		LCD_WR_DATA(0x00);
 800290a:	2000      	movs	r0, #0
 800290c:	f7fe fb88 	bl	8001020 <LCD_WR_DATA>
		LCD_WR_DATA(0xBE);
 8002910:	20be      	movs	r0, #190	; 0xbe
 8002912:	f7fe fb85 	bl	8001020 <LCD_WR_DATA>
		LCD_WR_DATA(0x00);
 8002916:	2000      	movs	r0, #0
 8002918:	f7fe fb82 	bl	8001020 <LCD_WR_DATA>
		LCD_WR_DATA(0xC4);
 800291c:	20c4      	movs	r0, #196	; 0xc4
 800291e:	f7fe fb7f 	bl	8001020 <LCD_WR_DATA>
		LCD_WR_DATA(0x00);
 8002922:	2000      	movs	r0, #0
 8002924:	f7fe fb7c 	bl	8001020 <LCD_WR_DATA>
		LCD_WR_DATA(0xCD);
 8002928:	20cd      	movs	r0, #205	; 0xcd
 800292a:	f7fe fb79 	bl	8001020 <LCD_WR_DATA>
		LCD_WR_DATA(0x00);
 800292e:	2000      	movs	r0, #0
 8002930:	f7fe fb76 	bl	8001020 <LCD_WR_DATA>
		LCD_WR_DATA(0xD3);
 8002934:	20d3      	movs	r0, #211	; 0xd3
 8002936:	f7fe fb73 	bl	8001020 <LCD_WR_DATA>
		LCD_WR_DATA(0x00);
 800293a:	2000      	movs	r0, #0
 800293c:	f7fe fb70 	bl	8001020 <LCD_WR_DATA>
		LCD_WR_DATA(0xDC);
 8002940:	20dc      	movs	r0, #220	; 0xdc
 8002942:	f7fe fb6d 	bl	8001020 <LCD_WR_DATA>
		LCD_WR_DATA(0x00);
 8002946:	2000      	movs	r0, #0
 8002948:	f7fe fb6a 	bl	8001020 <LCD_WR_DATA>
		LCD_WR_DATA(0xF3);
 800294c:	20f3      	movs	r0, #243	; 0xf3
 800294e:	f7fe fb67 	bl	8001020 <LCD_WR_DATA>
		LCD_WR_DATA(0x00);
 8002952:	2000      	movs	r0, #0
 8002954:	f7fe fb64 	bl	8001020 <LCD_WR_DATA>

		LCD_WR_REG(0xE6);
 8002958:	20e6      	movs	r0, #230	; 0xe6
 800295a:	f7fe fb4d 	bl	8000ff8 <LCD_WR_REG>
		LCD_WR_DATA(0x11);
 800295e:	2011      	movs	r0, #17
 8002960:	f7fe fb5e 	bl	8001020 <LCD_WR_DATA>
		LCD_WR_DATA(0x00);
 8002964:	2000      	movs	r0, #0
 8002966:	f7fe fb5b 	bl	8001020 <LCD_WR_DATA>
		LCD_WR_DATA(0x34);
 800296a:	2034      	movs	r0, #52	; 0x34
 800296c:	f7fe fb58 	bl	8001020 <LCD_WR_DATA>
		LCD_WR_DATA(0x00);
 8002970:	2000      	movs	r0, #0
 8002972:	f7fe fb55 	bl	8001020 <LCD_WR_DATA>
		LCD_WR_DATA(0x56);
 8002976:	2056      	movs	r0, #86	; 0x56
 8002978:	f7fe fb52 	bl	8001020 <LCD_WR_DATA>
		LCD_WR_DATA(0x00);
 800297c:	2000      	movs	r0, #0
 800297e:	f7fe fb4f 	bl	8001020 <LCD_WR_DATA>
		LCD_WR_DATA(0x76);
 8002982:	2076      	movs	r0, #118	; 0x76
 8002984:	f7fe fb4c 	bl	8001020 <LCD_WR_DATA>
		LCD_WR_DATA(0x00);
 8002988:	2000      	movs	r0, #0
 800298a:	f7fe fb49 	bl	8001020 <LCD_WR_DATA>
		LCD_WR_DATA(0x77);
 800298e:	2077      	movs	r0, #119	; 0x77
 8002990:	f7fe fb46 	bl	8001020 <LCD_WR_DATA>
		LCD_WR_DATA(0x00);
 8002994:	2000      	movs	r0, #0
 8002996:	f7fe fb43 	bl	8001020 <LCD_WR_DATA>
		LCD_WR_DATA(0x66);
 800299a:	2066      	movs	r0, #102	; 0x66
 800299c:	f7fe fb40 	bl	8001020 <LCD_WR_DATA>
		LCD_WR_DATA(0x00);
 80029a0:	2000      	movs	r0, #0
 80029a2:	f7fe fb3d 	bl	8001020 <LCD_WR_DATA>
		LCD_WR_DATA(0x88);
 80029a6:	2088      	movs	r0, #136	; 0x88
 80029a8:	f7fe fb3a 	bl	8001020 <LCD_WR_DATA>
		LCD_WR_DATA(0x00);
 80029ac:	2000      	movs	r0, #0
 80029ae:	f7fe fb37 	bl	8001020 <LCD_WR_DATA>
		LCD_WR_DATA(0x99);
 80029b2:	2099      	movs	r0, #153	; 0x99
 80029b4:	f7fe fb34 	bl	8001020 <LCD_WR_DATA>
		LCD_WR_DATA(0x00);
 80029b8:	2000      	movs	r0, #0
 80029ba:	f7fe fb31 	bl	8001020 <LCD_WR_DATA>
		LCD_WR_DATA(0xBB);
 80029be:	20bb      	movs	r0, #187	; 0xbb
 80029c0:	f7fe fb2e 	bl	8001020 <LCD_WR_DATA>
		LCD_WR_DATA(0x00);
 80029c4:	2000      	movs	r0, #0
 80029c6:	f7fe fb2b 	bl	8001020 <LCD_WR_DATA>
		LCD_WR_DATA(0x99);
 80029ca:	2099      	movs	r0, #153	; 0x99
 80029cc:	f7fe fb28 	bl	8001020 <LCD_WR_DATA>
		LCD_WR_DATA(0x00);
 80029d0:	2000      	movs	r0, #0
 80029d2:	f7fe fb25 	bl	8001020 <LCD_WR_DATA>
		LCD_WR_DATA(0x66);
 80029d6:	2066      	movs	r0, #102	; 0x66
 80029d8:	f7fe fb22 	bl	8001020 <LCD_WR_DATA>
		LCD_WR_DATA(0x00);
 80029dc:	2000      	movs	r0, #0
 80029de:	f7fe fb1f 	bl	8001020 <LCD_WR_DATA>
		LCD_WR_DATA(0x55);
 80029e2:	2055      	movs	r0, #85	; 0x55
 80029e4:	f7fe fb1c 	bl	8001020 <LCD_WR_DATA>
		LCD_WR_DATA(0x00);
 80029e8:	2000      	movs	r0, #0
 80029ea:	f7fe fb19 	bl	8001020 <LCD_WR_DATA>
		LCD_WR_DATA(0x55);
 80029ee:	2055      	movs	r0, #85	; 0x55
 80029f0:	f7fe fb16 	bl	8001020 <LCD_WR_DATA>
		LCD_WR_DATA(0x00);
 80029f4:	2000      	movs	r0, #0
 80029f6:	f7fe fb13 	bl	8001020 <LCD_WR_DATA>
		LCD_WR_DATA(0x45);
 80029fa:	2045      	movs	r0, #69	; 0x45
 80029fc:	f7fe fb10 	bl	8001020 <LCD_WR_DATA>
		LCD_WR_DATA(0x00);
 8002a00:	2000      	movs	r0, #0
 8002a02:	f7fe fb0d 	bl	8001020 <LCD_WR_DATA>
		LCD_WR_DATA(0x43);
 8002a06:	2043      	movs	r0, #67	; 0x43
 8002a08:	f7fe fb0a 	bl	8001020 <LCD_WR_DATA>
		LCD_WR_DATA(0x00);
 8002a0c:	2000      	movs	r0, #0
 8002a0e:	f7fe fb07 	bl	8001020 <LCD_WR_DATA>
		LCD_WR_DATA(0x44);
 8002a12:	2044      	movs	r0, #68	; 0x44
 8002a14:	f7fe fb04 	bl	8001020 <LCD_WR_DATA>
		LCD_WR_DATA(0x00);
 8002a18:	2000      	movs	r0, #0
 8002a1a:	f7fe fb01 	bl	8001020 <LCD_WR_DATA>

		LCD_WR_REG(0xE7);
 8002a1e:	20e7      	movs	r0, #231	; 0xe7
 8002a20:	f7fe faea 	bl	8000ff8 <LCD_WR_REG>
		LCD_WR_DATA(0x32);
 8002a24:	2032      	movs	r0, #50	; 0x32
 8002a26:	f7fe fafb 	bl	8001020 <LCD_WR_DATA>
		LCD_WR_DATA(0x00);
 8002a2a:	2000      	movs	r0, #0
 8002a2c:	f7fe faf8 	bl	8001020 <LCD_WR_DATA>
		LCD_WR_DATA(0x55);
 8002a30:	2055      	movs	r0, #85	; 0x55
 8002a32:	f7fe faf5 	bl	8001020 <LCD_WR_DATA>
		LCD_WR_DATA(0x00);
 8002a36:	2000      	movs	r0, #0
 8002a38:	f7fe faf2 	bl	8001020 <LCD_WR_DATA>
		LCD_WR_DATA(0x76);
 8002a3c:	2076      	movs	r0, #118	; 0x76
 8002a3e:	f7fe faef 	bl	8001020 <LCD_WR_DATA>
		LCD_WR_DATA(0x00);
 8002a42:	2000      	movs	r0, #0
 8002a44:	f7fe faec 	bl	8001020 <LCD_WR_DATA>
		LCD_WR_DATA(0x66);
 8002a48:	2066      	movs	r0, #102	; 0x66
 8002a4a:	f7fe fae9 	bl	8001020 <LCD_WR_DATA>
		LCD_WR_DATA(0x00);
 8002a4e:	2000      	movs	r0, #0
 8002a50:	f7fe fae6 	bl	8001020 <LCD_WR_DATA>
		LCD_WR_DATA(0x67);
 8002a54:	2067      	movs	r0, #103	; 0x67
 8002a56:	f7fe fae3 	bl	8001020 <LCD_WR_DATA>
		LCD_WR_DATA(0x00);
 8002a5a:	2000      	movs	r0, #0
 8002a5c:	f7fe fae0 	bl	8001020 <LCD_WR_DATA>
		LCD_WR_DATA(0x67);
 8002a60:	2067      	movs	r0, #103	; 0x67
 8002a62:	f7fe fadd 	bl	8001020 <LCD_WR_DATA>
		LCD_WR_DATA(0x00);
 8002a66:	2000      	movs	r0, #0
 8002a68:	f7fe fada 	bl	8001020 <LCD_WR_DATA>
		LCD_WR_DATA(0x87);
 8002a6c:	2087      	movs	r0, #135	; 0x87
 8002a6e:	f7fe fad7 	bl	8001020 <LCD_WR_DATA>
		LCD_WR_DATA(0x00);
 8002a72:	2000      	movs	r0, #0
 8002a74:	f7fe fad4 	bl	8001020 <LCD_WR_DATA>
		LCD_WR_DATA(0x99);
 8002a78:	2099      	movs	r0, #153	; 0x99
 8002a7a:	f7fe fad1 	bl	8001020 <LCD_WR_DATA>
		LCD_WR_DATA(0x00);
 8002a7e:	2000      	movs	r0, #0
 8002a80:	f7fe face 	bl	8001020 <LCD_WR_DATA>
		LCD_WR_DATA(0xBB);
 8002a84:	20bb      	movs	r0, #187	; 0xbb
 8002a86:	f7fe facb 	bl	8001020 <LCD_WR_DATA>
		LCD_WR_DATA(0x00);
 8002a8a:	2000      	movs	r0, #0
 8002a8c:	f7fe fac8 	bl	8001020 <LCD_WR_DATA>
		LCD_WR_DATA(0x99);
 8002a90:	2099      	movs	r0, #153	; 0x99
 8002a92:	f7fe fac5 	bl	8001020 <LCD_WR_DATA>
		LCD_WR_DATA(0x00);
 8002a96:	2000      	movs	r0, #0
 8002a98:	f7fe fac2 	bl	8001020 <LCD_WR_DATA>
		LCD_WR_DATA(0x77);
 8002a9c:	2077      	movs	r0, #119	; 0x77
 8002a9e:	f7fe fabf 	bl	8001020 <LCD_WR_DATA>
		LCD_WR_DATA(0x00);
 8002aa2:	2000      	movs	r0, #0
 8002aa4:	f7fe fabc 	bl	8001020 <LCD_WR_DATA>
		LCD_WR_DATA(0x44);
 8002aa8:	2044      	movs	r0, #68	; 0x44
 8002aaa:	f7fe fab9 	bl	8001020 <LCD_WR_DATA>
		LCD_WR_DATA(0x00);
 8002aae:	2000      	movs	r0, #0
 8002ab0:	f7fe fab6 	bl	8001020 <LCD_WR_DATA>
		LCD_WR_DATA(0x56);
 8002ab4:	2056      	movs	r0, #86	; 0x56
 8002ab6:	f7fe fab3 	bl	8001020 <LCD_WR_DATA>
		LCD_WR_DATA(0x00);
 8002aba:	2000      	movs	r0, #0
 8002abc:	f7fe fab0 	bl	8001020 <LCD_WR_DATA>
		LCD_WR_DATA(0x23); 
 8002ac0:	2023      	movs	r0, #35	; 0x23
 8002ac2:	f7fe faad 	bl	8001020 <LCD_WR_DATA>
		LCD_WR_DATA(0x00);
 8002ac6:	2000      	movs	r0, #0
 8002ac8:	f7fe faaa 	bl	8001020 <LCD_WR_DATA>
		LCD_WR_DATA(0x33);
 8002acc:	2033      	movs	r0, #51	; 0x33
 8002ace:	f7fe faa7 	bl	8001020 <LCD_WR_DATA>
		LCD_WR_DATA(0x00);
 8002ad2:	2000      	movs	r0, #0
 8002ad4:	f7fe faa4 	bl	8001020 <LCD_WR_DATA>
		LCD_WR_DATA(0x45);
 8002ad8:	2045      	movs	r0, #69	; 0x45
 8002ada:	f7fe faa1 	bl	8001020 <LCD_WR_DATA>
		LCD_WR_DATA(0x00);
 8002ade:	2000      	movs	r0, #0
 8002ae0:	f7fe fa9e 	bl	8001020 <LCD_WR_DATA>

		LCD_WR_REG(0xE8);
 8002ae4:	20e8      	movs	r0, #232	; 0xe8
 8002ae6:	f7fe fa87 	bl	8000ff8 <LCD_WR_REG>
		LCD_WR_DATA(0x00);
 8002aea:	2000      	movs	r0, #0
 8002aec:	f7fe fa98 	bl	8001020 <LCD_WR_DATA>
		LCD_WR_DATA(0x00);
 8002af0:	2000      	movs	r0, #0
 8002af2:	f7fe fa95 	bl	8001020 <LCD_WR_DATA>
		LCD_WR_DATA(0x99);
 8002af6:	2099      	movs	r0, #153	; 0x99
 8002af8:	f7fe fa92 	bl	8001020 <LCD_WR_DATA>
		LCD_WR_DATA(0x00);
 8002afc:	2000      	movs	r0, #0
 8002afe:	f7fe fa8f 	bl	8001020 <LCD_WR_DATA>
		LCD_WR_DATA(0x87);
 8002b02:	2087      	movs	r0, #135	; 0x87
 8002b04:	f7fe fa8c 	bl	8001020 <LCD_WR_DATA>
		LCD_WR_DATA(0x00);
 8002b08:	2000      	movs	r0, #0
 8002b0a:	f7fe fa89 	bl	8001020 <LCD_WR_DATA>
		LCD_WR_DATA(0x88);
 8002b0e:	2088      	movs	r0, #136	; 0x88
 8002b10:	f7fe fa86 	bl	8001020 <LCD_WR_DATA>
		LCD_WR_DATA(0x00);
 8002b14:	2000      	movs	r0, #0
 8002b16:	f7fe fa83 	bl	8001020 <LCD_WR_DATA>
		LCD_WR_DATA(0x77);
 8002b1a:	2077      	movs	r0, #119	; 0x77
 8002b1c:	f7fe fa80 	bl	8001020 <LCD_WR_DATA>
		LCD_WR_DATA(0x00);
 8002b20:	2000      	movs	r0, #0
 8002b22:	f7fe fa7d 	bl	8001020 <LCD_WR_DATA>
		LCD_WR_DATA(0x66);
 8002b26:	2066      	movs	r0, #102	; 0x66
 8002b28:	f7fe fa7a 	bl	8001020 <LCD_WR_DATA>
		LCD_WR_DATA(0x00);
 8002b2c:	2000      	movs	r0, #0
 8002b2e:	f7fe fa77 	bl	8001020 <LCD_WR_DATA>
		LCD_WR_DATA(0x88);
 8002b32:	2088      	movs	r0, #136	; 0x88
 8002b34:	f7fe fa74 	bl	8001020 <LCD_WR_DATA>
		LCD_WR_DATA(0x00);
 8002b38:	2000      	movs	r0, #0
 8002b3a:	f7fe fa71 	bl	8001020 <LCD_WR_DATA>
		LCD_WR_DATA(0xAA);
 8002b3e:	20aa      	movs	r0, #170	; 0xaa
 8002b40:	f7fe fa6e 	bl	8001020 <LCD_WR_DATA>
		LCD_WR_DATA(0x00);
 8002b44:	2000      	movs	r0, #0
 8002b46:	f7fe fa6b 	bl	8001020 <LCD_WR_DATA>
		LCD_WR_DATA(0xBB);
 8002b4a:	20bb      	movs	r0, #187	; 0xbb
 8002b4c:	f7fe fa68 	bl	8001020 <LCD_WR_DATA>
		LCD_WR_DATA(0x00);
 8002b50:	2000      	movs	r0, #0
 8002b52:	f7fe fa65 	bl	8001020 <LCD_WR_DATA>
		LCD_WR_DATA(0x99);
 8002b56:	2099      	movs	r0, #153	; 0x99
 8002b58:	f7fe fa62 	bl	8001020 <LCD_WR_DATA>
		LCD_WR_DATA(0x00);
 8002b5c:	2000      	movs	r0, #0
 8002b5e:	f7fe fa5f 	bl	8001020 <LCD_WR_DATA>
		LCD_WR_DATA(0x66);
 8002b62:	2066      	movs	r0, #102	; 0x66
 8002b64:	f7fe fa5c 	bl	8001020 <LCD_WR_DATA>
		LCD_WR_DATA(0x00);
 8002b68:	2000      	movs	r0, #0
 8002b6a:	f7fe fa59 	bl	8001020 <LCD_WR_DATA>
		LCD_WR_DATA(0x55);
 8002b6e:	2055      	movs	r0, #85	; 0x55
 8002b70:	f7fe fa56 	bl	8001020 <LCD_WR_DATA>
		LCD_WR_DATA(0x00);
 8002b74:	2000      	movs	r0, #0
 8002b76:	f7fe fa53 	bl	8001020 <LCD_WR_DATA>
		LCD_WR_DATA(0x55);
 8002b7a:	2055      	movs	r0, #85	; 0x55
 8002b7c:	f7fe fa50 	bl	8001020 <LCD_WR_DATA>
		LCD_WR_DATA(0x00);
 8002b80:	2000      	movs	r0, #0
 8002b82:	f7fe fa4d 	bl	8001020 <LCD_WR_DATA>
		LCD_WR_DATA(0x44);
 8002b86:	2044      	movs	r0, #68	; 0x44
 8002b88:	f7fe fa4a 	bl	8001020 <LCD_WR_DATA>
		LCD_WR_DATA(0x00);
 8002b8c:	2000      	movs	r0, #0
 8002b8e:	f7fe fa47 	bl	8001020 <LCD_WR_DATA>
		LCD_WR_DATA(0x44);
 8002b92:	2044      	movs	r0, #68	; 0x44
 8002b94:	f7fe fa44 	bl	8001020 <LCD_WR_DATA>
		LCD_WR_DATA(0x00);
 8002b98:	2000      	movs	r0, #0
 8002b9a:	f7fe fa41 	bl	8001020 <LCD_WR_DATA>
		LCD_WR_DATA(0x55);
 8002b9e:	2055      	movs	r0, #85	; 0x55
 8002ba0:	f7fe fa3e 	bl	8001020 <LCD_WR_DATA>
		LCD_WR_DATA(0x00);
 8002ba4:	2000      	movs	r0, #0
 8002ba6:	f7fe fa3b 	bl	8001020 <LCD_WR_DATA>

		LCD_WR_REG(0xE9);
 8002baa:	20e9      	movs	r0, #233	; 0xe9
 8002bac:	f7fe fa24 	bl	8000ff8 <LCD_WR_REG>
		LCD_WR_DATA(0xAA);
 8002bb0:	20aa      	movs	r0, #170	; 0xaa
 8002bb2:	f7fe fa35 	bl	8001020 <LCD_WR_DATA>
		LCD_WR_DATA(0x00);
 8002bb6:	2000      	movs	r0, #0
 8002bb8:	f7fe fa32 	bl	8001020 <LCD_WR_DATA>
		LCD_WR_DATA(0x00);
 8002bbc:	2000      	movs	r0, #0
 8002bbe:	f7fe fa2f 	bl	8001020 <LCD_WR_DATA>
		LCD_WR_DATA(0x00);
 8002bc2:	2000      	movs	r0, #0
 8002bc4:	f7fe fa2c 	bl	8001020 <LCD_WR_DATA>

		LCD_WR_REG(0x00);
 8002bc8:	2000      	movs	r0, #0
 8002bca:	f7fe fa15 	bl	8000ff8 <LCD_WR_REG>
		LCD_WR_DATA(0xAA);
 8002bce:	20aa      	movs	r0, #170	; 0xaa
 8002bd0:	f7fe fa26 	bl	8001020 <LCD_WR_DATA>

		LCD_WR_REG(0xCF);
 8002bd4:	20cf      	movs	r0, #207	; 0xcf
 8002bd6:	f7fe fa0f 	bl	8000ff8 <LCD_WR_REG>
		LCD_WR_DATA(0x00);
 8002bda:	2000      	movs	r0, #0
 8002bdc:	f7fe fa20 	bl	8001020 <LCD_WR_DATA>
		LCD_WR_DATA(0x00);
 8002be0:	2000      	movs	r0, #0
 8002be2:	f7fe fa1d 	bl	8001020 <LCD_WR_DATA>
		LCD_WR_DATA(0x00);
 8002be6:	2000      	movs	r0, #0
 8002be8:	f7fe fa1a 	bl	8001020 <LCD_WR_DATA>
		LCD_WR_DATA(0x00);
 8002bec:	2000      	movs	r0, #0
 8002bee:	f7fe fa17 	bl	8001020 <LCD_WR_DATA>
		LCD_WR_DATA(0x00);
 8002bf2:	2000      	movs	r0, #0
 8002bf4:	f7fe fa14 	bl	8001020 <LCD_WR_DATA>
		LCD_WR_DATA(0x00);
 8002bf8:	2000      	movs	r0, #0
 8002bfa:	f7fe fa11 	bl	8001020 <LCD_WR_DATA>
		LCD_WR_DATA(0x00);
 8002bfe:	2000      	movs	r0, #0
 8002c00:	f7fe fa0e 	bl	8001020 <LCD_WR_DATA>
		LCD_WR_DATA(0x00);
 8002c04:	2000      	movs	r0, #0
 8002c06:	f7fe fa0b 	bl	8001020 <LCD_WR_DATA>
		LCD_WR_DATA(0x00);
 8002c0a:	2000      	movs	r0, #0
 8002c0c:	f7fe fa08 	bl	8001020 <LCD_WR_DATA>
		LCD_WR_DATA(0x00);
 8002c10:	2000      	movs	r0, #0
 8002c12:	f7fe fa05 	bl	8001020 <LCD_WR_DATA>
		LCD_WR_DATA(0x00);
 8002c16:	2000      	movs	r0, #0
 8002c18:	f7fe fa02 	bl	8001020 <LCD_WR_DATA>
		LCD_WR_DATA(0x00);
 8002c1c:	2000      	movs	r0, #0
 8002c1e:	f7fe f9ff 	bl	8001020 <LCD_WR_DATA>
		LCD_WR_DATA(0x00);
 8002c22:	2000      	movs	r0, #0
 8002c24:	f7fe f9fc 	bl	8001020 <LCD_WR_DATA>
		LCD_WR_DATA(0x00);
 8002c28:	2000      	movs	r0, #0
 8002c2a:	f7fe f9f9 	bl	8001020 <LCD_WR_DATA>
		LCD_WR_DATA(0x00);
 8002c2e:	2000      	movs	r0, #0
 8002c30:	f7fe f9f6 	bl	8001020 <LCD_WR_DATA>
		LCD_WR_DATA(0x00);
 8002c34:	2000      	movs	r0, #0
 8002c36:	f7fe f9f3 	bl	8001020 <LCD_WR_DATA>
		LCD_WR_DATA(0x00);
 8002c3a:	2000      	movs	r0, #0
 8002c3c:	f7fe f9f0 	bl	8001020 <LCD_WR_DATA>

		LCD_WR_REG(0xF0);
 8002c40:	20f0      	movs	r0, #240	; 0xf0
 8002c42:	f7fe f9d9 	bl	8000ff8 <LCD_WR_REG>
		LCD_WR_DATA(0x00);
 8002c46:	2000      	movs	r0, #0
 8002c48:	f7fe f9ea 	bl	8001020 <LCD_WR_DATA>
		LCD_WR_DATA(0x50);
 8002c4c:	2050      	movs	r0, #80	; 0x50
 8002c4e:	f7fe f9e7 	bl	8001020 <LCD_WR_DATA>
		LCD_WR_DATA(0x00);
 8002c52:	2000      	movs	r0, #0
 8002c54:	f7fe f9e4 	bl	8001020 <LCD_WR_DATA>
		LCD_WR_DATA(0x00);
 8002c58:	2000      	movs	r0, #0
 8002c5a:	f7fe f9e1 	bl	8001020 <LCD_WR_DATA>
		LCD_WR_DATA(0x00);
 8002c5e:	2000      	movs	r0, #0
 8002c60:	f7fe f9de 	bl	8001020 <LCD_WR_DATA>

		LCD_WR_REG(0xF3);
 8002c64:	20f3      	movs	r0, #243	; 0xf3
 8002c66:	f7fe f9c7 	bl	8000ff8 <LCD_WR_REG>
		LCD_WR_DATA(0x00);
 8002c6a:	2000      	movs	r0, #0
 8002c6c:	f7fe f9d8 	bl	8001020 <LCD_WR_DATA>

		LCD_WR_REG(0xF9);
 8002c70:	20f9      	movs	r0, #249	; 0xf9
 8002c72:	f7fe f9c1 	bl	8000ff8 <LCD_WR_REG>
		LCD_WR_DATA(0x06);
 8002c76:	2006      	movs	r0, #6
 8002c78:	f7fe f9d2 	bl	8001020 <LCD_WR_DATA>
		LCD_WR_DATA(0x10);
 8002c7c:	2010      	movs	r0, #16
 8002c7e:	f7fe f9cf 	bl	8001020 <LCD_WR_DATA>
		LCD_WR_DATA(0x29);
 8002c82:	2029      	movs	r0, #41	; 0x29
 8002c84:	f7fe f9cc 	bl	8001020 <LCD_WR_DATA>
		LCD_WR_DATA(0x00);
 8002c88:	2000      	movs	r0, #0
 8002c8a:	f7fe f9c9 	bl	8001020 <LCD_WR_DATA>

		LCD_WR_REG(0x3A);
 8002c8e:	203a      	movs	r0, #58	; 0x3a
 8002c90:	f7fe f9b2 	bl	8000ff8 <LCD_WR_REG>
		LCD_WR_DATA(0x55);	//66
 8002c94:	2055      	movs	r0, #85	; 0x55
 8002c96:	f7fe f9c3 	bl	8001020 <LCD_WR_DATA>

		LCD_WR_REG(0x11);
 8002c9a:	2011      	movs	r0, #17
 8002c9c:	f7fe f9ac 	bl	8000ff8 <LCD_WR_REG>
		HAL_Delay(100);
 8002ca0:	2064      	movs	r0, #100	; 0x64
 8002ca2:	f002 f8c9 	bl	8004e38 <HAL_Delay>
		LCD_WR_REG(0x29);
 8002ca6:	2029      	movs	r0, #41	; 0x29
 8002ca8:	f7fe f9a6 	bl	8000ff8 <LCD_WR_REG>
		LCD_WR_REG(0x35);
 8002cac:	2035      	movs	r0, #53	; 0x35
 8002cae:	f7fe f9a3 	bl	8000ff8 <LCD_WR_REG>
		LCD_WR_DATA(0x00);
 8002cb2:	2000      	movs	r0, #0
 8002cb4:	f7fe f9b4 	bl	8001020 <LCD_WR_DATA>

		LCD_WR_REG(0x51);
 8002cb8:	2051      	movs	r0, #81	; 0x51
 8002cba:	f7fe f99d 	bl	8000ff8 <LCD_WR_REG>
		LCD_WR_DATA(0xFF);
 8002cbe:	20ff      	movs	r0, #255	; 0xff
 8002cc0:	f7fe f9ae 	bl	8001020 <LCD_WR_DATA>
		LCD_WR_REG(0x53);
 8002cc4:	2053      	movs	r0, #83	; 0x53
 8002cc6:	f7fe f997 	bl	8000ff8 <LCD_WR_REG>
		LCD_WR_DATA(0x2C);
 8002cca:	202c      	movs	r0, #44	; 0x2c
 8002ccc:	f7fe f9a8 	bl	8001020 <LCD_WR_DATA>
		LCD_WR_REG(0x55);
 8002cd0:	2055      	movs	r0, #85	; 0x55
 8002cd2:	f7fe f991 	bl	8000ff8 <LCD_WR_REG>
		LCD_WR_DATA(0x82);
 8002cd6:	2082      	movs	r0, #130	; 0x82
 8002cd8:	f7fe f9a2 	bl	8001020 <LCD_WR_DATA>
		LCD_WR_REG(0x2c);
 8002cdc:	202c      	movs	r0, #44	; 0x2c
 8002cde:	f7fe f98b 	bl	8000ff8 <LCD_WR_REG>
 8002ce2:	f001 b847 	b.w	8003d74 <TFTLCD_Init+0x235c>
	}else if(lcddev.id==0x5510)
 8002ce6:	4b04      	ldr	r3, [pc, #16]	; (8002cf8 <TFTLCD_Init+0x12e0>)
 8002ce8:	889b      	ldrh	r3, [r3, #4]
 8002cea:	f245 5210 	movw	r2, #21776	; 0x5510
 8002cee:	4293      	cmp	r3, r2
 8002cf0:	f040 8781 	bne.w	8003bf6 <TFTLCD_Init+0x21de>
 8002cf4:	e002      	b.n	8002cfc <TFTLCD_Init+0x12e4>
 8002cf6:	bf00      	nop
 8002cf8:	20000204 	.word	0x20000204
	{
		LCD_WriteReg(0xF000,0x55);
 8002cfc:	2155      	movs	r1, #85	; 0x55
 8002cfe:	f44f 4070 	mov.w	r0, #61440	; 0xf000
 8002d02:	f7fe f9b3 	bl	800106c <LCD_WriteReg>
		LCD_WriteReg(0xF001,0xAA);
 8002d06:	21aa      	movs	r1, #170	; 0xaa
 8002d08:	f24f 0001 	movw	r0, #61441	; 0xf001
 8002d0c:	f7fe f9ae 	bl	800106c <LCD_WriteReg>
		LCD_WriteReg(0xF002,0x52);
 8002d10:	2152      	movs	r1, #82	; 0x52
 8002d12:	f24f 0002 	movw	r0, #61442	; 0xf002
 8002d16:	f7fe f9a9 	bl	800106c <LCD_WriteReg>
		LCD_WriteReg(0xF003,0x08);
 8002d1a:	2108      	movs	r1, #8
 8002d1c:	f24f 0003 	movw	r0, #61443	; 0xf003
 8002d20:	f7fe f9a4 	bl	800106c <LCD_WriteReg>
		LCD_WriteReg(0xF004,0x01);
 8002d24:	2101      	movs	r1, #1
 8002d26:	f24f 0004 	movw	r0, #61444	; 0xf004
 8002d2a:	f7fe f99f 	bl	800106c <LCD_WriteReg>
		//AVDD Set AVDD 5.2V
		LCD_WriteReg(0xB000,0x0D);
 8002d2e:	210d      	movs	r1, #13
 8002d30:	f44f 4030 	mov.w	r0, #45056	; 0xb000
 8002d34:	f7fe f99a 	bl	800106c <LCD_WriteReg>
		LCD_WriteReg(0xB001,0x0D);
 8002d38:	210d      	movs	r1, #13
 8002d3a:	f24b 0001 	movw	r0, #45057	; 0xb001
 8002d3e:	f7fe f995 	bl	800106c <LCD_WriteReg>
		LCD_WriteReg(0xB002,0x0D);
 8002d42:	210d      	movs	r1, #13
 8002d44:	f24b 0002 	movw	r0, #45058	; 0xb002
 8002d48:	f7fe f990 	bl	800106c <LCD_WriteReg>
		//AVDD ratio
		LCD_WriteReg(0xB600,0x34);
 8002d4c:	2134      	movs	r1, #52	; 0x34
 8002d4e:	f44f 4036 	mov.w	r0, #46592	; 0xb600
 8002d52:	f7fe f98b 	bl	800106c <LCD_WriteReg>
		LCD_WriteReg(0xB601,0x34);
 8002d56:	2134      	movs	r1, #52	; 0x34
 8002d58:	f24b 6001 	movw	r0, #46593	; 0xb601
 8002d5c:	f7fe f986 	bl	800106c <LCD_WriteReg>
		LCD_WriteReg(0xB602,0x34);
 8002d60:	2134      	movs	r1, #52	; 0x34
 8002d62:	f24b 6002 	movw	r0, #46594	; 0xb602
 8002d66:	f7fe f981 	bl	800106c <LCD_WriteReg>
		//AVEE -5.2V
		LCD_WriteReg(0xB100,0x0D);
 8002d6a:	210d      	movs	r1, #13
 8002d6c:	f44f 4031 	mov.w	r0, #45312	; 0xb100
 8002d70:	f7fe f97c 	bl	800106c <LCD_WriteReg>
		LCD_WriteReg(0xB101,0x0D);
 8002d74:	210d      	movs	r1, #13
 8002d76:	f24b 1001 	movw	r0, #45313	; 0xb101
 8002d7a:	f7fe f977 	bl	800106c <LCD_WriteReg>
		LCD_WriteReg(0xB102,0x0D);
 8002d7e:	210d      	movs	r1, #13
 8002d80:	f24b 1002 	movw	r0, #45314	; 0xb102
 8002d84:	f7fe f972 	bl	800106c <LCD_WriteReg>
		//AVEE ratio
		LCD_WriteReg(0xB700,0x34);
 8002d88:	2134      	movs	r1, #52	; 0x34
 8002d8a:	f44f 4037 	mov.w	r0, #46848	; 0xb700
 8002d8e:	f7fe f96d 	bl	800106c <LCD_WriteReg>
		LCD_WriteReg(0xB701,0x34);
 8002d92:	2134      	movs	r1, #52	; 0x34
 8002d94:	f24b 7001 	movw	r0, #46849	; 0xb701
 8002d98:	f7fe f968 	bl	800106c <LCD_WriteReg>
		LCD_WriteReg(0xB702,0x34);
 8002d9c:	2134      	movs	r1, #52	; 0x34
 8002d9e:	f24b 7002 	movw	r0, #46850	; 0xb702
 8002da2:	f7fe f963 	bl	800106c <LCD_WriteReg>
		//VCL -2.5V
		LCD_WriteReg(0xB200,0x00);
 8002da6:	2100      	movs	r1, #0
 8002da8:	f44f 4032 	mov.w	r0, #45568	; 0xb200
 8002dac:	f7fe f95e 	bl	800106c <LCD_WriteReg>
		LCD_WriteReg(0xB201,0x00);
 8002db0:	2100      	movs	r1, #0
 8002db2:	f24b 2001 	movw	r0, #45569	; 0xb201
 8002db6:	f7fe f959 	bl	800106c <LCD_WriteReg>
		LCD_WriteReg(0xB202,0x00);
 8002dba:	2100      	movs	r1, #0
 8002dbc:	f24b 2002 	movw	r0, #45570	; 0xb202
 8002dc0:	f7fe f954 	bl	800106c <LCD_WriteReg>
		//VCL ratio
		LCD_WriteReg(0xB800,0x24);
 8002dc4:	2124      	movs	r1, #36	; 0x24
 8002dc6:	f44f 4038 	mov.w	r0, #47104	; 0xb800
 8002dca:	f7fe f94f 	bl	800106c <LCD_WriteReg>
		LCD_WriteReg(0xB801,0x24);
 8002dce:	2124      	movs	r1, #36	; 0x24
 8002dd0:	f64b 0001 	movw	r0, #47105	; 0xb801
 8002dd4:	f7fe f94a 	bl	800106c <LCD_WriteReg>
		LCD_WriteReg(0xB802,0x24);
 8002dd8:	2124      	movs	r1, #36	; 0x24
 8002dda:	f64b 0002 	movw	r0, #47106	; 0xb802
 8002dde:	f7fe f945 	bl	800106c <LCD_WriteReg>
		//VGH 15V (Free pump)
		LCD_WriteReg(0xBF00,0x01);
 8002de2:	2101      	movs	r1, #1
 8002de4:	f44f 403f 	mov.w	r0, #48896	; 0xbf00
 8002de8:	f7fe f940 	bl	800106c <LCD_WriteReg>
		LCD_WriteReg(0xB300,0x0F);
 8002dec:	210f      	movs	r1, #15
 8002dee:	f44f 4033 	mov.w	r0, #45824	; 0xb300
 8002df2:	f7fe f93b 	bl	800106c <LCD_WriteReg>
		LCD_WriteReg(0xB301,0x0F);
 8002df6:	210f      	movs	r1, #15
 8002df8:	f24b 3001 	movw	r0, #45825	; 0xb301
 8002dfc:	f7fe f936 	bl	800106c <LCD_WriteReg>
		LCD_WriteReg(0xB302,0x0F);
 8002e00:	210f      	movs	r1, #15
 8002e02:	f24b 3002 	movw	r0, #45826	; 0xb302
 8002e06:	f7fe f931 	bl	800106c <LCD_WriteReg>
		//VGH ratio
		LCD_WriteReg(0xB900,0x34);
 8002e0a:	2134      	movs	r1, #52	; 0x34
 8002e0c:	f44f 4039 	mov.w	r0, #47360	; 0xb900
 8002e10:	f7fe f92c 	bl	800106c <LCD_WriteReg>
		LCD_WriteReg(0xB901,0x34);
 8002e14:	2134      	movs	r1, #52	; 0x34
 8002e16:	f64b 1001 	movw	r0, #47361	; 0xb901
 8002e1a:	f7fe f927 	bl	800106c <LCD_WriteReg>
		LCD_WriteReg(0xB902,0x34);
 8002e1e:	2134      	movs	r1, #52	; 0x34
 8002e20:	f64b 1002 	movw	r0, #47362	; 0xb902
 8002e24:	f7fe f922 	bl	800106c <LCD_WriteReg>
		//VGL_REG -10V
		LCD_WriteReg(0xB500,0x08);
 8002e28:	2108      	movs	r1, #8
 8002e2a:	f44f 4035 	mov.w	r0, #46336	; 0xb500
 8002e2e:	f7fe f91d 	bl	800106c <LCD_WriteReg>
